:020000040800F2
:1000000088CB00200D0300080725000827220008E0
:1000100005250008EF050008792A00080000000007
:100020000000000000000000000000004D02000879
:100030003D07000800000000A9020008D1250008C3
:1000400027030008270300082703000827030008E8
:1000500027030008270300082703000827030008D8
:1000600027030008270300082703000827030008C8
:1000700027030008270300082703000827030008B8
:1000800027030008270300082703000827030008A8
:10009000F1050008270300082703000827030008CC
:1000A0002703000827030008270300082703000888
:1000B0002703000827030008270300082703000878
:1000C0002703000827030008270300082703000868
:1000D000270300082703000827030008612A0008F7
:1000E0002703000827030008270300082703000848
:1000F0002703000827030008270300082703000838
:100100002703000827030008270300082703000827
:100110002703000827030008A1260008270300087A
:100120002703000827030008270300082703000807
:1001300027030008270300082703000827030008F7
:1001400027030008270300082703000827030008E7
:100150002703000827030008270300086D2A00086A
:1001600027030008270300082703000827030008C7
:1001700027030008270300082703000800000000E9
:100180002703000827030008E1270008ED270008DF
:100190002703000827030008270300082703000897
:1001A00000000000000000002703000800F002F833
:1001B00000F03CF80AA090E8000C82448344AAF1C5
:1001C0000107DA4501D100F031F8AFF2090EBAE8C3
:1001D0000F0013F0010F18BFFB1A43F0010318477B
:1001E000F83A0000183B0000103A24BF78C878C1E4
:1001F000FAD8520724BF30C830C144BF04680C602D
:10020000704700000023002400250026103A28BF74
:1002100078C1FBD8520728BF30C148BF0B60704778
:100220001FB503F02EFD1FBD10B510BD00F0A6F9DF
:100230001146FFF7F5FF02F075FC00F0C4F903B4B6
:10024000FFF7F2FF03BC00F0CBF900002C4B19685C
:100250000868B0E8F04F80F30988BFF36F8F4FF064
:10026000000080F311887047000000000848006813
:10027000006880F308884FF0000080F3148862B6AD
:1002800061B6BFF34F8FBFF36F8F00DF00BF00BFBA
:1002900008ED00E0DFF80C00016841F47001016036
:1002A000704700BF88ED00E0EFF30980BFF36F8F68
:1002B000134B1A681EF0100F08BF20ED108A20E9BA
:1002C000F04F106009B44FF0500080F31188BFF375
:1002D0004F8FBFF36F8F03F017F94FF0000080F3DB
:1002E000118809BC19680868B0E8F04F1EF0100FBB
:1002F00008BFB0EC108A80F30988BFF36F8F704796
:1003000020000020EFF30580704700000948804777
:1003100009480047FEE7FEE7FEE7FEE7FEE7FEE7E7
:10032000FEE7FEE7FEE7FEE704480549054A064BFF
:100330007047000091260008AD01000888C5002024
:1003400088CB002088C7002088C7002053EA020C11
:1003500000F069802DE9F04B4FF00006002B1FBF25
:10036000B3FA83F503FA05F424FA05F65E4012BFEA
:100370001643B2FA82F502FA05F4C5F120051EBF54
:1003800022FA05FC44EA0C04203556EA044C4FEAF4
:10039000144418BF641C4FF000084FF0000990424D
:1003A00071EB030C39D3002919BFB1FA81F701FAB7
:1003B00007F6B0FA80F700FA07F6C7F120071EBF6C
:1003C00020FA07FC46EA0C062037B6FBF4FCA7EB44
:1003D0000507103F07F01F0BCBF120060CFA0BFBB3
:1003E0002CFA06F644BFB3460026202FA4BF5E4673
:1003F0004FF0000B5BEA060C08BF4FF0010B19EB46
:100400000B09ABFB027C48EB0608C01B06FB02CCC9
:100410000BFB03CC71EB0C01C1E70B4602464146D6
:100420004846BDE8F08B13B54FF000004FF00001D7
:10043000AFF30080BDE81C407047032A40F23080D3
:1004400010F0030C00F0158011F8013BBCF1020F15
:10045000624498BF11F801CB00F8013B38BF11F896
:10046000013BA2F1040298BF00F801CB38BF00F8AD
:10047000013B11F0030300F02580083AC0F008802A
:1004800051F8043B083A51F804CBA0E80810F5E70E
:10049000121D5CBF51F8043B40F8043BAFF30080F1
:1004A000D20724BF11F8013B11F801CB48BF11F866
:1004B000012B24BF00F8013B00F801CB48BF00F836
:1004C000012B704710B5203AC0F00B80B1E81850EE
:1004D000203AA0E81850B1E81850A0E81850BFF42E
:1004E000F5AF5FEA027C24BFB1E81850A0E81850CD
:1004F00044BF18C918C0BDE810405FEA827C24BF21
:1005000051F8043B40F8043B08BF7047D20728BFAE
:1005100031F8023B48BF11F8012B28BF20F8023BFD
:1005200048BF00F8012B70474FF0000200B513469A
:1005300094469646203922BFA0E80C50A0E80C5003
:10054000B1F12001BFF4F7AF090728BFA0E80C50B4
:1005500048BF0CC05DF804EB890028BF40F8042BAD
:1005600008BF704748BF20F8022B11F0804F18BF1A
:1005700000F8012B7047704770477047754600F0D0
:100580002BF8AE4605006946534620F00700854625
:1005900018B020B5FFF7C8FEBDE820404FF00006B8
:1005A0004FF000074FF000084FF0000B21F007015B
:1005B000AC46ACE8C009ACE8C009ACE8C009ACE89E
:1005C000C0098D46704710B50446AFF30080204641
:1005D000BDE81040FFF733BE0048704728C5002033
:1005E00001491820ABBEFEE7260002007047FEE777
:1005F000014800F032BA00000C03002041600021E5
:100600008160C160016108214161034600F11C0263
:10061000011D014800F0C2B80C03002030B50346AC
:100620000020B3F81940024601215D5C491C2A44B0
:1006300092B21929F9DBA24200D1012030BD00009D
:1006400070B504462DED028B0D4634F9010F00EE16
:10065000100AB8EEC00A81ED000A617AD4F80600EB
:1006600061F31F6003F0A2FA9FED2E1B53EC112BD8
:1006700003F044F903F010F96860B4F90A0003F0DC
:1006800095FA9FED2A8B53EC182B03F037F903F002
:1006900003F9A860B4F90C0003F088FA53EC182BA6
:1006A00003F02CF903F0F8F8E860B4F90E0003F059
:1006B0007DFA53EC182B03F021F903F0EDF82861D3
:1006C000B4F9100003F072FA53EC182B03F016F98A
:1006D00003F0E2F86861B4F9120003F067FA9FEDE5
:1006E000158B53EC182B03F009F903F0D5F8A8612A
:1006F000B4F9140003F05AFA53EC182B03F0FEF887
:1007000003F0CAF8E861B4F9160003F04FFA53ECAD
:10071000182B03F0F3F803F0BFF82862BDEC028B4E
:1007200070BD0000000000000000794000000000E3
:100730000088C3400000000000408F407047000068
:100740001CB5416000218160C160016108214161E7
:1007500005A10346D1E90021CDE90021011D6A462A
:10076000034800F01BF81CBDFFFFFFFFFFFFFFFC6D
:100770000C03002072B6FEE790F82020012A07D073
:10078000022A05D0416A41F480214162012070476C
:10079000006842690A43426100207047F0B590F852
:1007A00020500468A468012D05D0022D03D0416AB1
:1007B00041F4802153E014F0406F01D1E5004BD5A6
:1007C000C4F30164022C03D9416A41F4000146E0FC
:1007D0000125A5401D608D684FF4C0739DB1CE68A2
:1007E00035434E6845EAC605066803EB0417F55124
:1007F0004FF4C275076805EB04150E697E51097D3B
:10080000012905D009E00E88CD6845EA4655EBE799
:1008100001684E5946F480764E511179D2F8055050
:100820004FF4C67641EA0525016806EB04168D51A2
:100830001178D2F801204FF4C47541EA0221026810
:1008400005EB04155151006803EB0411425842F0C6
:10085000010242500020F0BD416A41F400114162A2
:100860000120F0BD10B590F82020012A07D0022AFF
:1008700005D0416A41F480214162012010BD3B480E
:10088000D0F8002242F00102C0F80022D0F8002285
:1008900022F47C52C0F80022D0F800224B6A42EACF
:1008A0000322C0F800220A7D02F01F0301229A40B1
:1008B000D0F81C329343C0F81C32CB69B3B9D0F8DE
:1008C0000C329343C0F80C328C894B6864F31F439D
:1008D0004C6900EBC404C4F840320C890B6864F323
:1008E0001F434C6900EBC404C4F84432CB69012BAC
:1008F00016D1D0F80C321343C0F80C320C884B6878
:1009000064F31F434C6900EBC404C4F840320C8903
:10091000CB6864F31F434C6900EBC404C4F8443251
:100920008B69002BD0F804320ED01343C0F8043288
:100930000B69002BD0F8143208D01343C0F81432DE
:10094000096A012904D008E09343EFE79343F5E7F0
:10095000D0F81C121143C0F81C12D0F8001221F07C
:100960000101C0F80012002010BD0000006400402A
:10097000704730B590F82040012C05D0022C03D0F0
:10098000416A41F480215DE00468002955D0246962
:10099000A40754D04FF4D874056804EB01142D5902
:1009A00015F00405956005682D594ED0ED08556089
:1009B00005682C5904F00204D4604FF4DA74056819
:1009C00004EB01142D5905F00F05156105682D592B
:1009D000C5F30725956105682C59240C54614FF423
:1009E000DC72046802EB0112A4581C700468A4585D
:1009F000240A5C700468A458240C9C700468A258F3
:100A0000120EDA704FF4DE72046802EB0112A45881
:100A10001C710468A458240A5C710468A458240C4E
:100A20009C710468A258120EDA71006881B10169E4
:100A300041F020010161002030BDE468A8E7416A6F
:100A400041F400114162012030BD6D0D1560AFE72A
:100A5000C16841F02001C160EDE72DE9F05F054676
:100A6000006800244669D0F804908768D0F80CB07C
:100A7000D0F810A0D0F81880F10748D0F90714D0AA
:100A800001218160B80703D5284600F024FA0CE064
:100A9000780702D54FF4006407E0380702D54FF419
:100AA000805402E0284600F015FAF80516D52968AA
:100AB0004FF480708860B80503D5284600F00DFA21
:100AC0000CE0780502D544F4005407E0380502D55F
:100AD00044F4804402E0284600F0FEF9F80316D5FD
:100AE00029684FF480308860B80303D5284600F0A9
:100AF000F6F90CE0780302D544F4004407E038032B
:100B000002D544F4803402E0284600F0E7F93007CB
:100B100007D55FEACB6004D52968102044F400743F
:100B2000C86070074FF0080707D55FEA0B7004D55F
:100B30002868C760284600F057F9B00706D528682E
:100B4000C068800702D0284600F050F9700607D52B
:100B50005FEACA6004D52968102044F48064086103
:100B6000B00607D55FEA0A7004D5286807612846F1
:100B700000F080F9F00606D528680069800702D0E9
:100B8000284600F078F9B00308D55FEAC96005D5BA
:100B9000296810204860284600F06EF9F00307D558
:100BA0005FEA097004D528684760284600F098F984
:100BB000300446D55FEA497040D5F00504D55FEAB8
:100BC000C87001D044F00104B00504D55FEA887014
:100BD00001D544F00204700504D55FEA487001D5E0
:100BE00044F00404300529D518F0700F26D008F021
:100BF0007000402815D006DC102809D020280AD023
:100C0000302816D10AE050280ED0602811D10EE00D
:100C100044F008040DE044F010040AE044F020041D
:100C200007E044F0400404E044F0800401E044F4B0
:100C300080742868816921F070018161296804202D
:100C40004860002C05D0686A204368622846FFF798
:100C50008FFEBDE8F09F70B5040003D094F820002B
:100C600010B104E0012070BD204600F081F820683A
:100C7000016841F00101016000F0CCFA054605264B
:100C800004E000F0C7FA401B0A2811D82068406829
:100C9000C007F6D02068016821F00201016000F071
:100CA000B9FA05460BE000F0B5FA401B0A2806D950
:100CB000606A40F40030606284F82060D2E7206807
:100CC00040688007EFD4207E0128206801683DD06D
:100CD00021F080010160607E01282068016838D021
:100CE00021F040010160A07E01282068016833D016
:100CF00021F020010160E07E0128206801682ED0EB
:100D000041F010010160207F01282068016829D08E
:100D100021F008010160607F01282068016824D06B
:100D200021F004010160D4E902010843D4E904126E
:100D3000114308436168491E08432168C8610020C7
:100D40006062012084F82000002070BD41F0800125
:100D5000C0E741F04001C5E741F02001CAE721F0BA
:100D60001001CFE741F00801D4E741F00401D9E7D1
:100D700010B586B0044614216846FFF7D5FB174925
:100D80002068884227D116480021026842F000728C
:100D90000260006800F00070059011481038026889
:100DA00042F0080202600068022200F0080005908C
:100DB0000320CDE90210CDE9000209200490694624
:100DC000084800F0FBF800220521142000F0C0FACA
:100DD000142000F0AFFA06B010BD0000006400401F
:100DE00040380240000C02407047000010B51D4919
:100DF000044600680968884233D11A4B0021143B2D
:100E0000A3F11C022046FFF7B4FD18BB154830388B
:100E1000007F01281ED113491348303902F00CFA23
:100E2000124911480A681438521C0A60322A08DA3A
:100E300090ED050AD1ED010A30EE200A81ED010A9C
:100E400008E007D191ED010ADFED090A80EE201AD2
:100E500080ED221A2046BDE810404FF00201FFF756
:100E60008BBC10BD0C030020C087002008000020B0
:100E700000004842704770477047000070B5044654
:100E800090F82000012804D0606A40F400206062DD
:100E900018E0022084F820002068016821F0010198
:100EA000016000F0B7F905460EE000BF00F0B2F9AE
:100EB000401B0A2808D9606A40F4003060620520AF
:100EC00084F82000012070BD20684068C007EDD183
:100ED000606270BD704770477047704770477047D9
:100EE00070472DE9F0410446876D00F093F90646FE
:100EF00094F835000025022806D08020606584F82B
:100F000034500120BDE8F0812068016821F016010D
:100F100001602068416921F080014161206C08B9BD
:100F2000A06C20B12068016821F0080101602068F0
:100F3000016821F0010101600CE000F06BF9801BF9
:100F4000052807D920206065032084F8350084F83F
:100F50003450D7E720680068C007EED194F85C10E1
:100F60003F208840B860012084F8350084F8345070
:100F70000020C7E790F83510022903D08021416591
:100F800001207047052180F835100068016821F0C4
:100F9000010101600020704770B5044600F03AF985
:100FA0000546601C02D004480078044400F032F981
:100FB000401BA042FAD370BD100000202DE9F84F6D
:100FC000DFF8F8A10022012403254FF00F090AF1F0
:100FD000040BAAF1040E00BF0B6804FA02F63340BA
:100FE000B34270D10F7907F00307012F01D0022F10
:100FF00016D187684FEA420805FA08FC27EA0C0771
:10100000D1F80CC00CFA08FC4CEA070CC0F808C078
:101010004768B7430E79C6F3001696403E434660D4
:101020000E79F643B6070AD0C7684FEA420C05FAB4
:101030000CF6B7438E6806FA0CF63E43C6600E798E
:1010400006F00306022E10D1D60800EB8608D8F869
:10105000206057074FEAD76C09FA0CF7BE430F69B7
:1010600007FA0CF73743C8F8207006684FEA420CBD
:1010700005FA0CF7BE430F7907F0030707FA0CF7E0
:10108000374307604E6816F4403F1CD04C4E37681B
:1010900047F480473760366822F0030706F480463D
:1010A0000096484E07EB060CDCF8086897073F0FE0
:1010B00009FA07F826EA0806DFF80C81404503D153
:1010C0004FF0000841E072E0DFF80081404502D1B6
:1010D0004FF0010839E0DFF8F880404502D14FF0C9
:1010E000020832E0DFF8EC80404502D14FF00308FF
:1010F0002BE0DFF8E480404502D14FF0040824E003
:10110000DFF8D880404502D14FF005081DE0DFF838
:10111000D080404502D14FF0060816E0DFF8C480C9
:10112000404502D14FF007080FE0DFF8BC80404592
:1011300002D14FF0080808E0DFF8B080404502D146
:101140004FF0090801E04FF00A0808FA07F848EAEA
:101150000608CCF80888DAF800605746D1F804C0D1
:101160009E435FEACC2C00D51E433E60DBF8006056
:101170005F46D1F804C09E435FEA8C2C00D51E4325
:101180003E60DEF800607746D1F804C09E435FEA17
:101190008C3C00D51E433E60084F083F3E68D1F8A6
:1011A00004C09E435FEACC3C00D51E433E60521C07
:1011B000102AFFF411AFBDE8F88F0000083C014091
:1011C0004438024000300140000002400004024068
:1011D00000080240000C02400010024000140240CF
:1011E00000180240001C024000200240002402407F
:1011F0000069084000D001207047426921EA0203DB
:101200000A4043EA0241816170470AB18161704737
:101210000904FBE7014880687047000010000020C7
:1012200002488168027811448160704710000020F4
:101230000B4810B5016841F400710160016841F488
:1012400080610160016841F480710160032000F059
:101250009FF80F2000F006F800F050F8002010BDB5
:10126000003C024030B505461F4887B000240168A5
:1012700041F010010160006806A900F01000009024
:1012800001A800F031F90498A8B100F04DF9400030
:101290001649174AB0FBF1F11648491E026040F2A8
:1012A000E732C0E90324C0E90114846100F08EFB39
:1012B000040003D015E000F037F9E9E70D4800F02D
:1012C000C5FB04000DD1362000F034F8102D07D2F4
:1012D00000222946362000F03BF80748056000E070
:1012E000012407B0204630BD4038024040420F0084
:1012F000001000408C040020140000200C4882B034
:10130000016841F480410160006800F48040009071
:101310000748001F016841F0805101600068002209
:1013200000F0805000900F21901E02B000F010B825
:1013300044380240002809DB00F01F0201219140DF
:101340004009800000F1E020C0F800117047000063
:10135000F0B40E4B1B680C46C3F30223C3F1070520
:10136000042D00D90425191D072901D2002300E00E
:10137000DB1E012606FA05F1491E214099409E40D8
:10138000761E16403143F0BC01F077BB0CED00E057
:10139000064900F0070208684FF6FF03184040EACC
:1013A0000220034A10430860704700000CED00E083
:1013B0000000FA052DE9F0470E46050065D0DFF87C
:1013C0001481D8F80000F7B200F00F00B04207D245
:1013D00088F80070D8F8000000F00F00B04254D137
:1013E00028683D4C810712D5400703D5206840F49A
:1013F000E05020602878000703D5206840F4604062
:1014000020602068A96820F0F00008432060287858
:10141000C0072DD0304968680839012812D0022849
:1014200013D0032811D00968890700292DDA216813
:1014300021F0030101432160FFF7ECFE814641F2F8
:10144000883A0EE009688903EFE709688901ECE74B
:10145000FFF7E0FEA0EB0901514502D90320BDE8EA
:10146000F0872068696800F00C00B0EB810FEFD1C5
:10147000D8F80010404601F00F01B14207D90770BB
:10148000006800F00F00B04201D00120E7E72878A3
:10149000400705D52068E96820F4E0500843206043
:1014A0002878000706D52068296920F4604040EAC2
:1014B000C100206000F058F82168084AC1F3031108
:1014C000515CC8400649086006480068FFF7CAFE3C
:1014D0000020C4E7003C024008380240B43C000849
:1014E0001C000020140000200F2202600C4A136828
:1014F00003F003034360136803F0F0038360136891
:1015000003F4E053C36012684FF4E05303EAD202DD
:1015100002610448006800F00F0008607047000096
:1015200008380240003C0240044805490068096848
:10153000044AC1F38221515CC84070471C0000205E
:1015400008380240C43C000804480549006809689E
:10155000044AC1F34231515CC84070471C0000206E
:1015600008380240C43C0008154810B5006810F067
:101570000C02144813D01449042A0FD0082A0ED1A3
:101580000F4C241F2268236802F03F025B0207D53C
:101590002068C0F38810A0FB010106E0084610BDDA
:1015A0002168C1F38811A1FB00010023FEF7CEFEE4
:1015B0002168C1F30141491C4900B0FBF1F010BDA5
:1015C000083802400024F400001BB7002DE9F84F52
:1015D00004006ED02078DFF84C93C007A9F1040511
:1015E0004AD009F104000168C1F38101012908D042
:1015F0000068C0F3810002280AD1D9F80000400237
:1016000006D52868800337D560680028E1D033E02C
:101610006068B0F5803F10D0B0F5A02F286810D0DA
:1016200020F480302860286820F4802028606068DA
:10163000A8B1FFF7EFFD06460DE0286840F48030C2
:10164000F4E740F480202860F7E700BFFFF7E2FDF1
:10165000801B642873D828688003F7D50CE0FFF757
:10166000D9FD064605E000BFFFF7D4FD801B6428C6
:10167000F0D828688003F7D42078DFF8AC828007A0
:101680004FF0000A3ED5A748001D016811F00C0F6D
:1016900008D00068C0F3810002280BD1D9F80000FF
:1016A000400207D42868800716D5E068012800D1D9
:1016B00012E033E1E068B8B10120C8F80000FFF79C
:1016C000A9FD064605E000BFFFF7A4FD801B022828
:1016D000C0D828688007F7D52868216920F0F8006D
:1016E00040EAC10028600DE0C8F800A0FFF792FDB5
:1016F000064604E0FFF78EFD801B02281FD82868ED
:101700008007F7D42078000722D5864F8748616983
:10171000703771B101210160FFF77CFD064604E0DE
:10172000FFF778FD801B022809D838688007F7D5B5
:101730000EE0C0F800A0FFF76DFD064605E082E070
:10174000FFF768FD801B02287DD838688007F7D432
:101750002078400768D5DFF8CCB100270BF13C0BAF
:10176000DBF80000C0000BD4DBF8001041F0805122
:10177000CBF80010DBF80000012700F0805000904B
:101780006B4E3068C00510D4306840F48070306013
:10179000FFF740FD009005E0FFF73CFD0099401A7F
:1017A000022850D83068C005F6D55E4EA0686C3669
:1017B00001280FD00528306810D020F001003060DB
:1017C000306820F004003060A068B8B1FFF722FD57
:1017D00000900FE0306840F00100F4E740F00400B2
:1017E0003060F7E7FFF716FD0099411A41F28830A3
:1017F000814266D830688007F4D50EE0FFF70AFD15
:10180000009007E0FFF706FD0099411A41F2883089
:10181000814256D830688007F4D42FB1DBF800102D
:1018200021F08051CBF80010A069C8B33D49091DD3
:101830000968C1F3810102294AD00228504607D025
:10184000C8F8600000E03CE0FFF7E4FC04463BE041
:101850004746C8F86000FFF7DDFC064605E000BF1C
:10186000FFF7D8FC801B02282BD828688001F7D40A
:10187000D4E907010843A16A2E4A490802EB014155
:10188000626A41EA8211084394F82C1040EA01612F
:10189000C9F8001001203866FFF7BCFC044606E0DA
:1018A0003EE000BFFFF7B6FC001B022809D82868FD
:1018B0008001F7D534E000BFFFF7ACFC001B022825
:1018C00002D90320BDE8F88F28688001F4D427E00E
:1018D0000128F7D0D9F80000E26900F480019142B4
:1018E0001CD1226A00F03F01914217D147F6C07126
:1018F000626A0140B1EB821F10D1A26A4FF0FF3340
:1019000000F4403103EB5202B1EB024F06D194F8E0
:101910002C1000F07060B0EB016F01D00120D1E716
:101920000020CFE70438024000004742800E4742C3
:10193000007000400000FFFF7047704770B590F8DE
:101940003C20012A32D0012480F83C40022280F859
:101950003D2003685A689D6822F070060A68324389
:101960005A60134B02689A4214D0B2F1804F11D0E2
:10197000104B9A420ED0104B9A420BD00F4B9A420A
:1019800008D00F4B9A4205D00E4B9A4202D00E4B14
:101990009A4204D1496825F080031943916080F888
:1019A0003D40002180F83C10084670BD022070BD0B
:1019B000000001400004004000080040000C00400E
:1019C00000040140004001400018004010B5040030
:1019D00003D094F83D0010B107E0012010BD0020B5
:1019E00084F83C00204600F01FF8022084F83D00F7
:1019F000211D206800F05AFE012084F8460084F87A
:101A00003E0084F83F0084F8400084F8410084F8E8
:101A1000420084F8430084F8440084F8450084F8C8
:101A20003D00002010BD000008B50068B0F1804FF7
:101A300008D10548016841F001010160006800F02B
:101A40000100009008BD00004038024090F83D10B1
:101A5000012901D001207047022180F83D10016862
:101A6000CA6842F00102CA6000681149884214D075
:101A7000B0F1804F11D00F4988420ED00E498842F4
:101A80000BD00E49884208D00D49884205D00D4937
:101A9000884202D00C49884204D1816801F00701D4
:101AA000062903D0016841F0010101600020704760
:101AB000000001400004004000080040000C00400D
:101AC00000040140004001400018004070B5044689
:101AD00090F83C000025012817D0012684F83C60CE
:101AE000022084F83D002068826822F0770222F408
:101AF0007F4282600868502838D00DDC20284FD003
:101B000005DC90B3102811D14AE0022070BD3028C6
:101B100046D040280AD13BE060282FD070280DD055
:101B2000B0F5805F03D0B0F5005F12D0012584F8D6
:101B30003D60002084F83C00284670BDCB68D1E9A8
:101B40000121206800F016FE2068816841F07701CD
:101B500009E0CB68D1E90121206800F00BFE206884
:101B6000816841F480418160E1E719E0CA68496811
:101B7000206800F011FE5021206806E0CA6849681C
:101B8000206800F01AFE6021206800F0FDFDCEE71D
:101B9000CA684968206800F0FFFD40212068F4E72A
:101BA000226801461046F0E7704770B504460068A9
:101BB00001694FF00005C943890715D4C168C943BD
:101BC000890711D4E91E016101202077206880690E
:101BD0008007204602D0FFF7E7FF04E000F098F806
:101BE000204600F096F8257720680169C943490727
:101BF00017D4C168C943490713D46FF004010161C8
:101C0000022020772068806910F4407F204602D0AF
:101C1000FFF7CAFF04E000F07BF8204600F079F8F7
:101C2000257720680169C943090716D4C168C943EB
:101C3000090712D46FF008010161042020772068A1
:101C4000C0698007204602D0FFF7AEFF04E000F035
:101C50005FF8204600F05DF8257720680169C943E8
:101C6000C90617D4C168C943C90613D46FF010015F
:101C70000161082020772068C06910F4407F204669
:101C800002D0FFF791FF04E000F042F8204600F098
:101C900040F8257720680169C943C90708D1C168A0
:101CA000C943C90704D1891E0161204600F032F8FA
:101CB00020680169C943090609D4C168C9430906F6
:101CC00005D46FF0800101612046FFF735FE2068E2
:101CD0000169C943490609D4C168C943490605D405
:101CE0006FF040010161204600F01EF82068016994
:101CF000C94389060BD4C168C943890607D46FF06C
:101D0000200101612046BDE87040FFF716BE70BD9E
:101D10007047704700680349884201D1FFF780BAD5
:101D20007047000000100040704770477047000087
:101D3000F8B5016804460868CA684B6910F00F0FCF
:101D40004FF000055AD003F0010602F490773743B4
:101D500065D0C10705D0D10503D5216C41F0010143
:101D60002164410705D5D90703D0216C41F0020158
:101D70002164810705D5D90703D0216C41F0040106
:101D80002164010707D502F02001314303D0216C03
:101D900041F008012164216C00293BD0800604D564
:101DA000900602D5204600F056FD20684069216C5F
:101DB000C0F3801001F00801014320462BD000F051
:101DC00023FD20684069400621D52068143050E882
:101DD000001F21F0400140E80012002AF5D1A06B5D
:101DE000A8B16C490165A06BFFF7C4F8002811D0B9
:101DF000A06B016D01B0BDE8F040084783060ED529
:101E000093060CD52046BDE8F84000F024BD2046DE
:101E1000FFF78CFFF8BDFFF789FF2564F8BD266B3F
:101E20002023012E79D1C60677D5D60675D5086848
:101E3000486800904869400640D5A16B0868406832
:101E40000004000CEAD0A28D8242E7D9E085C8697F
:101E5000B0F5807F2DD020680C3050E8001F21F4B1
:101E6000807140E80012002AF5D12068143050E853
:101E7000001F21F0010140E80012002AF5D120687E
:101E8000143050E8001F21F0400140E80012002A01
:101E9000F5D184F83E30256320680C3050E8001FEF
:101EA00021F0100140E80012002AF5D1A06BFFF7E5
:101EB00018F8A08DE18D401A81B229E0A08DE18D46
:101EC000401A81B2E08D0028A8D00029A6D0206851
:101ED0000C3050E8002F22F4907240E80026002ECB
:101EE000F5D12068143050E8002F22F0010240E8BC
:101EF0000026002EF5D184F83E30256320680C3092
:101F000050E8002F22F0100240E80023002BF5D10A
:101F10002046FFF70AFFF8BDFFE705062BD515069B
:101F200029D594F83D002128F5D1A068B0F5805F4F
:101F300001D12069B0B1206A411C2162216800787A
:101F40004860E08C401E0004000CE084E3D120686F
:101F5000C16821F08001C1602068C16841F0400182
:101F6000C160D8E7206A0088C0F308004860206A92
:101F7000801C2062E5E74006CDD55006CBD5CA6867
:101F8000204622F04002CA6084F83D3000F04AF951
:101F9000C1E70000F927000870B5040004D094F8E8
:101FA0003D00002510B106E0012070BD84F83C50D2
:101FB000204600F023F8242084F83D002068C16802
:101FC00021F40051C160204600F0A6FC20680169A0
:101FD00021F4904101612068416921F02A014161A9
:101FE0002068C16841F40051C1602564202084F854
:101FF0003D0084F83E00002070BD0000F0B587B0C1
:10200000044614216846FEF78FFA5149DFF83CC1B7
:10201000276800234E4A10390225032408264D481C
:1020200067451FD1176847F080471760126802F0B4
:10203000804205920A6842F010020A60096802AF05
:1020400001F010010591E101CDE9001587E8580084
:102050006946FEF7B3FF002205215220FFF778F909
:10206000522021E0DFF8F0C0674521D1176847F022
:1020700000471760126802F0004205920A6842F0B9
:1020800010020A600968CDE9004501F01001CDE9B0
:102090000461CDE902346946FEF790FF0022052174
:1020A0005320FFF755F95320FFF744F907B0F0BD6F
:1020B0002A48874222D1106840F4802010601068BE
:1020C00000F480200590086840F008000860086867
:1020D000029300F0080005904FF44070CDE9000530
:1020E0000720CDE9034069461D48FEF767FF00223F
:1020F00005212720FFF72CF92720D5E7194887422B
:10210000D4D11348001D026842F02002026000682A
:1021100000F020000590086840F040000860086862
:1021200002AA00F0400005904FF48440CDE900057C
:1021300082E8580069460C48FEF740FF002205215E
:102140004720FFF705F94720AEE700000078004080
:102150004038024000100240007C0040004800402F
:10216000000C0240001401400018024090F83E307C
:10217000202B0ED159B152B190F83C30012B08D030
:10218000012380F83C300023036300F04BBC0120A6
:10219000704702207047000010B500681849884257
:1021A00006D1184800F0B0F901221649164822E07D
:1021B0001649884208D11648044600F0A5F912488D
:1021C00001222146443016E01249884208D11248C3
:1021D000044600F099F90C480122214688380AE0AB
:1021E0000E4988420BD10E48044600F08DF906488E
:1021F000012221464438BDE81040FFF7B7BF10BDAB
:10220000004800401C050020040400200014014088
:10221000C02500200078004064460020007C00407B
:10222000086700207047FEE770B50B4D0421284673
:10223000FEF7DEFF094C01280BD10A20FEF7ACFEA9
:1022400004212846FEF7D4FF012802D12068C043AC
:102250002060206870BD00000004024000000020E3
:1022600010B5094B012808D002211846FEF7C5FF1A
:10227000BDE810406420FEF78FBE0122BDE810408B
:1022800002211846FEF7C1BF00180240144810B5DD
:10229000124901600321416000214FF40022816056
:1022A000C0E903124FF44012426101764176817613
:1022B000C17601774177FEF7CEFC08B1FEF75AFAF6
:1022C000074800F0B3FC0648FEF7D8FD002803D00D
:1022D000BDE81040FEF74EBA10BD0000006400409B
:1022E0000C03002000B587B01C2206496846FEF7A3
:1022F000E9F80021684600F0B9FC0349086007B01E
:1023000000BD0000983C00080400002030B587B0F4
:1023100014216846FEF708F925480024016841F0B9
:1023200010010160016801F010010591016841F0A0
:1023300040010160016801F040010591016841F030
:1023400001010160016801F001010591016841F09E
:1023500008010160016801F008010591016841F080
:1023600080010160016801F080010591016841F080
:102370000201016000680F4D00F00200059000228C
:1023800002212846FEF741FF0420CDE900046946FA
:1023900009480294FEF712FE022000900120CDE9C8
:1023A0000104694628460394FEF708FE07B030BDD5
:1023B00030380240001802400004024010B586B0D8
:1023C00000241748009401940294039404944FF05D
:1023D00080410594016041F61F41C0E9011441F2BA
:1023E0008731C0E9031480218161FFF7EFFA08B15A
:1023F000FEF7C0F94FF48050009069460848FFF797
:1024000065FB08B1FEF7B6F9049404A904480594E5
:10241000FFF794FA002801D0FEF7ACF906B010BD22
:10242000340300200C4810B50A4901604FF4E13133
:102430004160002181600C22C160C0E90412816109
:10244000C161FFF7A9FD002803D0BDE81040FEF7E9
:1024500091B910BD007800407C0300200C4810B5F5
:102460000A4901604FF4E1314160002181600C2292
:10247000C160C0E904128161C161FFF78DFD0028D0
:1024800003D0BDE81040FEF775B910BD007C0040D8
:10249000C00300200C4810B50A4901604FF4E13137
:1024A0004160002181600C22C160C0E90412816199
:1024B000C161FFF771FD002803D0BDE81040FEF7B1
:1024C00059B910BD00480040040400200C4810B564
:1024D0000A4901604FF4E1314160002181600C2222
:1024E000C160C0E904128161C161FFF755FD002898
:1024F00003D0BDE81040FEF73DB910BD0014014007
:1025000048040020FEE7FEE770B50446007894F822
:10251000822E012104F68465002642B1012A0ED0E4
:10252000022A17D0032A1BD084F8826E70BD3A2885
:10253000FCD184F8821E84F8831E705570BD0D286E
:1025400001D1022109E094F8831E4A1C84F8832EED
:10255000485570BD0A2800D1032184F8821EF2E795
:102560002846FEF75BF8012825D194F8810E1D223C
:1025700000EB4001C1EB401020442946401CFDF710
:102580005CFF94F8810E00EBC00100EB4002C2EB4F
:10259000401004EB81012044401C01F6A461FEF7C9
:1025A0004FF894F8810E401CC0B284F8810E802848
:1025B00001D184F8816E1D212846FDF7B5FF84F80E
:1025C000826E84F8836E70BD012000F043FBFBE750
:1025D00010B5502080F31188BFF34F8FBFF36F8F7A
:1025E00001F092F818B104494FF0805008600020C3
:1025F00080F3118810BD000004ED00E030B593B009
:1026000030216846FDF790FF14210CA8FDF78CFFE0
:102610001D480025016841F080510160006800F00C
:10262000805011901948016841F4404101600068F0
:10263000022400F440401190012000900004019019
:102640008001CDE9064006200890A820CDE90904C4
:1026500007200B906846FEF7B9FF08B172B6FEE797
:102660000CA90F2081E831004FF4A0500F904FF4D7
:102670008050109005210CA8FEF79CFE002801D088
:1026800072B6FEE713B030BD403802400070004023
:102690000248016841F470010160704788ED00E074
:1026A0000148FFF782BA00008C040020F0B50268F0
:1026B000254C264D264E274F274B4FF0804CA042ED
:1026C00009D0604507D0A84205D0B04203D0B84237
:1026D00001D0984204D122F0700E4A6842EA0E02FC
:1026E000A0421BD0604519D0A84217D0B04215D0E7
:1026F000B84213D0984211D0184DA8420ED0184DB0
:10270000A8420BD0174DA84208D0174DA84205D0BB
:10271000164DA84202D0164DA84203D122F44075AE
:10272000CA682A434D6922F080022A4302608A68FF
:10273000C2620A688262A04201D0984201D109694E
:10274000016301214161F0BD00000140000400402F
:1027500000080040000C004000040140004001401F
:10276000004401400048014000180040001C0040A7
:102770000020004010B5846842EA032224F47F441C
:102780000A432243826010BD826822F070020A432D
:1027900042F007018160704710B5036A046A24F0B3
:1027A00001040462846924F0F00444EA021423F072
:1027B0000A020A438461026210BD10B5036A23F065
:1027C000100303628369046A23F4704343EA02320C
:1027D00024F0A00343EA01118261016210BD0000F0
:1027E0000148FFF7A5BA00007C0300200148FFF76D
:1027F0009FBA0000C003002010B5806B0021C18586
:10280000C184FFF793FA10BD01680C3151E8002F25
:1028100022F4907241E80023002BF5D101681431B5
:1028200051E8002F22F0010241E80023002BF5D1EE
:10283000016B012909D101680C3151E8002F22F008
:10284000100241E80023002BF5D1202180F83E1032
:1028500000210163704708B590F83E10222901D08D
:10286000022008BD82684FF480539A4201D1016969
:1028700021B1816A9A421BD04AB10AE00268816A9A
:102880005268C2F308020A80816A891C08E0026962
:1028900072B10268526802F07F020A70816A491CB4
:1028A0008162C18D491E0904090CC18503D019E05C
:1028B00002685268F1E70168CA6822F02002CA6023
:1028C0000168CA6822F48072CA6001684A6922F00D
:1028D00001024A61202180F83E10016B012903D0DA
:1028E000FFF75AFC002008BD0021016301680C318C
:1028F00051E8002F22F0100241E80023002BF5D10F
:1029000001680A68D20602D50A6849680091818D7B
:10291000FFF70BFAE6E7000070B5044600680169AE
:10292000E26821F44051114301612169A068E26924
:1029300008436169114308432168CA6849F20C637E
:102940009A430243CA6020684169A26921F4407138
:102950001143416131492068884202D030498842A0
:1029600002D1FEF7F1FD01E0FEF7DEFDE269002392
:10297000192164253226B2F5004F626828D0A0FBE9
:102980000101930F9200FDF7E1FC0146B0FBF5F069
:102990006FF01802504301EB800006EB0010B0FB13
:1029A000F5F000F0F002B1FBF5F002EB0012B1FB24
:1029B000F5F06FF01803584301EB800006EB0010B0
:1029C000B0FBF5F000F00F0021681044886070BD86
:1029D000A0FB010192185B41FDF7B8FC0146B0FB7A
:1029E000F5F00201B1FBF5F06FF01803584301EB6D
:1029F000800006EBC000B0FBF5F000F0F80002EB41
:102A00004002B1FBF5F0584301EB800006EBC0003B
:102A1000B0FBF5F000F00700D6E700000010014021
:102A20000014014081628285C28500210164222256
:102A300080F83E2080F83C10016921B10168CA6825
:102A400042F48072CA6001684A6942F001024A6138
:102A50000068C16841F02001C1600020704700009B
:102A60000148FFF765B90000040400200148FFF7A2
:102A70005FB9000048040020FEE70907090E00289E
:102A800004DB00F1E02080F80014704700F00F0034
:102A900000F1E02080F8141D7047B4EEE00AF1EE7A
:102AA00010FA01DCB0EE600A7047B4EEE00AF1EE15
:102AB00010FA01D3B0EE600A7047012131EE601ABE
:102AC000814070EE600A491E00EE101AB8EEC00A8E
:102AD00020EE800AC0EE010ABDEEE00A10EE100AF8
:102AE000704700009FED090A002180ED020A80ED89
:102AF000030A80ED000A80ED220A41618161C16113
:102B000080ED040A80ED010A70470000000000001B
:102B100080ED041AC0ED021A80ED032A80EC020A4F
:102B2000704700002DED028BA0B0FEF781FBFFF790
:102B300065FD2F48FFF7D6FFFFF7E8FBFFF7A6FB81
:102B4000FFF7C4FCFFF73AFCFFF76CFCFFF786FCCD
:102B5000FFF7A0FC01212748FDF7F2FD02212648DE
:102B6000FDF70AFE012225492548FFF7FFFA012259
:102B700024492548FFF7FAFA012224492448FFF79F
:102B8000F5FA012223492448FFF7F0FAFFF7AAFBE0
:102B900000F067F8164C9FED218A04F10C0500BF88
:102BA000FFF742FB012805D0FFF75AFB0A20FEF78A
:102BB000F3F9F5E7FFF754FB01210E48FDF71EFD81
:102BC000B0EE480AB7EE002AF1EE041AB0EE081A89
:102BD000F0EE400A0648FFF79BFF80222946684630
:102BE000FDF770FC94E80E00024800F069F8DDE79C
:102BF000AC870020D40400200C0300201C0500201A
:102C000004040020C0250020480400206446002061
:102C10007C03002008670020C003002000000000A3
:102C200001460020842900D0C81C704700B58BB035
:102C300000210122CDE90612059100910191029136
:102C4000039104910E21CDE908216946FDF70AFEA2
:102C50000BB000BD10B500B9012000F0F1FB002061
:102C600010BD10B500F012FC002010BD7FB50D4660
:102C700004464169B0F9080081B1A16971B1FFF75B
:102C8000CFFFD4E905128DE80700D4E900102B46E8
:102C9000226900F00EFD039004B070BDFFF7C0FF85
:102CA00003A9CDE90001208A2B4682B2D4E90010A5
:102CB00000F0D2FC012801D00020EDE70398EBE7FB
:102CC0000FB4DFED372A70B50246DDED050AB0EE30
:102CD000620AFFF7E2FE9FED331AF0EE410AFFF7BA
:102CE000E4FEB0EE403ADDED060ABBEE0E0AFFF759
:102CF000D4FEF3EE0E0AFFF7D8FEB0EE402A9FEDA9
:102D00002A4ADFED2A4A9FED2A5ADFED2A5A9FED23
:102D10002A6AF1EE041AF7EE003A1020F0EE620A89
:102D2000B0EE430AFFF7C9FE05460C20B3EE0E1ABB
:102D3000FBEE0E0AB0EE420AFFF7BFFE04460C207F
:102D4000B0EE641AF0EE440AB0EE610AFFF7B5FE89
:102D500003460C20B0EE451AF0EE440AB0EE630ACA
:102D6000FFF7ABFE06460C20B0EE461AF0EE650A01
:102D7000B0EE610AFFF7A1FE290A02F81C1F210923
:102D800055709170210141EA1321D17013713109FD
:102D90005171010A9171D07170BC5DF814FB000093
:102DA000DA0F49C1DA0F4941000000000000FA4380
:102DB0000000C842000040C2000040422DE9F0413E
:102DC000184C0F460546E6682068001D00F070FAB2
:102DD00038B9206890F82C1001208840216981437F
:102DE0002161681C07D137B12168BDE8F0410E4868
:102DF000091D00F0A1BA20683544B542456021683C
:102E000005D2A06BBDE8F041091D00F07DBA606BF2
:102E1000091D00F079FAA06A854200D2A562BDE8DA
:102E2000F081000020000020148900202DE9F041ED
:102E3000054600F08DFA2E4CA068401CA06020686A
:102E40002C4F10B1606940B32DE02560A0680128C7
:102E500029D1002606EB860007EB800000F046FA39
:102E6000761C072EF6D323488C3000F03FFA214819
:102E7000A03000F03BFA1F48B43000F037FA1D488C
:102E8000C83000F033FA1B48DC3000F02FFA194844
:102E90008C3060631430A06305E02068E96AC06A82
:102EA000884200D82560606A401C6062E96A01209F
:102EB000226988401043206101EB810007EB80000C
:102EC000291D00F039FA00F063FA606900280CD07F
:102ED0002068E96AC06A884207D207494FF08050EB
:102EE0000860BFF34F8FBFF36F8FBDE8F081000024
:102EF000200000203888002004ED00E010B50446D2
:102F000090F8510058B101280CD002280FD0502061
:102F100080F31188BFF34F8FBFF36F8FFEE7206BF5
:102F200000F04AFA2046BDE8104000F045BA10BD56
:102F300010484FF47051420706D0C01D0D4920F0D3
:102F40000700411AC1F570510B4A00230144C2E940
:102F500000030839183A21F0070111604B600B603B
:102F60000B1AC0E9001393604FF0004053605061AA
:102F7000704700002889002074000020144E154C72
:102F8000A6F1C8074FF08058DFF84C9012E000BF60
:102F900000F0DEF9F068C568281D00F089F9A06826
:102FA000401EA0606068401E606000F0F1F9284695
:102FB000FFF7A4FF60680028EAD138680128F9D932
:102FC000C9F80080BFF34F8FBFF36F8FF2E70000A7
:102FD000008900202000002004ED00E02DE9F047EA
:102FE0009A46DDE9098481466FF00303206B03EB09
:102FF00082021044089E20F00707780707D050206F
:1030000080F31188BFF34F8FBFF36F8FFEE700256A
:1030100061B1002023180A5C83F834200A5C12B1E5
:10302000401C1028F6D384F8435001E084F8345053
:10303000072E00D30626E662C4E91165201D00F0C4
:1030400060F904F1180000F05CF92461C6F1070092
:103050006462A061E56484F850505246494638469F
:1030600000F0C0F82060B8F1000F01D0C8F80040AF
:10307000BDE8F08730B5114900E011460A68824288
:10308000FBD34B685C18844203D140681844486005
:10309000084643681C18944209D1084C183C24681F
:1030A000A24209D052681A4442600A68126802605B
:1030B000814200D0086030BD0460F9E77400002050
:1030C0000648416B096829B1416BC968C9684968FC
:1030D000816270474FF0FF31FAE7000020000020C6
:1030E00008484068401C4FF0500080F3118804D01D
:1030F000BFF34F8FBFF36F8FFEE7BFF34F8FBFF369
:103100006F8FFEE77C0000202DE9F0410546002787
:1031100000F0F2F9324E306808B9FFF709FF706924
:1031200005424ED1C5B3083568070ED005F007003B
:10313000C0F108000544680707D0502080F31188CB
:10314000BFF34F8FBFF36F8FFEE72DB370688542DB
:1031500037D82348183001460C6801E020460C4659
:103160006168A94202D221680029F7D131688C42F6
:1031700027D007682168016060680837411B102963
:103180000FD96019420708D0502080F31188BFF38F
:103190004F8FBFF36F8FFEE713E041606560FFF76D
:1031A00069FF61687068401A7060B268904200D22E
:1031B000B060706901430020C4E90001F068401C60
:1031C000F06000F007FB780707D0502080F31188EB
:1031D000BFF34F8FBFF36F8FFEE73846BDE8F08136
:1031E0005C00002010B5031F4FF080741C601B1F93
:1031F00021F001011960191F044B0B6014390A609A
:10320000091F6FF0020244380A6010BDE130000867
:1032100001EE100A70EEC00A0120B8EEC11A884013
:10322000401E21EE201A00EE900AF8EEE01AC1EEE0
:10323000210A30EE800A704710B5024631F81D0FA2
:10324000DFED170A8B78CC781B0143EA1413097958
:1032500004F00F0441EA042440BA10219FED110A42
:10326000FFF7D6FFF0EE400A0C21B0EE602AF3EE35
:103270000E0ABBEE0E0A1846FFF7CAFFF0EE400A30
:103280000C21F0EE602ADFED080A9FED080A2046C7
:10329000FFF7BEFF82ED020A82EC022A10BD000099
:1032A000DA0F4941DA0F49C100004042000040C234
:1032B000D0E9013201699A60D0E901235A604A6875
:1032C000824201D182684A60002202610868401E81
:1032D0000860086870470000034B036003F1540066
:1032E00008608020106070478800002000F108010D
:1032F0004FF0FF32C0E90112C1600161002101609D
:10330000704700210161704730B50B685A1C02D02C
:1033100000F1080202E0026904E0224654682568D0
:103320009D42FAD953684B6099608A605160086188
:103330000168491C016030BD42684A6093688B6037
:1033400093685960916008610168491C0160704789
:10335000502080F31188BFF34F8FBFF36F8F0A495E
:103360004868401C486001280CD10848006810F0EB
:10337000FF0F07D0502080F31188BFF34F8FBFF3AA
:103380006F8FFEE7704700007C00002004ED00E036
:103390000849486828B1401E486001D180F311886F
:1033A0007047502080F31188BFF34F8FBFF36F8FAA
:1033B000FEE700007C00002070B500282AD0164DE2
:1033C000A0F1080460686969084207D1502080F3C1
:1033D0001188BFF34F8FBFF36F8FFEE722683AB1BA
:1033E000502080F31188BFF34F8FBFF36F8FFEE73C
:1033F0008843606000F080F860686968084468602D
:103400002046FFF737FE2869401C2861BDE8704060
:1034100000F0E0B970BD00005C0000204FF0E0203B
:1034200000210161816105494FF47A720968B1FB9D
:10343000F2F1491E41610721016170471C00002023
:1034400010B5020014D00F48006B38B1502080F343
:103450001188BFF34F8FBFF36F8FFEE700F04CF87A
:1034600000211046FFF7AAFC00F0B4F9002807D1AC
:1034700005494FF080500860BFF34F8FBFF36F8F47
:1034800010BD00002000002004ED00E010B586B063
:103490000024039405AA04A903A80494FFF71CFFC1
:1034A000DDE903010094CDE9011000230EA11048CD
:1034B000059A00F0FEF80F490028C86211D050208C
:1034C00080F31188BFF34F8FBFF36F8F4FF0FF3042
:1034D000886201204861CC6006B0BDE8104000F071
:1034E00041B806B010BD000049444C450000000042
:1034F0007D2F0008200000200248016B491C016359
:1035000070470000200000201448016B11B1012118
:10351000C16170470021C1610169B1FA81F1C1F156
:103520001F0101EB81020E4951F822306BB101EB12
:10353000820101F108034A6852684A609A4201D147
:1035400052684A60D16801607047502080F311884A
:10355000BFF34F8FBFF36F8FFEE700002000002006
:10356000388800201CB537480168374A914207D196
:10357000502080F31188BFF34F8FBFF36F8FFEE7AA
:1035800000683149491E884207D1502080F31188D4
:10359000BFF34F8FBFF36F8FFEE72C490878019080
:1035A000FF20087008788DF800009DF800009DF855
:1035B000002000F0F000904207D0502080F31188E6
:1035C000BFF34F8FBFF36F8FFEE79DF80000204CD5
:1035D00000F0500020700720A06005E09DF800205A
:1035E00052008DF80020401E9DF800201206F5D4F0
:1035F000A060032807D0502080F31188BFF34F8FBD
:10360000BFF36F8FFEE74FF44070A0600198087021
:103610000C482030016841F470010160016841F0FC
:1036200070410160FFF7FAFE00206060FCF732FE97
:103630000848016841F040410160FCF717FE002096
:103640001CBD000000ED00E071C20F4100E400E08D
:103650007C00002034EF00E02DE9FF5F8346DDE9C8
:103660000E87994616468A469000FFF74DFD0500E5
:103670001CD05420FFF748FD040014D0002025631F
:1036800084F85100CDE90240CDE900874B4632462F
:1036900051465846FFF7A2FC2046FFF7C7FB012022
:1036A00004B0BDE8F09F2846FFF786FE4FF0FF30DC
:1036B000F6E7F0B585B0DDE90B640A9DA6B1DCB193
:1036C000542700972663022684F85160002604AF31
:1036D000CDE90246CDE90057FFF780FC2046FFF711
:1036E000A5FB049805B0F0BD502080F31188BFF30E
:1036F0004F8FBFF36F8FFEE7502080F31188BFF329
:103700004F8FBFF36F8FFEE72DE9F0412F4C00265E
:10371000206B28B1A069401CA0613046BDE8F08153
:10372000E5686D1CE56013D1606B006838B150200E
:1037300080F31188BFF34F8FBFF36F8FFEE7606B8D
:10374000A16B6163A063206A401C2062FFF7B8FC94
:10375000A06ADFF87C80854209D3606B0068A0B165
:10376000606BC068C7687868854211D2A062206823
:10377000C06A00EB800158F82100012800D9012619
:10378000E0690028C9D00126C7E74FF0FF30EDE718
:10379000381DFFF78DFDB86A18B107F11800FFF763
:1037A00087FDF96A0120226988401043206101EBFE
:1037B000810108EB8100391DFFF7BEFDF86A216821
:1037C000C96A8842C9D30126C7E70000200000204B
:1037D000388800202DE9F0472C4D00242746286B1F
:1037E00038B1FFF7B5FD286B401E2863286B40B148
:1037F00046E0502080F31188BFF34F8FBFF36F8FE7
:10380000FEE7A968224E0120D1B3A6F1B409804693
:103810003068E8B1F068C46804F11800FFF748FDAB
:10382000201DFFF745FDE06A2A6908FA00F11143FF
:10383000296100EB800109EB8100211DFFF77CFD70
:10384000E06A2968C96A8842E2D3C5F81C80DFE7CC
:103850000CB1FFF735FCAC6944B14646FFF754FFA5
:1038600000B1EE61641EF9D10020A861E86938B1A9
:103870000849012738070860BFF34F8FBFF36F8FE8
:10388000FFF786FD3846BDE8F087000020000020E5
:10389000EC88002004ED00E021F00042A2F160522B
:1038A000B2F5801F01F0004328BFD2F17F6C0BD925
:1038B0005FEA001C43EAC20242EB507018BF704737
:1038C00028BF20F001007047B2F5801FBCBF18462A
:1038D00070474FEA410C1CF5001F02D2084600F069
:1038E000D5B970B500F079F900000089FFF7F6BF8F
:1038F0004FF00040A0F58000704700002DE9C04166
:1039000030B4DFF8A0C23CEA111418BF3CEA13142B
:1039100000F0EC8081EA03051CEA111444EAD57436
:1039200018BF1CEA131500F0C780A4EB05044FF084
:10393000004545EAC12145EAC32341EA505143EA23
:10394000525304F17F74994204F500344FEAC020C9
:103950004FEAC22208BF904200F09C804FEA1365F4
:103960000FF24016765D4FEA134506FB05F7C7F1E7
:10397000807706FB07F74FEAD737A7FB0368764245
:10398000C8F58038A7FB06CE38BFA8F1010807FBB1
:1039900008E64FF0000EA6FB028CE6FB03CEDCF13E
:1039A000000CCEF1004E38BFAEF1010EA6FB0C5854
:1039B0004FF000074FF00005E6FB0E87A1FB08C69D
:1039C000A0FB07CE16EB0E0645F10005E1FB0765EF
:1039D00015F1E04E7EBFA4F580345FEA46066D41E6
:1039E00016F1800745F100054FEA17274FEA0666F2
:1039F00047EA0567A6F1DE46B6F1805F4FEA152576
:103A00001FD9384624F0010C05EBC471BCF1FE6FE0
:103A100001EB0C1102D8F0BCBDE8008124425CBF70
:103A200001F5801E9EEAC47F02D4F0BCBDE800818F
:103A3000244238D4F0BCA1F1C041BDE8004100F0FF
:103A40001AB94FEAD22242EA43524FEAD323A7FBE4
:103A500002864FEAD02040EA415007FB03661EEA87
:103A60000E0F4FEAD12105FB026658BFA6EB0056A8
:103A7000B6EB00564FEA520E4EEAC37E18EB0E0E1E
:103A800056EB530EBDD518EB02085E417F1C55F175
:103A90000005B6E74FF480154FF000074FF0000621
:103AA0004FF00008ADE7F0BC4FF0000001F1C0415D
:103AB00001F00041BDE8008111EA0C1F0CEA13156A
:103AC00000D00CE013EA0C1F00F025804FF000003E
:103AD000F0BC81EA030101F00041BDE80081F0BCC7
:103AE000BDE8004181EA030100F0C5B8F0BCBDE8C3
:103AF000004170B500F071F8097EFC3E00F007B897
:103B000081EA03014FF0000001F00041704781EAB3
:103B1000030100F0B0B8F0BCBDE800414FF0000078
:103B200021497047FFFDFBF9F7F5F4F2F0EEEDEBFC
:103B3000E9E8E6E4E3E1E0DEDDDBDAD8D7D5D4D3AB
:103B4000D1D0CFCDCCCBCAC8C7C6C5C4C2C1C0BFF7
:103B5000BEBDBCBBBAB9B8B7B6B5B4B3B2B1B0AFFD
:103B6000AEADACABAAA9A8A8A7A6A5A4A3A3A2A1E1
:103B7000A09F9F9E9D9C9C9B9A999998979796959C
:103B800095949393929191908F8F8E8E8D8C8C8B38
:103B90008B8A8989888887878685858484838382C0
:103BA000828181800000FF070000F87F10F0004252
:103BB00048BF4042B0FA80F310FA03F10AD0C3F1D3
:103BC0001D0303F580634FEA415002EB035202EB01
:103BD000D12170474FF0000070470EF1020E2EF019
:103BE000030E5EF8046B364205D4012A43EB03054D
:103BF00015F5001F12D8012841EB010C1CF5001F20
:103C00000CD80ED14FEAD17C15F5001F0CEB4C0CF3
:103C10000CF1020C08BF4CEBD37C04E04FF0080C15
:103C200001E04FEAD37C0CEB4C0526FA05F606F0D2
:103C30000706B6F1040C06D20EEB860CBDE8704008
:103C40004CF0010C6047DFE80CF0090B02024FF06A
:103C500000414FF00000A1F5002170BD194610464B
:103C6000012851EB010418BFD4F5001484BF0020D3
:103C700001F0004170BD0808A0F500114FEA3101C4
:103C800070474FF04070E1EE100A7047FF2141EAA3
:103C9000D050C00570470000CC3C0008C925000882
:103CA0000000000000000000800000000000000094
:103CB00000000000000000000000000001020304FA
:103CC000060708090000000001020304646566613C
:103CD000756C745461736B00F83C000800000020A0
:103CE00088000000E8010008803D000888000020EE
:103CF00000CB0000040200080000000000000000EB
:103D000000000000000000000100000010000000A2
:103D1000000000000024F40000000000000000008B
:103D20000000000000000000000000000000000093
:103D30000000000000000000000000000000000083
:103D40000000000000000000000000000000000073
:103D50000000000000000000000000000000000063
:103D60000000000000000000000000000000000053
:103D70000000000000000000AAAAAAAA000000009B
:04000005080001AD41
:00000001FF
