:020000040800F2
:10000000C85E002081020008D32E00084D2B000896
:10001000D12E0008DD0D0008413500080000000069
:10002000000000000000000000000000C101000806
:10003000FD0E0008000000001D0200081D30000831
:100040009B0200089B0200089B0200089B0200081C
:100050009B0200089B0200089B0200089B0200080C
:100060009B0200089B0200089B0200089B020008FC
:100070009B0200089B0200089B0200089B020008EC
:100080009B0200089B0200089B0200089B020008DC
:10009000E10D00089B0200089B0200089B0200087B
:1000A0009B0200089B0200089B0200089B020008BC
:1000B000ED300008F93000089B0200089B020008A0
:1000C0009B0200089B0200089B0200089B0200089C
:1000D0009B0200089B0200089B0200089B0200088C
:1000E0009B0200089B0200089B0200089B0200087C
:1000F0009B0200089B0200089B0200089B0200086C
:100100009B0200089B0200089B0200089B0200085B
:100110009B0200089B020008053100089B020008B2
:100120009B0200089B0200089B0200089B0200083B
:100130009B0200089B0200089B0200089B0200082B
:100140009B0200089B0200089B0200089B0200081B
:100150009B0200089B0200089B020008353500083E
:100160009B0200089B0200089B0200089B020008FB
:100170009B0200089B0200089B0200080000000090
:100180009B0200089B0200089B0200089B020008DB
:100190009B0200089B0200089B0200089B020008CB
:1001A00000000000000000009B020008DFF80CD0F7
:1001B00000F042FB00480047C9380008C85E002034
:1001C0002C4B19680868B0E8F04F80F30988BFF33A
:1001D0006F8F4FF0000080F311887047000000001F
:1001E00008480068006880F308884FF0000080F33A
:1001F000148862B661B6BFF34F8FBFF36F8F00DF15
:1002000000BF00BF08ED00E0DFF80C00016841F41A
:1002100070010160704700BF88ED00E0EFF30980D6
:10022000BFF36F8F134B1A681EF0100F08BF20ED3D
:10023000108A20E9F04F106009B44FF0500080F3AD
:100240001188BFF34F8FBFF36F8F04F069F94FF040
:10025000000080F3118809BC19680868B0E8F04F05
:100260001EF0100F08BFB0EC108A80F30988BFF3AE
:100270006F8F704720000020EFF30580704700006B
:100280000648804706480047FEE7FEE7FEE7FEE730
:10029000FEE7FEE7FEE7FEE7FEE7FEE7DD300008EB
:1002A000AD0100082DE9F05F0546002092469B460F
:1002B00088460646814640241BE02846414647467C
:1002C000224600F002F953465A46C01A914110D313
:1002D00011461846224600F0E9F82D1A67EB01088E
:1002E0004F4622460120002100F0E0F817EB0009FC
:1002F0004E41201EA4F10104DFDC484631462A4667
:100300004346BDE8F09F40EA01039B0703D009E0A4
:1003100008C9121F08C0042AFAD203E011F8013BF1
:1003200000F8013B521EF9D27047D2B201E000F84A
:10033000012B491EFBD270470022F6E710B5134689
:100340000A4604461946FFF7F0FF204610BD2DE986
:10035000F04D81EA030404F0004B21F000451446FF
:100360004FF0000A23F0004150EA050220D054EA81
:1003700001021DD0C5F30A570246C5F31303C1F3AA
:100380001300C1F30A5640F4801543F48013A7EB21
:100390000608101BD64608F2FD3873EB050002D3A1
:1003A00008F1010801E092185B41B8F1000F03DA8F
:1003B00000200146BDE8F08D00204FF48011064674
:1003C00084460EE0171B73EB050705D3121B63EB86
:1003D000050306434CEA010C49084FEA3000921825
:1003E0005B4150EA0107EDD152EA030012D082EAE4
:1003F000040083EA0501084305D0101BAB4106D277
:100400000122002306E000224FF0004302E06FF0DB
:10041000010253101AEB06004CEB085110EB0A00D6
:1004200041EB0B01BDE8F04D00F0E5B80EB5C10F92
:1004300080EAE0700844CA07002140F233438DE8A7
:100440000E000A460B4600F0E5F803B000BD00F0D0
:10045000004230F000400AD0C10D01F56071C0F3D8
:10046000160042EA0151C2084007114370470020BC
:100470000146704701F0004330B421F0004150EADA
:10048000010206D00A0DA2F56072C1F31301002A21
:1004900002DC30BC00207047440F44EAC104C100B4
:1004A000E01830BC00EBC25000F06EB8202A04DB2C
:1004B000203A00FA02F1002070479140C2F1200377
:1004C00020FA03F3194390407047202A04DB203AB6
:1004D00021FA02F00021704721FA02F3D040C2F164
:1004E0002002914008431946704700000FB40023D2
:1004F00000B589B00CA900910B996FF00042CB6058
:100500001E4B06931E4B07930423CDE901321D4A6F
:10051000089202466B46002000F026FA09B05DF80A
:1005200014FB70B586B006464FF0FF300091CDE960
:100530000101002015460C4604903246694604A885
:10054000FFF7D4FF02460498211825B108B10846E8
:1005500000E020462860049800280DD0002A02DD23
:100560000098884208D0081B0094CDE90104324667
:10057000694604A8FFF7BAFF06B070BDA10B0008DA
:10058000BF0B00085D0800080029A8BF7047401C89
:10059000490008BF20F00100704710B4B0FA80FC99
:1005A00000FA0CF050EA010404BF10BC704749B1D6
:1005B000CCF1200421FA04F411FA0CF118BF012146
:1005C00021430843A3EB0C01CB1D4FEA00614FEA26
:1005D000102042BF002010BC704700EBC3501044F5
:1005E0000029A4BF10BC7047401C490008BF20F080
:1005F000010010BC704710B5141E73F1000408DA36
:10060000401C41F1000192185B411A4301D120F0D6
:10061000010010BD2DE9F04D92469B4611B1B1FA93
:1006200081F202E0B0FA80F220329046FFF73EFFFE
:1006300004460F4640EA0A0041EA0B0153465A4677
:10064000084313D0114653EA010019D0C8F1400203
:100650005046FFF73AFF05460E4650465946424679
:10066000FFF724FF084305D0012004E02046394667
:10067000BDE8F08D0020054346EAE0762C43374381
:100680000A986305E40AA0EB08000022FD0A44EA88
:1006900047540A3002D500200146E9E70105101948
:1006A0006941DDE9084500196941BDE8F04DA2E75F
:1006B0002DE9FE4F81EA030404F0004421F00041DB
:1006C00000944FF0000B23F0004350EA01045ED089
:1006D00052EA03045BD0C3F30A54C1F30A552C4415
:1006E000A4F2F3340194A0FB0254C1F3130141F4CA
:1006F0008011C3F3130343F4801301FB024400FB96
:10070000034E840A970A44EA815447EA8357A4FBBC
:10071000076802958D0A05FB07854FEA932C04FBB9
:100720000C542705029D4FEA065847EA1637B5EBE9
:1007300008056EEB070C870E920E47EA811742EA16
:100740008312A7FB0201B6EB0B0164EB00042B0D37
:1007500043EA0C335E1844EB1C50DA465146E7FB83
:100760000201C5F313044FEA0B3343EA14534FEA73
:100770000432019C43EA0603A4F10C040294009C99
:10078000CDE900B4FFF746FF03B0BDE8F08F0020CD
:100790000146F9E72DE9F04D00231A461B1A8A415C
:1007A00003DB00200146BDE8F08DC1F30A52C1F31E
:1007B000130141F480154FF0000BD10702D100184E
:1007C0006D41521E0027044640F2FF11384601EBEE
:1007D000620A3E468046024600204FF48011FFF731
:1007E00074FEC2197141BB1846EB0100B4EB030C57
:1007F00075EB000C04D3E41A65EB000517460E46B2
:10080000241908F101006D4180463428E3DDF9190F
:1008100046EB0600091BA84103D24FF0FF321346F6
:1008200001E0002213461BEB070046EB0A51BDE82E
:10083000F04DFFF7E0BE0000064C074D06E0E06813
:1008400040F0010394E8070098471034AC42F6D317
:10085000FFF7B0FC3049000850490008C0B24FF41F
:10086000F05100F0BDB900002DE9FF4F087881B0CC
:100870009946FF2805D0491C2D2804D000240023C8
:1008800008E000230BE00124F9E703EB830300EB0E
:100890004303491C0878FF28F7D104B15B420020CC
:1008A0000090147801462D2C01D02B2C04D1521C21
:1008B0002D2C12D00024009400251678FF2E0ED087
:1008C0000A24A0FB04C801FB0481002700FB0711D8
:1008D000521C16EB0C006941EFE70124EBE7994449
:1008E00050EA01020ED00024AA4D2646DFF8A88265
:1008F00000F08AF982468B46B9F1000009DAC9F1A5
:1009000000071BE001980021C0E9001105B0BDE817
:10091000F08F074612E0F80707D022462B463046F4
:100920004146FFF7C5FE0646884622462B4610463E
:100930001946FFF7BDFE04460D467F10002FEAD191
:10094000B9F1000F324643465046594602DAFFF7E6
:10095000FEFC01E0FFF7ACFE009A0AB181F0004115
:10096000019AC2E90001D1E72DE9FF4F1F468DB082
:10097000D7E901464FF0FF382E2045464FF00009D9
:100980000B90B9696D1C0E988847396A8246884772
:100990000028F6D1BAF1FF3F0AD024F4D064002E2B
:1009A00011DDBAF12B0F08D0BAF12D0F0BD102E0F7
:1009B000404611B0ABE744F48064B9696D1C0E98F1
:1009C00088478246761E6946600501D52D2000E0E5
:1009D0002B208DF8000001F1010B0DF1200809E03A
:1009E000B9696D1C0E98884782460F9844F40074CC
:1009F000761E0560002E02DDBAF1300FF0D00B99A3
:100A00008A453ED144F0800406E00F99681CA9F1A4
:100A1000010944F400740860B9696D1C761E0E98D3
:100A2000884782463028F0D02BE00B998A4505D1C3
:100A3000200603D444F08004761E18E0504602F0ED
:100A4000AFFE08B30DF11301761E44F400748B451C
:100A500008D2AAF130000BF8010B200607D5A9F146
:100A6000010003E0200602D409F101008146A0053F
:100A700002D50F99681C0860B9696D1C0E988847EB
:100A80008246002ED1DC53E0002E51DDBAF1650F15
:100A900002D0BAF1450F4BD1A00549D5B9696D1CFB
:100AA00024F44074761E0E9888478246002E0CDD92
:100AB0002B2804D0BAF12D0F07D144F48074B96902
:100AC0006D1C0E9888478246761EE00501D52D21C3
:100AD00000E02B2108F8011BCDF82C8021E00DF15E
:100AE0002901761E44F4007488450CD2AAF1300026
:100AF00010F0FF0088F8000002D10B99884509D951
:100B000008F1010806E0E00501D5244801E042F2C1
:100B10000F708146B9696D1C0E98884782460F9800
:100B20000560002E04DD504602F03AFE0028D6D1C2
:100B3000F9690E988847FF208BF8000088F80000BC
:100B40000020069007904B466A4608A906A8FFF7C2
:100B50008BFEA00502D46FF001002AE714F0240FE9
:100B60000AD0E00714D1DDE906123868031D3B60A6
:100B70000068C0E900120BE0DDE90601FFF77AFC2E
:100B80000146E00704D13868021D3A600068016040
:100B900028460EE7000024400000F03FF1D8FFFF98
:100BA000426842B1016811F8013B23B1521EC0E90D
:100BB0000012184670470121C160881E70474268C4
:100BC0005AB1C368016843B983688B4205D0491E96
:100BD000521CC0E90012002070474FF0FF307047F0
:100BE0007F2801D9002208E0064A02EB5002C00724
:100BF000127800D1120902F00F0201209040084043
:100C000070470000E44800080EB540F233420292FB
:100C10000022CDE900221346FFF7FCFC03B000BD23
:100C2000DFED070A90ED130AB3EE0E2ADFED031A8B
:100C3000B0EE601A084602F03EBE000000004842D6
:100C400000000000D0ED051A90ED111AD0ED090A50
:100C500000EEA11A80ED111AD0ED130A41EE210A1F
:100C6000C0ED130AD0ED011A01EEC10A90ED061A8B
:100C7000D0ED021A30EEC11A01EEC10A90ED001A51
:100C8000C0EE011AC0ED091AC0ED060A704710B592
:100C90000246D0F8A800B0EE401A0B46012821D138
:100CA000D2ED080AF5EEC00AF1EE10FA1ADD906AEC
:100CB000012804D1104603F0F9FA00209062B0EE4A
:100CC000410A1046FFF7BEFF92ED080AD2ED050A71
:100CD0001946104630EE600A82ED080ABDE8104061
:100CE000FFF79EBF0120906210BD000080EC030A58
:100CF0004FF47A72C26091ED5F0A80ED040A9FEDB5
:100D00000F0A80ED050A9FED0E0A80ED060AD1ED6F
:100D1000090AC0ED070AD1ED080A0121C0ED130A46
:100D200080ED110A80ED0F0ABFEE000A80ED080A7F
:100D3000C0F8A8108162503000F02AB96F12833ACF
:100D40000000000091ED100A0B46B5EEC00AF1EE6E
:100D500010FA01D190ED000A80ED000A93ED110A1E
:100D6000B5EEC00AF1EE10FA01D190ED010A80ED66
:100D7000010A93ED120AB5EEC00AF1EE10FA01D1A4
:100D800090ED020A80ED020A93ED130AB5EEC00A57
:100D9000F1EE10FA01D190ED0F0A80ED0F0A93EDFC
:100DA000140AB5EEC00AF1EE10FA01D193ED1B0A58
:100DB00083ED1B0A93ED150A10EE100A10F1814F16
:100DC00003D192ED610AB8EEC00A182103F1400088
:100DD000BDEEC00A82ED610AFFF7AEBAFEE7000081
:100DE000014800F052BA00001003002041600021C9
:100DF0008160C160016108214161034600F11C026C
:100E0000011D014800F0E2B810030020D0F80824CA
:100E1000AAB1D0F80024825C0A70D0F80014491CF2
:100E2000CA1701EB92526FF30902891AC0F8001435
:100E3000D0F80814491EC0F808140120704700209B
:100E4000704730B503460020B3F81F400246012129
:100E50005D5C491C2A4492B21F29F9DBA24200D1F1
:100E6000012030BD70B50446B0F901000D4600EE1A
:100E7000100AB8EEC00A81ED000AA17AD4F8070082
:100E800061F31F60FFF7D2FA9FED181B53EC112B93
:100E9000FFF75DFAFFF7EEFA68600B209FED151A79
:100EA000DFED150AB7EE000A0222931E032B08DBC2
:100EB000D91E042902D2B0EE410A04E0DB1F032B45
:100EC00001D2B0EE600A2118801CB1F9001001EEC9
:100ED000901A05EB8201521CF8EEE11A0C2A81EE01
:100EE000802A81ED002AE0DB70BD000000000000D8
:100EF0000000794000401C4600007A447047000022
:100F00001CB5416000218160C1600161082141611F
:100F100005A10346D1E90021CDE90021011D6A4662
:100F2000034800F053F81CBDFFFFFFFFFFFFFFFC6D
:100F30001003002072B6FEE77CB511A10024D1E9B0
:100F4000000142F6F825CDE9000128460221491C9E
:100F50008142FCDB0C4904EBC40201EB8203601C00
:100F6000586000209860D860186108205861191DE9
:100F70006A46064800F02AF8641C022CE5DB7CBDBA
:100F8000FFFFFFFFFFFFFFFC5404002010030020C1
:100F900000219FED040A016580ED150A5021FFF73D
:100FA000CBB900000000000090F82020012A07D0F3
:100FB000022A05D0416A41F4802141620120704734
:100FC000006842690A43426100207047F0B590F81A
:100FD00020500468A468012D05D0022D03D0416A79
:100FE00041F4802153E014F0406F01D1E5004BD56E
:100FF000C4F30164022C03D9416A41F4000146E0C4
:101000000125A5401D608D684FF4C0739DB1CE6869
:1010100035434E6845EAC605066803EB0417F551EB
:101020004FF4C275076805EB04150E697E51097D02
:10103000012905D009E00E88CD6845EA4655EBE761
:1010400001684E5946F480764E511179D2F8055018
:101050004FF4C67641EA0525016806EB04168D516A
:101060001178D2F801204FF4C47541EA02210268D8
:1010700005EB04155151006803EB0411425842F08E
:10108000010242500020F0BD416A41F4001141626A
:101090000120F0BD10B590F82020012A07D0022AC7
:1010A00005D0416A41F480214162012010BD3B48D6
:1010B000D0F8002242F00102C0F80022D0F800224D
:1010C00022F47C52C0F80022D0F800224B6A42EA97
:1010D0000322C0F800220A7D02F01F0301229A4079
:1010E000D0F81C329343C0F81C32CB69B3B9D0F8A6
:1010F0000C329343C0F80C328C894B6864F31F4365
:101100004C6900EBC404C4F840320C890B6864F3EA
:101110001F434C6900EBC404C4F84432CB69012B73
:1011200016D1D0F80C321343C0F80C320C884B683F
:1011300064F31F434C6900EBC404C4F840320C89CB
:10114000CB6864F31F434C6900EBC404C4F8443219
:101150008B69002BD0F804320ED01343C0F8043250
:101160000B69002BD0F8143208D01343C0F81432A6
:10117000096A012904D008E09343EFE79343F5E7B8
:10118000D0F81C121143C0F81C12D0F8001221F044
:101190000101C0F80012002010BD000000640040F2
:1011A000704730B590F82040012C05D0022C03D0B8
:1011B000416A41F480215DE00468002955D024692A
:1011C000A40754D04FF4D874056804EB01142D59CA
:1011D00015F00405956005682D594ED0ED08556051
:1011E00005682C5904F00204D4604FF4DA740568E1
:1011F00004EB01142D5905F00F05156105682D59F3
:10120000C5F30725956105682C59240C54614FF4EA
:10121000DC72046802EB0112A4581C700468A45824
:10122000240A5C700468A458240C9C700468A258BA
:10123000120EDA704FF4DE72046802EB0112A45849
:101240001C710468A458240A5C710468A458240C16
:101250009C710468A258120EDA71006881B10169AC
:1012600041F020010161002030BDE468A8E7416A37
:1012700041F400114162012030BD6D0D1560AFE7F2
:10128000C16841F02001C160EDE72DE9F05F05463E
:10129000006800244669D0F804908768D0F80CB044
:1012A000D0F810A0D0F81880F10748D0F90714D072
:1012B00001218160B80703D5284600F03AFA0CE016
:1012C000780702D54FF4006407E0380702D54FF4E1
:1012D000805402E0284600F02BFAF80516D529685C
:1012E0004FF480708860B80503D5284600F023FAD3
:1012F0000CE0780502D544F4005407E0380502D527
:1013000044F4804402E0284600F014FAF80316D5AD
:1013100029684FF480308860B80303D5284600F070
:101320000CFA0CE0780302D544F4004407E03803DB
:1013300002D544F4803402E0284600F0FDF930077D
:1013400007D55FEACB6004D52968102044F4007407
:10135000C86070074FF0080707D55FEA0B7004D527
:101360002868C760284600F057F9B00706D52868F6
:10137000C068800702D0284600F050F9700607D5F3
:101380005FEACA6004D52968102044F480640861CB
:10139000B00607D55FEA0A7004D5286807612846B9
:1013A00000F096F9F00606D528680069800702D09B
:1013B000284600F08EF9B00308D55FEAC96005D56C
:1013C000296810204860284600F084F9F00307D50A
:1013D0005FEA097004D528684760284600F0AEF936
:1013E000300446D55FEA497040D5F00504D55FEA80
:1013F000C87001D044F00104B00504D55FEA8870DC
:1014000001D544F00204700504D55FEA487001D5A7
:1014100044F00404300529D518F0700F26D008F0E8
:101420007000402815D006DC102809D020280AD0EA
:10143000302816D10AE050280ED0602811D10EE0D5
:1014400044F008040DE044F010040AE044F02004E5
:1014500007E044F0400404E044F0800401E044F478
:1014600080742868816921F07001816129680420F5
:101470004860002C05D0686A204368622846FFF760
:101480008FFEBDE8F09F70B5040003D094F82000F3
:1014900010B104E0012070BD204600F081F8206802
:1014A000016841F00101016000F000FB05460526DE
:1014B00004E000F0FBFA401B0A2811D820684068BD
:1014C000C007F6D02068016821F00201016000F039
:1014D000EDFA05460BE000F0E9FA401B0A2806D9B0
:1014E000606A40F40030606284F82060D2E72068CF
:1014F00040688007EFD4207E0128206801683DD035
:1015000021F080010160607E01282068016838D0E8
:1015100021F040010160A07E01282068016833D0DD
:1015200021F020010160E07E0128206801682ED0B2
:1015300041F010010160207F01282068016829D056
:1015400021F008010160607F01282068016824D033
:1015500021F004010160D4E902010843D4E9041236
:10156000114308436168491E08432168C86100208F
:101570006062012084F82000002070BD41F08001ED
:10158000C0E741F04001C5E741F02001CAE721F082
:101590001001CFE741F00801D4E741F00401D9E799
:1015A00010B586B0044614216846FEF7C5FE1749FB
:1015B0002068884227D116480021026842F0007254
:1015C0000260006800F00070059011481038026851
:1015D00042F0080202600068022200F00800059054
:1015E0000320CDE90210CDE90002092004906946EC
:1015F000084800F037F900220521142000F0F4FA21
:10160000142000F0E3FA06B010BD000000640040B2
:1016100040380240000C0240704700002DE9F041C4
:101620002849064600680968884248D1254B0021B0
:10163000143BA3F11C023046FFF7B3FD08BB214861
:10164000214D3038007F012802D0022831D119E025
:101650001C491D483039143002F0F0FD5FF00004E1
:1016600005EB840704EB440005EBC00097ED050A89
:1016700000F59A7001F0A4FA641C87ED080A032CA7
:10168000EEDB16E00F491148303902F0D7FD002497
:1016900005EB840704EB440005EBC00097ED670AF7
:1016A00000F52F7001F08CFA641C87ED6A0A032C98
:1016B000EEDB3046BDE8F0410221FFF775BCBDE826
:1016C000F0810000100300208C180020281A002050
:1016D000704770477047000070B5044690F82000CE
:1016E000012804D0606A40F40020606218E0022003
:1016F00084F820002068016821F00101016000F0F9
:10170000D5F905460EE000BF00F0D0F9401B0A28CD
:1017100008D9606A40F400306062052084F8200037
:10172000012070BD20684068C007EDD1606270BDC7
:10173000704770477047704770477047704710B5E3
:10174000040002D0607910B106E0012010BD002035
:101750002071204600F004F801206071002010BDC7
:1017600008B500680649884208D10648016841F476
:1017700080510160006800F48050009008BD0000B6
:1017800000300240303802402DE9F0410446876DB8
:1017900000F08CF9064694F835000025022806D0A2
:1017A0008020606584F834500120BDE8F081206815
:1017B000016821F0160101602068416921F0800173
:1017C0004161206C08B9A06C20B12068016821F04B
:1017D000080101602068016821F0010101600CE04E
:1017E00000F064F9801B052807D9202060650320DC
:1017F00084F8350084F83450D7E720680068C007C3
:10180000EED194F85C103F208840B860012084F845
:10181000350084F834500020C7E790F835100229CD
:1018200003D08021416501207047052180F83510E3
:101830000068016821F0010101600020704700008C
:1018400070B5044600F032F90546601C02D0044829
:101850000078044400F02AF9401BA042FAD370BD7E
:10186000100000202DE9F84FDFF8F8A10022012434
:1018700003254FF00F090AF1040BAAF1040E00BF73
:101880000B6804FA02F63340B34270D10F7907F0C7
:101890000307012F01D0022F16D187684FEA4208B3
:1018A00005FA08FC27EA0C07D1F80CC00CFA08FC72
:1018B0004CEA070CC0F808C04768B7430E79C6F376
:1018C000001696403E4346600E79F643B6070AD0AE
:1018D000C7684FEA420C05FA0CF6B7438E6806FA61
:1018E0000CF63E43C6600E7906F00306022E10D1B8
:1018F000D60800EB8608D8F8206057074FEAD76C67
:1019000009FA0CF7BE430F6907FA0CF73743C8F81A
:10191000207006684FEA420C05FA0CF7BE430F79B7
:1019200007F0030707FA0CF7374307604E6816F411
:10193000403F1CD04C4E376847F4804737603668CC
:1019400022F0030706F480460096484E07EB060C8B
:10195000DCF8086897073F0F09FA07F826EA080637
:10196000DFF80C81404503D14FF0000841E072E000
:10197000DFF80081404502D14FF0010839E0DFF87F
:10198000F880404502D14FF0020832E0DFF8EC80E9
:10199000404502D14FF003082BE0DFF8E4804045DA
:1019A00002D14FF0040824E0DFF8D880404502D18E
:1019B0004FF005081DE0DFF8D080404502D14FF020
:1019C000060816E0DFF8C480404502D14FF0070852
:1019D0000FE0DFF8BC80404502D14FF0080808E076
:1019E000DFF8B080404502D14FF0090801E04FF028
:1019F0000A0808FA07F848EA0608CCF80888DAF86E
:101A000000605746D1F804C09E435FEACC2C00D555
:101A10001E433E60DBF800605F46D1F804C09E4381
:101A20005FEA8C2C00D51E433E60DEF800607746EE
:101A3000D1F804C09E435FEA8C3C00D51E433E6053
:101A4000084F083F3E68D1F804C09E435FEACC3C93
:101A500000D51E433E60521C102AFFF411AFBDE8B2
:101A6000F88F0000083C014044380240003001403B
:101A7000000002400004024000080240000C024046
:101A8000001002400014024000180240001C0240F6
:101A900000200240002402400069084000D00120DC
:101AA00070470AB1816170470904FBE7014880680B
:101AB000704700001000002002488168027811443D
:101AC00081607047100000200B4810B5016841F498
:101AD00000710160016841F480610160016841F4B6
:101AE00080710160032000F09FF80F2000F006F8DD
:101AF00000F050F8002010BD003C024030B5054613
:101B00001F4887B00024016841F01001016000689F
:101B100006A900F01000009001A800F031F9049827
:101B2000A8B100F04DF940001649174AB0FBF1F199
:101B30001648491E026040F2E732C0E90324C0E9BA
:101B40000114846100F08EFB040003D015E000F066
:101B500037F9E9E70D4800F0E3FB04000DD136202A
:101B600000F034F8102D07D200222946362000F06C
:101B70003BF80748056000E0012407B0204630BD6F
:101B80004038024040420F00001000400C0400208A
:101B9000140000200C4882B0016841F480410160CB
:101BA000006800F4804000900748001F016841F081
:101BB000805101600068002200F0805000900F21E9
:101BC000901E02B000F010B844380240002809DB33
:101BD00000F01F02012191404009800000F1E02047
:101BE000C0F8001170470000F0B40E4B1B680C46A3
:101BF000C3F30223C3F10705042D00D90425191DE1
:101C0000072901D2002300E0DB1E012606FA05F1B8
:101C1000491E214099409E40761E16403143F0BC3B
:101C200001F08FBC0CED00E0064900F007020868E7
:101C30004FF6FF03184040EA0220034A10430860B1
:101C4000704700000CED00E00000FA052DE9F047B8
:101C50000E46050065D0DFF81481D8F80000F7B211
:101C600000F00F00B04207D288F80070D8F80000EA
:101C700000F00F00B04254D128683D4C810712D5C6
:101C8000400703D5206840F4E05020602878000722
:101C900003D5206840F4604020602068A96820F0E7
:101CA000F000084320602878C0072DD030496868CC
:101CB0000839012812D0022813D0032811D009684E
:101CC000890700292DDA216821F0030101432160F1
:101CD000FFF7ECFE814641F2883A0EE0096889037D
:101CE000EFE709688901ECE7FFF7E0FEA0EB0901E7
:101CF000514502D90320BDE8F0872068696800F0EB
:101D00000C00B0EB810FEFD1D8F80010404601F085
:101D10000F01B14207D90770006800F00F00B04210
:101D200001D00120E7E72878400705D52068E96859
:101D300020F4E050084320602878000706D520688A
:101D4000296920F4604040EAC100206000F058F8A2
:101D50002168084AC1F30311515CC8400649086074
:101D600006480068FFF7CAFE0020C4E7003C0240B6
:101D700008380240CC4800081C0000201400002055
:101D80000F2202600C4A136803F0030343601368D8
:101D900003F0F0038360136803F4E053C360126838
:101DA0004FF4E05303EAD20202610448006800F0F5
:101DB0000F0008607047000008380240003C0240F5
:101DC0000448054900680968044AC1F38221515C4E
:101DD000C84070471C00002008380240DC4800085A
:101DE0000448054900680968044AC1F34231515C5E
:101DF000C84070471C00002008380240DC4800083A
:101E0000154810B5006810F00C02144813D014499E
:101E1000042A0FD0082A0ED10F4C241F22682368F1
:101E200002F03F025B0207D52068C0F38810A0FBD8
:101E3000010106E0084610BD2168C1F38811A1FB2D
:101E400000010023FEF72EFA2168C1F30141491C6D
:101E50004900B0FBF1F010BD083802400024F40046
:101E6000001BB7002DE9F84F04006ED02078DFF892
:101E70004C93C007A9F104054AD009F10400016898
:101E8000C1F38101012908D00068C0F38100022854
:101E90000AD1D9F80000400206D52868800337D55A
:101EA00060680028E1D033E06068B0F5803F10D072
:101EB000B0F5A02F286810D020F480302860286862
:101EC00020F4802028606068A8B1FFF7EFFD064687
:101ED0000DE0286840F48030F4E740F4802028606A
:101EE000F7E700BFFFF7E2FD801B642873D828687E
:101EF0008003F7D50CE0FFF7D9FD064605E000BFEB
:101F0000FFF7D4FD801B6428F0D828688003F7D43D
:101F10002078DFF8AC8280074FF0000A3ED5A74852
:101F2000001D016811F00C0F08D00068C0F381009B
:101F300002280BD1D9F80000400207D42868800796
:101F400016D5E068012800D112E033E1E068B8B1AD
:101F50000120C8F80000FFF7A9FD064605E000BF14
:101F6000FFF7A4FD801B0228C0D828688007F7D59A
:101F70002868216920F0F80040EAC10028600DE0DF
:101F8000C8F800A0FFF792FD064604E0FFF78EFDBB
:101F9000801B02281FD828688007F7D42078000704
:101FA00022D5864F87486169703771B10121016080
:101FB000FFF77CFD064604E0FFF778FD801B022852
:101FC00009D838688007F7D50EE0C0F800A0FFF701
:101FD0006DFD064605E082E0FFF768FD801B0228E4
:101FE0007DD838688007F7D42078400768D5DFF8B7
:101FF000CCB100270BF13C0BDBF80000C0000BD488
:10200000DBF8001041F08051CBF80010DBF8000045
:10201000012700F0805000906B4E3068C00510D44E
:10202000306840F480703060FFF740FD009005E0BC
:10203000FFF73CFD0099401A022850D83068C005CF
:10204000F6D55E4EA0686C3601280FD005283068A2
:1020500010D020F001003060306820F004003060C3
:10206000A068B8B1FFF722FD00900FE0306840F0A3
:102070000100F4E740F004003060F7E7FFF716FDD9
:102080000099411A41F28830814266D83068800751
:10209000F4D50EE0FFF70AFD009007E0FFF706FD1C
:1020A0000099411A41F28830814256D83068800741
:1020B000F4D42FB1DBF8001021F08051CBF80010E0
:1020C000A069C8B33D49091D0968C1F3810102290E
:1020D0004AD00228504607D0C8F8600000E03CE033
:1020E000FFF7E4FC04463BE04746C8F86000FFF712
:1020F000DDFC064605E000BFFFF7D8FC801B022888
:102100002BD828688001F7D4D4E907010843A16AD5
:102110002E4A490802EB0141626A41EA82110843F2
:1021200094F82C1040EA0161C9F8001001203866CB
:10213000FFF7BCFC044606E03EE000BFFFF7B6FC3C
:10214000001B022809D828688001F7D534E000BFB9
:10215000FFF7ACFC001B022802D90320BDE8F88F72
:1021600028688001F4D427E00128F7D0D9F80000CE
:10217000E26900F4800191421CD1226A00F03F0123
:10218000914217D147F6C071626A0140B1EB821FDC
:1021900010D1A26A4FF0FF3300F4403103EB52023A
:1021A000B1EB024F06D194F82C1000F07060B0EB48
:1021B000016F01D00120D1E70020CFE704380240B1
:1021C00000004742800E4742007000400000FFFFC1
:1021D0007047704770B590F83C20012A32D0012436
:1021E00080F83C40022280F83D2003685A689D68D0
:1021F00022F070060A6832435A60134B02689A4212
:1022000014D0B2F1804F11D0104B9A420ED0104B27
:102210009A420BD00F4B9A4208D00F4B9A4205D0EE
:102220000E4B9A4202D00E4B9A4204D1496825F0D7
:1022300080031943916080F83D40002180F83C10F4
:10224000084670BD022070BD00000140000400403F
:1022500000080040000C0040000401400040014024
:102260000018004010B5040003D094F83D0010B1F0
:1022700007E0012010BD002084F83C00204600F05B
:102280001FF8022084F83D00211D206800F040FF67
:10229000012084F8460084F83E0084F83F0084F86A
:1022A000400084F8410084F8420084F8430084F838
:1022B000440084F8450084F83D00002010BD000073
:1022C00008B501681448B1F1804F14D0134A914207
:1022D00020D1016841F0020101600068002200F095
:1022E0000200009005211D20FFF77EFC1D20BDE8A7
:1022F0000840FFF76BBC016841F001010160006814
:10230000002200F00100009005211C20FFF76CFC6A
:102310001C20ECE708BD00004038024000040040EB
:1023200090F83D10012901D001207047022180F86A
:102330003D100168CA6842F00102CA600068114994
:10234000884214D0B0F1804F11D00F4988420ED08E
:102350000E4988420BD00E49884208D00D49884268
:1023600005D00D49884202D00C49884204D18168C9
:1023700001F00701062903D0016841F00101016065
:1023800000207047000001400004004000080040A9
:10239000000C0040000401400040014000180040D3
:1023A00070B5044690F83C000025012817D001269E
:1023B00084F83C60022084F83D002068826822F0A6
:1023C000770222F47F4282600868502838D00DDC02
:1023D00020284FD005DC90B3102811D14AE002200C
:1023E00070BD302846D040280AD13BE060282FD06D
:1023F00070280DD0B0F5805F03D0B0F5005F12D02B
:10240000012584F83D60002084F83C00284670BD1A
:10241000CB68D1E90121206800F0DEFE20688168E8
:1024200041F0770109E0CB68D1E90121206800F093
:10243000D3FE2068816841F480418160E1E719E0C2
:10244000CA684968206800F0D9FE5021206806E07B
:10245000CA684968206800F0E2FE6021206800F048
:10246000C5FECEE7CA684968206800F0C7FE402173
:102470002068F4E7226801461046F0E7704770B51F
:102480000446006801694FF00005C943890715D467
:10249000C168C943890711D4E91E01610120207771
:1024A000206880698007204602D0FFF7E7FF04E03C
:1024B00000F098F8204600F096F82577206801692A
:1024C000C943490717D4C168C943490713D46FF0FA
:1024D00004010161022020772068806910F4407FA8
:1024E000204602D0FFF7CAFF04E000F07BF8204648
:1024F00000F079F8257720680169C943090716D4E7
:10250000C168C943090712D46FF0080101610420B2
:1025100020772068C0698007204602D0FFF7AEFF11
:1025200004E000F05FF8204600F05DF825772068B1
:102530000169C943C90617D4C168C943C90613D480
:102540006FF010010161082020772068C06910F445
:10255000407F204602D0FFF791FF04E000F042F8F0
:10256000204600F040F8257720680169C943C90773
:1025700008D1C168C943C90704D1891E0161204639
:1025800000F032F820680169C943090609D4C1681E
:10259000C943090605D46FF0800101612046FFF7A9
:1025A00017FE20680169C943490609D4C168C943B7
:1025B000490605D46FF040010161204600F094F80F
:1025C00020680169C94389060BD4C168C9438906DB
:1025D00007D46FF0200101612046BDE87040FFF78D
:1025E000F8BD70BD704770472DE9F04FDFF8DC9003
:1025F00007462DED028BDFB00168494557D1344DB8
:102600009FED348A344CD5F8841119B1284601293C
:1026100007D012E094ED0F0A29462046FEF737FB5B
:102620000BE0B0EE480AB1EE042AF2EE041AB0EE66
:10263000401AF0EE400A01F03EF9284890ED1B0ADE
:10264000B5EEC00AF1EE10FA05DDDFED250A30EE39
:10265000600A80ED1B0AB5EEC00AF1EE10FA01DD4A
:1026600094ED0F8ADFF87CA084ED0F8A00244FF4EC
:10267000BE7B00BF04EB041000EB441005EBC00868
:1026800008F10C015A466846FDF73DFE04EBC40113
:102690000AEB810698E80E00304601F015FA601C3E
:1026A000C1B23046FEF7A2FB641C022CE2DB3968A3
:1026B000494506D15FB0BDEC028BBDE8F04FFFF796
:1026C000FBB95FB0BDEC028BBDE8F08F001000409D
:1026D0008C180020000000000C1C00209C1B002017
:1026E0006F12833A5404002070477047704700000F
:1026F000F8B5016804460868CA684B6910F00F0F06
:102700004FF000055AD003F0010602F490773743EA
:1027100065D0C10705D0D10503D5216C41F0010179
:102720002164410705D5D90703D0216C41F002018E
:102730002164810705D5D90703D0216C41F004013C
:102740002164010707D502F02001314303D0216C39
:1027500041F008012164216C00293BD0800604D59A
:10276000900602D5204600F09BFD20684069216C50
:10277000C0F3801001F00801014320462BD000F087
:1027800068FD20684069400621D52068143050E873
:10279000001F21F0400140E80012002AF5D1A06B93
:1027A000A8B16C490165A06BFFF737F8002811D07C
:1027B000A06B016D01B0BDE8F040084783060ED55F
:1027C00093060CD52046BDE8F84000F069BD2046D0
:1027D000FFF78CFFF8BDFFF789FF2564F8BD266B76
:1027E0002023012E79D1C60677D5D60675D508687F
:1027F000486800904869400640D5A16B0868406869
:102800000004000CEAD0A28D8242E7D9E085C869B5
:10281000B0F5807F2DD020680C3050E8001F21F4E7
:10282000807140E80012002AF5D12068143050E889
:10283000001F21F0010140E80012002AF5D12068B4
:10284000143050E8001F21F0400140E80012002A37
:10285000F5D184F83E30256320680C3050E8001F25
:1028600021F0100140E80012002AF5D1A06BFEF71C
:102870008BFFA08DE18D401A81B229E0A08DE18D02
:10288000401A81B2E08D0028A8D00029A6D0206887
:102890000C3050E8002F22F4907240E80026002E01
:1028A000F5D12068143050E8002F22F0010240E8F2
:1028B0000026002EF5D184F83E30256320680C30C8
:1028C00050E8002F22F0100240E80023002BF5D141
:1028D0002046FFF70AFFF8BDFFE705062BD51506D2
:1028E00029D594F83D002128F5D1A068B0F5805F86
:1028F00001D12069B0B1206A411C216221680078B1
:102900004860E08C401E0004000CE084E3D12068A5
:10291000C16821F08001C1602068C16841F04001B8
:10292000C160D8E7206A0088C0F308004860206AC8
:10293000801C2062E5E74006CDD55006CBD5CA689D
:10294000204622F04002CA6084F83D3000F0FDF8D5
:10295000C1E700004332000870B5040004D094F8C9
:102960003D00002510B106E0012070BD84F83C5008
:10297000204600F023F8242084F83D002068C16838
:1029800021F40051C160204600F0F4FC2068016988
:1029900021F4904101612068416921F02A014161DF
:1029A0002068C16841F40051C1602564202084F88A
:1029B0003D0084F83E00002070BD000010B586B0D8
:1029C000044614216846FDF7B7FC18492068884280
:1029D00029D117480021026842F0200202600068F5
:1029E00000F02000059012481438026842F04002BE
:1029F0000260006800F0400005904FF484400090B1
:102A00000220CDE9010103200390082004906946CB
:102A10000848FEF727FF002205214720FFF7E4F8CA
:102A20004720FFF7D3F806B010BD000000140140A6
:102A3000443802400018024090F83E30202B0ED15E
:102A400059B152B190F83C30012B08D0012380F8E5
:102A50003C300023036300F013BD012070470220C7
:102A60007047000010B50068074988420AD107493D
:102A7000074800F089FABDE81040012203490548E3
:102A8000FFF7DABF10BD0000001401409C1B0020BE
:102A90008C180020C80300202DE9F843044690F864
:102AA0003D001F4616460D4620284CD1C5B1BEB18B
:102AB00094F83C00012846D0012084F83C004FF0F7
:102AC0000008C4F84080212084F83D00FEF7EEFFA6
:102AD000A6848146E684A068B0F5805F03D004E058
:102AE0000120BDE8F883206928B12E465FF000057B
:102AF00084F83C800EE00026FAE78021204600F0B2
:102B0000DCFCA0B9AEB116F8010B21684860E08C7E
:102B1000401EE084E08C4B464FF0000200970028F6
:102B2000EBD14FF04001204600F0C7FC30B103204C
:102B3000D7E735F8020BC0F30800E6E7202084F859
:102B40003D000020CDE70220CBE77047FEE7000004
:102B500080EC030AC160C0ED041A01219FED020A56
:102B6000816180ED050A704700007A4470B50B4D15
:102B700004212846FEF790FF094C01280BD10A20BA
:102B8000FEF75EFE04212846FEF786FF012802D1EB
:102B90002068401C2060206870BD000000040240D6
:102BA0000000002080ED000A9FED040A80ED010A7C
:102BB00080ED020A0C3080EC030A70470000000030
:102BC000F0EE401A90ED000AD0ED040A70EE200AF3
:102BD000C0ED010A90ED050A30EE800A80EE801A01
:102BE00080ED031A90ED020A71EEC01A01EE210A7F
:102BF000F7EE001A31EEC11A80ED020A61EE200AEA
:102C0000C0ED000A70470000144810B51249016079
:102C10000321416000214FF400228160C0E90312CA
:102C20004FF440124261017641768176C176017798
:102C30004177FEF728FC08B1FEF77CF9074800F061
:102C4000F9FE0648FEF748FD002803D0BDE8104015
:102C5000FEF770B910BD00000064004010030020B2
:102C6000074910B5054808600846FEF768FD0028CA
:102C700003D0BDE81040FEF75DB910BD0030024042
:102C80000800002000B587B01C2206496846FDF701
:102C90003AFB0021684600F0EDFE0349086007B0EA
:102CA00000BD0000B048000804000020F0B587B067
:102CB00014216846FDF740FB3D480024016841F0BF
:102CC00040010160016801F040010591016841F097
:102CD00001010160016801F001010591016841F005
:102CE00008010160016801F008010591016841F0E7
:102CF00080010160016801F080010591016841F0E7
:102D000020010160016801F020010591016841F096
:102D100002010160016801F002010591016841F0C2
:102D2000100101600068234D00F0100005900022A2
:102D300040212846FEF7B5FE1F4F002202213846EB
:102D4000FEF7AFFE402000900126CDE90164694600
:102D500028460394FEF786FD0420CDE90004694669
:102D600016480294FEF77EFD02250095CDE9016428
:102D7000694638460394FEF775FD4FF4C070CDE9FF
:102D80000005032602940820CDE9036069460C483B
:102D9000FEF768FD3002CDE9000502940720CDE979
:102DA000036069460748FEF75DFD07B0F0BD00000F
:102DB0003038024000140240001802400004024073
:102DC00000100240000C024010B586B000241748E5
:102DD000009401940294039404944FF0804105946C
:102DE000016042F2CF01C0E901140921C0E90314D6
:102DF00080218161FFF736FA08B1FEF79BF84FF4A6
:102E00008050009069460948FFF7CAFA08B1FEF7FA
:102E100091F8049404A905480594FFF7DBF900280C
:102E200001D0FEF787F806B010BD0000380300207F
:102E300010B586B0002417480094019402940394BE
:102E4000049413490594016042F2CF01C0E90114D2
:102E50000921C0E9031480218161FFF703FA08B159
:102E6000FEF768F84FF48050009069460948FFF774
:102E700097FA08B1FEF75EF8049404A90548059492
:102E8000FFF7A8F9002801D0FEF754F806B010BDEE
:102E900000040040800300200C4810B50A4901607E
:102EA0004FF4E1214160002181600C22C160C0E942
:102EB00004128161C161FFF74FFD002803D0BDE816
:102EC0001040FEF737B810BD00140140C8030020C1
:102ED000FEE7FEE7F8B504466946F030FDF796FFD9
:102EE00000280AD0A1780025201D39B101290ED073
:102EF00002291ED0032927D0A570F8BD9DF8001027
:102F00003A29FAD10122A270E2702954F8BD9DF845
:102F100000200D2A06D1E178212903D10223A370D4
:102F2000222303E0E178232929D24B1CE3700A54C1
:102F3000F8BD9DF800200A2AF4D1E1782229F1D1C8
:102F40000323A3702323F1E7201DFDF77AFF012857
:102F500015D14FF6FF732322211D0A48FFF79CFD70
:102F600004F128010E46201DFDF77CFF04F1A003AB
:102F700004F17C0204F15801304601F071F8A570AB
:102F8000E570F8BDC803002070B5087800250C4630
:102F90000A280CD02C280CD0A1783C22B1FBF2F3EB
:102FA00002FB13122244491CA170D07070BDA570A1
:102FB00010E0A570E01C00F063FB51EC100BFDF776
:102FC00059FA617804EB8102491C617010646078E1
:102FD000062800D965703C21E01CBDE87040FDF773
:102FE000ABB900000B4CA0B080216846FDF7A4F9F6
:102FF00000226946084800F03BFC1822694620463A
:1030000000F036FC684601F0BDF8012000F026FD16
:10301000EAE70000141A00208C18002010B5502098
:1030200080F31188BFF34F8FBFF36F8F01F078FBF0
:1030300018B104494FF080500860002080F31188D7
:1030400010BD000004ED00E030B593B030216846BB
:10305000FDF772F914210CA8FDF76EF91D48002543
:10306000016841F080510160006800F080501190CB
:103070001948016841F4404101600068022400F4ED
:103080004040119001200090000401908001CDE9A2
:10309000064006200890A820CDE9090407200B90DF
:1030A0006846FEF7DFFE08B172B6FEE70CA90F20F6
:1030B00081E831004FF4A0500F904FF480501090F1
:1030C00005210CA8FEF7C2FD002801D072B6FEE76C
:1030D00013B030BD40380240007000400248016823
:1030E00041F470010160704788ED00E00148FFF78E
:1030F000C6B90000380300200148FFF7C0B900003E
:10310000800300200148FFF7BAB900000C0400203A
:10311000F0B50268254C264D264E274F274B4FF021
:10312000804CA04209D0604507D0A84205D0B042EB
:1031300003D0B84201D0984204D122F0700E4A6800
:1031400042EA0E02A0421BD0604519D0A84217D017
:10315000B04215D0B84213D0984211D0184DA842B1
:103160000ED0184DA8420BD0174DA84208D0174DCD
:10317000A84205D0164DA84202D0164DA84203D150
:1031800022F44075CA682A434D6922F080022A431E
:1031900002608A68C2620A688262A04201D09842D4
:1031A00001D10969016301214161F0BD00000140C5
:1031B0000004004000080040000C004000040140F2
:1031C0000040014000440140004801400018004018
:1031D000001C00400020004010B5846842EA032231
:1031E00024F47F440A432243826010BD826822F0A7
:1031F00070020A4342F007018160704710B5036A0C
:10320000046A24F001040462846924F0F00444EAAE
:10321000021423F00A020A438461026210BD10B551
:10322000036A23F0100303628369046A23F4704382
:1032300043EA023224F0A00343EA011182610162F1
:1032400010BD10B5806B0021C185C184FFF74EFA17
:1032500010BD01680C3151E8002F22F4907241E852
:103260000023002BF5D10168143151E8002F22F022
:10327000010241E80023002BF5D1016B012909D19E
:1032800001680C3151E8002F22F0100241E80023C0
:10329000002BF5D1202180F83E10002101637047FA
:1032A00008B590F83E10222901D0022008BD82689E
:1032B0004FF480539A4201D1016921B1816A9A4247
:1032C0001BD04AB10AE00268816A5268C2F3080260
:1032D0000A80816A891C08E0026972B1026852683A
:1032E00002F07F020A70816A491C8162C18D491E09
:1032F0000904090CC18503D019E002685268F1E79E
:103300000168CA6822F02002CA600168CA6822F413
:103310008072CA6001684A6922F001024A61202174
:1033200080F83E10016B012903D0FFF79BFB0020C2
:1033300008BD0021016301680C3151E8002F22F023
:10334000100241E80023002BF5D101680A68D2067B
:1033500002D50A6849680091818DFFF7C6F9E6E752
:1033600001B501231A4669460148FFF795FB08BDE0
:10337000C803002070B5044600680169E26821F4C2
:103380004051114301612169A068E2690843616904
:10339000114308432168CA6849F20C639A43024307
:1033A000CA6020684169A26921F4407111434161FA
:1033B00031492068884202D03049884202D1FEF764
:1033C0000FFD01E0FEF7FCFCE269002319216425F2
:1033D0003226B2F5004F626828D0A0FB0101930F9E
:1033E0009200FCF75FFF0146B0FBF5F06FF01802AA
:1033F000504301EB800006EB0010B0FBF5F000F04D
:10340000F002B1FBF5F002EB0012B1FBF5F06FF04A
:103410001803584301EB800006EB0010B0FBF5F0F9
:1034200000F00F0021681044886070BDA0FB01010E
:1034300092185B41FCF736FF0146B0FBF5F0020144
:10344000B1FBF5F06FF01803584301EB800006EB79
:10345000C000B0FBF5F000F0F80002EB4002B1FB59
:10346000F5F0584301EB800006EBC000B0FBF5F02F
:1034700000F00700D6E700000010014000140140F2
:1034800081628285C28500210164222280F83E206B
:1034900080F83C10016921B10168CA6842F4807269
:1034A000CA6001684A6942F001024A610068C16865
:1034B00041F02001C160002070472DE9F04198469D
:1034C00017460E460446069D27E0681C25D02DB100
:1034D000FEF7ECFAA0EB0800A8421ED920680C30D9
:1034E00050E8001F21F4D07140E80012002AF5D105
:1034F0002068143050E8001F21F0010140E800125C
:10350000002AF5D1202084F83D0084F83E000020F8
:1035100084F83C000320BDE8F0812068006836EAAA
:10352000000004D00020B842CFD00020F3E70120F3
:10353000F9E700000148FFF7DBB80000C8030020EE
:10354000FEE70907090E002804DB00F1E02080F8FF
:103550000014704700F00F0000F1E02080F8141D07
:103560007047000010B510EE104A4FF01A402DEDD4
:10357000028B00EB4400B0F1C85F4AD84FF0FC402A
:10358000B0EB440F22D2B0EEC00AF7EE000A30EEE4
:10359000C00AF6EE000A20EE208A18EE100A00F0AB
:1035A0001AFE00EE100A14F0004F1DBF9FED281AFE
:1035B000DFED280AB1EE400A9FED271A08BFF0EEB2
:1035C000410AF8EE001A20EE210A05E020EE008AFA
:1035D0009FED221ADFED220ADFED221A9FED222A4B
:1035E00070EEC00A20EE080A08EE212ADFED1F1A4D
:1035F00048EE021A9FED1E2A08EE212ADFED1D1A61
:1036000048EE021ABDEC028B40EE610A30EE810AF0
:1036100010BD4FF0CC40B0EB440F82BF9FED160AB7
:10362000BDEC028B10BD4FF07F40B0EB440F05D2D4
:10363000BDEC028BBDE8104000F08BB8012000F01B
:10364000A9F8BDEC028BBDE8104000F085B8000081
:103650000000494022AA7D3A000000000000C93F56
:1036600022AAFD3924FE1C3DC78AD83C1E67383D7E
:103670001B93993DAFAA2A3EDB0FC93F0000000013
:1036800030B583B0044600F06FF89FED090B054696
:103690008DED000B002221466846FCF742FF2846CC
:1036A00000F078F89DED000B03B030BD0000000085
:1036B0000000000000000000B4EEE00AF1EE10FA95
:1036C00001DCB0EE600A7047B4EEE00AF1EE10FAE9
:1036D00001D3B0EE600A704700B52DED048BB0EE5B
:1036E000409AF0EE609A83B051EC190BFDF752F856
:1036F00041EC180B18EE100A18EE901A8DED008BA5
:10370000002818BF0120084320F00040C0F17F606E
:1037100000F1E040C00F14D019EE101A19EE900A13
:103720008DED009B002918BF0121084320F00040C7
:10373000C0F17F6000F1E040C00F04BF012000F045
:1037400029F8B0EE480A03B0F0EE680ABDEC048B2D
:1037500000BD30EE000A7047DFED020A80EEA00ADD
:10376000704700000000000001480068704700003A
:103770008800002002E008C8121F08C1002AFAD100
:1037800070477047002001E001C1121F002AFBD1E1
:103790007047000001490860704700008800002061
:1037A00030380A2801D201207047002070470121DB
:1037B00031EE601A814070EE600A491E00EE101A68
:1037C000B8EEC00A20EE800AC0EE010ABDEEE00AA3
:1037D00010EE100A7047000070B5B2EE0E0A2DED23
:1037E000028B044680ED020AB2EE040A80ED030A61
:1037F0009FED1B0ADFED1B0A80ED000AC0ED5F0A9A
:1038000000206061A061E06184ED040A84ED010A9A
:10381000C4F88001401E9FED148ADFED148A002554
:10382000C4F8840105EB450000EBC50004EBC000C3
:103830002C30FDF7ADFB05EB450004EBC000B6EE08
:10384000001AF0EE480AB0EE680A00F59A70FFF729
:10385000A9F96D1C032DE5DBBDEC028B70BD0000EA
:10386000000000003333B33F6F12833A0AD7A33C02
:10387000034610B588185C690460121D88189C699D
:103880000460121D8818DC690460101D0A181C6889
:103890001460001D0A185C681460001D0A189C68FA
:1038A0001460001D0A18DC68001D146001441A69C8
:1038B0000A60001D10BD80ED041AC0ED021A80EDF3
:1038C000032A80EC020A70472DED028BFEF7FCF80C
:1038D000FFF7BAFBFFF7EAF9FFF796F9FFF7DCFA13
:1038E000FFF772FAFFF7A4FAFFF7BAF94048FFF7BB
:1038F00073FF3F4E9FED3F8ADFED3F8A4FF47A78AA
:103900000027D6ED5F1A4146B0EE481AF0EE680A7D
:10391000B7EE000A3948FFF71BF93948BC1E0068AA
:1039200004613748FEF7FCFC3648006804613548FE
:10393000FEF7F6FC01213448FDF7E2FA0221334894
:10394000FDF732FB012232493248FFF775F8FFF7E5
:1039500099F900F08AF8002404EB041000EB4410FD
:1039600006EBC00595ED5F0AB5EEC00AF1EE10FA60
:103970001ED02B20284A6043294602EB80009FED91
:10398000271ADFED270AB7EE000AFDF7AFF91B494A
:10399000C4EBC40001EBC000D5ED5F1A4146B0EEA8
:1039A000481AF0EE680AB7EE000AFFF7D1F87F1C5C
:1039B000641C022CD0DB1B4D00F01CF95FF00004EE
:1039C000C4EB841000EB042005EB8000FFF782FAC3
:1039D000641C042CF4DBFFF7C9F8012801D1FDF7C2
:1039E000ABFA0A20FDF72CFF002FE5D1B3E700006A
:1039F0008C18002003F8AB410C02AF40641D00207E
:103A0000380300208003002054040020100300200D
:103A10009C1B0020C80300200C1C002000007A44DE
:103A20002586A2419C04002001460020842900D064
:103A3000C81C704700B58BB000210122CDE90612E9
:103A40000591009101910291039104910E21CDE91C
:103A500008216946FDF71EFB0BB000BD10B500B98B
:103A6000012000F0F9FC002010BD10B500F01AFD97
:103A7000002010BD7FB50D4604464169B0F908002D
:103A800081B1A16971B1FFF7CFFFD4E905128DE8CB
:103A90000700D4E900102B46226900F016FE0390BF
:103AA00004B070BDFFF7C0FF03A9CDE90001208A73
:103AB0002B4682B2D4E9001000F0DAFD012801D0D3
:103AC0000020EDE70398EBE70FB4024670B5DDED9B
:103AD000050ADFED432AB0EE620AFFF7EDFD9FED28
:103AE000411AF0EE410AFFF7EFFDF0EE403ADDED4E
:103AF000060ABBEE0E0AFFF7DFFDF3EE0E0AFFF734
:103B0000E3FD9FED394AB0EE403ADDED070AB0EE35
:103B1000440AFFF7D1FDDFED354AF0EE640AFFF706
:103B2000D3FDF0EE401ADDED080AB0EE440AFFF7CF
:103B3000C3FD9FED2F5AF0EE450AFFF7C5FDB0EE2D
:103B4000402ADDED090ABAEE0E0AFFF7B5FDF2EEE6
:103B50000E0AFFF7B9FDF0EE405A1020F0EE620AAF
:103B6000B0EE630AFFF723FE05460C20B3EE0E1AF3
:103B7000FBEE0E0AB0EE430AFFF719FE04460C20D6
:103B8000B0EE641AF0EE440AB0EE610AFFF70FFEE1
:103B900003460C20B0EE451AF0EE440AB0EE420A9D
:103BA000FFF705FE06460C20B2EE0E1AFAEE0E0ADC
:103BB000B0EE650AFFF7FBFD290A02F81C1F210978
:103BC00055709170210141EA1321D17013713109AF
:103BD0005171010A9171D07170BC5DF814FB000045
:103BE000DA0F49C1DA0F4941000000000000FA4332
:103BF0000000C842024A03490348FDF7A3B8000089
:103C00008C1800209C1B00200C1C00202DE9F0418A
:103C1000184C0F460546E6682068001D00F055FB6D
:103C200038B9206890F82C10012088402169814320
:103C30002161681C07D137B12168BDE8F0410E4809
:103C4000091D00F085BB20683544B54245602168F8
:103C500005D2A06BBDE8F041091D00F061BB606BAF
:103C6000091D00F05DFBA06A854200D2A562BDE897
:103C7000F081000020000020B01E00202DE9F0415E
:103C8000054600F071FB2E4CA068401CA060206827
:103C90002C4F10B1606940B32DE02560A068012869
:103CA00029D1002606EB860007EB800000F02AFBF6
:103CB000761C072EF6D323488C3000F023FB2148D6
:103CC000A03000F01FFB1F48B43000F01BFB1D4864
:103CD000C83000F017FB1B48DC3000F013FB19481C
:103CE0008C3060631430A06305E02068E96AC06A24
:103CF000884200D82560606A401C6062E96A012041
:103D0000226988401043206101EB810007EB8000AD
:103D1000291D00F01DFB00F047FB606900280CD056
:103D20002068E96AC06A884207D207494FF080508C
:103D30000860BFF34F8FBFF36F8FBDE8F0810000C5
:103D400020000020D41D002004ED00E010B5044642
:103D500090F8510058B101280CD002280FD0502003
:103D600080F31188BFF34F8FBFF36F8FFEE7206B97
:103D700000F02EFB2046BDE8104000F029BB10BD2E
:103D800010484FF47051420706D0C01D0D4920F075
:103D90000700411AC1F570510B4A00230144C2E9E2
:103DA00000030839183A21F0070111604B600B60DD
:103DB0000B1AC0E9001393604FF00040536050614C
:103DC00070470000C41E002074000020144E154CE3
:103DD000A6F1C8074FF08058DFF84C9012E000BF02
:103DE00000F0C2FAF068C568281D00F06EFAA068FD
:103DF000401EA0606068401E606000F0D5FA284652
:103E0000FFF7A4FF60680028EAD138680128F9D9D3
:103E1000C9F80080BFF34F8FBFF36F8FF2E7000048
:103E20009C1E00202000002004ED00E02DE9F0475A
:103E30009A46DDE9098481466FF00303206B03EBAA
:103E400082021044089E20F00707780707D0502010
:103E500080F31188BFF34F8FBFF36F8FFEE700250C
:103E600061B1002023180A5C83F834200A5C12B187
:103E7000401C1028F6D384F8435001E084F83450F5
:103E8000072E00D30626E662C4E91165201D00F066
:103E900044FA04F1180000F040FA2461C6F107006A
:103EA0006462A061E56484F8505052464946384641
:103EB00000F0C0F82060B8F1000F01D0C8F8004051
:103EC000BDE8F08730B5114900E011460A6882422A
:103ED000FBD34B685C18844203D1406818444860A7
:103EE000084643681C18944209D1084C183C2468C1
:103EF000A24209D052681A4442600A6812680260FD
:103F0000814200D0086030BD0460F9E774000020F1
:103F10000648416B096829B1416BC968C96849689D
:103F2000816270474FF0FF31FAE700002000002067
:103F300008484068401C4FF0500080F3118804D0BE
:103F4000BFF34F8FBFF36F8FFEE7BFF34F8FBFF30A
:103F50006F8FFEE77C0000202DE9F0410546002729
:103F600000F0D6FA324E306808B9FFF709FF7069E1
:103F700005424ED1C5B3083568070ED005F00700DD
:103F8000C0F108000544680707D0502080F311886D
:103F9000BFF34F8FBFF36F8FFEE72DB3706885427D
:103FA00037D82348183001460C6801E020460C46FB
:103FB0006168A94202D221680029F7D131688C4298
:103FC00027D007682168016060680837411B102905
:103FD0000FD96019420708D0502080F31188BFF331
:103FE0004F8FBFF36F8FFEE713E041606560FFF70F
:103FF00069FF61687068401A7060B268904200D2D0
:10400000B060706901430020C4E90001F068401C01
:10401000F06000F0EBFB780707D0502080F31188A8
:10402000BFF34F8FBFF36F8FFEE73846BDE8F081D7
:104030005C00002010B5031F4FF080741C601B1F34
:1040400021F001011960191F044B0B6014390A603B
:10405000091F6FF0020244380A6010BD313F0008AA
:1040600070B590ED050AD0ED060A00F1140520EEBA
:10407000000A16460C4600EEA00AD0ED070A00EE34
:10408000A00AD0ED080A00EEA00A10EE100AFCF714
:10409000DEF941EC100BFFF71FFB51EC100BFCF7A6
:1040A000E9F900EE100AD5ED000A95ED011AD5EDFB
:1040B000032A80EE802AC1EE000A95ED021A00253F
:1040C000C1EE001A20EEA03A20EE824A82EE801A5B
:1040D000B0EE000A60EEA13A21EEA15A61EE825ADA
:1040E00061EE814A61EE011A60EE812AF7EE000A64
:1040F00021EE021A35EE216AB0EE602A73EE211A23
:1041000006EE402A84ED002A33EEC12A33EE811AEE
:1041100022EE002A21EE001A84ED012A32EEA52AB1
:1041200022EE002A84ED022A84ED031AB0EE601A12
:1041300001EEC01A84ED041A34EEC41A21EE001AFE
:1041400084ED051A32EEE51A21EE001A84ED061A06
:1041500034EE841A21EE001A84ED071A33EE051AA4
:1041600041EE400AC4ED080A04EB850090ED000A18
:10417000FFF7F8F906EB85006D1C80ED000A092DAC
:10418000F2DB70BD00B59BB0042201468DF8002023
:104190000DF10100FCF7B7F8684600F002F81BB01B
:1041A00000BD70B505463A20FFF7DAF82878FFF72A
:1041B000D7F8002404E028194078FFF7D1F8641CF0
:1041C0002878A042F7DC0D20FFF7CAF8BDE8704060
:1041D0000A20FFF7C5B810B500EE100A2DED028BCE
:1041E000B1EEC08A18EE100A20F00040C0F1FF4086
:1041F000C00F0AD010EE100A20F00040C0F1FF40BE
:10420000C00F04BF0120FFF7C5FA18EE100ABDEC7D
:10421000028B10BD01EE100A70EEC00A0120B8EE4C
:10422000C11A8840401E21EE201A00EE900AF8EED6
:10423000E01AC1EE210A30EE800A704710B502463E
:1042400031F81D0FDFED170A8B78CC781B0143EA9C
:104250001413097904F00F0441EA042440BA102130
:104260009FED110AFFF7D6FFF0EE400A0C21B0EEE9
:10427000602AF3EE0E0ABBEE0E0A1846FFF7CAFFDD
:10428000F0EE400A0C21F0EE602AF2EE0E0ABAEED1
:104290000E0A2046FFF7BEFF82ED020A82EC022AD8
:1042A00010BD0000DA0F4941DA0F49C191ED080A4B
:1042B00080ED130A80ED060A91ED090A80ED110ADE
:1042C00091ED0A0A80ED0E0A7047D0E901320169CA
:1042D0009A60D0E901235A604A68824201D182681B
:1042E0004A60002202610868401E08600868704742
:1042F000034B036003F15400086080201060704796
:104300008C00002000F108014FF0FF32C0E90112DB
:10431000C1600161002101607047002101617047A7
:1043200030B50B685A1C02D000F1080202E00269A5
:1043300004E02246546825689D42FAD953684B60D0
:1043400099608A60516008610168491C016030BD54
:1043500042684A6093688B60936859609160086115
:104360000168491C01607047502080F31188BFF339
:104370004F8FBFF36F8F0A494868401C486001287F
:104380000CD10848006810F0FF0F07D0502080F3D0
:104390001188BFF34F8FBFF36F8FFEE770470000A8
:1043A0007C00002004ED00E00849486828B1401E68
:1043B000486001D180F311887047502080F3118844
:1043C000BFF34F8FBFF36F8FFEE700007C0000202C
:1043D00070B500282AD0164DA0F1080460686969FC
:1043E000084207D1502080F31188BFF34F8FBFF3ED
:1043F0006F8FFEE722683AB1502080F31188BFF337
:104400004F8FBFF36F8FFEE78843606000F080F846
:1044100060686968084468602046FFF753FD2869B2
:10442000401C2861BDE8704000F0E0B970BD00009C
:104430005C0000204FF0E02000210161816105490E
:104440004FF47A720968B1FBF2F1491E416107210C
:10445000016170471C00002010B5020014D00F4805
:10446000006B38B1502080F31188BFF34F8FBFF33A
:104470006F8FFEE700F04CF800211046FFF7C6FBF7
:1044800000F0B4F9002807D105494FF080500860CA
:10449000BFF34F8FBFF36F8F10BD000020000020CF
:1044A00004ED00E010B586B00024039405AA04A929
:1044B00003A80494FFF71CFFDDE903010094CDE994
:1044C000011000230EA11048059A00F0FEF80F49D4
:1044D0000028C86211D0502080F31188BFF34F8F9D
:1044E000BFF36F8F4FF0FF30886201204861CC60CE
:1044F00006B0BDE8104000F041B806B010BD0000A5
:1045000049444C4500000000CD3D0008200000203B
:104510000248016B491C0163704700002000002025
:104520001448016B11B10121C16170470021C161C3
:104530000169B1FA81F1C1F11F0101EB81020E495C
:1045400051F822306BB101EB820101F108034A6896
:1045500052684A609A4201D152684A60D16801604B
:104560007047502080F31188BFF34F8FBFF36F8FD8
:10457000FEE7000020000020D41D00201CB53748B5
:104580000168374A914207D1502080F31188BFF368
:104590004F8FBFF36F8FFEE700683149491E884295
:1045A00007D1502080F31188BFF34F8FBFF36F8F77
:1045B000FEE72C4908780190FF20087008788DF8F4
:1045C00000009DF800009DF8002000F0F0009042EF
:1045D00007D0502080F31188BFF34F8FBFF36F8F48
:1045E000FEE79DF80000204C00F0500020700720EE
:1045F000A06005E09DF8002052008DF80020401ECC
:104600009DF800201206F5D4A060032807D05020A2
:1046100080F31188BFF34F8FBFF36F8FFEE74FF426
:104620004070A060019808700C482030016841F487
:1046300070010160016841F070410160FFF7FAFE0E
:1046400000206060FBF7E0FD0848016841F0404150
:104650000160FBF7C5FD00201CBD000000ED00E07F
:1046600071C20F4100E400E07C00002034EF00E064
:104670002DE9FF5F8346DDE90E87994616468A4697
:104680009000FFF769FC05001CD05420FFF764FC84
:10469000040014D00020256384F85100CDE90240C5
:1046A000CDE900874B46324651465846FFF7BEFBE0
:1046B0002046FFF7E3FA012004B0BDE8F09F28464A
:1046C000FFF786FE4FF0FF30F6E7F0B585B0DDE985
:1046D0000B640A9DA6B1DCB154270097266302261D
:1046E00084F85160002604AFCDE90246CDE90057B9
:1046F000FFF79CFB2046FFF7C1FA049805B0F0BD18
:10470000502080F31188BFF34F8FBFF36F8FFEE708
:10471000502080F31188BFF34F8FBFF36F8FFEE7F8
:104720002DE9F0412F4C0026206B28B1A069401CD8
:10473000A0613046BDE8F081E5686D1CE56013D1ED
:10474000606B006838B1502080F31188BFF34F8F41
:10475000BFF36F8FFEE7606BA16B6163A063206A9C
:10476000401C2062FFF7D4FBA06ADFF87C80854202
:1047700009D3606B0068A0B1606BC068C7687868D7
:10478000854211D2A0622068C06A00EB800158F80F
:104790002100012800D90126E0690028C9D001269E
:1047A000C7E74FF0FF30EDE7381DFFF78EFDB86A21
:1047B00018B107F11800FFF788FDF96A0120226996
:1047C00088401043206101EB810108EB8100391D15
:1047D000FFF7BEFDF86A2168C96A8842C9D301267D
:1047E000C7E7000020000020D41D00202DE9F0477D
:1047F0002C4D00242746286B38B1FFF7B5FD286BF8
:10480000401E2863286B40B146E0502080F3118899
:10481000BFF34F8FBFF36F8FFEE7A968224E0120D1
:10482000D1B3A6F1B40980463068E8B1F068C46835
:1048300004F11800FFF749FD201DFFF746FDE06A6F
:104840002A6908FA00F11143296100EB800109EBA4
:104850008100211DFFF77CFDE06A2968C96A884252
:10486000E2D3C5F81C80DFE70CB1FFF751FBAC6960
:1048700044B14646FFF754FF00B1EE61641EF9D122
:104880000020A861E86938B10849012738070860A5
:10489000BFF34F8FBFF36F8FFFF786FD3846BDE83C
:1048A000F087000020000020881E002004ED00E0BA
:1048B00024490008E52F0008000000000000000067
:1048C0008000000000000000000000000000000068
:1048D00000000000010203040607080900000000B0
:1048E00001020304DDDDDDDDDCBBBBDDDDDDDDDDA7
:1048F000DDDDDDDD98888888888888887777777718
:1049000077888888855555566666666666666666E3
:10491000666888888333333222222222222222228E
:104920002228888D64656661756C745461736B00B0
:1049300050490008000000208C0000007437000877
:10494000DC4900088C0000203C5E00008437000831
:104950000000000000000000000000000000000057
:104960000100000010000000000000000024F4001E
:104970000000000000000000000000000000000037
:104980000000000000000000000000000000000027
:104990000000000000000000000000000000000017
:1049A0000000000000000000000000000000000007
:1049B00000000000000000000000000000000000F7
:1049C00000000000000000000000000000000000E7
:0C49D000AAAAAAAA000000000000000033
:04000005080001AD41
:00000001FF
