:020000040800F2
:10000000B00F00208102000803320008752E00089E
:10001000013200081D1000080D3800080000000023
:10002000000000000000000000000000C101000806
:100030006D110008000000001D020008D532000804
:100040009B0200089B0200089B0200089B0200081C
:100050009B0200089B0200089B0200089B0200080C
:100060009B0200089B0200089B0200089B020008FC
:100070009B0200089B0200089B0200089B020008EC
:100080009B0200089B0200089B0200089B020008DC
:10009000211000089B0200089B0200089B02000838
:1000A0009B0200089B0200089B0200089B020008BC
:1000B000A5330008B13300089B0200089B0200082A
:1000C0009B0200089B0200089B0200089B0200089C
:1000D0009B0200089B0200089B020008F5370008FD
:1000E0009B0200089B0200089B0200089B0200087C
:1000F0009B0200089B0200089B0200089B0200086C
:100100009B0200089B0200089B0200089B0200085B
:100110009B0200089B020008BD3300089B020008F8
:100120009B0200089B0200089B0200089B0200083B
:100130009B0200089B0200089B0200089B0200082B
:100140009B0200089B0200089B0200089B0200081B
:100150009B0200089B0200089B020008013800086F
:100160009B0200089B0200089B0200089B020008FB
:100170009B0200089B0200089B0200080000000090
:100180009B0200089B020008FD34000809350008A6
:100190009B0200089B0200089B0200089B020008CB
:1001A00000000000000000009B020008DFF80CD0F7
:1001B00000F02EFC0048004789440008B00F0020E2
:1001C0002C4B19680868B0E8F04F80F30988BFF33A
:1001D0006F8F4FF0000080F311887047000000001F
:1001E00008480068006880F308884FF0000080F33A
:1001F000148862B661B6BFF34F8FBFF36F8F00DF15
:1002000000BF00BF08ED00E0DFF80C00016841F41A
:1002100070010160704700BF88ED00E0EFF30980D6
:10022000BFF36F8F134B1A681EF0100F08BF20ED3D
:10023000108A20E9F04F106009B44FF0500080F3AD
:100240001188BFF34F8FBFF36F8F04F09BFB4FF00C
:10025000000080F3118809BC19680868B0E8F04F05
:100260001EF0100F08BFB0EC108A80F30988BFF3AE
:100270006F8F704718000020EFF305807047000073
:100280000648804706480047FEE7FEE7FEE7FEE730
:10029000FEE7FEE7FEE7FEE7FEE7FEE79533000830
:1002A000AD0100082DE9F05F0546002092469B460F
:1002B00088460646814640241BE02846414647467C
:1002C000224600F018F953465A46C01A914110D3FD
:1002D00011461846224600F0FFF82D1A67EB010878
:1002E0004F4622460120002100F0F6F817EB0009E6
:1002F0004E41201EA4F10104DFDC484631462A4667
:100300004346BDE8F09F40EA01039B0703D009E0A4
:1003100008C9121F08C0042AFAD203E011F8013BF1
:1003200000F8013B521EF9D27047D2B201E000F84A
:10033000012B491EFBD270470022F6E710B5134689
:100340000A4604461946FFF7F0FF204610BD2DE986
:10035000F04D81EA030404F0004B21F000451446FF
:100360004FF0000A23F0004150EA050220D054EA81
:1003700001021DD0C5F30A570246C5F31303C1F3AA
:100380001300C1F30A5640F4801543F48013A7EB21
:100390000608101BD64608F2FD3873EB050002D3A1
:1003A00008F1010801E092185B41B8F1000F03DA8F
:1003B00000200146BDE8F08D00204FF48011064674
:1003C00084460EE0171B73EB050705D3121B63EB86
:1003D000050306434CEA010C49084FEA3000921825
:1003E0005B4150EA0107EDD152EA030012D082EAE4
:1003F000040083EA0501084305D0101BAB4106D277
:100400000122002306E000224FF0004302E06FF0DB
:10041000010253101AEB06004CEB085110EB0A00D6
:1004200041EB0B01BDE8F04D00F0FBB80EB5C10F7C
:1004300080EAE0700844CA07002140F233438DE8A7
:100440000E000A460B4600F0FBF803B000BD00F0BA
:10045000004230F000400AD0C10D01F56071C0F3D8
:10046000160042EA0151C2084007114370470020BC
:100470000146704701F0004330B421F0004150EADA
:10048000010206D00A0DA2F56072C1F31301002A21
:1004900002DC30BC00207047440F44EAC104C100B4
:1004A000E01830BC00EBC25000F084B830B50B4609
:1004B000014600202022012409E021FA02F59D4294
:1004C00005D303FA02F5491B04FA02F52844151E68
:1004D000A2F10102F1DC30BD202A04DB203A00FA4F
:1004E00002F1002070479140C2F1200320FA03F38B
:1004F000194390407047202A04DB203A21FA02F089
:100500000021704721FA02F3D040C2F1200291404D
:1005100008431946704700000FB4002300B589B0A6
:100520000CA900910B996FF00042CB601E4B069313
:100530001E4B07930423CDE901321D4A089202465F
:100540006B46002000F00EFB09B05DF814FB70B59F
:1005500086B006464FF0FF300091CDE90101002042
:1005600015460C4604903246694604A8FFF7D4FFAE
:1005700002460498211825B108B1084600E020463B
:100580002860049800280DD0002A02DD00988842D7
:1005900008D0081B0094CDE901043246694604A83E
:1005A000FFF7BAFF06B070BD9D0D0008BB0D000837
:1005B000590A00080029A8BF7047401C490008BF1D
:1005C00020F00100704710B4B0FA80FC00FA0CF083
:1005D00050EA010404BF10BC704749B1CCF12004BB
:1005E00021FA04F411FA0CF118BF01212143084348
:1005F000A3EB0C01CB1D4FEA00614FEA102042BF74
:10060000002010BC704700EBC35010440029A4BF69
:1006100010BC7047401C490008BF20F0010010BC0E
:10062000704710B5141E73F1000408DA401C41F144
:10063000000192185B411A4301D120F0010010BD66
:100640002DE9F04D92469B4611B1B1FA81F202E0DC
:10065000B0FA80F220329046FFF73EFF04460F4684
:1006600040EA0A0041EA0B0153465A46084313D0B8
:10067000114653EA010019D0C8F140025046FFF775
:100680003AFF05460E46504659464246FFF724FFBC
:10069000084305D0012004E020463946BDE8F08D2E
:1006A0000020054346EAE0762C4337430A98630569
:1006B000E40AA0EB08000022FD0A44EA47540A308D
:1006C00002D500200146E9E7010510196941DDE97D
:1006D000084500196941BDE8F04DA2E72DE9FE4F3C
:1006E000804681EA0300C00F0C46009021F00041D3
:1006F00023F00045B8EB0200A94105D2404621464F
:1007000090461C460B46024623F00040104347D05B
:10071000270DC7F30A00C3F30A510290401A019053
:1007200040286BDAC3F3130040F4801B0098924614
:1007300020B10023D2EB030A63EB0B0B019859465F
:10074000C0F140025046FFF7C7FE06460D46504630
:100750005946019A00F06EF910EB0800614100243F
:1007600087EA115284EAE7731A4340D0009A62B3D1
:10077000019A012A4FEA075215DC001B61EB0201C6
:100780004FF0004202EA0752CDE90042001C41F559
:10079000801132462B46FFF753FF03B0BDE8F08FC0
:1007A00040462146F9E7001B61EB0201001C41F5C0
:1007B000801300185B412018A2F5001747EB0301D6
:1007C00040EAD570B6196D4111E06D084FEA360662
:1007D00045EAC0754FEA0752001B61EB0201001C9D
:1007E00041F5801149084FEA300000195141324665
:1007F0002B4603B0BDE8F04FFFF713BF009801226E
:1008000040000023D0EB020263EBE0730098214626
:100810004FEAE074B8EB000061EB0401E9E783F014
:1008200000435BE781F0004158E72DE9FE4F81EA84
:10083000030404F0004421F0004100944FF0000B49
:1008400023F0004350EA01045ED052EA03045BD077
:10085000C3F30A54C1F30A552C44A4F2F3340194AF
:10086000A0FB0254C1F3130141F48011C3F313033D
:1008700043F4801301FB024400FB034E840A970AF1
:1008800044EA815447EA8357A4FB076802958D0A1E
:1008900005FB07854FEA932C04FB0C542705029DAA
:1008A0004FEA065847EA1637B5EB08056EEB070C1A
:1008B000870E920E47EA811742EA8312A7FB0201D4
:1008C000B6EB0B0164EB00042B0D43EA0C335E180E
:1008D00044EB1C50DA465146E7FB0201C5F3130412
:1008E0004FEA0B3343EA14534FEA0432019C43EAC4
:1008F0000603A4F10C040294009CCDE900B4FFF7B8
:100900009FFE03B0BDE8F08F00200146F9E72DE916
:10091000F04D00231A461B1A8A4103DB00200146D2
:10092000BDE8F08DC1F30A52C1F3130141F4801503
:100930004FF0000BD10702D100186D41521E002765
:10094000044640F2FF11384601EB620A3E468046FB
:10095000024600204FF48011FFF7CDFDC21971410E
:10096000BB1846EB0100B4EB030C75EB000C04D391
:10097000E41A65EB000517460E46241908F101003C
:100980006D4180463428E3DDF91946EB0600091B6A
:10099000A84103D24FF0FF32134601E00022134674
:1009A0001BEB070046EB0A51BDE8F04DFFF739BEDF
:1009B000C1F30A52C1F3130140F2FF3341F4801135
:1009C0009A4202DA00200146704740F233439A42CD
:1009D000A2F2334202DC5242FFF78DBDFFF77CBD2D
:1009E00030B5041E71F1000404DB4FF000444042B6
:1009F00064EB0101141E73F1000405DB1C464FF08B
:100A00000043524263EB0403994208BF904230BD59
:100A1000064C074D06E0E06840F0010394E807004B
:100A200098471034AC42F6D3FFF7C4FB044B0008E0
:100A3000244B0008202A06DBCB17203A41FA02F0AB
:100A400043EAE07306E041FA02F3D040C2F120022B
:100A50009140084319467047C0B24FF4F05100F07E
:100A6000BDB900002DE9FF4F087881B09946FF28F5
:100A700005D0491C2D2804D00024002308E00023C1
:100A80000BE00124F9E703EB830300EB4303491C6C
:100A90000878FF28F7D104B15B4200200090147859
:100AA00001462D2C01D02B2C04D1521C2D2C12D000
:100AB0000024009400251678FF2E0ED00A24A0FBF7
:100AC00004C801FB0481002700FB0711521C16EB30
:100AD0000C006941EFE70124EBE7994450EA010279
:100AE0000ED00024AA4D2646DFF8A88200F08AF92D
:100AF00082468B46B9F1000009DAC9F100071BE014
:100B000001980021C0E9001105B0BDE8F08F07464B
:100B100012E0F80707D022462B4630464146FFF741
:100B200084FE0646884622462B4610461946FFF7A5
:100B30007CFE04460D467F10002FEAD1B9F1000F6C
:100B4000324643465046594602DAFFF700FC01E0C0
:100B5000FFF76BFE009A0AB181F00041019AC2E9E9
:100B60000001D1E72DE9FF4F1F468DB0D7E90146BF
:100B70004FF0FF382E2045464FF000090B90B96921
:100B80006D1C0E988847396A824688470028F6D13E
:100B9000BAF1FF3F0AD024F4D064002E11DDBAF17F
:100BA0002B0F08D0BAF12D0F0BD102E0404611B047
:100BB000ABE744F48064B9696D1C0E98884782469F
:100BC000761E6946600501D52D2000E02B208DF8AA
:100BD000000001F1010B0DF1200809E0B9696D1C5D
:100BE0000E98884782460F9844F40074761E05607C
:100BF000002E02DDBAF1300FF0D00B998A453ED1BC
:100C000044F0800406E00F99681CA9F1010944F43E
:100C100000740860B9696D1C761E0E98884782467C
:100C20003028F0D02BE00B998A4505D1200603D45B
:100C300044F08004761E18E0504602F0E7FF08B347
:100C40000DF11301761E44F400748B4508D2AAF10D
:100C500030000BF8010B200607D5A9F1010003E0D5
:100C6000200602D409F101008146A00502D50F99A2
:100C7000681C0860B9696D1C0E9888478246002E72
:100C8000D1DC53E0002E51DDBAF1650F02D0BAF18C
:100C9000450F4BD1A00549D5B9696D1C24F44074AA
:100CA000761E0E9888478246002E0CDD2B2804D035
:100CB000BAF12D0F07D144F48074B9696D1C0E98F8
:100CC00088478246761EE00501D52D2100E02B21C4
:100CD00008F8011BCDF82C8021E00DF12901761ECA
:100CE00044F4007488450CD2AAF1300010F0FF00E3
:100CF00088F8000002D10B99884509D908F101084C
:100D000006E0E00501D5244801E042F20F7081467B
:100D1000B9696D1C0E98884782460F980560002EB1
:100D200004DD504602F072FF0028D6D1F9690E9812
:100D30008847FF208BF8000088F80000002006900C
:100D400007904B466A4608A906A8FFF78BFEA00548
:100D500002D46FF001002AE714F0240F0AD0E00754
:100D600014D1DDE906123868031D3B600068C0E954
:100D700000120BE0DDE90601FFF77CFB0146E0070E
:100D800004D13868021D3A600068016028460EE709
:100D9000000024400000F03FF1D8FFFF426842B15C
:100DA000016811F8013B23B1521EC0E90012184638
:100DB00070470121C160881E704742685AB1C368FC
:100DC000016843B983688B4205D0491E521CC0E9B3
:100DD0000012002070474FF0FF3070477F2801D984
:100DE000002208E0064A02EB5002C007127800D148
:100DF000120902F00F0201209040084070470000E5
:100E0000C44A00080EB540F2334202920022CDE9F6
:100E100000221346FFF714FC03B000BDDFED070A04
:100E200090ED130AB3EE0E2ADFED031AB0EE601A4E
:100E3000084603F01FBB000000004842000000000D
:100E4000F0B52DED028B85B0D0ED050AD0ED118AFD
:100E500090ED091A41EE208AC0ED118A90ED138AB7
:100E600008EEA08A80ED138AD0ED010A90ED021AF7
:100E700000EEE80AD0ED060A78EE600A01EE600A9C
:100E800090ED001AC0EE010AC0ED090A80ED068A55
:100E900010EE900AFFF7DBFA06460F4618EE900AAE
:100EA000FFF7D5FA04460D4618EE100AFFF7CFFA01
:100EB0008DE8F00041EC100B04A053EC102B02F075
:100EC000A7FC05B0BDEC028BF0BD000025662C250B
:100ED000662C25660D0A000070B50446D0F8A800FF
:100EE000B0EE401A0D46012821D1D4ED080AF5EEE6
:100EF000C00AF1EE10FA1ADDA06A012804D12046DA
:100F000003F012FD0020A062B0EE410A2046FFF778
:100F100097FF94ED080AD4ED050A2946204630EEE5
:100F2000600A84ED080ABDE87040FFF777BF012032
:100F3000A06270BD80EC030A4FF47A72C26091ED3A
:100F40005F0A80ED040A9FED0F0A80ED050A9FED10
:100F50000E0A80ED060AD1ED090AC0ED070AD1EDAF
:100F6000080A0121C0ED130A80ED110A80ED0F0A75
:100F7000BFEE000A80ED080AC0F8A8108162503068
:100F800000F012B96F12833A0000000091ED100AD0
:100F90000A46B5EEC00AF1EE10FA01D190ED000A52
:100FA00080ED000A92ED110AB5EEC00AF1EE10FADA
:100FB00001D190ED010A80ED010A92ED120AB5EE21
:100FC000C00AF1EE10FA01D190ED020A80ED020A9A
:100FD00092ED130AB5EEC00AF1EE10FA01D190EDD0
:100FE0000F0A80ED0F0A92ED140AB5EEC00AF1EE79
:100FF00010FA01D192ED1B0A82ED1B0A92ED150A3F
:10100000B5EEC00AF1EE10FA01D190ED080A1821F0
:1010100080ED080A02F14000FFF78EB9FEE70000FC
:10102000014800F03EBA00008C0000204160002121
:101030008160C160016108214161034600F11C0229
:10104000011D014800F0CEB88C00002030B50346E9
:101050000020B3F81940024601215D5C491C2A4476
:1010600092B21929F9DBA24200D1012030BD000063
:1010700070B504462DED028B0D4634F9010F00EEDC
:10108000100AB8EEC00A81ED000A617AD4F80600B1
:1010900061F31F60FFF7CAF99FED2E1B53EC112B74
:1010A000FFF755F9FFF7E6F96860B4F90A00FFF7B2
:1010B000BDF99FED2A8B53EC182BFFF748F9FFF78A
:1010C000D9F9A860B4F90C00FFF7B0F953EC182B6C
:1010D000FFF73DF9FFF7CEF9E860B4F90E00FFF72E
:1010E000A5F953EC182BFFF732F9FFF7C3F9286184
:1010F000B4F91000FFF79AF953EC182BFFF727F912
:10110000FFF7B8F96861B4F91200FFF78FF99FEDA6
:10111000158B53EC182BFFF71AF9FFF7ABF9A86101
:10112000B4F91400FFF782F953EC182BFFF70FF90D
:10113000FFF7A0F9E861B4F91600FFF777F953EC6F
:10114000182BFFF704F9FFF795F92862BDEC028B25
:1011500070BD0000000000000000794000000000A9
:101160000088C3400000000000408F40704700002E
:101170001CB5416000218160C160016108214161AD
:1011800005A10346D1E90021CDE90021011D6A46F0
:10119000034800F027F81CBDFFFFFFFFFFFFFFFC27
:1011A0008C00002072B6FEE700219FED040A016565
:1011B00080ED150A5021FFF7BFB8000000000000C5
:1011C00090F82020012A07D0022A05D0416A41F474
:1011D0008021416201207047006842690A434261F0
:1011E00000207047F0B590F820500468A468012DE5
:1011F00005D0022D03D0416A41F4802153E014F060
:10120000406F01D1E5004BD5C4F30164022C03D932
:10121000416A41F4000146E00125A5401D608D684A
:101220004FF4C0739DB1CE6835434E6845EAC6059C
:10123000066803EB0417F5514FF4C275076805EB18
:1012400004150E697E51097D012905D009E00E883B
:10125000CD6845EA4655EBE701684E5946F480767D
:101260004E511179D2F805504FF4C67641EA052562
:10127000016806EB04168D511178D2F801204FF465
:10128000C47541EA0221026805EB0415515100685A
:1012900003EB0411425842F0010242500020F0BD1D
:1012A000416A41F4001141620120F0BD10B590F88F
:1012B0002020012A07D0022A05D0416A41F480216A
:1012C0004162012010BD3B48D0F8002242F00102EB
:1012D000C0F80022D0F8002222F47C52C0F800228C
:1012E000D0F800224B6A42EA0322C0F800220A7DAD
:1012F00002F01F0301229A40D0F81C329343C0F839
:101300001C32CB69B3B9D0F80C329343C0F80C321D
:101310008C894B6864F31F434C6900EBC404C4F828
:1013200040320C890B6864F31F434C6900EBC40422
:10133000C4F84432CB69012B16D1D0F80C321343D8
:10134000C0F80C320C884B6864F31F434C6900EB07
:10135000C404C4F840320C89CB6864F31F434C6961
:1013600000EBC404C4F844328B69002BD0F804327B
:101370000ED01343C0F804320B69002BD0F814329E
:1013800008D01343C0F81432096A012904D008E0D8
:101390009343EFE79343F5E7D0F81C121143C0F8ED
:1013A0001C12D0F8001221F00101C0F80012002038
:1013B00010BD000000640040704730B590F8204038
:1013C000012C05D0022C03D0416A41F480215DE05C
:1013D0000468002955D02469A40754D04FF4D87468
:1013E000056804EB01142D5915F004059560056896
:1013F0002D594ED0ED08556005682C5904F00204B3
:10140000D4604FF4DA74056804EB01142D5905F02B
:101410000F05156105682D59C5F307259561056808
:101420002C59240C54614FF4DC72046802EB011255
:10143000A4581C700468A458240A5C700468A4585A
:10144000240C9C700468A258120EDA704FF4DE72FD
:10145000046802EB0112A4581C710468A458240A01
:101460005C710468A458240C9C710468A258120E84
:10147000DA71006881B1016941F020010161002049
:1014800030BDE468A8E7416A41F4001141620120DF
:1014900030BD6D0D1560AFE7C16841F02001C1603E
:1014A000EDE72DE9F05F0546006800244669D0F8B5
:1014B00004908768D0F80CB0D0F810A0D0F818804D
:1014C000F10748D0F90714D001218160B80703D58E
:1014D000284600F03CFA0CE0780702D54FF400648F
:1014E00007E0380702D54FF4805402E0284600F0A8
:1014F0002DFAF80516D529684FF480708860B80574
:1015000003D5284600F025FA0CE0780502D544F40E
:10151000005407E0380502D544F4804402E0284630
:1015200000F016FAF80316D529684FF48030886069
:10153000B80303D5284600F00EFA0CE0780302D574
:1015400044F4004407E0380302D544F4803402E058
:10155000284600F0FFF9300707D55FEACB6004D5D5
:101560002968102044F40074C86070074FF0080721
:1015700007D55FEA0B7004D52868C760284600F0DD
:1015800057F9B00706D52868C068800702D02846FA
:1015900000F050F9700607D55FEACA6004D52968E3
:1015A000102044F480640861B00607D55FEA0A7031
:1015B00004D528680761284600F098F9F00606D59A
:1015C00028680069800702D0284600F090F9B0032F
:1015D00008D55FEAC96005D529681020486028460B
:1015E00000F086F9F00307D55FEA097004D5286892
:1015F0004760284600F0B0F9300446D55FEA4970EC
:1016000040D5F00504D55FEAC87001D044F001046C
:10161000B00504D55FEA887001D544F00204700576
:1016200004D55FEA487001D544F00404300529D59B
:1016300018F0700F26D008F07000402815D006DC96
:10164000102809D020280AD0302816D10AE05028C6
:101650000ED0602811D10EE044F008040DE044F0F3
:1016600010040AE044F0200407E044F0400404E0E1
:1016700044F0800401E044F480742868816921F01A
:1016800070018161296804204860002C05D0686AD7
:10169000204368622846FFF78FFEBDE8F09F70B5D3
:1016A000040003D094F8200010B104E0012070BDC4
:1016B000204600F081F82068016841F001010160D6
:1016C00000F0D8FA0546052604E000F0D3FA401BE6
:1016D0000A2811D820684068C007F6D02068016841
:1016E00021F00201016000F0C5FA05460BE000F0B0
:1016F000C1FA401B0A2806D9606A40F400306062D3
:1017000084F82060D2E7206840688007EFD4207E0C
:101710000128206801683DD021F080010160607ED1
:1017200001282068016838D021F040010160A07EC6
:1017300001282068016833D021F020010160E07E9B
:101740000128206801682ED041F010010160207F3F
:1017500001282068016829D021F008010160607F1C
:1017600001282068016824D021F004010160D4E937
:1017700002010843D4E90412114308436168491E79
:1017800008432168C86100206062012084F82000BD
:10179000002070BD41F08001C0E741F04001C5E785
:1017A00041F02001CAE721F01001CFE741F0080124
:1017B000D4E741F00401D9E710B586B004461421FE
:1017C0006846FEF7B9FD17492068884227D11648B8
:1017D0000021026842F000720260006800F00070B0
:1017E000059011481038026842F008020260006853
:1017F000022200F0080005900320CDE90210CDE997
:101800000002092004906946084800F013F90022FC
:101810000521142000F0CCFA142000F0BBFA06B029
:1018200010BD00000064004040380240000C02403F
:10183000704700002DE9F041284906460068096814
:10184000884249D1254B0021143BA3F11C023046AC
:10185000FFF7B3FD60BB21483038007F012834D149
:101860001E491F48303903F027F81D4D0024143D50
:1018700005EB840704EB440005EBC00097ED050A77
:1018800000F59A7001F006FB641C87ED080A032C32
:10189000EEDB1449086832280BDA00F10100086019
:1018A00095ED050AD1ED010A30EE200A81ED010A1D
:1018B0000BE00AD14FF03300086091ED010ADFED33
:1018C0000A0A80EE201A85ED5F1A3046BDE8F04125
:1018D0004FF00201FFF774BCBDE8F0818C000020DE
:1018E000AC0600200000002000004842704770470E
:1018F0007047000070B5044690F82000012804D01D
:10190000606A40F40020606218E0022084F8200041
:101910002068016821F00101016000F0ABF9054683
:101920000EE000BF00F0A6F9401B0A2808D9606A43
:1019300040F400306062052084F82000012070BD72
:1019400020684068C007EDD1606270BD7047704785
:10195000704770477047704770472DE9F041044663
:10196000876D00F087F9064694F8350000250228B7
:1019700006D08020606584F834500120BDE8F081F5
:101980002068016821F0160101602068416921F09A
:1019900080014161206C08B9A06C20B12068016809
:1019A00021F0080101602068016821F00101016057
:1019B0000CE000F05FF9801B052807D92020606546
:1019C000032084F8350084F83450D7E72068006895
:1019D000C007EED194F85C103F208840B860012029
:1019E00084F8350084F834500020C7E790F83510AB
:1019F000022903D08021416501207047052180F82C
:101A000035100068016821F0010101600020704775
:101A100070B5044600F02EF90546601C02D004485B
:101A20000078044400F026F9401BA042FAD370BDB0
:101A3000080000202DE9F84FDFF8F8A1002201246A
:101A400003254FF00F090AF1040BAAF1040E00BFA1
:101A50000B6804FA02F63340B34270D10F7907F0F5
:101A60000307012F01D0022F16D187684FEA4208E1
:101A700005FA08FC27EA0C07D1F80CC00CFA08FCA0
:101A80004CEA070CC0F808C04768B7430E79C6F3A4
:101A9000001696403E4346600E79F643B6070AD0DC
:101AA000C7684FEA420C05FA0CF6B7438E6806FA8F
:101AB0000CF63E43C6600E7906F00306022E10D1E6
:101AC000D60800EB8608D8F8206057074FEAD76C95
:101AD00009FA0CF7BE430F6907FA0CF73743C8F849
:101AE000207006684FEA420C05FA0CF7BE430F79E6
:101AF00007F0030707FA0CF7374307604E6816F440
:101B0000403F1CD04C4E376847F4804737603668FA
:101B100022F0030706F480460096484E07EB060CB9
:101B2000DCF8086897073F0F09FA07F826EA080665
:101B3000DFF80C81404503D14FF0000841E072E02E
:101B4000DFF80081404502D14FF0010839E0DFF8AD
:101B5000F880404502D14FF0020832E0DFF8EC8017
:101B6000404502D14FF003082BE0DFF8E480404508
:101B700002D14FF0040824E0DFF8D880404502D1BC
:101B80004FF005081DE0DFF8D080404502D14FF04E
:101B9000060816E0DFF8C480404502D14FF0070880
:101BA0000FE0DFF8BC80404502D14FF0080808E0A4
:101BB000DFF8B080404502D14FF0090801E04FF056
:101BC0000A0808FA07F848EA0608CCF80888DAF89C
:101BD00000605746D1F804C09E435FEACC2C00D584
:101BE0001E433E60DBF800605F46D1F804C09E43B0
:101BF0005FEA8C2C00D51E433E60DEF8006077461D
:101C0000D1F804C09E435FEA8C3C00D51E433E6081
:101C1000084F083F3E68D1F804C09E435FEACC3CC1
:101C200000D51E433E60521C102AFFF411AFBDE8E0
:101C3000F88F0000083C0140443802400030014069
:101C4000000002400004024000080240000C024074
:101C5000001002400014024000180240001C024024
:101C600000200240002402400AB18161704709044B
:101C7000FBE7000001488068704700000800002072
:101C80000248816802781144816070470800002092
:101C90000B4810B5016841F400710160016841F41E
:101CA00080610160016841F480710160032000F0EF
:101CB0009FF80F2000F006F800F050F8002010BD4B
:101CC000003C024030B505461F4887B0002401683B
:101CD00041F010010160006806A900F010000090BA
:101CE00001A800F031F90498A8B100F04DF94000C6
:101CF0001649174AB0FBF1F11648491E026040F23E
:101D0000E732C0E90324C0E90114846100F08EFBCE
:101D1000040003D015E000F037F9E9E70D4800F0C2
:101D2000E3FB04000DD1362000F034F8102D07D26B
:101D300000222946362000F03BF80748056000E005
:101D4000012407B0204630BD4038024040420F0019
:101D500000100040980200200C0000200C4882B0C7
:101D6000016841F480410160006800F48040009007
:101D70000748001F016841F080510160006800229F
:101D800000F0805000900F21901E02B000F010B8BB
:101D900044380240002809DB00F01F020121914075
:101DA0004009800000F1E020C0F8001170470000F9
:101DB000F0B40E4B1B680C46C3F30223C3F10705B6
:101DC000042D00D90425191D072901D2002300E0A4
:101DD000DB1E012606FA05F1491E214099409E406E
:101DE000761E16403143F0BC01F022BD0CED00E040
:101DF000064900F0070208684FF6FF03184040EA62
:101E00000220034A10430860704700000CED00E018
:101E10000000FA052DE9F0470E46050065D0DFF811
:101E20001481D8F80000F7B200F00F00B04207D2DA
:101E300088F80070D8F8000000F00F00B04254D1CC
:101E400028683D4C810712D5400703D5206840F42F
:101E5000E05020602878000703D5206840F46040F7
:101E600020602068A96820F0F000084320602878EE
:101E7000C0072DD0304968680839012812D00228DF
:101E800013D0032811D00968890700292DDA2168A9
:101E900021F0030101432160FFF7ECFE814641F28E
:101EA000883A0EE009688903EFE709688901ECE7E1
:101EB000FFF7E0FEA0EB0901514502D90320BDE880
:101EC000F0872068696800F00C00B0EB810FEFD15B
:101ED000D8F80010404601F00F01B14207D9077051
:101EE000006800F00F00B04201D00120E7E7287839
:101EF000400705D52068E96820F4E05008432060D9
:101F00002878000706D52068296920F4604040EA57
:101F1000C100206000F058F82168084AC1F303119D
:101F2000515CC8400649086006480068FFF7CAFED1
:101F30000020C4E7003C024008380240AC4A0008D8
:101F4000140000200C0000200F2202600C4A1368CD
:101F500003F003034360136803F0F0038360136826
:101F600003F4E053C36012684FF4E05303EAD20273
:101F700002610448006800F00F000860704700002C
:101F800008380240003C02400448054900680968DE
:101F9000044AC1F38221515CC840704714000020FC
:101FA00008380240BC4A000804480549006809682E
:101FB000044AC1F34231515CC8407047140000200C
:101FC00008380240BC4A0008154810B5006810F0F7
:101FD0000C02144813D01449042A0FD0082A0ED139
:101FE0000F4C241F2268236802F03F025B0207D5D2
:101FF0002068C0F38810A0FB010106E0084610BD70
:102000002168C1F38811A1FB00010023FEF74AF902
:102010002168C1F30141491C4900B0FBF1F010BD3A
:10202000083802400024F400001BB7002DE9F84FE7
:1020300004006ED02078DFF84C93C007A9F10405A6
:102040004AD009F104000168C1F38101012908D0D7
:102050000068C0F3810002280AD1D9F800004002CC
:1020600006D52868800337D560680028E1D033E0C2
:102070006068B0F5803F10D0B0F5A02F286810D070
:1020800020F480302860286820F480202860606870
:10209000A8B1FFF7EFFD06460DE0286840F4803058
:1020A000F4E740F480202860F7E700BFFFF7E2FD87
:1020B000801B642873D828688003F7D50CE0FFF7ED
:1020C000D9FD064605E000BFFFF7D4FD801B64285C
:1020D000F0D828688003F7D42078DFF8AC82800736
:1020E0004FF0000A3ED5A748001D016811F00C0F03
:1020F00008D00068C0F3810002280BD1D9F8000095
:10210000400207D42868800716D5E068012800D16E
:1021100012E033E1E068B8B10120C8F80000FFF731
:10212000A9FD064605E000BFFFF7A4FD801B0228BD
:10213000C0D828688007F7D52868216920F0F80002
:1021400040EAC10028600DE0C8F800A0FFF792FD4A
:10215000064604E0FFF78EFD801B02281FD8286882
:102160008007F7D42078000722D5864F8748616919
:10217000703771B101210160FFF77CFD064604E074
:10218000FFF778FD801B022809D838688007F7D54B
:102190000EE0C0F800A0FFF76DFD064605E082E006
:1021A000FFF768FD801B02287DD838688007F7D4C8
:1021B0002078400768D5DFF8CCB100270BF13C0B45
:1021C000DBF80000C0000BD4DBF8001041F08051B8
:1021D000CBF80010DBF80000012700F080500090E1
:1021E0006B4E3068C00510D4306840F480703060A9
:1021F000FFF740FD009005E0FFF73CFD0099401A15
:10220000022850D83068C005F6D55E4EA0686C36FE
:1022100001280FD00528306810D020F00100306070
:10222000306820F004003060A068B8B1FFF722FDEC
:1022300000900FE0306840F00100F4E740F0040047
:102240003060F7E7FFF716FD0099411A41F2883038
:10225000814266D830688007F4D50EE0FFF70AFDAA
:10226000009007E0FFF706FD0099411A41F288301F
:10227000814256D830688007F4D42FB1DBF80010C3
:1022800021F08051CBF80010A069C8B33D49091D69
:102290000968C1F3810102294AD00228504607D0BB
:1022A000C8F8600000E03CE0FFF7E4FC04463BE0D7
:1022B0004746C8F86000FFF7DDFC064605E000BFB2
:1022C000FFF7D8FC801B02282BD828688001F7D4A0
:1022D000D4E907010843A16A2E4A490802EB0141EB
:1022E000626A41EA8211084394F82C1040EA0161C5
:1022F000C9F8001001203866FFF7BCFC044606E070
:102300003EE000BFFFF7B6FC001B022809D8286892
:102310008001F7D534E000BFFFF7ACFC001B0228BA
:1023200002D90320BDE8F88F28688001F4D427E0A3
:102330000128F7D0D9F80000E26900F48001914249
:102340001CD1226A00F03F01914217D147F6C071BB
:10235000626A0140B1EB821F10D1A26A4FF0FF33D5
:1023600000F4403103EB5202B1EB024F06D194F876
:102370002C1000F07060B0EB016F01D00120D1E7AC
:102380000020CFE70438024000004742800E474259
:10239000007000400000FFFF7047704770B590F874
:1023A0003C20012A32D0012480F83C40022280F8EF
:1023B0003D2003685A689D6822F070060A6832431F
:1023C0005A60134B02689A4214D0B2F1804F11D078
:1023D000104B9A420ED0104B9A420BD00F4B9A42A0
:1023E00008D00F4B9A4205D00E4B9A4202D00E4BAA
:1023F0009A4204D1496825F080031943916080F81E
:102400003D40002180F83C10084670BD022070BDA0
:10241000000001400004004000080040000C0040A3
:1024200000040140004001400018004010B50400C5
:1024300003D094F83D0010B107E0012010BD00204A
:1024400084F83C00204600F01FF8022084F83D008C
:10245000211D206800F0B8FF012084F8460084F8B0
:102460003E0084F83F0084F8400084F8410084F87E
:10247000420084F8430084F8440084F8450084F85E
:102480003D00002010BD000008B501681448B1F1FE
:10249000804F14D0134A914220D1016841F00201CB
:1024A00001600068002200F00200009005211D205C
:1024B000FFF77EFC1D20BDE80840FFF76BBC0168FC
:1024C00041F0010101600068002200F0010000906D
:1024D00005211C20FFF76CFC1C20ECE708BD000068
:1024E000403802400004004090F83D10012901D01E
:1024F00001207047022180F83D100168CA6842F04F
:102500000102CA6000681149884214D0B0F1804FBE
:1025100011D00F4988420ED00E4988420BD00E4987
:10252000884208D00D49884205D00D49884202D022
:102530000C49884204D1816801F00701062903D0C3
:10254000016841F001010160002070470000014076
:102550000004004000080040000C0040000401405E
:10256000004001400018004070B5044690F83C005F
:102570000025012817D0012684F83C60022084F849
:102580003D002068826822F0770222F47F42826058
:102590000868502838D00DDC20284FD005DC90B3D7
:1025A000102811D14AE0022070BD302846D04028C2
:1025B0000AD13BE060282FD070280DD0B0F5805FA5
:1025C00003D0B0F5005F12D0012584F83D600020F3
:1025D00084F83C00284670BDCB68D1E90121206811
:1025E00000F056FF2068816841F0770109E0CB6870
:1025F000D1E90121206800F04BFF2068816841F497
:1026000080418160E1E719E0CA684968206800F00C
:1026100051FF5021206806E0CA684968206800F030
:102620005AFF6021206800F03DFFCEE7CA68496884
:10263000206800F03FFF40212068F4E7226801464F
:102640001046F0E7704770B50446006801694FF026
:102650000005C943890715D4C168C943890711D446
:10266000E91E0161012020772068806980072046EB
:1026700002D0FFF7E7FF04E000F098F8204600F0F2
:1026800096F8257720680169C943490717D4C168BE
:10269000C943490713D46FF0040101610220207778
:1026A0002068806910F4407F204602D0FFF7CAFFFF
:1026B00004E000F07BF8204600F079F825772068E8
:1026C0000169C943090716D4C168C943090712D46F
:1026D0006FF008010161042020772068C06980073D
:1026E000204602D0FFF7AEFF04E000F05FF820467E
:1026F00000F05DF8257720680169C943C90617D441
:10270000C168C943C90613D46FF0100101610820E4
:1027100020772068C06910F4407F204602D0FFF780
:1027200091FF04E000F042F8204600F040F82577E1
:1027300020680169C943C90708D1C168C943C907ED
:1027400004D1891E0161204600F032F82068016939
:10275000C943090609D4C168C943090605D46FF005
:10276000800101612046FFF717FE20680169C94317
:10277000490609D4C168C943490605D46FF0400130
:102780000161204600F066F820680169C9438906A6
:102790000BD4C168C943890607D46FF020010161D9
:1027A0002046BDE87040FFF7F8BD70BD7047704728
:1027B000F0B506460068204FDFB0B84231D11F4C5B
:1027C0001F4D204694ED0F0A2946FEF785FB1D4854
:1027D00090ED1B0AB5EEC00AF1EE10FA05DDDFED53
:1027E0001A0A30EE600A80ED1B0AB5EEC00AF1EE5F
:1027F00010FA02DD94ED0F0A01E09FED140A104972
:1028000084ED0F0A4FF4BC720C316846FDF77BFD76
:1028100095E80E000E4801F0D3FE01210C48FEF7AA
:1028200005FC3068B84204D15FB0BDE8F040FFF766
:1028300027BA5FB0F0BD000000100040100A002071
:1028400098060020A00900206F12833A00000000C3
:10285000E00200207047704770470000F8B501683B
:1028600004460868CA684B6910F00F0F4FF0000566
:102870005AD003F0010602F49077374365D0C107C0
:1028800005D0D10503D5216C41F001012164410738
:1028900005D5D90703D0216C41F0020121648107DD
:1028A00005D5D90703D0216C41F00401216401074B
:1028B00007D502F02001314303D0216C41F008011B
:1028C0002164216C00293BD0800604D5900602D5F6
:1028D000204600F04EFE20684069216CC0F3801055
:1028E00001F00801014320462BD000F01BFE2068B8
:1028F0004069400621D52068143050E8001F21F0BF
:10290000400140E80012002AF5D1A06BA8B16C4943
:102910000165A06BFFF76AF8002811D0A06B016D6C
:1029200001B0BDE8F040084783060ED593060CD5EC
:102930002046BDE8F84000F01CBE2046FFF78CFFA3
:10294000F8BDFFF789FF2564F8BD266B2023012E13
:1029500079D1C60677D5D60675D50868486800903F
:102960004869400640D5A16B086840680004000C27
:10297000EAD0A28D8242E7D9E085C869B0F5807FB0
:102980002DD020680C3050E8001F21F4807140E801
:102990000012002AF5D12068143050E8001F21F001
:1029A000010140E80012002AF5D12068143050E8F7
:1029B000001F21F0400140E80012002AF5D184F800
:1029C0003E30256320680C3050E8001F21F01001D4
:1029D00040E80012002AF5D1A06BFEF7BEFFA08DE3
:1029E000E18D401A81B229E0A08DE18D401A81B2BB
:1029F000E08D0028A8D00029A6D020680C3050E82F
:102A0000002F22F4907240E80026002EF5D12068B5
:102A1000143050E8002F22F0010240E80026002E7A
:102A2000F5D184F83E30256320680C3050E8002F43
:102A300022F0100240E80023002BF5D12046FFF7DA
:102A40000AFFF8BDFFE705062BD5150629D594F832
:102A50003D002128F5D1A068B0F5805F01D1206943
:102A6000B0B1206A411C2162216800784860E08C86
:102A7000401E0004000CE084E3D12068C16821F00E
:102A80008001C1602068C16841F04001C160D8E7A1
:102A9000206A0088C0F308004860206A801C206219
:102AA000E5E74006CDD55006CBD5CA68204622F0D2
:102AB0004002CA6084F83D3000F0DBF9C1E7000055
:102AC0001535000870B5040004D094F83D000025C9
:102AD00010B106E0012070BD84F83C50204600F0A3
:102AE00023F8242084F83D002068C16821F40051B7
:102AF000C160204600F09EFD2068016921F49041EC
:102B000001612068416921F02A0141612068C168A2
:102B100041F40051C1602564202084F83D0084F810
:102B20003E00002070BD0000F0B587B004461421BF
:102B30006846FDF701FC6149DFF87CC12668002387
:102B40005E4A10390225032408275D4866451FD1D7
:102B5000166846F080461660126802F080420592C0
:102B60000A6842F010020A60096802AE01F0100122
:102B70000591E101CDE9001586E898006946FEF768
:102B800059FF002205215220FFF712F9522021E0BF
:102B9000DFF830C1664521D1166846F00046166060
:102BA000126802F0004205920A6842F010020A60C0
:102BB0000968CDE9004501F01001CDE90471CDE9C6
:102BC00002346946FEF736FF002205215320FFF745
:102BD000EFF85320FFF7DEF807B0F0BDDFF8E8E0CC
:102BE0003A484FF0070C764519D1166846F400367E
:102BF0001660126802F4003205920A6842F0080278
:102C00000A60096802AE01F0080105916021CDE972
:102C1000001586E818106946FEF70CFFDCE7DFF8C0
:102C2000B0E0764520D1166846F48026166012681A
:102C300002F4802205920A6842F008020A600968DC
:102C400002AE01F0080105914FF44071CDE9001585
:102C500086E818106946FEF7EDFE002205212720C0
:102C6000FFF7A6F82720B5E71A488642B4D11348E3
:102C7000001D026842F020020260006800F020009F
:102C80000590086840F040000860086802AA00F05B
:102C9000400005904FF48440CDE9000582E898009B
:102CA00069460D48FEF7C6FE002205214720FFF7C2
:102CB0007FF847208EE7000000780040403802404F
:102CC00000100240007C004000440040000C024024
:102CD00000480040001401400018024090F83E30C7
:102CE000202B0ED159B152B190F83C30012B08D0B5
:102CF000012380F83C300023036300F021BD012054
:102D0000704702207047000010B5006822498842D1
:102D100007D1224800F076FA20490122DC31204810
:102D200034E02049884208D11F49204800F0A5FA24
:102D30001B4801221C49443028E01D4988420FD11C
:102D4000164800F05FFA154AB432A2F1480101F1C9
:102D5000240001F01BFB124801221049CC3815E079
:102D60001449884208D11448044600F04BFA0C4834
:102D700001222146883809E0104988420AD10748D3
:102D800000F040FA0648012204494438BDE81040EA
:102D9000FFF7A4BF10BD000000480040280300203A
:102DA0001002002000140140A00900209806002015
:102DB00000780040007C0040BC050020004400403A
:102DC0002DE9F843044690F83D001F4616460D468F
:102DD00020284CD1C5B1BEB194F83C00012846D0A2
:102DE000012084F83C004FF00008C4F84080212006
:102DF00084F83D00FEF73EFFA6848146E684A06885
:102E0000B0F5805F03D004E00120BDE8F8832069BD
:102E100028B12E465FF0000584F83C800EE00026C5
:102E2000FAE78021204600F0A8FCA0B9AEB116F860
:102E3000010B21684860E08C401EE084E08C4B462A
:102E40004FF0000200970028EBD14FF040012046E0
:102E500000F093FC30B10320D7E735F8020BC0F344
:102E60000800E6E7202084F83D000020CDE702209E
:102E7000CBE77047FEE7000080ED000A9FED040AF3
:102E800080ED010A80ED020A0C3080EC030A7047E5
:102E900000000000F0EE401A90ED000AD0ED040AA8
:102EA00070EE200AC0ED010A90ED050A30EE800AAE
:102EB00080EE801A80ED031A90ED020A71EEC01ABE
:102EC00001EE210AF7EE001A31EEC11A80ED020A76
:102ED00061EE200AC0ED000A70470000144810B5EA
:102EE000124901600321416000214FF400228160FA
:102EF000C0E903124FF440124261017641768176B7
:102F0000C17601774177FEF7CAFB08B1FEF74AF9AF
:102F1000074801F041FB0648FEF7ECFC002803D00F
:102F2000BDE81040FEF73EB910BD0000006400404F
:102F30008C000020F0B587B014216846FDF7FCF93D
:102F400031480024016841F010010160016801F07E
:102F500010010591016841F040010160016801F034
:102F600040010591016841F001010160016801F033
:102F700001010591016841F008010160016801F05B
:102F800008010591016841F080010160016801F0CC
:102F900080010591016841F020010160016801F0A4
:102FA00020010591016841F0020101600068174E9F
:102FB00000F002000590002240213046FEF754FE4A
:102FC000134F002202213846FEF74EFE40200090AB
:102FD0000125CDE90154694630460394FEF72AFDE8
:102FE0000420CDE9000469460A480294FEF722FD58
:102FF00002200090CDE90154694638460394FEF75B
:1030000019FD07B0F0BD0000303802400014024046
:10301000001802400004024010B586B00024174892
:10302000009401940294039404944FF08041059419
:10303000016042F2CF01C0E901140921C0E9031483
:1030400080218161FFF7F2F908B1FEF7ABF84FF488
:103050008050009069460948FFF786FA08B1FEF7EC
:10306000A1F8049404A905480594FFF797F90028EE
:1030700001D0FEF797F806B010BD0000B4000020A4
:1030800010B586B00024174800940194029403946C
:10309000049413490594016042F2CF01C0E9011480
:1030A0000921C0E9031480218161FFF7BFF908B14C
:1030B000FEF778F84FF48050009069460948FFF712
:1030C00053FA08B1FEF76EF8049404A90548059474
:1030D000FFF764F9002801D0FEF764F806B010BDD0
:1030E00000040040FC0000200C4810B50A490160B3
:1030F0004FF4E1314160002181600C22C160C0E9E0
:1031000004128161C161FFF7DDFC002803D0BDE836
:103110001040FEF747B810BD007800404401002081
:103120000C4810B50A4901604FF4E13141600021BB
:1031300081600C22C160C0E904128161C161FFF7A6
:10314000C1FC002803D0BDE81040FEF72BB810BD2D
:10315000007C0040880100200C4810B50A4901603D
:103160004FF4E1314160002181600C22C160C0E96F
:1031700004128161C161FFF7A5FC002803D0BDE8FE
:103180001040FEF70FB810BD00440040CC010020F5
:103190000C4810B50A4901604FF4E131416000214B
:1031A00081600C22C160C0E904128161C161FFF736
:1031B00089FC002803D0BDE81040FDF7F3BF10BD27
:1031C00000480040100200200C4810B50A49016078
:1031D0004FF4E1314160002181600C22C160C0E9FF
:1031E00004128161C161FFF76DFC002803D0BDE8C6
:1031F0001040FDF7D7BF10BD00140140540200205D
:10320000FEE7FEE770B504460078A37800250122AA
:10321000211D3BB1012B0BD0022B12D0032B15D05B
:10322000A57070BD3A28FCD1A270E270685470BDE0
:103230000D2801D1022207E0E278531CE3705054BC
:1032400070BD0A2800D10322A270F5E7201DFDF70A
:10325000FDFE01280ED104F124010E46201DFDF7CC
:1032600007FF04F1900304F16C0204F148013046B9
:1032700001F054FAA570E57070BD70B508780025AE
:103280000C460A280CD02C280CD0A1783C22B1FB8B
:10329000F2F302FB13122244491CA170D07070BDDE
:1032A000A57010E0A570E01C00F05EFB51EC100B67
:1032B000FDF7E0F8617804EB8102491C617010644D
:1032C0006078062800D965703C21E01CBDE870409C
:1032D000FDF732B810B5502080F31188BFF34F8F3F
:1032E000BFF36F8F01F07CFB18B104494FF08050A1
:1032F0000860002080F3118810BD000004ED00E09C
:1033000030B593B030216846FDF716F814210CA8AB
:10331000FDF712F81D480025016841F08051016059
:10332000006800F0805011901948016841F4404154
:1033300001600068022400F44040119001200090D8
:10334000000401908001CDE9064006200890A820E5
:10335000CDE9090407200B906846FEF767FE08B127
:1033600072B6FEE70CA90F2081E831004FF4A0509F
:103370000F904FF48050109005210CA8FEF74AFDE5
:10338000002801D072B6FEE713B030BD40380240CD
:10339000007000400248016841F47001016070470C
:1033A00088ED00E00148FFF74EB90000B4000020AE
:1033B0000148FFF748B90000FC0000200148FFF772
:1033C00042B9000098020020F0B50268254C264D55
:1033D000264E274F274B4FF0804CA04209D0604526
:1033E00007D0A84205D0B04203D0B84201D09842DD
:1033F00004D122F0700E4A6842EA0E02A0421BD0AD
:10340000604519D0A84217D0B04215D0B84213D0A9
:10341000984211D0184DA8420ED0184DA8420BD09A
:10342000174DA84208D0174DA84205D0164DA84206
:1034300002D0164DA84203D122F44075CA682A432F
:103440004D6922F080022A4302608A68C2620A68DB
:103450008262A04201D0984201D109690163012131
:103460004161F0BD00000140000400400008004040
:10347000000C0040000401400040014000440140B5
:103480000048014000180040001C0040002000409F
:1034900010B5846842EA032224F47F440A4322439D
:1034A000826010BD826822F070020A4342F0070178
:1034B0008160704710B5036A046A24F00104046255
:1034C000846924F0F00444EA021423F00A020A4357
:1034D0008461026210BD10B5036A23F01003036219
:1034E0008369046A23F4704343EA023224F0A003A0
:1034F00043EA01118261016210BD00000148FFF73B
:10350000ADB90000440100200148FFF7A7B9000051
:103510008801002010B5806B0021C185C184FFF7B0
:103520009BF910BD01680C3151E8002F22F4907214
:1035300041E80023002BF5D10168143151E8002F38
:1035400022F0010241E80023002BF5D1016B012993
:1035500009D101680C3151E8002F22F0100241E836
:103560000023002BF5D1202180F83E1000210163BB
:10357000704708B590F83E10222901D0022008BDFE
:1035800082684FF480539A4201D1016921B1816A66
:103590009A421BD04AB10AE00268816A5268C2F3BB
:1035A00008020A80816A891C08E0026972B1026817
:1035B000526802F07F020A70816A491C8162C18DE3
:1035C000491E0904090CC18503D019E0026852683C
:1035D000F1E70168CA6822F02002CA600168CA687F
:1035E00022F48072CA6001684A6922F001024A61CD
:1035F000202180F83E10016B012903D0FFF784FBE6
:10360000002008BD0021016301680C3151E8002F42
:1036100022F0100241E80023002BF5D101680A686E
:10362000D20602D50A6849680091818DFFF713F927
:10363000E6E7000070B5044600680169E26821F41D
:103640004051114301612169A068E2690843616941
:10365000114308432168CA6849F20C639A43024344
:10366000CA6020684169A26921F440711143416137
:1036700031492068884202D03049884202D1FEF7A1
:1036800093FC01E0FEF780FCE26900231921642528
:103690003226B2F5004F626828D0A0FB0101930FDB
:1036A0009200FCF7FFFD0146B0FBF5F06FF0180249
:1036B000504301EB800006EB0010B0FBF5F000F08A
:1036C000F002B1FBF5F002EB0012B1FBF5F06FF088
:1036D0001803584301EB800006EB0010B0FBF5F037
:1036E00000F00F0021681044886070BDA0FB01014C
:1036F00092185B41FCF7D6FD0146B0FBF5F00201E4
:10370000B1FBF5F06FF01803584301EB800006EBB6
:10371000C000B0FBF5F000F0F80002EB4002B1FB96
:10372000F5F0584301EB800006EBC000B0FBF5F06C
:1037300000F00700D6E7000000100140001401402F
:1037400081628285C28500210164222280F83E20A8
:1037500080F83C10016921B10168CA6842F48072A6
:10376000CA6001684A6942F001024A610068C168A2
:1037700041F02001C160002070472DE9F0419846DA
:1037800017460E460446069D27E0681C25D02DB13D
:10379000FEF770FAA0EB0800A8421ED920680C3092
:1037A00050E8001F21F4D07140E80012002AF5D142
:1037B0002068143050E8001F21F0010140E8001299
:1037C000002AF5D1202084F83D0084F83E00002036
:1037D00084F83C000320BDE8F0812068006836EAE8
:1037E000000004D00020B842CFD00020F3E7012031
:1037F000F9E700000148FFF731B80000100200208F
:103800000148FFF72BB8000054020020FEE700003B
:103810000FB4054B10B503A9044A029800F0FEF955
:1038200010BC5DF814FB0000754300085400002034
:103830000907090E002804DB00F1E02080F80014DD
:10384000704700F00F0000F1E02080F8141D704771
:1038500010B510EE104A4FF01A402DED028B00EB20
:103860004400B0F1C85F4AD84FF0FC40B0EB440FC1
:1038700022D2B0EEC00AF7EE000A30EEC00AF6EE31
:10388000000A20EE208A18EE100A00F0E2FF00EE97
:10389000100A14F0004F1DBF9FED281ADFED280A13
:1038A000B1EE400A9FED271A08BFF0EE410AF8EE8C
:1038B000001A20EE210A05E020EE008A9FED221A70
:1038C000DFED220ADFED221A9FED222A70EEC00AF8
:1038D00020EE080A08EE212ADFED1F1A48EE021A30
:1038E0009FED1E2A08EE212ADFED1D1A48EE021A6E
:1038F000BDEC028B40EE610A30EE810A10BD4FF044
:10390000CC40B0EB440F82BF9FED160ABDEC028B9A
:1039100010BD4FF07F40B0EB440F05D2BDEC028BE1
:10392000BDE8104000F089B8012000F0A7F8BDEC18
:10393000028BBDE8104000F083B800000000494051
:1039400022AA7D3A000000000000C93F22AAFD39EA
:1039500024FE1C3DC78AD83C1E67383D1B93993D09
:10396000AFAA2A3EDB0FC93F30B583B0044600F052
:103970006FF89FED090B05468DED000B00222146E7
:103980006846FCF7E4FD284600F078F89DED000B52
:1039900003B030BD00000000000000000000000087
:1039A000B4EEE00AF1EE10FA01DCB0EE600A704706
:1039B000B4EEE00AF1EE10FA01D3B0EE600A7047FF
:1039C00000B52DED048BB0EE409AF0EE609A83B016
:1039D00051EC190BFCF79BFF41EC180B18EE100A89
:1039E00018EE901A8DED008B002818BF01200843B7
:1039F00020F00040C0F17F6000F1E040C00F14D023
:103A000019EE101A19EE900A8DED009B002918BFCF
:103A10000121084320F00040C0F17F6000F1E04048
:103A2000C00F04BF012000F029F8B0EE480A03B02F
:103A3000F0EE680ABDEC048B00BD30EE000A704762
:103A4000DFED020A80EEA00A7047000000000000CF
:103A500001480068704700005800002002E008C8D4
:103A6000121F08C1002AFAD170477047002001E0F8
:103A700001C1121F002AFBD17047000001490860F4
:103A800070470000580000202DE9FF5F82B0002140
:103A9000DDE90430020DDDF840B0034318D044F6F0
:103AA0001050A2F2FF3242431514119801281FD082
:103AB000A5EB0B00401C5FEA000A4FF000064E4FDA
:103AC000DFF83891B046504615D5CAF1000413E02E
:103AD000119801244AA3012801D16FEA0B01029831
:103AE000119AC0E90031C0E9024206B0BDE8F09F7A
:103AF000CBF10000DFE704460021404A491842EBC1
:103B00000450CDE9001012E0E00707D032463B46F2
:103B100040464946FCF789FE8046894632463B4688
:103B200010461946FCF781FE06460F466410002C2D
:103B3000EAD1DDE90401DDE90023BAF1000F06DA7C
:103B4000FCF773FE42464B46FCF76FFE05E0FCF7C0
:103B5000FEFB42464B46FCF7FAFB04460E460022AB
:103B6000284BFCF73DFF03D84FF0FF30014607E03C
:103B70000022254B20463146FCF7B0FDFCF718FF2C
:103B8000102409E0002C0ADB0A220023FCF78AFB40
:103B9000039B30321A55641E50EA0102F2D1641CB4
:103BA000039AC4F111031444119A012A03D001228B
:103BB00008430DD10AE0084304D000204FF0110B58
:103BC000119072E7A3EB0B056D1E0DE05B4504DD64
:103BD0004FF0000205F1010504E003DA4FF00002A6
:103BE000A5F10105002AECD002981199C0E9023133
:103BF000C0E9004579E70000000014400000F03FF4
:103C0000300000000000F0430000E03F30380A2898
:103C100001D2012070470020704700002DE9FF4FBE
:103C200095B09B468946064600250FE2252877D1A8
:103C300000242746F84A0121059400E0044316F8C1
:103C4000013F203B01FA03F01042F7D130782A28D7
:103C500011D06FF02F033078A0F13002092A16D866
:103C6000059A44F0020402EB820203EB4202104484
:103C7000761C0590EFE759F8042B0592002A03DA29
:103C8000504244F40054059044F00204761C30780D
:103C90002E2816D116F8010F44F004042A280DD05E
:103CA0006FF02F023078A0F13003092B09D807EB11
:103CB000870302EB4303C718761CF3E759F8047B2C
:103CC000761C30786C280FD006DC4C2817D068287A
:103CD0000DD06A2814D104E0742810D07A280FD1AE
:103CE0000DE044F400140AE044F4801401E044F4CC
:103CF00040147278824202D104F58014761C761C3E
:103D0000307866280BD013DC582877D009DC0028DF
:103D100075D04528F6D04628F4D047281AD19DE121
:103D200018E0632835D0642879D0652812D195E150
:103D3000702873D008DC6728F1D069286FD06E280E
:103D40000DD06F2806D1B5E073282CD0752875D01A
:103D5000782874D05A46179990476D1C75E1C4F3C2
:103D60000250022809D003280DD0D9F800100428E9
:103D70000DD00D6009F1040967E1D9F80010EA17C8
:103D8000C1E90052F6E7D9F800100D80F2E70D7096
:103D9000F0E719F8041B8DF8001000208DF80100E1
:103DA000EA46012003E059F804AB4FF0FF30610709
:103DB0004FF0000102D40DE008F101018846B9423C
:103DC0000FDA8045F8DB1AF808100029F4D108E072
:103DD00008F1010188468142FADB1AF8081000292F
:103DE000F6D105985B46A0EB080721463846179A9E
:103DF00000F094FA284400EB080507E04DE029E1C3
:103E00000DE01AF8010B5A4617999047B8F10108CE
:103E1000F7D25B4621463846179A13E142E00A2260
:103E20000092C4F302524FF0000A022A08D059F857
:103E300004CB032A4FEAEC710AD00DE029E02AE016
:103E400009F1070121F00702F2E802C1914609E0F9
:103E50000FFA8CFC4FEAEC71042A03D14FFA8CFC68
:103E60004FEAEC71002907DA0A460021DCF1000C68
:103E700061EB02012D2202E0220504D52B228DF8F0
:103E80000420012203E0E20701D02022F7E7904658
:103E900059E00A2102E010220DE010214FF0000A43
:103EA00000910BE010224FF0000A44F004040827B0
:103EB000009203E008224FF0000A0092C4F302527D
:103EC000022A05D059F804CB0021032A08D009E0C2
:103ED00009F1070121F00702F2E802C1914605E06D
:103EE0001FFA8CFC042A01D10CF0FF0C4FF00008E3
:103EF000220728D5702806D0009B83F0100353EAD0
:103F00000A0305D00EE040228DF80420012208E0CB
:103F10005CEA010206D030228DF804208DF80500FD
:103F200002229046009B83F0080353EA0A030AD159
:103F30005CEA010201D1620705D530228DF8042028
:103F40004FF001087F1E582804D034A003900EA81B
:103F500002900DE036A0F9E753466046009AFCF760
:103F6000A1F984460398825C0298401E0290027078
:103F70005CEA0100F0D1029806A9081A00F1200AB3
:103F8000600702D524F4803400E00127574502DDA4
:103F9000A7EB0A0000E0002000EB0A010090059862
:103FA0004144401A0590E00306D45B462146179A27
:103FB000059800F0B3F90544002706E001A85A4629
:103FC000C05D179990476D1C7F1C4745F6DBE003E9
:103FD0000CD55B462146179A059800F09FF90544D9
:103FE00004E030205A46179990476D1C0099481EEE
:103FF00000900029F5DC08E0029802995A46007802
:10400000491C0291179990476D1CBAF10001AAF161
:10401000010AF1DC65E1000009280100303132338A
:1040200034353637383961626364656600000000F4
:1040300030313233343536373839414243444546DE
:104040000000000000F058F90544761C3078002884
:104050007FF4ECAD19B02846BDE8F08F620700D4BC
:10406000062709F1070222F0070CFCE80223E146CB
:1040700003F000485FEA080C02D00FF2702C0DE04C
:104080005FEA045C02D50FF2682C07E05FEAC47CAB
:1040900002D00FF2602C01E0AFF2700C4FF0FF384D
:1040A00023F00043CDF850C065280CD006DC45282D
:1040B00009D046281DD047283DD13DE0662818D0BC
:1040C00067287ED138E00021112F01DB112000E0AC
:1040D000781CCDE9000106A90EA8FFF7D5FCDDE9A3
:1040E0000F010E9A03910021009207F1010A049139
:1040F0004DE04FF000400097CDE9011006A90EA851
:10410000FFF7C2FCDDE90F0203920E9B119900221A
:10411000DDF80CA00093049211B9791C00EB010AA0
:10412000B7EB0A0004D4C0F1FF3007F1010A049094
:10413000AAEB0700019044E0012F00DA01270021DB
:10414000112F01DD112000E03846CDE9000106A95C
:104150000EA8FFF799FCDDE90F010E9A03910021EB
:1041600004910092BA4621070CD40399514500DA14
:104170008A46BAF1010F05DD009AAAF10101515CEE
:10418000302908D0B84202DA10F1040F06DA012112
:10419000CDE9011015E0AAF10101E9E7002805DCED
:1041A000049901440491AAEB000102E0411C51452D
:1041B00000DD8A460499401A401C01904FF00040EF
:1041C0000290200704D40198504501DBCDF804800B
:1041D00000208DF84F0002980DF14F07B0F1004F0D
:1041E00025D02B200E9002984FF0020800280CDA00
:1041F000404202902D200E9007E00A210298FCF721
:1042000055F93031029007F8011DB8F10001A8F10D
:104210000108F2DC02980028EFD1791E0E98087090
:10422000307800F0200040F0450007F8020D12A899
:10423000C01B00F107081498007800B1012000EBC2
:104240000A01019801EBE07105984144401A401EB3
:104250000590E00306D45B462146179A059800F0C6
:104260005DF805441498007818B15A46179990479C
:104270006D1CE00324D55B462146179A059800F093
:104280004DF805441CE00498002807DBDDE9030134
:10429000884203DD0098405C179901E017993020AF
:1042A0005A469047049805F10105401C0490019876
:1042B000401E019004D12E205A46179990476D1C3C
:1042C000BAF10001AAF1010ADDDC05E017F8010BE3
:1042D0005A46179990476D1CB8F10001A8F10108E2
:1042E000F4DC5B462146179A0598ABE62D000000EA
:1042F0002B000000200000002DE9F04104460025BD
:104300001E461746880404D405E039462020B047ED
:104310006D1C641EF9D52846BDE8F0812DE9F041F9
:10432000044600251E469046C80301D5302700E00C
:104330002027880404D505E041463846B0476D1C67
:10434000641EF9D52846BDE8F081012131EE601ADE
:10435000814070EE600A491E00EE101AB8EEC00AE5
:1043600020EE800AC0EE010ABDEEE00A10EE100A4F
:104370007047000013B54FF6FF73012269460248EB
:10438000FEF71EFD00981CBD5402002010B51378E6
:10439000322B15D24FF0000002EB800301EB8004BA
:1043A00093ED010AD4ED000A00F10100242830EE5B
:1043B000200A83ED010AEFD31078401C107010BD65
:1043C000FDD100219FED070A02EB8103D3ED010A25
:1043D00000EB8103491C80EE801A242983ED001A2A
:1043E000F2D3E9E70000484270B5B2EE0E0A2DEDB7
:1043F000028B044680ED020AB2EE040A80ED030A45
:104400009FED190A9FED198A80ED000A80ED5F0A81
:1044100000206061A061E06184ED040A84ED010A7E
:10442000DFED138A0546C4F8800100BF05EB4500A7
:1044300000EBC50004EBC0002C30FCF7B5FE05EB2B
:10444000450004EBC000B6EE001AF0EE480AB0EEEC
:10445000680A00F59A70FEF70FFD6D1C032DE5DB71
:10446000BDEC028B70BD0000000000006F12833AAB
:104470000AD7A33C80ED041AC0ED021A80ED032A8E
:1044800080EC020A704700002DED048BFDF700FC64
:10449000FEF736FFFEF74EFDFEF720FDFEF794FE19
:1044A000FEF7BAFDFEF720FEFEF73AFEFEF770FEBD
:1044B000FEF7E6FDFEF750FE2A486FF001040068A3
:1044C00004612848FEF710F8274800680461264870
:1044D000FEF70AF801212548FCF74AFE022124488C
:1044E000FCF76EFE012223492348FEF7F7FB012269
:1044F00022492348FEF7F2FB2248FFF775FF6420AC
:10450000FDF786FA1F4E204F9FED208ADFED208AAF
:104510009FED209A0025002404EB441000EB84104A
:1045200006EB800191ED5F0AB5EEC00AF1EE10FADC
:104530000CD02B20604307EB8000B0EE481AF0EE61
:10454000680AB0EE490AFCF7F5FC6D1C641C022CED
:10455000E2DB00BF00F0CAF80A20FDF759FA002D8F
:10456000F8D1D8E7B4000020FC000020E0020020D1
:104570008C000020A0090020540200202803002005
:104580004401002098060020100A00200000C842C4
:10459000D8F0543F0AD7233C00B58BB0002101224C
:1045A000CDE90612059100910191029103910491C8
:1045B0000E21CDE908216946FCF778FE0BB000BD5D
:1045C0000FB4024670B5DDED050ADFED432AB0EE0B
:1045D000620AFFF7E5F99FED411AF0EE410AFFF795
:1045E000E7F9F0EE403ADDED060ABBEE0E0AFFF702
:1045F000D7F9F3EE0E0AFFF7DBF99FED394AB0EE7B
:10460000403ADDED070AB0EE440AFFF7C9F9DFEDE5
:10461000354AF0EE640AFFF7CBF9F0EE401ADDED13
:10462000080AB0EE440AFFF7BBF99FED2F5AF0EEEF
:10463000450AFFF7BDF9B0EE402ADDED090ABAEEF2
:104640000E0AFFF7ADF9F2EE0E0AFFF7B1F9F0EE40
:10465000405A1020F0EE620AB0EE630AFFF775FED2
:1046600005460C20B3EE0E1AFBEE0E0AB0EE430A1E
:10467000FFF76BFE04460C20B0EE641AF0EE440A1D
:10468000B0EE610AFFF761FE03460C20B0EE451A5A
:10469000F0EE440AB0EE420AFFF757FE06460C2041
:1046A000B2EE0E1AFAEE0E0AB0EE650AFFF74DFEF4
:1046B000290A02F81C1F210955709170210141EA55
:1046C0001321D170137131095171010A9171D071A7
:1046D00070BC5DF814FB0000DA0F49C1DA0F4941E4
:1046E000000000000000FA430000C84201490248EF
:1046F000FCF74CBCA0090020100A00200648416BC2
:10470000096829B1416BC968C96849688162704705
:104710004FF0FF31FAE70000180000202DE9F041CA
:1047200090ED020AD0ED030A054620EE000A1E466F
:1047300017460C4600EEA00AD0ED040A00EEA00ACF
:10474000D0ED050A00EEA00A10EE100AFBF77FFE7E
:1047500041EC100BFFF734F951EC100BFBF78AFE1C
:1047600000EE100AD5ED020A95ED041AD5ED052AE2
:1047700080EE802AD5ED030A5FF00005C0EE801AB6
:10478000C1EE000A21EE824A82EE801A61EEA12A71
:10479000B0EE000A60EEA04A61EEA03A60EE825AE6
:1047A00021EE015A21EE813A60EE811AF7EE000AFD
:1047B00034EE856A21EE021AB0EE602A06EE402A37
:1047C00084ED002A33EEC12A33EE811A22EE002A4C
:1047D00021EE001A84ED012A33EE252A22EE002A6A
:1047E00084ED022A32EE852A84ED031AB0EE601AB7
:1047F00002EE401A84ED041A31EEC41A21EE001ABA
:1048000084ED051A33EE651A21EE001A84ED061ABE
:1048100031EE841A21EE001A84ED071A32EEA41A42
:1048200041EE400AC4ED080A04EB850090ED000A51
:10483000FFF70EF806EB8500D0ED000A07EB8500C8
:104840006D1C30EE600A092D80ED000AECDBBDE83E
:10485000F08110B500EE100A2DED028BB1EEC08A8A
:1048600018EE100A20F00040C0F1FF40C00F0AD03F
:1048700010EE100A20F00040C0F1FF40C00F04BF4E
:104880000120FFF7FBF818EE100ABDEC028B10BDFB
:1048900001EE100A70EEC00A0120B8EEC11A88407D
:1048A000401E21EE201A00EE900AF8EEE01AC1EE4A
:1048B000210A30EE800A704710B5024631F81D0F0C
:1048C000DFED170A8B78CC781B0143EA14130979C2
:1048D00004F00F0441EA042440BA10219FED110AAC
:1048E000FFF7D6FFF0EE400A0C21B0EE602AF3EE9F
:1048F0000E0ABBEE0E0A1846FFF7CAFFF0EE400A9A
:104900000C21F0EE602AF2EE0E0ABAEE0E0A2046F4
:10491000FFF7BEFF82ED020A82EC022A10BD000002
:10492000DA0F4941DA0F49C191ED080A80ED130A07
:1049300080ED060A91ED090A80ED110A91ED0A0A4F
:1049400080ED0E0A7047D0E9013201699A60D0E922
:1049500001235A604A68824201D182684A6000227B
:1049600002610868401E08600868704742684A6033
:1049700093688B6093685960916008610168491C75
:10498000016070471448016B11B10121C16170478A
:104990000021C1610169B1FA81F1C1F11F0101EB8F
:1049A00081020E4951F822306BB101EB820101F115
:1049B00008034A6852684A609A4201D152684A60C4
:1049C000D16801607047502080F31188BFF34F8F8A
:1049D000BFF36F8FFEE7000018000020BC0A002024
:1049E0002DE9F0412F4C0026206B28B1A069401C16
:1049F000A0613046BDE8F081E5686D1CE56013D12B
:104A0000606B006838B1502080F31188BFF34F8F7E
:104A1000BFF36F8FFEE7606BA16B6163A063206AD9
:104A2000401C2062FFF76AFEA06ADFF87C808542A6
:104A300009D3606B0068A0B1606BC068C768786814
:104A4000854211D2A0622068C06A00EB800158F84C
:104A50002100012800D90126E0690028C9D00126DB
:104A6000C7E74FF0FF30EDE7381DFFF76CFFB86A7E
:104A700018B107F11800FFF766FFF96A01202269F3
:104A800088401043206101EB810108EB8100391D52
:104A9000FFF76CFFF86A2168C96A8842C9D301260A
:104AA000C7E7000018000020BC0A0020000000003A
:104AB00000000000010203040607080900000000CE
:104AC00001020304DDDDDDDDDCBBBBDDDDDDDDDDC5
:104AD000DDDDDDDD98888888888888887777777736
:104AE0007788888885555556666666666666666602
:104AF00066688888833333322222222222222222AD
:104B00002228888D244B0008000000205C00000053
:104B10005C3A0008804B00085C000020540F000045
:104B20006C3A0008000000000000000001000000D6
:104B300010000000000000000024F400000000004D
:104B40000000000000000000000000000000000065
:104B50000000000000000000000000000000000055
:104B60000000000000000000000000000000000045
:104B70000000000000000000000000000000000035
:04000005080001AD41
:00000001FF
