:020000040800F2
:10000000784F0020810200085F3800082134000882
:100010005D380008790E000821400008000000004B
:10002000000000000000000000000000C101000806
:1000300055120008000000001D0200085D3900088C
:100040009B0200089B0200089B0200089B0200081C
:100050009B0200089B0200089B0200089B0200080C
:100060009B0200089B0200089B0200089B020008FC
:100070009B0200089B0200089B0200089B020008EC
:100080009B0200089B0200089B0200089B020008DC
:100090007D0E00089B0200089B0200089B020008DE
:1000A0009B020008353A00089B0200089B020008EA
:1000B0009B0200089B0200089B0200089B020008AC
:1000C0009B0200089B0200089B0200089B0200089C
:1000D0009B0200089B0200089B0200089B0200088C
:1000E0009B0200089B0200089B0200089B0200087C
:1000F0009B0200089B0200089B0200089B0200086C
:100100009B0200089B0200089B0200089B0200085B
:100110009B0200089B0200089B0200089B0200084B
:100120009B020008A51100089B0200089B02000822
:100130009B0200089B0200089B0200089B0200082B
:10014000890E00089B0200089B0200089B02000821
:100150009B0200089B0200089B020008FD3F00086C
:100160009B0200089B0200089B0200089B020008FB
:100170009B0200089B0200089B0200080000000090
:100180009B0200089B0200089B0200089B020008DB
:100190009B0200089B0200089B0200089B020008CB
:1001A00000000000000000009B020008DFF80CD0F7
:1001B00000F0F0FB0048004779510008784F00201C
:1001C0002C4B19680868B0E8F04F80F30988BFF33A
:1001D0006F8F4FF0000080F311887047000000001F
:1001E00008480068006880F308884FF0000080F33A
:1001F000148862B661B6BFF34F8FBFF36F8F00DF15
:1002000000BF00BF08ED00E0DFF80C00016841F41A
:1002100070010160704700BF88ED00E0EFF30980D6
:10022000BFF36F8F134B1A681EF0100F08BF20ED3D
:10023000108A20E9F04F106009B44FF0500080F3AD
:100240001188BFF34F8FBFF36F8F06F045F94FF062
:10025000000080F3118809BC19680868B0E8F04F05
:100260001EF0100F08BFB0EC108A80F30988BFF3AE
:100270006F8F70473C000020EFF30580704700004F
:100280000648804706480047FEE7FEE7FEE7FEE730
:10029000FEE7FEE7FEE7FEE7FEE7FEE7253A000899
:1002A000AD0100082DE9F05F0546002092469B460F
:1002B00088460646814640241BE02846414647467C
:1002C000224600F038FA53465A46C01A914110D3DC
:1002D00011461846224600F01FFA2D1A67EB010856
:1002E0004F4622460120002100F016FA17EB0009C4
:1002F0004E41201EA4F10104DFDC484631462A4667
:100300004346BDE8F09F40EA01039B0703D009E0A4
:1003100008C9121F08C0042AFAD203E011F8013BF1
:1003200000F8013B521EF9D27047D2B201E000F84A
:10033000012B491EFBD270470022F6E710B5134689
:100340000A4604461946FFF7F0FF204610BD2DE986
:10035000FE4F804681EA0300C00F0C46009021F05A
:10036000004123F00045B8EB0200A94105D2404608
:10037000214690461C460B46024623F0004010439F
:1003800047D0270DC7F30A00C3F30A510290401A61
:10039000019040286BDAC3F3130040F4801B0098EF
:1003A000924620B10023D2EB030A63EB0B0B0198BA
:1003B0005946C0F14002504600F0AEF906460D46DF
:1003C00050465946019A00F0C6F910EB0800614109
:1003D000002487EA115284EAE7731A4340D0009A56
:1003E00062B3019A012A4FEA075215DC001B61EB48
:1003F00002014FF0004202EA0752CDE90042001C20
:1004000041F5801132462B4600F075FA03B0BDE885
:10041000F08F40462146F9E7001B61EB0201001C0A
:1004200041F5801300185B412018A2F5001747EB37
:10043000030140EAD570B6196D4111E06D084FEA2D
:10044000360645EAC0754FEA0752001B61EB020110
:10045000001C41F5801149084FEA30000019514154
:1004600032462B4603B0BDE8F04F00F035BA009895
:10047000012240000023D0EB020263EBE0730098FE
:1004800021464FEAE074B8EB000061EB0401E9E7B4
:1004900083F000435BE781F0004158E72DE9FE4F10
:1004A00081EA030404F0004421F0004100944FF07D
:1004B000000B23F0004350EA01045ED052EA03042B
:1004C0005BD0C3F30A54C1F30A552C44A4F2F334AD
:1004D0000194A0FB0254C1F3130141F48011C3F352
:1004E000130343F4801301FB024400FB034E840A10
:1004F000970A44EA815447EA8357A4FB07680295A8
:100500008D0A05FB07854FEA932C04FB0C54270545
:10051000029D4FEA065847EA1637B5EB08056EEB21
:10052000070C870E920E47EA811742EA8312A7FB57
:100530000201B6EB0B0164EB00042B0D43EA0C3314
:100540005E1844EB1C50DA465146E7FB0201C5F346
:1005500013044FEA0B3343EA14534FEA0432019C6D
:1005600043EA0603A4F10C040294009CCDE900B414
:1005700000F0C1F903B0BDE8F08F00200146F9E7B3
:100580002DE9F04D81EA030404F0004B21F0004511
:1005900014464FF0000A23F0004150EA050220D033
:1005A00054EA01021DD0C5F30A570246C5F31303EE
:1005B000C1F31300C1F30A5640F4801543F48013CD
:1005C000A7EB0608101BD64608F2FD3873EB0500B2
:1005D00002D308F1010801E092185B41B8F1000F65
:1005E00003DA00200146BDE8F08D00204FF48011B1
:1005F000064684460EE0171B73EB050705D3121B56
:1006000063EB050306434CEA010C49084FEA30004E
:1006100092185B4150EA0107EDD152EA030012D073
:1006200082EA040083EA0501084305D0101BAB41B0
:1006300006D20122002306E000224FF0004302E030
:100640006FF0010253101AEB06004CEB085110EB4F
:100650000A0041EB0B01BDE8F04D00F03DB90EB5CD
:10066000C10F80EAE0700844CA07002140F233431A
:100670008DE80E000A460B4600F03DF903B000BDC0
:1006800030B5041E71F1000404DB4FF00044404219
:1006900064EB0101141E73F1000405DB1C464FF0EE
:1006A0000043524263EB04038B4208BF824230BDD9
:1006B00030B5041E71F1000404DB4FF000444042E9
:1006C00064EB0101141E73F1000405DB1C464FF0BE
:1006D0000043524263EB0403994208BF904230BD8D
:1006E00001F0004330B421F0004150EA010206D08D
:1006F0000A0DA2F56072C1F31301002A02DC30BCBE
:1007000000207047440F44EAC104C100E01830BC27
:1007100000EBC25000F080B8202A04DB203A00FA37
:1007200002F1002070479140C2F1200320FA03F348
:10073000194390407047202A04DB203A21FA02F046
:100740000021704721FA02F3D040C2F1200291400B
:10075000084319467047202A06DBCB17203A41FA96
:1007600002F043EAE07306E041FA02F3D040C2F13E
:100770002002914008431946704700000FB400233F
:1007800000B589B00CA900910B996FF00042CB60C5
:100790001E4B06931E4B07930423CDE901321D4ADD
:1007A000089202466B46002000F08CF909B05DF813
:1007B00014FB70B586B006464FF0FF300091CDE9CE
:1007C0000101002015460C4604903246694604A8F3
:1007D000FFF7D4FF02460498211825B108B1084656
:1007E00000E020462860049800280DD0002A02DD91
:1007F0000098884208D0081B0094CDE901043246D5
:10080000694604A8FFF7BAFF06B070BDFD0C0008EA
:100810001B0D0008B90900080029A8BF7047401C3B
:10082000490008BF20F00100704710B4B0FA80FC06
:1008300000FA0CF050EA010404BF10BC704749B143
:10084000CCF1200421FA04F411FA0CF118BF0121B3
:1008500021430843A3EB0C01CB1D4FEA00614FEA93
:10086000102042BF002010BC704700EBC350104462
:100870000029A4BF10BC7047401C490008BF20F0ED
:10088000010010BC7047F0B400F0004221F00041BC
:1008900020F00040CE0DC30DC1F3160141F400015C
:1008A000C0F316004C42154640F40000761E09E0E5
:1008B00010EB440002D582F0004240428842F7D853
:1008C00040005B1EB342F9DA18B1F0BC0021FFF71B
:1008D000ACBF2846F0BC704710B5141E73F100047D
:1008E00008DA401C41F1000192185B411A4301D122
:1008F00020F0010010BD2DE9F04D92469B4611B14C
:10090000B1FA81F202E0B0FA80F220329046FFF7AD
:1009100003FF04460F4640EA0A0041EA0B01534632
:100920005A46084313D0114653EA010019D0C8F1C2
:1009300040025046FFF7FFFE05460E465046594618
:100940004246FFF7E9FE084305D0012004E02046B7
:100950003946BDE8F08D0020054346EAE0762C4399
:1009600037430A986305E40AA0EB08000022FD0A59
:1009700044EA47540A3002D500200146E9E7010560
:1009800010196941DDE9084500196941BDE8F04DDC
:10099000A2E70000064C074D06E0E06840F00103C6
:1009A00094E8070098471034AC42F6D3FFF702FCF6
:1009B000A4700008C4700008C0B24FF4F05100F0F9
:1009C000E9B900002DE9FF4F087881B09946FF286A
:1009D00005D0491C2D2804D00024002308E0002362
:1009E0000BE00124F9E703EB830300EB4303491C0D
:1009F0000878FF28F7D104B15B42002000901478FA
:100A000001462D2C01D02B2C04D1521C2D2C12D0A0
:100A10000024009400251678FF2E0ED00A24A0FB97
:100A200004C801FB0481002700FB0711521C16EBD0
:100A30000C006941EFE70124EBE7994450EA010219
:100A40000ED00024AA4D2646DFF8A88200F0B6F9A1
:100A500082468B46B9F1000009DAC9F100071BE0B4
:100A600001980021C0E9001105B0BDE8F08F0746EC
:100A700012E0F80707D022462B4630464146FFF7E2
:100A80000DFD0646884622462B4610461946FFF7BE
:100A900005FD04460D467F10002FEAD1B9F1000F85
:100AA000324643465046594602DAFFF769FD01E0F7
:100AB000FFF7F4FC009A0AB181F00041019AC2E903
:100AC0000001D1E72DE9FF4F1F468DB0D7E9014660
:100AD0004FF0FF382E2045464FF000090B90B969C2
:100AE0006D1C0E988847396A824688470028F6D1DF
:100AF000BAF1FF3F0AD024F4D064002E11DDBAF120
:100B00002B0F08D0BAF12D0F0BD102E0404611B0E7
:100B1000ABE744F48064B9696D1C0E98884782463F
:100B2000761E6946600501D52D2000E02B208DF84A
:100B3000000001F1010B0DF1200809E0B9696D1CFD
:100B40000E98884782460F9844F40074761E05601C
:100B5000002E02DDBAF1300FF0D00B998A453ED15C
:100B600044F0800406E00F99681CA9F1010944F4DF
:100B700000740860B9696D1C761E0E98884782461D
:100B80003028F0D02BE00B998A4505D1200603D4FC
:100B900044F08004761E18E0504603F0FDFF08B3D1
:100BA0000DF11301761E44F400748B4508D2AAF1AE
:100BB00030000BF8010B200607D5A9F1010003E076
:100BC000200602D409F101008146A00502D50F9943
:100BD000681C0860B9696D1C0E9888478246002E13
:100BE000D1DC53E0002E51DDBAF1650F02D0BAF12D
:100BF000450F4BD1A00549D5B9696D1C24F440744B
:100C0000761E0E9888478246002E0CDD2B2804D0D5
:100C1000BAF12D0F07D144F48074B9696D1C0E9898
:100C200088478246761EE00501D52D2100E02B2164
:100C300008F8011BCDF82C8021E00DF12901761E6A
:100C400044F4007488450CD2AAF1300010F0FF0083
:100C500088F8000002D10B99884509D908F10108EC
:100C600006E0E00501D5244801E042F20F7081461C
:100C7000B9696D1C0E98884782460F980560002E52
:100C800004DD504603F088FF0028D6D1F9690E989C
:100C90008847FF208BF8000088F8000000200690AD
:100CA00007904B466A4608A906A8FFF78BFEA005E9
:100CB00002D46FF001002AE714F0240F0AD0E007F5
:100CC00014D1DDE906123868031D3B600068C0E9F5
:100CD00000120BE0DDE90601FFF702FD0146E00727
:100CE00004D13868021D3A600068016028460EE7AA
:100CF000000024400000F03FF1D8FFFF426842B1FD
:100D0000016811F8013B23B1521EC0E900121846D8
:100D100070470121C160881E704742685AB1C3689C
:100D2000016843B983688B4205D0491E521CC0E953
:100D30000012002070474FF0FF3070470EB540F2B0
:100D4000334102910021CDE900110A460B46FFF71D
:100D5000D2FD03B000BD70B5C1F30A5201F00045E9
:100D60000024C1F3130140F2FF3341F480119A4291
:100D700001DA002070BD40F233439A42A2F23342BE
:100D800003DC5242FFF7D7FC00E090402C43F1D047
:100D9000404270BD7F2801D9002208E0064A02EBDC
:100DA0005002C007127800D1120902F00F02012090
:100DB0009040084070470000487000080EB540F2AF
:100DC000334202920022CDE900221346FFF793FD41
:100DD00003B000BDD0ED071A90ED012AD0ED052A31
:100DE00031EEC13A02EE430A90ED082A90ED023A44
:100DF00072EE603A03EE630AD0ED003A80EE233AD9
:100E000043EE221AC0ED071A01EEA22A80ED082A4D
:100E100032EE200A80ED0C0A31EE810A80ED0B0AD9
:100E20007047000010B504464FF47A7084EC030A52
:100E3000E06091ED5F0A04F1380084ED040A9FED53
:100E40000C0A84ED050A9FED0B0A84ED0C0A84ED73
:100E50000B0A84ED070A84ED080A00F019FAB2EED5
:100E60000E0A84ED090AB1EE040A84ED0A0A10BDE7
:100E70006F12833A00000000FEE70000014800F016
:100E800084BB000024010020014800F07EBB00006C
:100E90004C01002000B589B06B46019200220292FD
:100EA00003920492082205920A6807924968089101
:100EB00007AA01A900F00AFA09B000BD00282FD046
:100EC000B1EE040ADFED170A9FED171AF0EE001AD3
:100ED00080EC040AF3EE0E1AC0ED041A80ED051A38
:100EE000B2EE0E1A80ED061A80ED070AB7EE000A80
:100EF00080ED080AC0ED090AB2EE040A80ED0A0A84
:100F00009FED0A0A80ED0B0AB6EE000A80ED0C0A8E
:100F1000B0EE080A80ED0D0A9FED050A80ED0E0A7D
:100F200070470000000048420000C8420AD7233C36
:100F30006F12833A10B50C46002808D0002C06D05A
:100F400030212046FFF7F8F9002084F82D0010BD6D
:100F5000002839D09FED1D0A91B1D1ED000AC0EDF6
:100F6000000AD1ED010AC0ED010A80ED030A80ED0F
:100F7000040AD1ED000AC0ED060AD1ED010A12E023
:100F80009AB1D2ED000AC0ED000AD2ED010AC0ED1F
:100F9000010A80ED030A80ED040AD2ED000AC0EDDB
:100FA000060AD2ED010AC0ED070A80ED020A80EDC3
:100FB000050A80ED080A80ED090A80ED0A0A012180
:100FC00080F82C1080F82D10704700000000000001
:100FD0002DE9F0471F462DED028B84B01546DDE963
:100FE0000EA80E0081460BD055B14FB15FEA0A0042
:100FF00006D05FEA080003D095F82D0030B10AE072
:10100000002004B0BDEC028BBDE8F0871A465146C3
:101010002846FFF79DFF97ED000A3E498DED020A35
:1010200097ED010A00248DED030A96ED0B8A95EDEC
:101030000A0AF0EEC80A10EE900A884202DA9FED22
:10104000360A0AE0F0EE480A03F0B2F8B5EEC00A3C
:10105000F1EE10FA01D230EE080A03A802A985EDDC
:10106000090AB9F1060F37D2DFE809F03617210374
:10107000082BD6ED0B0AB6EE001A07E0D6ED0C0AE7
:10108000B7EE001A71EE600A96ED0B1A60EE810A57
:10109000B4EEE00AF1EE10FA09D2CDE900105346A1
:1010A0003A462946304603F0C3FD01241CE0CDE951
:1010B000001053463A462946304603F075FD022497
:1010C00012E0CDE9001053463A462946304603F077
:1010D000EFFD95F82C4007E097ED000A8DED020A30
:1010E00097ED010A8DED030A95ED0A0AD6ED0E0A79
:1010F000204630EE200A85ED0A0A85F82C409DED49
:10110000020A88ED000A9DED030A88ED010A88F8BD
:10111000084076E7BD378635000000002DED028BD4
:1011200082B005F007FD1B4E1B4FDFED1C8ADFF878
:10113000708000900024B0EE688A6520604306EB62
:10114000800004EB440190ED620AD0ED070A01EB48
:10115000C40107EB810504EB840020EE800A00EB5C
:101160004411B0EE481A08EB8100F0EE480AFFF790
:1011700031FE95ED001AD5ED010A2846B0EE480A79
:1011800002F057F9641C022CD7DB0121684605F0F8
:10119000DBF8CFE7C8020020A8070020000000000D
:1011A00060060020014800F017BD0000200200206A
:1011B00001681823CAB2103AB2FBF3F2054B6FF381
:1011C0000901032A9B5CC36500D9091D8165084696
:1011D00070470000046F000810B5014600208B69BD
:1011E0008A6A4FF0C07453B1B3F5005F15D072B185
:1011F000012A0CD0022A0AD0032A09D104E01AB12C
:10120000012A06D0022A03D1C96AC90100D50120EA
:1012100010BDC96AA142FAD010BD002AF7D0012A38
:10122000F2D0022AF3D0032AF3D010BD30B50468FF
:10123000256825F480252560046863608368402B59
:10124000036803D099600068C26030BD9A6000688E
:10125000C16030BD704700001CB5044607A122469E
:10126000D1E90001CDE9000169460648FFF712FE09
:10127000224669460448FFF70DFE1CBDFFFFFFFF35
:10128000FFFFFFFC240100204C01002072B6FEE7A6
:1012900000219FED040A016580ED150A5021FFF73A
:1012A0004BB800000000000090F82020012A07D071
:1012B000022A05D0416A41F4802141620120704731
:1012C000006842690A43426100207047F0B590F817
:1012D00020500468A468012D05D0022D03D0416A76
:1012E00041F4802153E014F0406F01D1E5004BD56B
:1012F000C4F30164022C03D9416A41F4000146E0C1
:101300000125A5401D608D684FF4C0739DB1CE6866
:1013100035434E6845EAC605066803EB0417F551E8
:101320004FF4C275076805EB04150E697E51097DFF
:10133000012905D009E00E88CD6845EA4655EBE75E
:1013400001684E5946F480764E511179D2F8055015
:101350004FF4C67641EA0525016806EB04168D5167
:101360001178D2F801204FF4C47541EA02210268D5
:1013700005EB04155151006803EB0411425842F08B
:10138000010242500020F0BD416A41F40011416267
:101390000120F0BD10B590F82020012A07D0022AC4
:1013A00005D0416A41F480214162012010BD3B48D3
:1013B000D0F8002242F00102C0F80022D0F800224A
:1013C00022F47C52C0F80022D0F800224B6A42EA94
:1013D0000322C0F800220A7D02F01F0301229A4076
:1013E000D0F81C329343C0F81C32CB69B3B9D0F8A3
:1013F0000C329343C0F80C328C894B6864F31F4362
:101400004C6900EBC404C4F840320C890B6864F3E7
:101410001F434C6900EBC404C4F84432CB69012B70
:1014200016D1D0F80C321343C0F80C320C884B683C
:1014300064F31F434C6900EBC404C4F840320C89C8
:10144000CB6864F31F434C6900EBC404C4F8443216
:101450008B69002BD0F804320ED01343C0F804324D
:101460000B69002BD0F8143208D01343C0F81432A3
:10147000096A012904D008E09343EFE79343F5E7B5
:10148000D0F81C121143C0F81C12D0F8001221F041
:101490000101C0F80012002010BD000000640040EF
:1014A000704730B590F82040012C05D0022C03D0B5
:1014B000416A41F480215DE00468002955D0246927
:1014C000A40754D04FF4D874056804EB01142D59C7
:1014D00015F00405956005682D594ED0ED0855604E
:1014E00005682C5904F00204D4604FF4DA740568DE
:1014F00004EB01142D5905F00F05156105682D59F0
:10150000C5F30725956105682C59240C54614FF4E7
:10151000DC72046802EB0112A4581C700468A45821
:10152000240A5C700468A458240C9C700468A258B7
:10153000120EDA704FF4DE72046802EB0112A45846
:101540001C710468A458240A5C710468A458240C13
:101550009C710468A258120EDA71006881B10169A9
:1015600041F020010161002030BDE468A8E7416A34
:1015700041F400114162012030BD6D0D1560AFE7EF
:10158000C16841F02001C160EDE72DE9F05F05463B
:10159000006800244669D0F804908768D0F80CB041
:1015A000D0F810A0D0F81880F10748D0F90714D06F
:1015B00001218160B80703D5284600F086FA0CE0C7
:1015C000780702D54FF4006407E0380702D54FF4DE
:1015D000805402E0284600F077FAF80516D529680D
:1015E0004FF480708860B80503D5284600F06FFA84
:1015F0000CE0780502D544F4005407E0380502D524
:1016000044F4804402E0284600F060FAF80316D55E
:1016100029684FF480308860B80303D5284600F06D
:1016200058FA0CE0780302D544F4004407E038038C
:1016300002D544F4803402E0284600F049FA30072D
:1016400007D55FEACB6004D52968102044F4007404
:10165000C86070074FF0080707D55FEA0B7004D524
:101660002868C760284600F099F9B00706D52868B1
:10167000C068800702D0284600F092F9700607D5AE
:101680005FEACA6004D52968102044F480640861C8
:10169000B00607D55FEA0A7004D5286807612846B6
:1016A00000F0E2F9F00606D528680069800702D04C
:1016B000284600F0DAF9B00308D55FEAC96005D51D
:1016C000296810204860284600F0D0F9F00307D5BB
:1016D0005FEA097004D528684760284600F0FAF9E7
:1016E000300446D55FEA497040D5F00504D55FEA7D
:1016F000C87001D044F00104B00504D55FEA8870D9
:1017000001D544F00204700504D55FEA487001D5A4
:1017100044F00404300529D518F0700F26D008F0E5
:101720007000402815D006DC102809D020280AD0E7
:10173000302816D10AE050280ED0602811D10EE0D2
:1017400044F008040DE044F010040AE044F02004E2
:1017500007E044F0400404E044F0800401E044F475
:1017600080742868816921F07001816129680420F2
:101770004860002C05D0686A204368622846FFF75D
:101780008FFEBDE8F09F70B5040003D094F82000F0
:1017900010B104E0012070BD204600F081F82068FF
:1017A000016841F00101016000F0A8FC0546052632
:1017B00004E000F0A3FC401B0A2811D82068406810
:1017C000C007F6D02068016821F00201016000F036
:1017D00095FC05460BE000F091FC401B0A2806D959
:1017E000606A40F40030606284F82060D2E72068CC
:1017F00040688007EFD4207E0128206801683DD032
:1018000021F080010160607E01282068016838D0E5
:1018100021F040010160A07E01282068016833D0DA
:1018200021F020010160E07E0128206801682ED0AF
:1018300041F010010160207F01282068016829D053
:1018400021F008010160607F01282068016824D030
:1018500021F004010160D4E902010843D4E9041233
:10186000114308436168491E08432168C86100208C
:101870006062012084F82000002070BD41F08001EA
:10188000C0E741F04001C5E741F02001CAE721F07F
:101890001001CFE741F00801D4E741F00401D9E796
:1018A000F0B587B0044614216846FEF745FD364B77
:1018B0003648DFF8D0E01968D4F800C0334A032571
:1018C0000226092710300024491CF44522D1196052
:1018D000012907D1016841F000710160006800F042
:1018E00000700590106840F0080010601068CDE9A5
:1018F000005600F00800CDE9047069462448CDE99F
:10190000024500F0DBFA00220521142000F08EFCD5
:10191000142033E0DFF87CE0F44531D1D0F800C08A
:101920004CF0806CC0F800C0D0F800C001290CF069
:10193000806CCDF814C0196007D1016841F00071C6
:101940000160006800F000700590106840F002002F
:101950001060106802AB00F0020005904FF4405098
:10196000CDE9000683E8B00069460B4800F0A6FA0E
:1019700000220521402000F059FC402000F048FCE6
:1019800007B0F0BD006400401C0000203038024069
:10199000000C024000680040000402407047000054
:1019A0002DE9F0412D492D4C064600680968303C70
:1019B0002B4D04F11C03884220D1224600213046E1
:1019C000FFF76FFDE8BB207F012840D1214605F1DC
:1019D000140004F063FB002405EB840704EB4400CF
:1019E00005EBC00097ED050A00F59A7001F036FD91
:1019F000641C87ED080A032CEEDB28E01749283128
:101A00000968884223D1154A0021303A3046FFF751
:101A100048FDB0B9207F012819D11049114830394B
:101A200004F03CFB5FF0000405EB840704EB44008A
:101A300005EBC00097ED6A0A00F5327001F00EFD6B
:101A400000E004E0641C87ED6D0A032CECDB3046FB
:101A5000BDE8F0410221FFF727BC0000240100206F
:101A6000C8020020700400207047704770470000D3
:101A700070B5044690F82000012804D0606A40F454
:101A80000020606218E0022084F8200020680168CD
:101A900021F00101016000F031FB05460EE000BFBE
:101AA00000F02CFB401B0A2808D9606A40F4003083
:101AB0006062052084F82000012070BD2068406825
:101AC000C007EDD1606270BD7047704770477047C6
:101AD00070477047704710B5040002D0607910B1AC
:101AE00006E0012010BD00202071204600F004F81F
:101AF00001206071002010BD08B5006806498842C9
:101B000008D10648016841F480510160006800F482
:101B10008050009008BD0000003002403038024084
:101B20002DE9F0410446876D00F0E8FA064694F886
:101B300035000025022806D08020606584F83450E6
:101B40000120BDE8F0812068016821F016010160E4
:101B50002068416921F080014161206C08B9A06CC6
:101B600020B12068016821F0080101602068016847
:101B700021F0010101600CE000F0C0FA801B052893
:101B800007D920206065032084F8350084F834509C
:101B9000D7E720680068C007EED194F85C103F20BA
:101BA0008840B860012084F8350084F83450002063
:101BB000C7E790F83510022903D080214165012044
:101BC0007047052180F835100068016821F0010197
:101BD00001600020704700002DE9F84304464FF0F3
:101BE0000009CDF8009063484FF41651A56D0068C8
:101BF000B0FBF1F72E6894F85C10082000FA01F1B0
:101C000031420FD021680A6852070BD50A6822F0CA
:101C100004020A6094F85C108840A860606D40F08F
:101C20000100606594F85C104FF0010808FA01F0BB
:101C3000304208D021684969090604D5A860606D62
:101C400040F00200606594F85C1004208840304247
:101C500008D021680968890704D5A860606D40F044
:101C60000400606594F85C1010208840304218D061
:101C700021680968090714D5A8602068016849032C
:101C800004D50068000308D5A16C07E00168C90508
:101C900003D4016821F008010160216C09B12046DC
:101CA000884794F85C1020208840304231D0216869
:101CB0000968C9062DD5A86094F835000528206864
:101CC000016806D0490347D5006800031DD4616C44
:101CD0001CE021F0160101602068416921F08001BB
:101CE0004161206C08B9A06C20B12068016821F026
:101CF0000801016094F85C103F208840A86084F8D7
:101D0000358084F83490216D1FE0E16B09B12046E5
:101D10008847606D00282BD0606DC00714D0052067
:101D200084F835002068016821F001010160009805
:101D3000401C0090B84203D820680068C007F6D164
:101D400084F8358084F83490E16C002910D001B01B
:101D50002046BDE8F04308470168C905D5D40168AD
:101D600021F01001016084F8358084F83490CCE7CC
:101D7000BDE8F883340000202DE9F041044600F06E
:101D8000BDF906465CB1022084F83500002584F8D0
:101D900034502068016821F0010101600DE001204C
:101DA000BDE8F08100F0AAF9801B052805D92020A4
:101DB0006065032084F83500F2E720680068C007FA
:101DC000F0D12268116820480140D4E9010318438A
:101DD000D4E903363343184363691843A3691843AE
:101DE000E3691843236A18430843616A042903D14D
:101DF000D4E90B1319430843106020684069666AF0
:101E000020F0070130460E43012704280CD1A06AB8
:101E10000643E06A40B12046FFF7DEF920B14020DA
:101E2000606584F83570BAE7206846612046FFF7A0
:101E3000BFF994F85C203F2191408160656584F88A
:101E400035700020ACE700003F8010F02DE9F04134
:101E50000446866D90F83400002501280DD001203D
:101E600084F8340094F835700020012F07D084F8EE
:101E7000340002252846BDE8F0810220FBE7022756
:101E800084F8357060652046FFF7D0F994F85C104F
:101E90003F208840B0602068016841F01601016071
:101EA000206C20B12068016841F0080101602068C1
:101EB000016841F001010160DCE700002DE9F84F05
:101EC000DFF8F8A10022012403254FF00F090AF1E1
:101ED000040BAAF1040E00BF0B6804FA02F63340AB
:101EE000B34270D10F7907F00307012F01D0022F01
:101EF00016D187684FEA420805FA08FC27EA0C0762
:101F0000D1F80CC00CFA08FC4CEA070CC0F808C069
:101F10004768B7430E79C6F3001696403E434660C5
:101F20000E79F643B6070AD0C7684FEA420C05FAA5
:101F30000CF6B7438E6806FA0CF63E43C6600E797F
:101F400006F00306022E10D1D60800EB8608D8F85A
:101F5000206057074FEAD76C09FA0CF7BE430F69A8
:101F600007FA0CF73743C8F8207006684FEA420CAE
:101F700005FA0CF7BE430F7907F0030707FA0CF7D1
:101F8000374307604E6816F4403F1CD04C4E37680C
:101F900047F480473760366822F0030706F480462E
:101FA0000096484E07EB060CDCF8086897073F0FD1
:101FB00009FA07F826EA0806DFF80C81404503D144
:101FC0004FF0000841E072E0DFF80081404502D1A7
:101FD0004FF0010839E0DFF8F880404502D14FF0BA
:101FE000020832E0DFF8EC80404502D14FF00308F0
:101FF0002BE0DFF8E480404502D14FF0040824E0F4
:10200000DFF8D880404502D14FF005081DE0DFF829
:10201000D080404502D14FF0060816E0DFF8C480BA
:10202000404502D14FF007080FE0DFF8BC80404583
:1020300002D14FF0080808E0DFF8B080404502D137
:102040004FF0090801E04FF00A0808FA07F848EADB
:102050000608CCF80888DAF800605746D1F804C0C2
:102060009E435FEACC2C00D51E433E60DBF8006047
:102070005F46D1F804C09E435FEA8C2C00D51E4316
:102080003E60DEF800607746D1F804C09E435FEA08
:102090008C3C00D51E433E60084F083F3E68D1F897
:1020A00004C09E435FEACC3C00D51E433E60521CF8
:1020B000102AFFF411AFBDE8F88F0000083C014082
:1020C0004438024000300140000002400004024059
:1020D00000080240000C02400010024000140240C0
:1020E00000180240001C0240002002400024024070
:1020F0000AB1816170470904FBE70000014880686C
:1021000070470000280000200248816802781144CE
:1021100081607047280000200B4810B5016841F429
:1021200000710160016841F480610160016841F45F
:1021300080710160032000F099F80F2000F006F88C
:1021400000F04AF8002010BD003C024030B50546C2
:102150001C4887B00024016841F00101016000685B
:1021600006A900F00100009001A800F055FA00F067
:1021700083FA15494000B0FBF1F11548134A491E96
:10218000026040F2E732C0E90324C0E9011484612F
:1021900000F034FD040012D10D4800F06FFD040082
:1021A0000DD1192000F034F8102D07D20022294655
:1021B000192000F03BF80748056000E0012407B053
:1021C000204630BD4438024040420F00000001402C
:1021D000800200202C0000200C4882B0016841F4ED
:1021E00080410160006800F4804000900748001FB3
:1021F000016841F0805101600068002200F08050C9
:1022000000900F21901E02B000F010B84438024038
:10221000002809DB00F01F020121914040098000E5
:1022200000F1E020C0F8001170470000F0B40E4B40
:102230001B680C46C3F30223C3F10705042D00D924
:102240000425191D072901D2002300E0DB1E012609
:1022500006FA05F1491E214099409E40761E16401F
:102260003143F0BC01F002BF0CED00E0064900F084
:10227000070208684FF6FF03184040EA0220034AAD
:1022800010430860704700000CED00E00000FA0504
:102290002DE9F84F04460068DFF824A2894F8A4DE3
:1022A000C1074FF001084FF0000603D1810701D4A8
:1022B000400648D5CAF86860FFF720FF814605E070
:1022C000FFF71CFFA0EB090002287DD82868000159
:1022D000F6D42078C1077D4805D06168227A89014B
:1022E00041EA027101602178890711D501686268AD
:1022F000237B9201C1F3027142EA036242EA017157
:1023000001603968E26921F01F01521E11433960F2
:102310002178490608D56168227B890141EA02617A
:10232000227A41EA02710160CAF86880FFF7E6FE8E
:10233000814605E0FFF7E2FEA0EB0900022843D842
:1023400028680001F6D52068410701D400074ED562
:10235000CAF87060FFF7D2FE814605E0FFF7CEFEB7
:10236000A0EB090002282FD82868C0438000F5D5CB
:1023700020784107564814D501682269237D9201CF
:10238000C1F3027142EA036242EA017101603968F5
:10239000226A6FF0FF0321F4F85103EB022211438C
:1023A00039602178090712D501682269C1F30361F8
:1023B000920142EA0161227E41EA027101603868BD
:1023C000616A20F4403000E051E008433860CAF808
:1023D0007080FFF793FE074605E000BFFFF78EFE13
:1023E000C01B022843D82868C0438000F6D4207858
:1023F000800653D534484030016841F08051016077
:102400000068344D00F080500090286840F48070DF
:102410002860FFF773FE074605E000BFFFF76EFE7A
:10242000C01B022823D82868C005F7D5274D143DC6
:10243000286810F4407020D0218D01F44071814251
:102440001BD0286820F440712348C0F80080066043
:1024500029602868C00710D0FFF750FE064641F2F9
:10246000883707E0FFF74AFE801BB84202D90320F5
:10247000BDE8F88F28688007F4D5A16A1248C1F337
:1024800001220830032A13D0016821F4F8110160F9
:102490002868218DC1F30B01084328602078C0060D
:1024A00004D50E4994F82C00C1F8E0010020DFE7C4
:1024B00002680B4B22F4F81219400A430260E7E766
:1024C000000047428C380240003802408438024005
:1024D0008838024000700040400E474200104742DA
:1024E000FFFCFF0F2DE9F0470E46050065D0DFF831
:1024F0001481D8F80000F7B200F00F00B04207D204
:1025000088F80070D8F8000000F00F00B04254D1F5
:1025100028683D4C810712D5400703D5206840F458
:10252000E05020602878000703D5206840F4604020
:1025300020602068A96820F0F00008432060287817
:10254000C0072DD0304968680839012812D0022808
:1025500013D0032811D00968890700292DDA2168D2
:1025600021F0030101432160FFF7C8FD814641F2DC
:10257000883A0EE009688903EFE709688901ECE70A
:10258000FFF7BCFDA0EB0901514502D90320BDE8CE
:10259000F0872068696800F00C00B0EB810FEFD184
:1025A000D8F80010404601F00F01B14207D907707A
:1025B000006800F00F00B04201D00120E7E7287862
:1025C000400705D52068E96820F4E0500843206002
:1025D0002878000706D52068296920F4604040EA81
:1025E000C100206000F058F82168084AC1F30311C7
:1025F000515CC8400649086006480068FFF7A6FD20
:102600000020C4E7003C0240083802400C6F00087C
:10261000340000202C0000200F2202600C4A1368B6
:1026200003F003034360136803F0F003836013684F
:1026300003F4E053C36012684FF4E05303EAD2029C
:1026400002610448006800F00F0008607047000055
:1026500008380240003C0240044805490068096807
:10266000044AC1F38221515CC84070473400002005
:10267000083802401C6F00080448054900680968D2
:10268000044AC1F34231515CC84070473400002015
:10269000083802401C6F0008154810B5006810F09B
:1026A0000C02144813D01449042A0FD0082A0ED162
:1026B0000F4C241F2268236802F03F025B0207D5FB
:1026C0002068C0F38810A0FB010106E0084610BD99
:1026D0002168C1F38811A1FB00010023FDF7E2FD91
:1026E0002168C1F30141491C4900B0FBF1F010BD64
:1026F000083802400024F400001BB7002DE9F84F11
:1027000004006ED02078DFF84C93C007A9F10405CF
:102710004AD009F104000168C1F38101012908D000
:102720000068C0F3810002280AD1D9F800004002F5
:1027300006D52868800337D560680028E1D033E0EB
:102740006068B0F5803F10D0B0F5A02F286810D099
:1027500020F480302860286820F480202860606899
:10276000A8B1FFF7CBFC06460DE0286840F48030A6
:10277000F4E740F480202860F7E700BFFFF7BEFCD5
:10278000801B642873D828688003F7D50CE0FFF716
:10279000B5FC064605E000BFFFF7B0FC801B6428CF
:1027A000F0D828688003F7D42078DFF8AC8280075F
:1027B0004FF0000A3ED5A748001D016811F00C0F2C
:1027C00008D00068C0F3810002280BD1D9F80000BE
:1027D000400207D42868800716D5E068012800D198
:1027E00012E033E1E068B8B10120C8F80000FFF75B
:1027F00085FC064605E000BFFFF780FC801B022831
:10280000C0D828688007F7D52868216920F0F8002B
:1028100040EAC10028600DE0C8F800A0FFF76EFC98
:10282000064604E0FFF76AFC801B02281FD82868D0
:102830008007F7D42078000722D5864F8748616942
:10284000703771B101210160FFF758FC064604E0C2
:10285000FFF754FC801B022809D838688007F7D599
:102860000EE0C0F800A0FFF749FC064605E082E054
:10287000FFF744FC801B02287DD838688007F7D416
:102880002078400768D5DFF8CCB100270BF13C0B6E
:10289000DBF80000C0000BD4DBF8001041F08051E1
:1028A000CBF80010DBF80000012700F0805000900A
:1028B0006B4E3068C00510D4306840F480703060D2
:1028C000FFF71CFC009005E0FFF718FC0099401A88
:1028D000022850D83068C005F6D55E4EA0686C3628
:1028E00001280FD00528306810D020F0010030609A
:1028F000306820F004003060A068B8B1FFF7FEFB3C
:1029000000900FE0306840F00100F4E740F0040070
:102910003060F7E7FFF7F2FB0099411A41F2883087
:10292000814266D830688007F4D50EE0FFF7E6FBF9
:10293000009007E0FFF7E2FB0099411A41F288306E
:10294000814256D830688007F4D42FB1DBF80010EC
:1029500021F08051CBF80010A069C8B33D49091D92
:102960000968C1F3810102294AD00228504607D0E4
:10297000C8F8600000E03CE0FFF7C0FB04463BE025
:102980004746C8F86000FFF7B9FB064605E000BF00
:10299000FFF7B4FB801B02282BD828688001F7D4EE
:1029A000D4E907010843A16A2E4A490802EB014114
:1029B000626A41EA8211084394F82C1040EA0161EE
:1029C000C9F8001001203866FFF798FB044606E0BE
:1029D0003EE000BFFFF792FB001B022809D82868E1
:1029E0008001F7D534E000BFFFF788FB001B022809
:1029F00002D90320BDE8F88F28688001F4D427E0CD
:102A00000128F7D0D9F80000E26900F48001914272
:102A10001CD1226A00F03F01914217D147F6C071E4
:102A2000626A0140B1EB821F10D1A26A4FF0FF33FE
:102A300000F4403103EB5202B1EB024F06D194F89F
:102A40002C1000F07060B0EB016F01D00120D1E7D5
:102A50000020CFE70438024000004742800E474282
:102A6000007000400000FFFF10B5040002D0607F3E
:102A700010B106E0012010BD00202077204600F0B4
:102A800039F8022060772168CA2048622168532003
:102A90004862204600F0E4FE30BB20688168144A9A
:102AA000114081602168886862681043D4E904237A
:102AB0001A43104388602168E06808612068016952
:102AC000228941EA02410161204600F0EDFE58B939
:102AD00021680A6C22F480220A6421680A6CA369C6
:102AE0001A430A64012161772268FF21516210BDF7
:102AF000BFFF8FFF10B58CB0044630216846FDF74C
:102B00001BFC0949206888420CD12020009000015C
:102B10000A906846FFF7BCFB08B1FEF7B7FB034914
:102B2000012008600CB010BD002800403C0E474258
:102B300070B504460068C16821F0A001C160FFF7CC
:102B4000DDFA05464FF47A7607E000BFFFF7D6FAC4
:102B5000401BB04201D9032070BD2068C0688006C8
:102B6000F4D5002070BD70477047000070B590F834
:102B70003C20012A32D0012480F83C40022280F817
:102B80003D2003685A689D6822F070060A68324347
:102B90005A60134B02689A4214D0B2F1804F11D0A0
:102BA000104B9A420ED0104B9A420BD00F4B9A42C8
:102BB00008D00F4B9A4205D00E4B9A4202D00E4BD2
:102BC0009A4204D1496825F080031943916080F846
:102BD0003D40002180F83C10084670BD022070BDC9
:102BE000000001400004004000080040000C0040CC
:102BF00000040140004001400018004010B50400EE
:102C000003D094F83D0010B107E0012010BD002072
:102C100084F83C00204600F01FF8022084F83D00B4
:102C2000211D206800F00CFF012084F8460084F884
:102C30003E0084F83F0084F8400084F8410084F8A6
:102C4000420084F8430084F8440084F8450084F886
:102C50003D00002010BD000008B50068B0F1804FB5
:102C600008D10548016841F001010160006800F0E9
:102C70000100009008BD00004038024090F83D106F
:102C8000012901D001207047022180F83D10016820
:102C9000CA6842F00102CA6000681149884214D033
:102CA000B0F1804F11D00F4988420ED00E498842B2
:102CB0000BD00E49884208D00D49884205D00D49F5
:102CC000884202D00C49884204D1816801F0070192
:102CD000062903D0016841F001010160002070471E
:102CE000000001400004004000080040000C0040CB
:102CF00000040140004001400018004070B5044647
:102D000090F83C000025012817D0012684F83C608B
:102D1000022084F83D002068826822F0770222F4C5
:102D20007F4282600868502838D00DDC20284FD0C0
:102D300005DC90B3102811D14AE0022070BD302884
:102D400046D040280AD13BE060282FD070280DD013
:102D5000B0F5805F03D0B0F5005F12D0012584F894
:102D60003D60002084F83C00284670BDCB68D1E966
:102D70000121206800F0C8FE2068816841F07701D9
:102D800009E0CB68D1E90121206800F0BDFE206890
:102D9000816841F480418160E1E719E0CA684968CF
:102DA000206800F0C3FE5021206806E0CA68496828
:102DB000206800F0CCFE6021206800F0AFFECEE776
:102DC000CA684968206800F0B1FE40212068F4E735
:102DD000226801461046F0E7704770B50446006867
:102DE00001694FF00005C943890715D4C168C9437B
:102DF000890711D4E91E01610120207720688069CC
:102E00008007204602D0FFF7E7FF04E000F098F8C3
:102E1000204600F096F8257720680169C9434907E4
:102E200017D4C168C943490713D46FF00401016185
:102E3000022020772068806910F4407F204602D06D
:102E4000FFF7CAFF04E000F07BF8204600F079F8B5
:102E5000257720680169C943090716D4C168C943A9
:102E6000090712D46FF0080101610420207720685F
:102E7000C0698007204602D0FFF7AEFF04E000F0F3
:102E80005FF8204600F05DF8257720680169C943A6
:102E9000C90617D4C168C943C90613D46FF010011D
:102EA0000161082020772068C06910F4407F204627
:102EB00002D0FFF791FF04E000F042F8204600F056
:102EC00040F8257720680169C943C90708D1C1685E
:102ED000C943C90704D1891E0161204600F032F8B8
:102EE00020680169C943090609D4C168C9430906B4
:102EF00005D46FF0800101612046FFF734FE2068A1
:102F00000169C943490609D4C168C943490605D4C2
:102F10006FF040010161204600F01EF82068016951
:102F2000C94389060BD4C168C943890607D46FF029
:102F3000200101612046BDE87040FFF715BE70BD5D
:102F40007047704700680349884201D1FFF7DCB839
:102F50007047000000000140704770477047000054
:102F6000F8B5016804460868CA684B6910F00F0F8D
:102F70004FF000055AD003F0010602F49077374372
:102F800065D0C10705D0D10503D5216C41F0010101
:102F90002164410705D5D90703D0216C41F0020116
:102FA0002164810705D5D90703D0216C41F00401C4
:102FB0002164010707D502F02001314303D0216CC1
:102FC00041F008012164216C00293BD0800604D522
:102FD000900602D5204600F07CFE20684069216CF6
:102FE000C0F3801001F00801014320462BD000F00F
:102FF0003BFE20684069400621D52068143050E827
:10300000001F21F0400140E80012002AF5D1A06B1A
:10301000A8B16C490165A06BFEF7CBFD002811D06B
:10302000A06B016D01B0BDE8F040084783060ED5E6
:1030300093060CD52046BDE8F84000F04ABE204675
:10304000FFF78CFFF8BDFFF789FF2564F8BD266BFD
:103050002023012E79D1C60677D5D60675D5086806
:10306000486800904869400640D5A16B08684068F0
:103070000004000CEAD0A28D8242E7D9E085C8693D
:10308000B0F5807F2DD020680C3050E8001F21F46F
:10309000807140E80012002AF5D12068143050E811
:1030A000001F21F0010140E80012002AF5D120683C
:1030B000143050E8001F21F0400140E80012002ABF
:1030C000F5D184F83E30256320680C3050E8001FAD
:1030D00021F0100140E80012002AF5D1A06BFEF7A4
:1030E0001FFDA08DE18D401A81B229E0A08DE18DF8
:1030F000401A81B2E08D0028A8D00029A6D020680F
:103100000C3050E8002F22F4907240E80026002E88
:10311000F5D12068143050E8002F22F0010240E879
:103120000026002EF5D184F83E30256320680C304F
:1031300050E8002F22F0100240E80023002BF5D1C8
:103140002046FFF70AFFF8BDFFE705062BD5150659
:1031500029D594F83D002128F5D1A068B0F5805F0D
:1031600001D12069B0B1206A411C21622168007838
:103170004860E08C401E0004000CE084E3D120682D
:10318000C16821F08001C1602068C16841F0400140
:10319000C160D8E7206A0088C0F308004860206A50
:1031A000801C2062E5E74006CDD55006CBD5CA6825
:1031B000204622F04002CA6084F83D3000F02FF92A
:1031C000C1E70000733B000870B5040004D094F818
:1031D0003D00002510B106E0012070BD84F83C5090
:1031E000204600F023F8242084F83D002068C168C0
:1031F00021F40051C160204600F0D6FD206801692D
:1032000021F4904101612068416921F02A01416166
:103210002068C16841F40051C1602564202084F811
:103220003D0084F83E00002070BD000070B586B0FF
:10323000064614216846FDF77FF824493068884225
:1032400041D123480025016841F020010160006858
:1032500000F0200005901E481438016841F040013C
:1032600001600068694600F0400005904FF484401A
:1032700000900220CDE9010503200390082004906E
:103280001448FEF71BFE154C134820608005C4E966
:1032900001054FF48060C4E9035080106561C4E902
:1032A0000650256220466562FEF766FD08B1FDF70F
:1032B000EDFFB463002205214720A663FEF7B6FFA9
:1032C0004720FEF7A5FF06B070BD000000140140C6
:1032D00044380240001802402864024020020020C6
:1032E00090F83E30202B0ED159B152B190F83C30BD
:1032F000012B08D0012380F83C300023036300F049
:10330000D9BD012070470220704790F83E30202B35
:103310000ED159B152B190F83C30012B08D00123A5
:1033200080F83C300023036300F00EBE012070479C
:103330000220704710B50068074988420AD1074942
:10334000074800F0C6FABDE81040012203490548CD
:10335000FFF7DBBF10BD000000140140F0050020A6
:10336000C8020020DC010020704700002DE9F8436E
:10337000044690F83D001F4616460D4620284CD1C5
:10338000C5B1BEB194F83C00012846D0012084F8B4
:103390003C004FF00008C4F84080212084F83D0034
:1033A000FEF7ACFEA6848146E684A068B0F5805F97
:1033B00003D004E00120BDE8F883206928B12E463F
:1033C0005FF0000584F83C800EE00026FAE78021DB
:1033D000204600F0D6FDA0B9AEB116F8010B216869
:1033E0004860E08C401EE084E08C4B464FF00002C9
:1033F00000970028EBD14FF04001204600F0C1FDBE
:1034000030B10320D7E735F8020BC0F30800E6E738
:10341000202084F83D000020CDE70220CBE7704754
:10342000FEE780ED020AC0EC020AC160C0ED0A1A94
:10343000704780ED080A80ED001AC0ED010A704760
:1034400080ED000A9FED040A80ED010A80ED020A7A
:103450000C3080EC030A704700000000F0EE401AC8
:1034600090ED000AD0ED040A70EE200AC0ED010ACA
:1034700090ED050A30EE800A80EE801A80ED031A86
:1034800090ED020A71EEC01A01EE210AF7EE001A61
:1034900031EEC11A80ED020A61EE200AC0ED000A89
:1034A000704700009FED0A1AF7EE001A80EC020A3E
:1034B00020EE011A81EE810A30EE200A80EE801A99
:1034C0009FED040A80ED021A80ED030A70470000A8
:1034D000DA0FC94000000000144810B5124901601D
:1034E0000321416000214FF400228160C0E90312F2
:1034F0004FF440124261017641768176C1760177C0
:103500004177FEF740F908B1FDF7C0FE074801F02A
:10351000E5FE0648FEF7ACFA002803D0BDE81040EF
:10352000FDF7B4BE10BD000000640040240100207F
:10353000144810B5124901600321416000214FF485
:1035400000228160C0E903124FF44012426101760B
:1035500041768176C17601774177FEF714F908B19B
:10356000FDF794FE074801F0B9FE0648FEF780FA21
:10357000002803D0BDE81040FDF788BE10BD000054
:10358000006800404C010020074910B5054808605C
:103590000846FEF7A0FA002803D0BDE81040FDF76A
:1035A00075BE10BD0030024020000020094808B55B
:1035B000016841F4800101600068002200F480008D
:1035C000009005213920FEF731FEBDE80840392082
:1035D000FEF71EBE30380240F0B58FB002F002FD9B
:1035E0001B4E1C4F002400BFC4EB041006EB8005EB
:1035F0002846FDF763FC04EB440007EB0011284666
:10360000FDF798FC641C022CEEDB1422124968467C
:10361000FCF779FE0021684601F083FE0F4C0E494D
:1036200014222061143105A8FCF76DFE002105A8C5
:1036300001F077FE08496061142228310AA8FCF7DE
:1036400062FE00210AA801F06CFEA0610FB0F0BD7F
:10365000300D0020A80D0020C86E000800000020DA
:10366000F0B587B014216846FCF766FE4148002497
:10367000016841F040010160016801F040010591DD
:10368000016841F001010160016801F0010105914B
:10369000016841F008010160016801F0080105912D
:1036A000016841F004010160016801F00401059125
:1036B000016841F080010160016801F0800105911D
:1036C000016841F020010160016801F020010591CD
:1036D000016841F002010160016801F002010591F9
:1036E000016841F0100101600068234D00F01000F6
:1036F0000590002240212846FEF7FAFC1F4F0022C9
:1037000002213846FEF7F4FC402000900126CDE966
:103710000164694628460394FEF7D0FB0420CDE9F6
:103720000004694616480294FEF7C8FB022500957E
:10373000CDE90164694638460394FEF7BFFB4FF4B8
:10374000C070CDE90005032602940820CDE903608E
:1037500069460C48FEF7B2FB3002CDE90005029441
:103760000720CDE9036069460748FEF7A7FB07B0CD
:10377000F0BD000030380240001402400018024042
:103780000004024000100240000C02400B4810B53B
:103790000949016000217F22C0E90112FF22C0E92E
:1037A000032141618161FFF75FF9002803D0BDE883
:1037B0001040FDF76BBD10BD0028004074010020D3
:1037C00010B586B000241648009401940294039426
:1037D00004944FF080410594C0E90014611EC0E9D3
:1037E0000241802104618161FFF708FA08B1FDF709
:1037F0004DFD4FF48050009069460948FFF77EFA6E
:1038000008B1FDF743FD049404A905480594FFF7AA
:10381000ADF9002801D0FDF739FD06B010BD00005C
:10382000940100200C4810B50A4901604FF4E121D1
:103830004160002181600C22C160C0E904128161F5
:10384000C161FFF7C1FC002803D0BDE81040FDF7BF
:103850001DBD10BD00140140DC010020FEE7FEE7A5
:103860002DE9F041044600680025C168490618D4D6
:10387000C16841F08001C160FEF740FC06464FF48C
:103880007A78042707E000BFFEF738FC801B40452C
:1038900001D9677701252068C068400601D4002D52
:1038A000F2D02846BDE8F08170B5044600680025D6
:1038B000C16821F08001C16020688068800606D45C
:1038C0002046FFF735F910B104206077012528461E
:1038D00070BD70B5087800250C460A280CD02C283D
:1038E0000CD0A1783C22B1FBF2F302FB131222446C
:1038F000491CA170D07070BDA57010E0A570E01CCF
:1039000000F0C6FB51EC100BFCF7EAFE617804EB0B
:103910008102491C617010646078062800D96570C6
:103920003C21E01CBDE87040FCF706BDADF5027D12
:1039300003F000F9809081A9684602F0F1FA30B1F5
:103940000323054A9DF80412684601F095FD012104
:1039500080A802F0F9FCEEE7D400002010B550205A
:1039600080F31188BFF34F8FBFF36F8F03F0E8F838
:1039700018B104494FF080500860002080F311888E
:1039800010BD000004ED00E030B593B03021684672
:10399000FCF7D2FC14210CA8FCF7CEFC1F48002534
:1039A000016841F080510160006800F08050119082
:1039B0001B48016841F4404101600068022400F4A2
:1039C00040401190092000904FF480300190012078
:1039D000CDE905048005079006200890A820CDE9D0
:1039E000090407200B906846FEF788FE08B172B6FE
:1039F000FEE70CA90F2081E831004FF4A0500F9092
:103A00004FF48050109005210CA8FEF76BFD0028A4
:103A100001D072B6FEE713B030BD0000403802405E
:103A2000007000400248016841F470010160704775
:103A300088ED00E00148FFF7D0B9000080020020C7
:103A4000F0B50268254C264D264E274F274B4FF0E8
:103A5000804CA04209D0604507D0A84205D0B042B2
:103A600003D0B84201D0984204D122F0700E4A68C7
:103A700042EA0E02A0421BD0604519D0A84217D0DE
:103A8000B04215D0B84213D0984211D0184DA84278
:103A90000ED0184DA8420BD0174DA84208D0174D94
:103AA000A84205D0164DA84202D0164DA84203D117
:103AB00022F44075CA682A434D6922F080022A43E5
:103AC00002608A68C2620A688262A04201D098429B
:103AD00001D10969016301214161F0BD000001408C
:103AE0000004004000080040000C004000040140B9
:103AF00000400140004401400048014000180040DF
:103B0000001C00400020004010B5846842EA0322F7
:103B100024F47F440A432243826010BD826822F06D
:103B200070020A4342F007018160704710B5036AD2
:103B3000046A24F001040462846924F0F00444EA75
:103B4000021423F00A020A438461026210BD10B518
:103B5000036A23F0100303628369046A23F4704349
:103B600043EA023224F0A00343EA011182610162B8
:103B700010BD10B5806B0021C185C184FFF7EEF93F
:103B800010BD70B5846B2068406994F83D10C0F397
:103B9000C0100025212904D118B1E584204600F089
:103BA0008AF82068406994F83E10C0F380102229FA
:103BB00004D118B1E585204600F056F8206C40F09D
:103BC000100020642046FFF7C9F970BD10B501460A
:103BD000806B09680968C9052FD40021C185016877
:103BE0000C3151E8002F22F4807241E80023002BB1
:103BF000F5D10168143151E8002F22F0010241E8AB
:103C00000023002BF5D10168143151E8002F22F078
:103C1000400241E80023002BF5D1202180F83E101E
:103C2000016B012909D101680C3151E8002F22F004
:103C3000100241E80023002BF5D1016B012902D0CD
:103C4000FFF778FB10BD818DFFF787F910BD10B528
:103C5000806B016B012902D0FFF786FB10BD818DBF
:103C60004908FFF77AF910BD01680C3151E8002FBF
:103C700022F4907241E80023002BF5D10168143141
:103C800051E8002F22F0010241E80023002BF5D17A
:103C9000016B012909D101680C3151E8002F22F094
:103CA000100241E80023002BF5D1202180F83E10BE
:103CB00000210163704701680C3151E8002F22F0A8
:103CC000C00241E80023002BF5D1202180F83D10EF
:103CD000704708B590F83E10222901D0022008BD97
:103CE00082684FF480539A4201D1016921B1816AFF
:103CF0009A421BD04AB10AE00268816A5268C2F354
:103D000008020A80816A891C08E0026972B10268AF
:103D1000526802F07F020A70816A491C8162C18D7B
:103D2000491E0904090CC18503D019E002685268D4
:103D3000F1E70168CA6822F02002CA600168CA6817
:103D400022F48072CA6001684A6922F001024A6165
:103D5000202180F83E10016B012903D0FFF7EAFA19
:103D6000002008BD0021016301680C3151E8002FDB
:103D700022F0100241E80023002BF5D101680A6807
:103D8000D20602D50A6849680091818DFFF7E5F8EF
:103D9000E6E7000001B501231A4669460148FFF72E
:103DA000E5FA08BDDC01002070B504460068016931
:103DB000E26821F44051114301612169A068E26980
:103DC00008436169114308432168CA6849F20C63DA
:103DD0009A430243CA6020684169A26921F4407194
:103DE0001143416131492068884202D030498842FC
:103DF00002D1FEF741FC01E0FEF72EFCE269002350
:103E0000192164253226B2F5004F626828D0A0FB44
:103E10000101930F9200FCF745FA0146B0FBF5F063
:103E20006FF01802504301EB800006EB0010B0FB6E
:103E3000F5F000F0F002B1FBF5F002EB0012B1FB7F
:103E4000F5F06FF01803584301EB800006EB00100B
:103E5000B0FBF5F000F00F0021681044886070BDE1
:103E6000A0FB010192185B41FCF71CFA0146B0FB74
:103E7000F5F00201B1FBF5F06FF01803584301EBC8
:103E8000800006EBC000B0FBF5F000F0F80002EB9C
:103E90004002B1FBF5F0584301EB800006EBC00097
:103EA000B0FBF5F000F00700D6E70000001001407D
:103EB0000014014038B5816282850025134604460E
:103EC0000564222084F83E00A26B1C48D063A26BDC
:103ED0001B481064A26B1B48D064A06B0A460565A2
:103EE0002168A06B091DFDF7B1FF206801684068DB
:103EF000009084F83C50206948B120680C3050E8AC
:103F0000001F41F4807140E80012002AF5D12068BA
:103F1000143050E8001F41F0010140E80012002A6F
:103F2000F5D12068143050E8001F41F0400140E80E
:103F30000012002AF5D1002038BD0000CD3B00085A
:103F40004F3C0008833B000881628285C2850021C6
:103F50000164222280F83E2080F83C10016921B1E2
:103F60000168CA6842F48072CA6001684A6942F016
:103F700001024A610068C16841F02001C16000206F
:103F800070472DE9F041984617460E460446069DB7
:103F900027E0681C25D02DB1FEF7B0F8A0EB080093
:103FA000A8421ED920680C3050E8001F21F4D071BF
:103FB00040E80012002AF5D12068143050E8001FB4
:103FC00021F0010140E80012002AF5D1202084F8F8
:103FD0003D0084F83E00002084F83C000320BDE84A
:103FE000F0812068006836EA000004D00020B84262
:103FF000CFD00020F3E70120F9E70000074808B51B
:1040000000680168C90604D501684068009002F0A4
:1040100009F8BDE808400148FEF7A2BFDC01002016
:10402000FEE7000080EC030A9FED030A80ED030A1F
:1040300080ED040A704700000000000003B40198FE
:104040004100009850EAC12018BF04204A0D18BF53
:1040500040F0010040F2FF72B2EB515F08BF40F048
:104060000200012808BF052002B070470907090EA9
:10407000002804DB00F1E02080F80014704700F015
:104080000F0000F1E02080F8141D704700000000D0
:1040900030B583B0044600F063FD9FED090B054683
:1040A0008DED000B002221466846FCF782FB284676
:1040B00000F06CFD9DED000B03B030BD0000000072
:1040C000000000000000000010B52F499FED2C1BE0
:1040D0002DED020B84B0059820F000408842D8BF37
:1040E0009DED040B2DDD2949884209D1049840B982
:1040F0004FF0010000F04AFD00F00AFD06B010BDCF
:1041000005DB9DED040B00F0F7FC06B010BD684622
:104110009DED040B00F008F910F0030004BF9DEDC5
:10412000021B9DED000B0CD001280ED09DED021B53
:104130009DED000B022817D0012000F045FC06B0D1
:1041400010BD00F00DFB06B010BD9DED021B9DEDF6
:10415000000B012000F038FC51EC100B81F0004105
:1041600006B041EC100B10BD00F0FAFA51EC100B48
:1041700081F0004106B041EC100B10BD00000000C2
:104180000000000000000000FB21E93F0000F07F7C
:10419000B4EEE00AF1EE10FA01DCB0EE600A70470E
:1041A000B4EEE00AF1EE10FA01D3B0EE600A704707
:1041B00010B52DED028BF0EE408A18EE900AB0EEAD
:1041C000608A20F00040C0F1FF40C00F07D118EE18
:1041D000100A20F00040C0F1FF40C00F2BD018EEB5
:1041E000101A18EE900AFCF74EFB00EE100A10EEC3
:1041F000100A6FEAD05010F0FF0F04BFBDEC028B25
:1042000010BD18EE900A00F0004110EE100A00F008
:104210000040814204BFBDEC028B10BD18EE101AA5
:1042200010EE100ABDEC028B61F31E0000EE900A46
:1042300030EE600A10BD18EE900A4FF07F41B1EBEE
:10424000400F1CBF18EE100A5FEA4000C7D10120E2
:1042500000F09CFCBDEC028BBDE8104000F078BC87
:1042600010B52F499FED2C1B2DED020B84B0059846
:1042700020F000408842DCBF00209DED040B32DDC1
:104280002849884209D1049840B94FF0010000F054
:104290007DFC00F03DFC06B010BD05DB9DED040B80
:1042A00000F02AFC06B010BD68469DED040B00F03E
:1042B0003BF810F0030011D0012818D09DED021B2F
:1042C0009DED000B02281AD000F04AFA51EC100BB9
:1042D00081F0004106B041EC100B10BD9DED021BBA
:1042E0009DED000B012000F06FFB06B010BD9DEDB1
:1042F000021B9DED000B00F033FA06B010BD01204B
:1043000000F062FB51EC100B81F0004106B041EC73
:10431000100B10BD000000000000000000000000B5
:10432000FB21E93F0000F07F2DE9F14F04462DED20
:10433000020B2DED088B8AB09FEDE70B80ED020B91
:10434000139EE74826F0004585420ADC9DED120BDE
:10435000002084ED000B0AB0BDEC088B03B0BDE873
:10436000F08FE0489FEDE0AB9FEDE1BBA84247DD59
:10437000E14F9FEDE39B9FEDE48B9DED120B53EC22
:104380001A2B51EC100B002E1CDDFCF781F841ECD0
:10439000100BBD4208D053EC1B2B51EC100BFCF75B
:1043A00077F8C4E900010BE053EC192B51EC100B2A
:1043B000FCF76EF853EC182BFCF76AF8C4E900011F
:1043C0000120C8E7FBF7C3FF41EC100BBD4208D04A
:1043D00053EC1B2B51EC100BFBF7B9FFC4E90001A8
:1043E0000BE053EC192B51EC100BFBF7B0FF53EC27
:1043F000182BFBF7ACFFC4E900014FF0FF30AAE730
:10440000C348A84279DB9DED120B51EC100B00F074
:10441000D5FC41EC180B9FEDC00B53EC102BFCF7B7
:104420003DF89FEDBF1B53EC112BFBF790FFFCF702
:1044300092FC0746FCF713F941EC190B53EC1A2BCD
:10444000FCF72CF853EC182BFCF725F841EC180B73
:1044500053EC1B2B51EC190BFCF720F8DFF8C8A22A
:1044600041EC100B4FEA15580125FA4453EC102B80
:1044700051EC180BFCF70CF8032DC4E900013DD0FA
:10448000C1F30A5005EB4511A8EB00001139814238
:1044900034DA0AEB051BB0EE48AA9BED000BF0EEF8
:1044A00068AA53EC102B51EC190BFBF7F7FF41EC0A
:1044B0001B0B51EC1A0B53EC1B2BFBF7E9FF41ECE8
:1044C000180B51EC1A0B53EC182BFBF7E1FF53ECD4
:1044D0001B2BFBF7DDFF9BED020B41EC1A0B53ECA2
:1044E000102B51EC190BFBF7D9FF53EC1A2BFBF7F0
:1044F000CFFF41EC100B6D1CB8E70EE0002EA8BFFB
:104500003846BFF628AF94ED000B51EC100B81F04C
:104510000041C4E9000178421DE7C6F3130040F4EE
:10452000801EC6F30A50A0F2F530471100F01F05B7
:10453000C5F12000DDF848B00890002006900790F3
:104540000520EC467949002D07EB0002794408BFAD
:1045500051F8221009D051F8223001EB8201AB4012
:104560004A68089922FA01F11943A1FB0E26A1FB22
:104570000B131A449A4234BF0123002303EB0608AD
:104580000CEB8003D3E901A60E448E4234BF012117
:10459000002192448A4411B1924502D903E0924528
:1045A00001D2012100E00021C3E901A641444CF8F9
:1045B0002010011EA0F10100C4DC029800F100509F
:1045C000850F0298DDE903678000DDF81480FCF7B1
:1045D00046F841EC1A0B3046FCF7B0FB9FED541B3C
:1045E00053EC112BFBF75AFF41EC1B0B3846FCF741
:1045F000A5FB9FED511B53EC112BFBF74FFF41EC3B
:10460000180B4046FCF79AFB9FED4D1B53EC112B0A
:10461000FBF744FF41EC190B51EC180B53EC192B31
:10462000FBF795FE53EC1B2BFBF791FE53EC1A2B7B
:10463000FBF78DFECDE90801002008909DED080BE9
:1046400053EC1A2B51EC100BFBF722FF53EC1B2BF6
:10465000FBF71EFF53EC182BFBF71AFF53EC192B3B
:10466000FBF719FF9FED381B53EC112BFBF716FFDF
:104670009FED370B41EC180B53EC102B9DED080B05
:1046800051EC100BFBF70AFF53EC182BFBF75FFE06
:104690009FED310B41EC180B53EC102B9DED080BEB
:1046A00051EC100BFBF7FAFE53EC182BFBF74FFE07
:1046B00041EC100B139810F0004F06D06D4251ECF6
:1046C000100B81F0004141EC100B284684ED000BEB
:1046D00041E60000000000000000000000000000B3
:1046E000FB21E93F7CD9024000004054FB21F93F07
:1046F0003163621A61B4D03DFB21F93F0000000034
:104700000000601A61B4D03D7370032E8A19A33B78
:10471000FB2139410000000083C8C96D305FE43FD0
:10472000000000000000E03FEA2A0000382A0000F4
:10473000000000000000103E000000000000103CDF
:10474000000000000000103A182D4454FB21F93DF0
:104750003326A611460B113C00000054FB21F93D05
:1047600010B52DED040B2DED088B82B0B0EE419A03
:10477000F0EE619A0B9820F000449FED4BABB4F142
:10478000795F11DA9DED0A0B51EC100BFCF7E3FA9F
:10479000002801BFB0EE4A0AF0EE6A0A02B0BDEC92
:1047A000088B04BF04B010BD9DED0A0B53EC102B19
:1047B00051EC100BFBF772FE41EC180B3C48062144
:1047C000B0EE480AF0EE680A784400F081F853EC45
:1047D000182B51EC100BFBF761FE9DED0A0B41EC21
:1047E0001B0B53EC192B51EC100BFBF757FE41EC54
:1047F000190B53EC1B2B51EC180BFBF74FFE53EC32
:10480000192BFBF745FE9FED2C0B41EC190B53ECDC
:10481000102B51EC180BFBF741FE41EC100B284814
:10482000844210DA53EC192B51EC100BFBF730FEDD
:1048300053EC1A2BFBF72FFE41EC100B02B0BDEC32
:10484000088B04B010BD1F48A042BCBF9FED1E1BCB
:104850008DED001B06DBA4F50010019000200090F8
:104860009DED001B51EC100B53EC112BFBF710FED0
:104870009DED000B41EC180B53EC102B51EC1A0B77
:10488000FBF706FE41EC1A0B53EC192B51EC180BFD
:10489000FBF7FEFD53EC1A2BFBF7FDFD41EC100B73
:1048A000CCE7000000000000000000000000F03F26
:1048B0005C27000000000000000000000000E03F56
:1048C0003333D33F0000E93F000000000000D23F37
:1048D00070B504462DED028B4D1E00EBC500B0EE09
:1048E000408AF0EE608A90ED000B35F0060017D09C
:1048F00053EC182B51EC100BFBF7D0FD41EC100BD7
:104900006D1E04EBC50090ED001B51EC100B53EC39
:10491000112BFBF71CFD41EC100B35F00600E7D125
:10492000022D36D0042D1CD0062D1CBFBDEC028BF1
:1049300070BD53EC182B51EC100BFBF7AFFD94ED51
:104940000A1B53EC112BFBF702FD53EC182BFBF762
:10495000A5FD94ED081B53EC112BFBF7F8FC41EC83
:10496000100B53EC182B51EC100BFBF797FD94ED4B
:10497000061B53EC112BFBF7EAFC53EC182BFBF74F
:104980008DFD94ED040B53EC102BFBF7E0FC41EC98
:10499000100B53EC182B51EC100BFBF77FFD94ED33
:1049A000021B53EC112BFBF7D2FC53EC182BFBF73B
:1049B00075FD94ED001B53EC112BFBF7C8FCBDEC0F
:1049C000028B41EC100B70BD31B504462DED040B8C
:1049D0002DED0A8BB0EE41BAF0EE61BA0B989DED69
:1049E0000A0B20F00040B0F1795F0DDA51EC100BAA
:1049F000FFF724FB042808BF00F09AF89DED0A0B8E
:104A0000BDEC0A8B05B030BD53EC102B51EC100BF4
:104A1000FBF744FD41EC180B9DED0A0B53EC182BF2
:104A200051EC100BFBF73AFD41EC190B2C48B0EEA2
:104A3000480AF0EE680A05217844FFF749FF9FED28
:104A40002ACBB0EE40AAF0EE60AA9CB353EC1C2B2C
:104A500051EC190BFBF722FD41EC1C0B53EC1A2B0C
:104A600051EC190BFBF71AFD9FED210B41EC190BD3
:104A700053EC102B51EC1B0BFBF710FD53EC192BD7
:104A8000FBF706FD53EC182BFBF708FD53EC1B2B33
:104A9000FBF7FEFC53EC1C2BFBF7FAFC9DED0A1B0D
:104AA00053EC112BFBF7F7FCBDEC0A8B05B041EC86
:104AB000100B30BDFFE753EC1A2B51EC180BFBF732
:104AC000EDFC53EC1C2BFBF742FC53EC192BFBF7D2
:104AD000E5FC9DED0A1B53EC112BFBF738FCE3E7DB
:104AE000E425000000000000495555555555C5BF47
:104AF000000000000000E03F10B553EC102B51EC1B
:104B0000100BFBF724FC41EC100B10BD0000000063
:104B10009FED050B10B553EC102B51EC100BFBF770
:104B20002FFD41EC100B10BD000000000000000044
:104B30009FED050B10B553EC102B51EC100BFBF750
:104B4000ADFC41EC100B10BD000000000000001097
:104B5000DFED020A80EEA00A7047000000000000AE
:104B60000148006870470000B800002002E008C853
:104B7000121F08C1002AFAD170477047002001E0D7
:104B800001C1121F002AFBD17047000001490860D3
:104B900070470000B800002030380A2801D20120F8
:104BA0007047002070470000F0B590ED031ADDE972
:104BB0000554B0EEC10A10EE106A1B4F90ED042AA6
:104BC000D0ED051ABE4201DA9FED181AD1ED000AA8
:104BD00092ED000A92ED013A70EEC02A91ED010AC1
:104BE00070EE433A93ED023A02EE633A01EEE23A96
:104BF000C3EE011A92ED021A31EE811A81ED021A0A
:104C0000D0ED0E1A01EE210A81ED010A90ED0E1A87
:104C100040EE010AC1ED000AC5ED000A91ED010A5E
:104C200084ED000AF0BD0000BD378635BD378635FE
:104C3000F0B5D0ED000ADDE90564B0EEE01A11EE42
:104C4000105A194F90ED010A90ED022ABD4201DA87
:104C5000DFED160AD3ED021A91ED041A40EE411A67
:104C600091ED030A42EE401A81EEA02A81ED052A59
:104C7000D0ED0E0A02EE201A81ED041AD0ED0E0AD4
:104C800001EE200A81ED030AD2ED000A30EE800A1F
:104C900086ED000A92ED010AD1ED040A30EE200AF9
:104CA00084ED000AF0BD0000BD378635BD3786357E
:104CB000F0B590ED080ADDE90565F0EEC01A11EED9
:104CC000907A3C4C90ED091AD0ED0A0ADFED3A3AA1
:104CD000A74201DAB0EE630AD3ED001AD1ED062A3D
:104CE00091ED072AD1ED094A71EEE21A92ED024ADE
:104CF00061EE811A93ED011A31EE421A40EE811AEB
:104D0000D0ED0C0AB7EE001A71EE600A90ED0B1AA6
:104D100020EE813AD2ED000A32EEE01AD2ED010A1D
:104D2000F4EEC34A72EE600AF1EE10FA0BD2D0ED47
:104D3000023A90ED013A012223EEC11A03EE601A05
:104D400000EE041A1AE090ED033A90ED045AD0ED0B
:104D5000054AF0EEC35A15EE902AA24201DAB0EEEF
:104D6000633AF0EE613A022245EE603A44EEC13A0F
:104D7000C3EE830A20EE801A00EE041A81F82C207C
:104D800031EE211AC1EE000AC1ED080A90ED0E0ABB
:104D900000EE802A81ED072A90ED0E0A42EE002AED
:104DA000C1ED062AC6ED002A91ED070A85ED000A3D
:104DB000F0BD0000BD378635BD37863582B0CDE900
:104DC000000121F0004001909DED000B02B051EC7C
:104DD000100B70477047012131EE601A814070EE70
:104DE000600A491E00EE101AB8EEC00A20EE800AD2
:104DF000C0EE010ABDEEE00A10EE100A7047000096
:104E00002DE9F041334F00242DED0A8BB0EE40BA6E
:104E1000F0EE60BAA7F120089FED2A8B9FED2BCB17
:104E2000601CFBF71CFC53EC1C2BFBF737FB41EC25
:104E3000190B51EC1B0B53EC192BFBF72FFB0E46F8
:104E4000054646EC100BFFF70BFA07EBC40090ED9C
:104E5000001B51EC100B53EC112BFBF71FFB41EC2B
:104E60001A0B46EC105BFFF72FF908EBC40090ED2E
:104E7000001B51EC100B53EC112BFBF70FFB53EC09
:104E80001A2BFBF764FA41EC1A0B51EC190B81F069
:104E9000004153EC192BFBF701FB53EC1A2BFBF7EA
:104EA000FDFA53EC182BFBF752FA41EC180B641C7B
:104EB000042CB5DBB0EE480AF0EE680ABDEC0A8BB4
:104EC000BDE8F08100000000000000003EDC396F0A
:104ED0008BDD1C40A86E00082DE9F041344F002402
:104EE0002DED088BB0EE409AF0EE609AA7F1200805
:104EF0009FED2B8B9FED2CAB601CFBF7B0FB0E46A0
:104F000046EC100B054653EC1A2B51EC100BFBF73B
:104F1000C5FA53EC192BFBF7C1FA41EC100BFFF764
:104F20009FF907EBC400B0EE401AF0EE601A90ED66
:104F3000000B51EC110B53EC102BFBF7AFFA46ECC6
:104F4000105B41EC1B0B53EC1A2B51EC100BFBF7D5
:104F5000A5FA53EC192BFBF7A1FA41EC100BFFF764
:104F6000B3F808EBC40090ED001B51EC100B53ECB0
:104F7000112BFBF793FA53EC1B2BFBF7E8F953ECDF
:104F8000182BFBF7E4F941EC180B641C042CB3DB81
:104F9000B0EE480AF0EE680ABDEC088BBDE8F0817F
:104FA000D7FC8564C76ED13F3EDC396F8BDD1C407A
:104FB000A86E00082DE9F0412E4F00242DED0A8B3C
:104FC000B0EE40BAF0EE60BA07F120089FED258BF5
:104FD0009FED26CB601CFBF742FB53EC1C2BFBF731
:104FE0005DFA41EC190B51EC1B0B53EC192BFBF741
:104FF00055FA0E46054646EC100BFFF731F907EB64
:10500000C40090ED001B51EC100B53EC112BFBF77F
:1050100045FA41EC1A0B46EC105BFFF755F808EB2C
:10502000C40090ED001B51EC100B53EC112BFBF75F
:1050300035FA53EC1A2BFBF72BFA53EC192BFBF731
:105040002DFA53EC182BFBF782F941EC180B641C7A
:10505000042CBFDBB0EE480AF0EE680ABDEC0A8B08
:10506000BDE8F08100000000000000003EDC396F68
:105070008BDD1C40886E000870B504462DED028B58
:1050800080ED020A9FED1F0AC0ED030A80ED000AC1
:1050900000206061A061E06184ED040A84ED010AF2
:1050A000401EC4F8800151B3B7EE000A9FED168A86
:1050B000DFED168A84ED620A002500BF05EB45008E
:1050C00000EBC50004EBC0002C30FCF7E1F805EB69
:1050D000450004EBC000B6EE001AF0EE480AB0EE50
:1050E000680A00F59A70FEF7ABF994ED050A6D1C9D
:1050F00084ED5F0A032DE1DBBDEC028B70BDBFEEDA
:10510000000AD3E7000000006F12833A0AD7A33CDD
:10511000034610B588185C690460121D88189C69E4
:105120000460121D8818DC690460121D88181C6850
:105130000460121D88185C680460101D0A189C68C1
:105140001460001D0A18DC681460001D0C1803F5BB
:10515000C072D3F88431001D2360014412680A60D4
:10516000001D10BD80ED041AC0ED021A80ED032A67
:1051700080EC020A704700002DED048BFCF7CCFF99
:10518000FEF702FCFEF76CFAFEF710FAFEF7A4F940
:10519000FEF748FBFEF7F8F9FEF7CAF9FEF7F6FA54
:1051A000FEF70EFB3F4D00246520604305EB8000B9
:1051B000F2EE040AB3EE040A2146FFF75DFF641C19
:1051C000022CF1DB02213848FCF76EF80221374847
:1051D000FCF76AF80120FCF73FF84FF4807234497D
:1051E0003448FEF77DF833480068C16841F010018B
:1051F000C1600024304EDFF8C4804FF47A7A304F1B
:10520000DFED308ADFF8C0909FED309A47E0ECB3D5
:105210004FF0FF3000EE100A6520604305EB80017F
:1052200004EB8400B8EEC08A00EB441006EB80006B
:10523000B2EE0E1AF1EE040AB0EE000AFBF7F2FD30
:1052400004EB440000EBC40108EB81005146F0EE92
:10525000481AB2EE0E1AF1EE040AB0EE000AFEF79A
:10526000E0F807EB0410F0EE680AB2EE040AFEF76D
:1052700019F904EB840109EB8100B0EE491AF2EE52
:105280000E0AB3EE040AFEF7CDFE00E007E0641C50
:10529000022CBCDBFEF7A0F900F03EF8FEE701208F
:1052A000B8E70000C8020020240100204C010020C3
:1052B0002F0C0020DC01002060060020A807002041
:1052C000880700206F12833A000800200000C842BF
:1052D00001460020842900D0C81C704700B50D4A43
:1052E00001688BB01268914201D1002100E00E21CB
:1052F000059100210122CDE9061200910191029150
:10530000039104910E21CDE908216946FCF742F88A
:105310000BB000BD2401002010B501F09DF8002065
:1053200010BD3EB504460D46B0F90800FFF7D0FFAA
:1053300002A9CDE90001208A2B4682B2D4E90010EF
:1053400001F0BEFB012801D000203EBD02983EBD09
:105350000FB4024670B5DDED050ADFED422AB0EE6E
:10536000620AFEF715FF9FED401AF0EE410AFEF7C4
:1053700017FFF0EE403ADDED060ABBEE0E0AFEF72F
:1053800007FFF3EE0E0AFEF70BFF9FED384AB0EE73
:10539000403ADDED070AB0EE440AFEF7F9FEDFED14
:1053A000344AF0EE640AFEF7FBFEF0EE401ADDED43
:1053B000080AB0EE440AFEF7EBFE9FED2E5AF0EE1F
:1053C000450AFEF7EDFEB0EE402ADDED090ABAEE21
:1053D0000E0AFEF7DDFEF2EE0E0AFEF7E1FEF0EE3B
:1053E000405A1020F0EE620AB0EE630AFFF7F3FCB9
:1053F00005460C20B3EE0E1AFBEE0E0AB0EE430A81
:10540000FFF7E9FC04460C20B0EE641AF0EE440A03
:10541000B0EE610AFFF7DFFC03460C20B0EE451A40
:10542000F0EE440AB0EE420AFFF7D5FC06460C2027
:10543000B2EE0E1AFAEE0E0AB0EE650AFFF7CBFCDA
:10544000290A1170557021099170210141EA132137
:10545000D170137131095171010A9171D07170BC11
:105460005DF814FBDA0F49C1DA0F49410000000072
:105470000000FA430000C84230B50446880898424C
:1054800000DD1846002106E004EB810502EB8103F4
:105490002D681D60491C8142F6DB30BD2DE9F041CD
:1054A000184C0F460546E6682068001D00F02EFEE9
:1054B00038B9206890F82C10012088402169814378
:1054C0002161681C07D137B12168BDE8F0410E4861
:1054D000091D00F054BE20683544B542456021687E
:1054E00005D2A06BBDE8F041091D00F030BE606B35
:1054F000091D00F02CFEA06A854200D2A562BDE81D
:10550000F08100003C0000203C0F00202DE9F0411C
:10551000054600F041FE2E4CA068401CA0602068AB
:105520002C4F10B1606940B32DE02560A0680128C0
:1055300029D1002606EB860007EB800000F0F9FD7C
:10554000761C072EF6D323488C3000F0F2FD21485C
:10555000A03000F0EEFD1F48B43000F0EAFD1D4819
:10556000C83000F0E6FD1B48DC3000F0E2FD1948D1
:105570008C3060631430A06305E02068E96AC06A7B
:10558000884200D82560606A401C6062E96A012098
:10559000226988401043206101EB810007EB800005
:1055A000291D00F0ECFD00F017FE606900280CD00A
:1055B0002068E96AC06A884207D207494FF08050E4
:1055C0000860BFF34F8FBFF36F8FBDE8F08100001D
:1055D0003C000020600E002004ED00E010B500F05B
:1055E000DBFD0E4C2068A0B90D4800F0A2FD0C4870
:1055F000143000F09EFD0A48E06014302061002263
:105600000C210A2001F010F8206010B105A100F073
:1056100065FEBDE8104000F0DFBD0000780000200E
:10562000500F0020546D72510000000030B4026C25
:105630000B46002A0BD0C1681144C1608468A142A6
:1056400001D30168C16030BC1846FAF75CBE30BCBB
:1056500070472DE9F041856B174604460026026C21
:1056600082B1C7B1E068FAF74EFEE168206C091A12
:10567000E1602268914202D2A168081AE060022F1C
:1056800016D017E02068A8B9A06801F0BFFA064656
:105690000020A0600EE06068FAF735FE216C6068BB
:1056A00008446060A168884204D32068606001E01B
:1056B00005B16D1E6D1CA5633046BDE8F08110B5C7
:1056C0000446006B00F09CFD2046BDE8104000F051
:1056D00097BD000010484FF47051420706D0C01D1E
:1056E0000D4920F00700411AC1F570510B4A002303
:1056F0000144C2E900030839183A21F0070111609A
:105700004B600B600B1AC0E9001393604FF0004030
:105710005360506170470000780F0020A400002003
:10572000144E154CA6F1C8074FF08058DFF84C9086
:1057300012E000BF00F030FDF068C568281D00F0E1
:10574000E5FCA068401EA0606068401E606000F03C
:1057500043FD2846FFF7B3FF60680028EAD13868A8
:105760000128F9D9C9F80080BFF34F8FBFF36F8FBD
:10577000F2E70000280F00203C00002004ED00E0CC
:105780002DE9F0479A46DDE9098481466FF003036D
:10579000206B03EB82021044089E20F00707780775
:1057A00007D0502080F31188BFF34F8FBFF36F8F66
:1057B000FEE7002561B1002023180A5C83F834203D
:1057C0000A5C12B1401C1028F6D384F8435001E063
:1057D00084F83450072E00D30626E662C4E911652A
:1057E000201D00F0B1FC04F1180000F0ADFC2461B4
:1057F000C6F107006462A061E56484F85050524627
:105800004946384600F054FA2060B8F1000F01D044
:10581000C8F80040BDE8F08730B5114900E01146F6
:105820000A688242FBD34B685C18844203D140680B
:1058300018444860084643681C18944209D1084C33
:10584000183C2468A24209D052681A4442600A688F
:1058500012680260814200D0086030BD0460F9E740
:10586000A400002070B5002441600B4D00619142FE
:1058700006D8D11A8269914206D2011D286907E033
:105880009A4203D2994201D3012403E0011DE86842
:1058900000F05DFC204670BD7800002010B5044685
:1058A00000F07AFCA06B28B15FF0000400F094FCDB
:1058B000204610BD0124F9E730B587B0394D67E0C7
:1058C0000498002864DB069C606910B1201D00F07C
:1058D0001DFC03A800F0D8F8024604980A2857D205
:1058E000DFE800F00505052D334A05052D3394F852
:1058F000240040F0010084F824000599A069059B6C
:1059000001442046FFF7AEFF68B3216A204688476E
:1059100094F8240040073BD5002000900598A16929
:10592000002342181946204601F07CFAD8B95020CD
:1059300080F31188BFF34F8FBFF36F8FFEE714F82A
:10594000240F20F00100207022E094F8240040F0A1
:10595000010084F824000598A06128B1811813463D
:105960002046FFF77FFF13E0502080F31188BFF33C
:105970004F8FBFF36F8FFEE794F82400810703D4A5
:10598000204600F03DFC03E020F0010084F82400F4
:10599000002204A9286800F0BDFF002890D107B0BC
:1059A00030BD0000780000202DE9FC410F4605467F
:1059B00000F08AFD01A800F067F80446019818B1CC
:1059C00001F0AAF9BDE8FC81254EAFB1306900684D
:1059D000D0B30027291B3A46306800F093FC01F051
:1059E0009BF90028EED11F494FF080500860BFF3AB
:1059F0004F8FBFF36F8FE5E7A542EBD801F08CF92D
:105A0000F0682746C068C468201D00F07FFB94F84A
:105A10002400410719D5A0692B4641193A46204672
:105A2000FFF720FFA8B100200346014600902A4658
:105A3000204601F0F7F960B9502080F31188BFF3D8
:105A40004F8FBFF36F8FFEE707E020F0010084F86F
:105A50002400216A20468847B4E70127BAE70000FE
:105A60007800002004ED00E00648416B096829B188
:105A7000416BC968C9684968816270474FF0FF315E
:105A8000FAE700003C00002070B5054601F052F82E
:105A9000064E0446B068844203D200F009F80120A3
:105AA00000E0002028602046B46070BD780000202F
:105AB000F8B5194D20E0C068C4680668201D00F0E4
:105AC00025FB216A2046884794F82400400713D517
:105AD000A0693044B04206D924616060211DE868A5
