:020000040800F2
:1000000060CC002029030008C33800081D36000812
:10001000C13800088B190008093F000800000000E3
:10002000000000000000000000000000690200085D
:10003000B91A000800000000C5020008E9390008EC
:100040004303000843030008430300084303000878
:100050004303000843030008430300084303000868
:100060004303000843030008430300084303000858
:100070004303000843030008430300084303000848
:100080004303000843030008430300084303000838
:100090008D190008430300084303000843030008C8
:1000A0004303000843030008430300084303000818
:1000B0004303000843030008430300084303000808
:1000C00043030008430300084303000843030008F8
:1000D000430300084303000843030008F13E0008FF
:1000E00043030008430300084303000843030008D8
:1000F00043030008430300084303000843030008C8
:1001000043030008430300084303000843030008B7
:100110004303000843030008B93A000843030008FA
:100120004303000843030008430300084303000897
:100130004303000843030008430300084303000887
:100140004303000843030008430300084303000877
:10015000430300084303000843030008FD3E000872
:100160004303000843030008430300084303000857
:100170004303000843030008430300080000000095
:100180004303000843030008F93B0008053C00084E
:100190004303000843030008430300084303000827
:1001A00000000000000000004303000800F002F817
:1001B00000F04AF80AA090E8000C82448344AAF1B7
:1001C0000107DA4501D100F03FF8AFF2090EBAE8B5
:1001D0000F0013F0010F18BFFB1A43F0010318477B
:1001E000F855000018560000103A24BF78C878C1AE
:1001F000FAD8520724BF30C830C144BF04680C602D
:10020000704700000023002400250026103A28BF74
:1002100078C1FBD8520728BF30C148BF0B60704778
:100220001FB505F0E3F900F051FD040000200021A6
:1002300004F064FE401C60600020002104F048FED1
:10024000E0601FBD10B510BD00F076FA1146FFF753
:10025000E7FF03F0DDFF00F0EFFC03B4FFF7F2FF70
:1002600003BC00F0A5FD00002C4B19680868B0E83D
:10027000F04F80F30988BFF36F8F4FF0000080F3D9
:10028000118870470000000008480068006880F38B
:1002900008884FF0000080F3148862B661B6BFF39F
:1002A0004F8FBFF36F8F00DF00BF00BF08ED00E08E
:1002B000DFF80C00016841F470010160704700BF75
:1002C00088ED00E0EFF30980BFF36F8F134B1A68DE
:1002D0001EF0100F08BF20ED108A20E9F04F1060CB
:1002E00009B44FF0500080F31188BFF34F8FBFF374
:1002F0006F8F04F01FFC4FF0000080F3118809BCE1
:1003000019680868B0E8F04F1EF0100F08BFB0EC95
:10031000108A80F30988BFF36F8F70471C0000209C
:10032000EFF30580704700000948804709480047FF
:10033000FEE7FEE7FEE7FEE7FEE7FEE7FEE7FEE795
:10034000FEE7FEE704480549054A064B70470000F2
:10035000A93A0008AD01000860C6002060CC00206A
:1003600060C8002060C8002053EA020C00F06980D9
:100370002DE9F04B4FF00006002B1FBFB3FA83F5B9
:1003800003FA05F424FA05F65E4012BF1643B2FAEA
:1003900082F502FA05F4C5F120051EBF22FA05FC1C
:1003A00044EA0C04203556EA044C4FEA144418BFC2
:1003B000641C4FF000084FF00009904271EB030CF1
:1003C00039D3002919BFB1FA81F701FA07F6B0FA5B
:1003D00080F700FA07F6C7F120071EBF20FA07FCD6
:1003E00046EA0C062037B6FBF4FCA7EB0507103FE6
:1003F00007F01F0BCBF120060CFA0BFB2CFA06F6CC
:1004000044BFB3460026202FA4BF5E464FF0000B2A
:100410005BEA060C08BF4FF0010B19EB0B09ABFBB5
:10042000027C48EB0608C01B06FB02CC0BFB03CC8E
:1004300071EB0C01C1E70B46024641464846BDE858
:10044000F08B13B54FF000004FF00001AFF30080C8
:10045000BDE81C40704710B5431C02E010F8011BBA
:1004600071B18107FAD14FF0013202C88C1A8C4366
:1004700014EAC211F9D0C01A0A0603D0C01E10BD7A
:10048000C01A10BD0A0401D0801E10BD0902FCD0A4
:10049000401E10BD032A40F2308010F0030C00F023
:1004A000158011F8013BBCF1020F624498BF11F8AE
:1004B00001CB00F8013B38BF11F8013BA2F1040267
:1004C00098BF00F801CB38BF00F8013B11F00303DF
:1004D00000F02580083AC0F0088051F8043B083A43
:1004E00051F804CBA0E80810F5E7121D5CBF51F8E5
:1004F000043B40F8043BAFF30080D20724BF11F85F
:10050000013B11F801CB48BF11F8012B24BF00F8C3
:10051000013B00F801CB48BF00F8012B704710B534
:10052000203AC0F00B80B1E81850203AA0E81850EB
:10053000B1E81850A0E81850BFF4F5AF5FEA027CAC
:1005400024BFB1E81850A0E8185044BF18C918C01B
:10055000BDE810405FEA827C24BF51F8043B40F8BC
:10056000043B08BF7047D20728BF31F8023B48BFA1
:1005700011F8012B28BF20F8023B48BF00F8012BDF
:1005800070474FF000020429C0F0128010F0030CF5
:1005900000F01B80CCF1040CBCF1020F18BF00F876
:1005A000012BA8BF20F8022BA1EB0C0100F00DB825
:1005B0005FEAC17C24BF00F8012B00F8012B48BF83
:1005C00000F8012B70474FF0000200B51346944627
:1005D0009646203922BFA0E80C50A0E80C50B1F19B
:1005E0002001BFF4F7AF090728BFA0E80C5048BFAF
:1005F0000CC05DF804EB890028BF40F8042B08BF4D
:10060000704748BF20F8022B11F0804F18BF00F848
:10061000012B704770477047704710B500F05AF8CB
:10062000006810BD10B5044600F054F8046010BD19
:100630000FB4002300B589B00CA900910B99CB60D1
:10064000214B7B440693214B7B44079304236FF09B
:100650000042CDE901321E4A7A446B4608920246B6
:10066000002005F02DF809B05DF814FB70B50646C2
:100670004FF0FF3015460C46324686B00091CDE96A
:10068000010169460020049004A8FFF7D1FF02464B
:100690000498211825B108B1084600E020462860DA
:1006A000049800280DD0002A02DD0098884208D066
:1006B0003246081B69460094CDE9010404A8FFF7FF
:1006C000B7FF06B070BD0000A9000000C100000027
:1006D0008100000000487047FCC5002010B50446AA
:1006E00000F050F80068005D00F0010010BD4268A5
:1006F00042B1016811F8013B23B1521EC0E900125A
:10070000184670470121C160881E704742685AB17F
:10071000C368016843B983688B4205D0491E521CE7
:10072000C0E90012002070474FF0FF307047000012
:1007300000487047FCC500207546FFF7F9FFAE463C
:1007400005006946534620F00700854618B020B5DD
:10075000FFF7F8FDBDE820404FF000064FF000071E
:100760004FF000084FF0000B21F00701AC46ACE859
:10077000C009ACE8C009ACE8C009ACE8C0098D46C6
:100780007047000010B500F0A1FA001D10BD00BFB9
:100790006D4700002DE9FF4F064689B00878FF2815
:1007A00006D0491C2D2805D000244FF0000908E090
:1007B00000200CE00124F8E709EB8903491C00EB59
:1007C00043090878FF28F7D114B1C9F10000814628
:1007D000107800252C46AA4629462D2801D02B2822
:1007E00004D1521C2D2813D0002082468B4610784D
:1007F000FF280FD04FF0000C0A21521CA5FB0178F6
:1008000004FB018105FB0C11C5194BEB0104EEE75C
:100810000120EAE7002108464FF00000BAF1000F7E
:1008200002D000EB80004008C0F38158B8F1010FFE
:1008300001DD4FF0FF380C9809EB000755EA040082
:1008400009D04FF0020917F5FA7F0BDA4FEACA70A8
:10085000C6E900B012E04FEACA70C6E900B00DB0B8
:10086000BDE8F08FB7F5FA7F0DDDF0487844D0E9A8
:100870000010C6E9001040EACA707060FFF72AFF56
:10088000C0F80090EBE7391E02DAC8F1000200E080
:10089000424600DA794206A800F01CFA06AB93E85B
:1008A000070003AB83E8070044F23E005BEA040163
:1008B0000090584604D144F21E012C465D4600913A
:1008C000210C0904014306D10099240444EA15448B
:1008D0002D041039009104F07F41014306D10099A5
:1008E000240244EA15642D020839009104F0704195
:1008F000014306D10099240144EA15742D01091F12
:10090000009104F04041014306D10099A40044EA5B
:100910009574AD00891E009104F00041084304D194
:1009200000986D196441401E009042466846002FB1
:10093000CDE9014503A902DD00F0F1FE01E000F080
:10094000C6FEBAF1000F04460D4601D084F0004403
:1009500040F2FF7724F00040284303D0C4F30A504C
:10096000B84212D1FFF7B6FEC0F80090C4F30A50A7
:10097000B8420AD1AE487844D0E90010C6E9001068
:1009800004F000410843706069E7C6E9005466E777
:100990002DE9FF4F1F464FF0000A4FF0FF38454644
:1009A00091B0D7E90146CDF83CA000F08FF9C068BE
:1009B0000168405C1090B96912986D1C8847396ACB
:1009C000814688470028F6D1B9F1FF3F0AD0002EB2
:1009D00024F4D06411DDB9F12B0F08D0B9F12D0F3B
:1009E0000BD102E0404615B03AE744F48064B9699F
:1009F00012986D1C8847761E8146600504A901D5B2
:100A00002D2000E02B20002E01F1010B0DF130080C
:100A10008DF810003FDDB9F1690F08D0B9F1490F29
:100A200005D0B9F16E0F02D0B9F14E0F1CD13B4683
:100A300001A8009580E85002DDE912126FF0020073
:100A400004F042FEC11CCED10EE0B96912986D1CB3
:100A5000884781461398761E44F4007405600F9809
:100A6000401C002E0F9016DDB9F1300FEDD0B9F11A
:100A7000780F02D0B9F1580F0DD10F9801280AD183
:100A80003B46CDE90054DDE91212001F029604F046
:100A900019FEC11CA7D1109989453ED144F08004AC
:100AA00006E01399681CAAF1010A44F40074086076
:100AB000B9696D1C1298761E884730288146F0D09F
:100AC0002BE01099894505D1200603D4761E44F009
:100AD000800418E0484603F035FB08B3761E0DF19C
:100AE00023018B4544F4007408D2A9F130000BF8BF
:100AF000010B200607D5AAF1010003E0200602D46D
:100B00000AF101008246A00502D51399681C08600D
:100B1000B96912986D1C88478146002ED1DC53E0DC
:100B2000002E51DDB9F1650F02D0B9F1450F4BD15F
:100B3000A00549D5B9696D1C1298761E24F440743D
:100B40008847002E81460CDD2B2804D0B9F12D0FEB
:100B500007D144F48074B96912986D1C8847761ED9
:100B60008146E00501D52D2100E02B2108F8011B6D
:100B7000CDF8008021E0761E0DF13901884544F45E
:100B800000740CD2A9F1300010F0FF0088F80000CA
:100B900002D10099884509D908F1010806E0E0056D
:100BA00001D5244801E042F20F708246B9691298DB
:100BB0006D1C8847814613980560002E04DD484669
:100BC00003F0C0FA0028D6D1F96912988847FF20AF
:100BD00053468BF8000088F8000000200A900B9024
:100BE00004AA0CA90AA8FFF7D5FDA00502D46FF04E
:100BF0000100F8E614F0240F0AD0E00714D1386899
:100C0000DDE90A12031D3B600068C0E900120BE039
:100C10000AA9684603F030FAE00705D13868009A5F
:100C2000011D3960006802602846DCE6884F00003C
:100C30007E4E0000F1D8FFFF10B50446AFF30080F0
:100C40002046BDE81040FFF708BB00004FF0013C14
:100C500050F8042B51F8043B9A4221D1A2EB0C032B
:100C6000934313EACC1317D150F8042B51F8043BEB
:100C70009A4215D1A2EB0C03934313EACC130BD188
:100C800050F8042B51F8043B9A4209D1A2EB0C0313
:100C9000934313EACC13DBD04FF00000704700BF42
:100CA000D01A01BAB1FA81F101F0180122FA01F06B
:100CB000CB40C1F12001DBB2C0B2C01A2CFA01F363
:100CC000D11A914311EAC311E6D170470048704729
:100CD0001CC600202DE9F047814616468AB03348ED
:100CE00078440DC88DE80D0030487844801C03AC72
:100CF0000DC884E80D0041F69B300844372190FB75
:100D0000F1F290FBF1F5A5F1800501FB12041B3C0B
:100D100002D56442012000E00020DFF890A0804668
:100D20000027FA44AAF1BE0A0DE0E00709D03246D6
:100D3000684607EB47010AEB810100F0DCFC8DE817
:100D4000070064107F1C002CEFD1184F7F44AC3F8C
:100D500018E0E80714D007EB04100DF1180A90E82A
:100D60000E008AE80E00C068F04201D19819089080
:100D7000324606A903A800F0BEFC03AB83E80700D7
:100D80006D10641C002DE4D132466946B8F1000FA5
:100D900003A802D000F087FC01E000F0ACFCC9E938
:100DA0000001C9F808200AB0BDE8F087C84A000071
:100DB00001491820ABBEFEE7260002002DE9FF4FD7
:100DC0001F464FF03C0987B04FF00042DDE9141098
:100DD00001F10108DDF858A002EA4050039000201C
:100DE00005908346054604460490B969461E089856
:100DF0008847AAF1010A0290BAF1000F3BDD029880
:100E00002E2815D0102100F017FA00282EDB4FF005
:100E1000010B0599014317D0B9F1000F0BDB4A46CE
:100E2000C11700F0F6F905430C43A9F1040905E0E8
:100E3000012004900BE008B145F001050120059068
:100E4000049820B9361D02E0049800B1361FB96934
:100E5000089808F101088847BBF1000FAAF1010AC0
:100E60000290C9D00999C1F80080C5E7029870289E
:100E700008D0502806D0F96908988847BBF1000FC0
:100E800014D04FE0002002900120BBF1000F04902D
:100E900009D0B969089808F101088847AAF1010941
:100EA000B9F1000F07DCF969089888476FF0010075
:100EB0000BB0BDE8F08F2B2804D02D280CD14FF0BB
:100EC000FF300490B969089808F101088847A9F132
:100ED0000109B9F1000FE6DD411CE4D00A2100F060
:100EE000ABF90028DFDB029908F1010801EB810171
:100EF00000EB41000290B969089888470A2100F088
:100F00009BF9099AA9F10109B9F1000FC2F8008013
:100F100001DD0028E7DAF969089888470499029802
:100F200000FB016655EA040004D004F040410900CA
:100F300002D006E0039898E0A40044EA9574AD005E
:100F4000B61E04F00041080002D16D196441761EFE
:100F5000159810F0240F03D04FF00B095C4803E004
:100F60004FF028096FF07D008246564507DAAAEB5C
:100F700006018944B9F1410F01DD4FF0410901201B
:100F80000021A9F1010200F044F9024628400B4675
:100F90002140084301D0012100E00021501E0291B0
:100FA00043F1FF3128402140084301D0012000E0F7
:100FB00000200299834651EA0B014FD000210846D8
:100FC0004FF00000039900F4400039B100EB8000BD
:100FD0004FF4400100EBD07001EA60008015012859
:100FE00002DD4FF0FF3000E013D0401C36D00298F5
:100FF00060B3BBF1000F0CD14A460120002100F084
:1010000008F928402140084301D0012000E00020D9
:10101000E0B101204A46002100F0FBF803464019E8
:101020000A4661412D1A8C4111D3B9F1400F09DDF7
:10103000159810F0240F02D0AAF1340603E0AAF1AB
:10104000170600E0761C00254FF0004406E05B1E0A
:1010500042F1FF3220EA030521EA0204CAF101004D
:10106000B04206DA1B490398084301900020009023
:101070000EE0039AC4F3D321E80A0A43164940EA72
:1010800044500A433146CDE90002684603F050F867
:10109000159810F0240F0BD01598C00715D138689B
:1010A000DDE90012031D3B600068C0E900120CE09E
:1010B00002A8694602F0E0FF1598C00705D138681C
:1010C000029A011D3960006802604046F0E60000A7
:1010D00002FCFFFF0000F07F0000F03F2DE9FF4F12
:1010E00092461D4685B04FF00041DDE9124BDDE927
:1010F00014727F1E01EA4B50414940F0FF4940EA1B
:101100000108002122F020004928049102D04E2835
:1011100028D04CE03BA0012607C88DE80700A9694C
:101120000698641C88477F1E014606D41DF80600F9
:1011300018B121F0200181420BD0E9690698884757
:10114000032E34D0082E32D06FF0010009B0BDE874
:10115000F08F761C032E01D0082EE0D1601CCAF857
:101160000000DCE7A9690698641C88477F1E2AD422
:1011700020F02000412826D1A9690698641C8847E0
:101180007F1E20D420F020004E281CD1A96906988B
:10119000641C88477F1E48F4002849F48009CAF877
:1011A000004001D4282806D0E969069888475FEAFC
:1011B000CB7012D022E0A9690698641C88477F1E74
:1011C00001D4002803DAE96906988847BCE7292892
:1011D000F1D1641CCAF80040E9E71BF0240F07D0E6
:1011E00028680499031D2B600068C0E9001805E019
:1011F0002868021D2A600068C0F800902046A5E714
:101200000000F07F494E46494E4954590000000005
:101210007047B2F120030AD5C2F1200301FA02F1AE
:1012200020FA03F300FA02F041EA0301704700FAE2
:1012300003F14FF0000070473A2800D2303820F018
:101240002002412A01D3A2F13700884201D34FF096
:10125000FF30704720F07F4C80EA030023F07F4787
:10126000ACEB070303F57C5300F0004003F1FF03F0
:101270002DE980494FEA154B09B44FEA144325EA9A
:101280000B4E24EA03480FF2042606EB1327490805
:101290003E785FEA320203FB0667C7F5000707FBEB
:1012A00006F64FEA54374FEAD64606F1020607FB28
:1012B000066CCCF1005C4FEA1C472CEA074C07FB9C
:1012C00006F40CFB06F504EB15464FEA961634BF00
:1012D00000204FF000404FEAD13706FB07FC4FEAF1
:1012E0001C4C0CFB0BF7D21B03FB0CF761EB07014B
:1012F0000CFB0EF7B0EB074072EB17420CFB08F744
:1013000034BFA2EB0742B2EB074261EB17414FEA51
:101310000C444FEA910706FB07FC4FEA1C4C0CFB00
:101320000BF7B0EBC74072EB573203FB0CF734BF3F
:10133000A2EBC742B2EBC74261EB57310CFB0EF791
:10134000B0EBC70072EB57720CFB08F734BFA2EB8F
:10135000C702B2EBC70261EB5771039F4FEA81618D
:1013600041EA921104EBCC044FEAD1374FEA826292
:1013700006FB07FC42EA90124FEA80604FEA1C4CE1
:101380000CFB0BF7D21B03FB0CF761EB07010CFB0B
:101390000EF7B0EB074072EB17420CFB08F734BFB7
:1013A000A2EB0742B2EB074261EB17414FEA8C55C3
:1013B0004FEA910704EB9C2406FB07FC4FEA1C4C08
:1013C0000CFB0BF7B0EBC74072EB573203FB0CF78B
:1013D00034BFA2EBC742B2EBC74261EB57310CFB03
:1013E0000EF7B0EBC70072EB57720CFB08F734BF77
:1013F000A2EBC702B2EBC70261EB577115EB4C25AC
:101400004FEA816141EA92114FEA82624FEAD13795
:1014100042EA901206FB07FC44F100044FEA8060A8
:101420004FEA1C4C0CFB0BF7D21B03FB0CF761EBD8
:1014300007010CFB0EF7B0EB074072EB17420CFBF9
:1014400008F734BFA2EB0742B2EB074261EB17414A
:1014500015EB1C154FEA813141EA92414FEA823285
:1014600042EA90424FEA80304FEA0C7644F10004A1
:1014700048EA03434EEA0B484FF0000EB2EB080C6B
:1014800071EB030724BF624639464EEB0E0E4FF058
:10149000000B0018524149414BEB0B0BB2EB080C0F
:1014A00071EB03077BF1000B24BF624639464EEB1C
:1014B0000E0E4FF0000B0018524149414BEB0B0B45
:1014C000B2EB080C71EB03077BF1000B24BF624603
:1014D00039464EEB0E0E51EA020718BF46F00106E0
:1014E00016EB0E7655F1000254F1000103D5BDE86C
:1014F0008901BDE80088BDE88901BDE80048B6194A
:10150000524141EB0101A3F10103704780807F7ECE
:101510007D7C7B7A79787776767574737271717069
:101520006F6E6E6D6C6C6B6A6A696868676666651B
:101530006464636362616160605F5F5E5E5D5D5CA9
:101540005C5B5B5A5A59595858575756565555551A
:101550005454535352525251515050504F4F4F4E7A
:101560004E4D4D4D4C4C4C4B4B4B4A4A4A494949C8
:10157000484848474747474646464545454444440A
:1015800044434343434242424241414146EA0646C4
:10159000A3F570534FEA164646EA42564FEAD22266
:1015A00042EA415210B54FEAD121A3F1010300F004
:1015B00017F820F0004000F1010C00F0004701EBAB
:1015C00000501146BCF5006F40EA070000D210BD84
:1015D00002484FF0000140EA070010BD0000F07F14
:1015E000002B26D4770021D01CB54FEA370703B46F
:1015F0004FF010004FF010014FF000000FBCBDE89D
:1016000010400BF1010BBBF1010F08BF5FEA170798
:1016100022BF12F1010211F101014FF0004143F12B
:10162000000300F0004043EA00007047F9D3570878
:10163000DAE746EA064613F1400F4FEA16461FDD89
:1016400013F1200FDFBF16430A46002120335B420F
:10165000C8D0C3F1200746EA064602FA07F74FEA68
:10166000164646EA0706C3F1200722FA03F201FAFA
:1016700007F721FA03F14FF0000342EA0702B1E74E
:1016800046EA020646EA06464FEA164646EA0106DA
:10169000BCBF46EA0646360C4FF000034FF000028E
:1016A0004FF000019EE72DE9C048934630B491E821
:1016B000380007C831EA400C48BF34EA430C03D570
:1016C000FFF7C8FDFFF78CFFF0BCBDE800882DE9EF
:1016D000C048934630B491E8380007C831EA400C5E
:1016E00048BF34EA430C03D5FFF7B4FDFFF74EFFC4
:1016F000F0BCBDE800882DE9C048934630B491E8BD
:10170000380007C810F0804F08BF13F0804F03D196
:1017100000F019F8FFF764FFF0BCBDE800882DE980
:10172000C048934630B491E8380007C810F0804FA5
:1017300008BF13F0804F03D100F005F8FFF726FF34
:10174000F0BCBDE8008820F07F4780EA030023F06A
:101750007F4C07EB0C03A3F57C5300F00040A3F192
:10176000FE0392F0000F00F0B38095F0000F00F040
:1017700077802DE901494FEA11404FEA144621EAEA
:10178000004800FB06FC24EA064708FB06F607FBB8
:1017900008F800FB07F718EB06484CEB164C4FEA2D
:1017A000124B18EB07484FEA15464CEB174022EA5C
:1017B0000B4E0BFB06FC25EA06470EFB06F607FB65
:1017C0000EFE0BFB07F71EEB064E4CEB164C4FF0D4
:1017D00000061EEB074E4CEB174B18EB0B0840F1C5
:1017E000000018EB0E0B58EB000840F100008F1AB8
:1017F0004FF000013CBFC943661B14BFB5EB040C9E
:1018000000213CBFC943F61B4FEA17444EEA8E0E37
:1018100027EA04454FEA1C4704FB07622CEA074C01
:1018200005FB07F70CFB05F604FB0CFC16EB074663
:1018300042EB174216EB0C4642EB1C421BEB060632
:1018400058EB0202414146EA9E0601D5BDE80189F6
:10185000B619524141EB0101A3F10103BDE8018931
:101860004FEA14454FEA114724EA054621EA074C9E
:1018700005FB07F406FB07F70CFB06F105FB0CFC68
:1018800011EB074144EB17444FEA124711EB0C41AF
:1018900044EB1C4422EA074C05FB07F206FB07F762
:1018A0000CFB06F605FB0CFC16EB074642EB174259
:1018B00016EB0C4642EB1C456A1854F1000148BF78
:1018C0007047B619524141EB0101A3F10103704782
:1018D00095F0000F37D04FEA11424FEA144721EA42
:1018E000024624EA074C02FB07F106FB07F70CFB54
:1018F00006F402FB0CFC14EB074441EB17414FEAE2
:10190000154714EB0C4441EB1C4125EA074C02FB44
:1019100007F506FB07F70CFB06F602FB0CFC16EBC3
:10192000074645EB174516EB0C4645EB1C421219D2
:1019300051F1000148BF7047B619524141EB010116
:10194000A3F1010370474FEA14454FEA114724EA17
:10195000054621EA074C05FB07F106FB07F70CFBE0
:1019600006F24FF0000605FB0CFC12EB074241EBC0
:10197000174112EB0C4251EB1C4148BF70479218C3
:1019800041EB0101A3F101037047FEE7014800F0BC
:1019900022BA00000803002030B503460020B3F847
:1019A0001940024601215D5C491C2A4492B2192962
:1019B000F9DBA24200D1012030BD000070B5044621
:1019C0002DED028B0D4634F9010F00EE100AB8EE32
:1019D000C00A81ED000A617AD4F8060061F31F6045
:1019E00003F07CFC9FED2E1B53EC112B03F0E2FA6D
:1019F00003F09AFA6860B4F90A0003F06FFC9FEDF7
:101A00002A8B53EC182B03F0D5FA03F08DFAA8605B
:101A1000B4F90C0003F062FC53EC182B03F0CAFA83
:101A200003F082FAE860B4F90E0003F057FC53ECBF
:101A3000182B03F0BFFA03F077FA2861B4F910000D
:101A400003F04CFC53EC182B03F0B4FA03F06CFADF
:101A50006861B4F9120003F041FC9FED158B53EC63
:101A6000182B03F0A7FA03F05FFAA861B4F9140089
:101A700003F034FC53EC182B03F09CFA03F054FAF7
:101A8000E861B4F9160003F029FC53EC182B03F0BD
:101A900091FA03F049FA2862BDEC028B70BD000098
:101AA0000000000000007940000000000088C340F2
:101AB0000000000000408F40704700001CB54160EE
:101AC00000218160C16001610821416105A10346D7
:101AD000D1E90021CDE90021011D6A46034800F04B
:101AE0001BF81CBDFFFFFFFFFFFFFFFC08030020EA
:101AF00072B6FEE790F82020012A07D0022A05D00E
:101B0000416A41F4802141620120704700684269C6
:101B10000A43426100207047F0B590F820500468F5
:101B2000A468012D05D0022D03D0416A41F4802123
:101B300053E014F0406F01D1E5004BD5C4F30164CC
:101B4000022C03D9416A41F4000146E00125A54079
:101B50001D608D684FF4C0739DB1CE6835434E68EB
:101B600045EAC605066803EB0417F5514FF4C27544
:101B7000076805EB04150E697E51097D012905D022
:101B800009E00E88CD6845EA4655EBE701684E59F5
:101B900046F480764E511179D2F805504FF4C6764E
:101BA00041EA0525016806EB04168D511178D2F83B
:101BB00001204FF4C47541EA0221026805EB0415C7
:101BC0005151006803EB0411425842F001024250A7
:101BD0000020F0BD416A41F4001141620120F0BDD6
:101BE00010B590F82020012A07D0022A05D0416ABA
:101BF00041F480214162012010BD3B48D0F8002211
:101C000042F00102C0F80022D0F8002222F47C52F7
:101C1000C0F80022D0F800224B6A42EA0322C0F842
:101C200000220A7D02F01F0301229A40D0F81C32E4
:101C30009343C0F81C32CB69B3B9D0F80C3293434C
:101C4000C0F80C328C894B6864F31F434C6900EB7D
:101C5000C404C4F840320C890B6864F31F434C6918
:101C600000EBC404C4F84432CB69012B16D1D0F880
:101C70000C321343C0F80C320C884B6864F31F43DA
:101C80004C6900EBC404C4F840320C89CB6864F39F
:101C90001F434C6900EBC404C4F844328B69002B29
:101CA000D0F804320ED01343C0F804320B69002B75
:101CB000D0F8143208D01343C0F81432096A01294D
:101CC00004D008E09343EFE79343F5E7D0F81C1204
:101CD0001143C0F81C12D0F8001221F00101C0F825
:101CE0000012002010BD000000640040704730B5B5
:101CF00090F82040012C05D0022C03D0416A41F419
:101D000080215DE00468002955D02469A40754D0DF
:101D10004FF4D874056804EB01142D5915F004052F
:101D2000956005682D594ED0ED08556005682C5911
:101D300004F00204D4604FF4DA74056804EB011473
:101D40002D5905F00F05156105682D59C5F30725B7
:101D5000956105682C59240C54614FF4DC720468B9
:101D600002EB0112A4581C700468A458240A5C7089
:101D70000468A458240C9C700468A258120EDA70EF
:101D80004FF4DE72046802EB0112A4581C7104685F
:101D9000A458240A5C710468A458240C9C7104683B
:101DA000A258120EDA71006881B1016941F0200178
:101DB0000161002030BDE468A8E7416A41F40011E8
:101DC0004162012030BD6D0D1560AFE7C16841F083
:101DD0002001C160EDE72DE9F05F054600680024B1
:101DE0004669D0F804908768D0F80CB0D0F810A0FD
:101DF000D0F81880F10748D0F90714D0012181608C
:101E0000B80703D5284600F024FA0CE0780702D57D
:101E10004FF4006407E0380702D54FF4805402E025
:101E2000284600F015FAF80516D529684FF4807099
:101E30008860B80503D5284600F00DFA0CE0780557
:101E400002D544F4005407E0380502D544F4804438
:101E500002E0284600F0FEF9F80316D529684FF491
:101E600080308860B80303D5284600F0F6F90CE00E
:101E7000780302D544F4004407E0380302D544F463
:101E8000803402E0284600F0E7F9300707D55FEA22
:101E9000CB6004D52968102044F40074C860700732
:101EA0004FF0080707D55FEA0B7004D52868C760B4
:101EB000284600F057F9B00706D52868C0688007A3
:101EC00002D0284600F050F9700607D55FEACA60D4
:101ED00004D52968102044F480640861B00607D551
:101EE0005FEA0A7004D528680761284600F080F987
:101EF000F00606D528680069800702D0284600F061
:101F000078F9B00308D55FEAC96005D529681020C3
:101F10004860284600F06EF9F00307D55FEA0970C3
:101F200004D528684760284600F098F9300446D563
:101F30005FEA497040D5F00504D55FEAC87001D06A
:101F400044F00104B00504D55FEA887001D544F07F
:101F50000204700504D55FEA487001D544F004041A
:101F6000300529D518F0700F26D008F070004028F1
:101F700015D006DC102809D020280AD0302816D128
:101F80000AE050280ED0602811D10EE044F0080479
:101F90000DE044F010040AE044F0200407E044F0AF
:101FA000400404E044F0800401E044F480742868B4
:101FB000816921F070018161296804204860002C4A
:101FC00005D0686A204368622846FFF78FFEBDE8A7
:101FD000F09F70B5040003D094F8200010B104E025
:101FE000012070BD204600F081F82068016841F0B2
:101FF0000101016000F0AEFA0546052604E000F09C
:10200000A9FA401B0A2811D820684068C007F6D0FA
:102010002068016821F00201016000F09BFA05468A
:102020000BE000F097FA401B0A2806D9606A40F4DA
:102030000030606284F82060D2E720684068800742
:10204000EFD4207E0128206801683DD021F0800176
:102050000160607E01282068016838D021F04001CD
:102060000160A07E01282068016833D021F02001A2
:102070000160E07E0128206801682ED041F0100147
:102080000160207F01282068016829D021F0080123
:102090000160607F01282068016824D021F00401DC
:1020A0000160D4E902010843D4E904121143084352
:1020B0006168491E08432168C861002060620120F0
:1020C00084F82000002070BD41F08001C0E741F09D
:1020D0004001C5E741F02001CAE721F01001CFE738
:1020E00041F00801D4E741F00401D9E710B586B00A
:1020F000044614216846FEF766FA174920688842AC
:1021000027D116480021026842F000720260006880
:1021100000F00070059011481038026842F0080283
:1021200002600068022200F0080005900320CDE95B
:102130000210CDE90002092004906946084800F029
:10214000E9F800220521142000F0A2FA142000F082
:1021500091FA06B010BD0000006400404038024013
:10216000000C02407047000010B51D49044600688D
:102170000968884233D11A4B0021143BA3F11C0299
:102180002046FFF7B4FD18BB15483038007F012802
:102190001ED113491348303902F0FCFA1249114894
:1021A0000A681438521C0A60322A08DA90ED050ACF
:1021B000D1ED010A30EE200A81ED010A08E007D1D5
:1021C00091ED010ADFED090A80EE201A80ED221A56
:1021D0002046BDE810404FF00201FFF78BBC10BD58
:1021E00008030020BC8700200400002000004842B3
:1021F000704770477047000070B5044690F82000A3
:10220000012804D0606A40F40020606218E00220D7
:1022100084F820002068016821F00101016000F0CD
:1022200099F905460EE000BF00F094F9401B0A281A
:1022300008D9606A40F400306062052084F820000C
:10224000012070BD20684068C007EDD1606270BD9C
:1022500070477047704770477047704770472DE967
:10226000F0410446876D00F075F9064694F8350094
:102270000025022806D08020606584F834500120B3
:10228000BDE8F0812068016821F016010160206836
:10229000416921F080014161206C08B9A06C20B136
:1022A0002068016821F0080101602068016821F0C0
:1022B000010101600CE000F04DF9801B052807D9F1
:1022C00020206065032084F8350084F83450D7E777
:1022D00020680068C007EED194F85C103F20884069
:1022E000B860012084F8350084F834500020C7E736
:1022F00090F83510022903D08021416501207047F4
:10230000052180F835100068016821F001010160A5
:10231000002070472DE9F84FDFF8F8A100220124D2
:1023200003254FF00F090AF1040BAAF1040E00BFB8
:102330000B6804FA02F63340B34270D10F7907F00C
:102340000307012F01D0022F16D187684FEA4208F8
:1023500005FA08FC27EA0C07D1F80CC00CFA08FCB7
:102360004CEA070CC0F808C04768B7430E79C6F3BB
:10237000001696403E4346600E79F643B6070AD0F3
:10238000C7684FEA420C05FA0CF6B7438E6806FAA6
:102390000CF63E43C6600E7906F00306022E10D1FD
:1023A000D60800EB8608D8F8206057074FEAD76CAC
:1023B00009FA0CF7BE430F6907FA0CF73743C8F860
:1023C000207006684FEA420C05FA0CF7BE430F79FD
:1023D00007F0030707FA0CF7374307604E6816F457
:1023E000403F1CD04C4E376847F480473760366812
:1023F00022F0030706F480460096484E07EB060CD1
:10240000DCF8086897073F0F09FA07F826EA08067C
:10241000DFF80C81404503D14FF0000841E072E045
:10242000DFF80081404502D14FF0010839E0DFF8C4
:10243000F880404502D14FF0020832E0DFF8EC802E
:10244000404502D14FF003082BE0DFF8E48040451F
:1024500002D14FF0040824E0DFF8D880404502D1D3
:102460004FF005081DE0DFF8D080404502D14FF065
:10247000060816E0DFF8C480404502D14FF0070897
:102480000FE0DFF8BC80404502D14FF0080808E0BB
:10249000DFF8B080404502D14FF0090801E04FF06D
:1024A0000A0808FA07F848EA0608CCF80888DAF8B3
:1024B00000605746D1F804C09E435FEACC2C00D59B
:1024C0001E433E60DBF800605F46D1F804C09E43C7
:1024D0005FEA8C2C00D51E433E60DEF80060774634
:1024E000D1F804C09E435FEA8C3C00D51E433E6099
:1024F000084F083F3E68D1F804C09E435FEACC3CD9
:1025000000D51E433E60521C102AFFF411AFBDE8F7
:10251000F88F0000083C0140443802400030014080
:10252000000002400004024000080240000C02408B
:10253000001002400014024000180240001C02403B
:1025400000200240002402400AB181617047090462
:10255000FBE7000001488068704700000C00002085
:102560000248816802781144816070470C000020A5
:102570000B4810B5016841F400710160016841F435
:1025800080610160016841F480710160032000F006
:102590009FF80F2000F006F800F050F8002010BD62
:1025A000003C024030B505461F4887B00024016852
:1025B00041F010010160006806A900F010000090D1
:1025C00001A800F031F90498A8B100F04DF94000DD
:1025D0001649174AB0FBF1F11648491E026040F255
:1025E000E732C0E90324C0E90114846100F08EFBE6
:1025F000040003D015E000F037F9E9E70D4800F0DA
:10260000C5FB04000DD1362000F034F8102D07D2A0
:1026100000222946362000F03BF80748056000E01C
:10262000012407B0204630BD4038024040420F0030
:102630000010004088040020100000200C4882B0E8
:10264000016841F480410160006800F4804000901E
:102650000748001F016841F08051016000680022B6
:1026600000F0805000900F21901E02B000F010B8D2
:1026700044380240002809DB00F01F02012191408C
:102680004009800000F1E020C0F800117047000010
:10269000F0B40E4B1B680C46C3F30223C3F10705CD
:1026A000042D00D90425191D072901D2002300E0BB
:1026B000DB1E012606FA05F1491E214099409E4085
:1026C000761E16403143F0BC01F01FBC0CED00E05B
:1026D000064900F0070208684FF6FF03184040EA79
:1026E0000220034A10430860704700000CED00E030
:1026F0000000FA052DE9F0470E46050065D0DFF829
:102700001481D8F80000F7B200F00F00B04207D2F1
:1027100088F80070D8F8000000F00F00B04254D1E3
:1027200028683D4C810712D5400703D5206840F446
:10273000E05020602878000703D5206840F460400E
:1027400020602068A96820F0F00008432060287805
:10275000C0072DD0304968680839012812D00228F6
:1027600013D0032811D00968890700292DDA2168C0
:1027700021F0030101432160FFF7ECFE814641F2A5
:10278000883A0EE009688903EFE709688901ECE7F8
:10279000FFF7E0FEA0EB0901514502D90320BDE897
:1027A000F0872068696800F00C00B0EB810FEFD172
:1027B000D8F80010404601F00F01B14207D9077068
:1027C000006800F00F00B04201D00120E7E7287850
:1027D000400705D52068E96820F4E05008432060F0
:1027E0002878000706D52068296920F4604040EA6F
:1027F000C100206000F058F82168084AC1F30311B5
:10280000515CC8400649086006480068FFF7CAFEE8
:102810000020C4E7003C0240083802401857000876
:1028200018000020100000200F2202600C4A1368DC
:1028300003F003034360136803F0F003836013683D
:1028400003F4E053C36012684FF4E05303EAD2028A
:1028500002610448006800F00F0008607047000043
:1028600008380240003C02400448054900680968F5
:10287000044AC1F38221515CC8407047180000200F
:1028800008380240285700080448054900680968CC
:10289000044AC1F34231515CC8407047180000201F
:1028A0000838024028570008154810B5006810F095
:1028B0000C02144813D01449042A0FD0082A0ED150
:1028C0000F4C241F2268236802F03F025B0207D5E9
:1028D0002068C0F38810A0FB010106E0084610BD87
:1028E0002168C1F38811A1FB00010023FDF73CFD25
:1028F0002168C1F30141491C4900B0FBF1F010BD52
:10290000083802400024F400001BB7002DE9F84FFE
:1029100004006ED02078DFF84C93C007A9F10405BD
:102920004AD009F104000168C1F38101012908D0EE
:102930000068C0F3810002280AD1D9F800004002E3
:1029400006D52868800337D560680028E1D033E0D9
:102950006068B0F5803F10D0B0F5A02F286810D087
:1029600020F480302860286820F480202860606887
:10297000A8B1FFF7EFFD06460DE0286840F480306F
:10298000F4E740F480202860F7E700BFFFF7E2FD9E
:10299000801B642873D828688003F7D50CE0FFF704
:1029A000D9FD064605E000BFFFF7D4FD801B642873
:1029B000F0D828688003F7D42078DFF8AC8280074D
:1029C0004FF0000A3ED5A748001D016811F00C0F1A
:1029D00008D00068C0F3810002280BD1D9F80000AC
:1029E000400207D42868800716D5E068012800D186
:1029F00012E033E1E068B8B10120C8F80000FFF749
:102A0000A9FD064605E000BFFFF7A4FD801B0228D4
:102A1000C0D828688007F7D52868216920F0F80019
:102A200040EAC10028600DE0C8F800A0FFF792FD61
:102A3000064604E0FFF78EFD801B02281FD8286899
:102A40008007F7D42078000722D5864F8748616930
:102A5000703771B101210160FFF77CFD064604E08B
:102A6000FFF778FD801B022809D838688007F7D562
:102A70000EE0C0F800A0FFF76DFD064605E082E01D
:102A8000FFF768FD801B02287DD838688007F7D4DF
:102A90002078400768D5DFF8CCB100270BF13C0B5C
:102AA000DBF80000C0000BD4DBF8001041F08051CF
:102AB000CBF80010DBF80000012700F080500090F8
:102AC0006B4E3068C00510D4306840F480703060C0
:102AD000FFF740FD009005E0FFF73CFD0099401A2C
:102AE000022850D83068C005F6D55E4EA0686C3616
:102AF00001280FD00528306810D020F00100306088
:102B0000306820F004003060A068B8B1FFF722FD03
:102B100000900FE0306840F00100F4E740F004005E
:102B20003060F7E7FFF716FD0099411A41F288304F
:102B3000814266D830688007F4D50EE0FFF70AFDC1
:102B4000009007E0FFF706FD0099411A41F2883036
:102B5000814256D830688007F4D42FB1DBF80010DA
:102B600021F08051CBF80010A069C8B33D49091D80
:102B70000968C1F3810102294AD00228504607D0D2
:102B8000C8F8600000E03CE0FFF7E4FC04463BE0EE
:102B90004746C8F86000FFF7DDFC064605E000BFC9
:102BA000FFF7D8FC801B02282BD828688001F7D4B7
:102BB000D4E907010843A16A2E4A490802EB014102
:102BC000626A41EA8211084394F82C1040EA0161DC
:102BD000C9F8001001203866FFF7BCFC044606E087
:102BE0003EE000BFFFF7B6FC001B022809D82868AA
:102BF0008001F7D534E000BFFFF7ACFC001B0228D2
:102C000002D90320BDE8F88F28688001F4D427E0BA
:102C10000128F7D0D9F80000E26900F48001914260
:102C20001CD1226A00F03F01914217D147F6C071D2
:102C3000626A0140B1EB821F10D1A26A4FF0FF33EC
:102C400000F4403103EB5202B1EB024F06D194F88D
:102C50002C1000F07060B0EB016F01D00120D1E7C3
:102C60000020CFE70438024000004742800E474270
:102C7000007000400000FFFF7047704770B590F88B
:102C80003C20012A32D0012480F83C40022280F806
:102C90003D2003685A689D6822F070060A68324336
:102CA0005A60134B02689A4214D0B2F1804F11D08F
:102CB000104B9A420ED0104B9A420BD00F4B9A42B7
:102CC00008D00F4B9A4205D00E4B9A4202D00E4BC1
:102CD0009A4204D1496825F080031943916080F835
:102CE0003D40002180F83C10084670BD022070BDB8
:102CF000000001400004004000080040000C0040BB
:102D000000040140004001400018004010B50400DC
:102D100003D094F83D0010B107E0012010BD002061
:102D200084F83C00204600F01FF8022084F83D00A3
:102D3000211D206800F0C6FE012084F8460084F8BA
:102D40003E0084F83F0084F8400084F8410084F895
:102D5000420084F8430084F8440084F8450084F875
:102D60003D00002010BD000008B50068B0F1804FA4
:102D700008D10548016841F001010160006800F0D8
:102D80000100009008BD00004038024090F83D105E
:102D9000012901D001207047022180F83D1001680F
:102DA000CA6842F00102CA6000681149884214D022
:102DB000B0F1804F11D00F4988420ED00E498842A1
:102DC0000BD00E49884208D00D49884205D00D49E4
:102DD000884202D00C49884204D1816801F0070181
:102DE000062903D0016841F001010160002070470D
:102DF000000001400004004000080040000C0040BA
:102E000000040140004001400018004070B5044635
:102E100090F83C000025012817D0012684F83C607A
:102E2000022084F83D002068826822F0770222F4B4
:102E30007F4282600868502838D00DDC20284FD0AF
:102E400005DC90B3102811D14AE0022070BD302873
:102E500046D040280AD13BE060282FD070280DD002
:102E6000B0F5805F03D0B0F5005F12D0012584F883
:102E70003D60002084F83C00284670BDCB68D1E955
:102E80000121206800F082FE2068816841F077010E
:102E900009E0CB68D1E90121206800F077FE2068C5
:102EA000816841F480418160E1E719E0CA684968BE
:102EB000206800F07DFE5021206806E0CA6849685D
:102EC000206800F086FE6021206800F069FECEE7F1
:102ED000CA684968206800F06BFE40212068F4E76A
:102EE000226801461046F0E7704770B50446006856
:102EF00001694FF00005C943890715D4C168C9436A
:102F0000890711D4E91E01610120207720688069BA
:102F10008007204602D0FFF7E7FF04E000F098F8B2
:102F2000204600F096F8257720680169C9434907D3
:102F300017D4C168C943490713D46FF00401016174
:102F4000022020772068806910F4407F204602D05C
:102F5000FFF7CAFF04E000F07BF8204600F079F8A4
:102F6000257720680169C943090716D4C168C94398
:102F7000090712D46FF0080101610420207720684E
:102F8000C0698007204602D0FFF7AEFF04E000F0E2
:102F90005FF8204600F05DF8257720680169C94395
:102FA000C90617D4C168C943C90613D46FF010010C
:102FB0000161082020772068C06910F4407F204616
:102FC00002D0FFF791FF04E000F042F8204600F045
:102FD00040F8257720680169C943C90708D1C1684D
:102FE000C943C90704D1891E0161204600F032F8A7
:102FF00020680169C943090609D4C168C9430906A3
:1030000005D46FF0800101612046FFF735FE20688E
:103010000169C943490609D4C168C943490605D4B1
:103020006FF040010161204600F01EF82068016940
:10303000C94389060BD4C168C943890607D46FF018
:10304000200101612046BDE87040FFF716BE70BD4B
:103050007047704700680349884201D1FFF780BA82
:103060007047000000100040704770477047000034
:10307000F8B5016804460868CA684B6910F00F0F7C
:103080004FF000055AD003F0010602F49077374361
:1030900065D0C10705D0D10503D5216C41F00101F0
:1030A0002164410705D5D90703D0216C41F0020105
:1030B0002164810705D5D90703D0216C41F00401B3
:1030C0002164010707D502F02001314303D0216CB0
:1030D00041F008012164216C00293BD0800604D511
:1030E000900602D5204600F0C2FD20684069216CA0
:1030F000C0F3801001F00801014320462BD000F0FE
:103100008FFD20684069400621D52068143050E8C2
:10311000001F21F0400140E80012002AF5D1A06B09
:10312000A8B16C490165A06BFFF7E2F8002811D047
:10313000A06B016D01B0BDE8F040084783060ED5D5
:1031400093060CD52046BDE8F84000F090BD20461F
:10315000FFF78CFFF8BDFFF789FF2564F8BD266BEC
:103160002023012E79D1C60677D5D60675D50868F5
:10317000486800904869400640D5A16B08684068DF
:103180000004000CEAD0A28D8242E7D9E085C8692C
:10319000B0F5807F2DD020680C3050E8001F21F45E
:1031A000807140E80012002AF5D12068143050E800
:1031B000001F21F0010140E80012002AF5D120682B
:1031C000143050E8001F21F0400140E80012002AAE
:1031D000F5D184F83E30256320680C3050E8001F9C
:1031E00021F0100140E80012002AF5D1A06BFFF792
:1031F00036F8A08DE18D401A81B229E0A08DE18DD5
:10320000401A81B2E08D0028A8D00029A6D02068FD
:103210000C3050E8002F22F4907240E80026002E77
:10322000F5D12068143050E8002F22F0010240E868
:103230000026002EF5D184F83E30256320680C303E
:1032400050E8002F22F0100240E80023002BF5D1B7
:103250002046FFF70AFFF8BDFFE705062BD5150648
:1032600029D594F83D002128F5D1A068B0F5805FFC
:1032700001D12069B0B1206A411C21622168007827
:103280004860E08C401E0004000CE084E3D120681C
:10329000C16821F08001C1602068C16841F040012F
:1032A000C160D8E7206A0088C0F308004860206A3F
:1032B000801C2062E5E74006CDD55006CBD5CA6814
:1032C000204622F04002CA6084F83D3000F0A5F9A3
:1032D000C1E70000113C000870B5040004D094F868
:1032E0003D00002510B106E0012070BD84F83C507F
:1032F000204600F023F8242084F83D002068C168AF
:1033000021F40051C160204600F012FD20680169DF
:1033100021F4904101612068416921F02A01416155
:103320002068C16841F40051C1602564202084F800
:103330003D0084F83E00002070BD0000F0B587B06D
:10334000044614216846FDF73EF95149DFF83CC1B7
:10335000276800234E4A10390225032408264D48C9
:1033600067451FD1176847F080471760126802F061
:10337000804205920A6842F010020A60096802AFB2
:1033800001F010010591E101CDE9001587E8580031
:103390006946FEF7BFFF002205215220FFF778F9AA
:1033A000522021E0DFF8F0C0674521D1176847F0CF
:1033B00000471760126802F0004205920A6842F066
:1033C00010020A600968CDE9004501F01001CDE95D
:1033D0000461CDE902346946FEF79CFF0022052115
:1033E0005320FFF755F95320FFF744F907B0F0BD1C
:1033F0002A48874222D1106840F48020106010686B
:1034000000F480200590086840F008000860086813
:10341000029300F0080005904FF44070CDE90005DC
:103420000720CDE9034069461D48FEF773FF0022DF
:1034300005212720FFF72CF92720D5E719488742D7
:10344000D4D11348001D026842F0200202600068D7
:1034500000F020000590086840F04000086008680F
:1034600002AA00F0400005904FF48440CDE9000529
:1034700082E8580069460C48FEF74CFF00220521FF
:103480004720FFF705F94720AEE70000007800402D
:103490004038024000100240007C004000480040DC
:1034A000000C0240001401400018024090F83E3029
:1034B000202B0ED159B152B190F83C30012B08D0DD
:1034C000012380F83C300023036300F0B7BC0120E7
:1034D000704702207047000010B500681849884204
:1034E00006D1184800F0EEF901221649164822E0EC
:1034F0001649884208D11649164800F043FA124886
:1035000001221349443016E01349884208D1134878
:10351000044600F0D7F90C480122214688380AE019
:103520000F4988420BD10F48044600F0CBF90648FA
:10353000012221464438BDE81040FFF7B7BF10BD57
:10354000004800401805002000040020001401403D
:10355000C0880020A8870020007800406046002036
:10356000007C0040046700202DE9F843044690F8F1
:103570003D001F4616460D4620284CD1C5B1BEB1B0
:1035800094F83C00012846D0012084F83C004FF01C
:103590000008C4F84080212084F83D00FEF7DAFFDF
:1035A000A6848146E684A068B0F5805F03D004E07D
:1035B0000120BDE8F883206928B12E465FF00005A0
:1035C00084F83C800EE00026FAE78021204600F0D7
:1035D00052FCA0B9AEB116F8010B21684860E08C2E
:1035E000401EE084E08C4B464FF00002009700281C
:1035F000EBD14FF04001204600F03DFC30B10320FC
:10360000D7E735F8020BC0F30800E6E7202084F87E
:103610003D000020CDE70220CBE77047FEE7000029
:10362000144810B5124901600321416000214FF494
:1036300000228160C0E903124FF44012426101761A
:1036400041768176C17601774177FEF7C2FC08B1F9
:10365000FEF74EFA074800F015FE0648FEF7CCFDCF
:10366000002803D0BDE81040FEF742BA10BD0000AC
:10367000006400400803002000B589B01C220B49FB
:1036800002A8FCF74CFF002102A800F01BFE08492D
:103690004FF47A720860002000900346019005A163
:1036A000084801F0EFFA09B000BD0000FC56000820
:1036B000000000206D6F746F725F6F7574707574A9
:1036C00000000000AD48000830B587B014216846FE
:1036D000FCF779FF25480024016841F010010160E2
:1036E000016801F010010591016841F0400101609D
:1036F000016801F040010591016841F0010101609C
:10370000016801F001010591016841F008010160C3
:10371000016801F008010591016841F08001016034
:10372000016801F080010591016841F0020101602A
:1037300000680F4D00F0020005900022022128468B
:10374000FEF702FF0420CDE900046946094802940F
:10375000FEF7E0FD022000900120CDE9010469465A
:1037600028460394FEF7D6FD07B030BD303802403E
:10377000001802400004024010B586B0002417482B
:10378000009401940294039404944FF080410594B2
:10379000016041F61F41C0E9011441F28731C0E9DF
:1037A000031480218161FFF7B1FA08B1FEF7A0F997
:1037B0004FF48050009069460848FFF727FB08B196
:1037C000FEF796F9049404A904480594FFF756FA05
:1037D000002801D0FEF78CF906B010BD30030020A0
:1037E0000C4810B50A4901604FF4E13141600021F5
:1037F00081600C22C160C0E904128161C161FFF7E0
:103800006BFD002803D0BDE81040FEF771B910BD74
:1038100000780040780300200C4810B50A49016088
:103820004FF4E1314160002181600C22C160C0E9A8
:1038300004128161C161FFF74FFD002803D0BDE88C
:103840001040FEF755B910BD007C0040BC030020BD
:103850000C4810B50A4901604FF4E1314160002184
:1038600081600C22C160C0E904128161C161FFF76F
:1038700033FD002803D0BDE81040FEF739B910BD74
:1038800000480040000400200C4810B50A490160BF
:103890004FF4E1314160002181600C22C160C0E938
:1038A00004128161C161FFF717FD002803D0BDE854
:1038B0001040FEF71DB910BD001401404404002063
:1038C000FEE7FEE770B50446007894F8822E0121E9
:1038D00004F68465002642B1012A0ED0022A17D0D0
:1038E000032A1BD084F8826E70BD3A28FCD184F87C
:1038F000821E84F8831E705570BD0D2801D10221EF
:1039000009E094F8831E4A1C84F8832E485570BD44
:103910000A2800D1032184F8821EF2E72846FEF728
:103920003BF8012825D194F8810E1D2200EB4001BF
:10393000C1EB401020442946401CFCF7ABFD94F835
:10394000810E00EBC00100EB4002C2EB401004EB23
:1039500081012044401C01F6A461FEF72FF894F881
:10396000810E401CC0B284F8810E802801D184F8F9
:10397000816E1D212846FCF726FE84F8826E84F8AD
:10398000836E70BD70B5087800250C460A280CD0EF
:103990002C280CD0A1781E22B1FBF2F302FB1312EB
:1039A0002244491CA170D07070BDA57010E0A570B4
:1039B000E01C00F0BDFA51EC100B01F0B5FA617893
:1039C00004EB8102491C617050626078052800D9BF
:1039D00065701E21E01CBDE87040FCF7D2BD0120DF
:1039E00000F064FCFBE7000010B5502080F3118864
:1039F000BFF34F8FBFF36F8F01F0A2F918B10449E5
:103A00004FF080500860002080F3118810BD000046
:103A100004ED00E030B593B030216846FCF7D3FDEB
:103A200014210CA8FCF7CFFD1D480025016841F0CA
:103A300080510160006800F08050119019480168C1
:103A400041F4404101600068022400F440401190BC
:103A500001200090000401908001CDE9064006207D
:103A60000890A820CDE9090407200B906846FEF7CE
:103A70004DFF08B172B6FEE70CA90F2081E83100B6
:103A80004FF4A0500F904FF48050109005210CA8D7
:103A9000FEF730FE002801D072B6FEE713B030BD4D
:103AA00040380240007000400248016841F4700153
:103AB0000160704788ED00E00148FFF716BA00008A
:103AC00088040020F0B50268254C264D264E274F6D
:103AD000274B4FF0804CA04209D0604507D0A84248
:103AE00005D0B04203D0B84201D0984204D122F0B0
:103AF000700E4A6842EA0E02A0421BD0604519D0FF
:103B0000A84217D0B04215D0B84213D0984211D075
:103B1000184DA8420ED0184DA8420BD0174DA84200
:103B200008D0174DA84205D0164DA84202D0164D18
:103B3000A84203D122F44075CA682A434D6922F095
:103B400080022A4302608A68C2620A688262A042D6
:103B500001D0984201D10969016301214161F0BDA1
:103B6000000001400004004000080040000C00403C
:103B70000004014000400140004401400048014071
:103B800000180040001C00400020004010B5846870
:103B900042EA032224F47F440A432243826010BD98
:103BA000826822F070020A4342F007018160704788
:103BB00010B5036A046A24F001040462846924F0E5
:103BC000F00444EA021423F00A020A438461026208
:103BD00010BD10B5036A23F0100303628369046A01
:103BE00023F4704343EA023224F0A00343EA0111B4
:103BF0008261016210BD00000148FFF739BA000080
:103C0000780300200148FFF733BA0000BC0300200E
:103C100010B5806B0021C185C184FFF727FA10BD64
:103C200001680C3151E8002F22F4907241E8002322
:103C3000002BF5D10168143151E8002F22F0010268
:103C400041E80023002BF5D1016B012909D101685E
:103C50000C3151E8002F22F0100241E80023002B24
:103C6000F5D1202180F83E1000210163704708B58E
:103C700090F83E10222901D0022008BD82684FF43E
:103C800080539A4201D1016921B1816A9A421BD0C5
:103C90004AB10AE00268816A5268C2F308020A80E7
:103CA000816A891C08E0026972B10268526802F0F8
:103CB0007F020A70816A491C8162C18D491E090414
:103CC000090CC18503D019E002685268F1E7016868
:103CD000CA6822F02002CA600168CA6822F48072B1
:103CE000CA6001684A6922F001024A61202180F815
:103CF0003E10016B012903D0FFF7EEFB002008BD49
:103D00000021016301680C3151E8002F22F01002FC
:103D100041E80023002BF5D101680A68D20602D5DC
:103D20000A6849680091818DFFF79FF9E6E7000076
:103D300070B5044600680169E26821F440511143FE
:103D400001612169A068E269084361691143084380
:103D50002168CA6849F20C639A430243CA6020682A
:103D60004169A26921F440711143416131492068E0
:103D7000884202D03049884202D1FEF785FD01E039
:103D8000FEF772FDE2690023192164253226B2F59F
:103D9000004F626828D0A0FB0101930F9200FCF74E
:103DA000E3FA0146B0FBF5F06FF01802504301EB67
:103DB000800006EB0010B0FBF5F000F0F002B1FB64
:103DC000F5F002EB0012B1FBF5F06FF01803584369
:103DD00001EB800006EB0010B0FBF5F000F00F00E7
:103DE00021681044886070BDA0FB010192185B41FE
:103DF000FCF7BAFA0146B0FBF5F00201B1FBF5F0B1
:103E00006FF01803584301EB800006EBC000B0FBD5
:103E1000F5F000F0F80002EB4002B1FBF5F058437A
:103E200001EB800006EBC000B0FBF5F000F00700EE
:103E3000D6E7000000100140001401408162828535
:103E4000C28500210164222280F83E2080F83C10C7
:103E5000016921B10168CA6842F48072CA600168D0
:103E60004A6942F001024A610068C16841F02001DC
:103E7000C160002070472DE9F041984617460E4674
:103E80000446069D27E0681C25D02DB1FEF762FB95
:103E9000A0EB0800A8421ED920680C3050E8001F93
:103EA00021F4D07140E80012002AF5D120681430C6
:103EB00050E8001F21F0010140E80012002AF5D16E
:103EC000202084F83D0084F83E00002084F83C0067
:103ED0000320BDE8F0812068006836EA000004D0C5
:103EE0000020B842CFD00020F3E70120F9E700001E
:103EF0000148FFF7BDB80000000400200148FFF7AB
:103F0000B7B8000044040020FEE70907090E0028A6
:103F100004DB00F1E02080F80014704700F00F008F
:103F200000F1E02080F8141D704700000000000040
:103F300030B583B00446FCF770FB9FED090B0546D6
:103F40008DED000B002221466846FCF78FFB2846CA
:103F5000FCF768FB9DED000B03B030BD00000000D6
:103F6000000000000000000030B540F2FF742DEDAD
:103F7000048BF0EE608A18EE901A85B0B0EE408A9D
:103F80009FED2B9B05468DED008B34EA115147D0F8
:103F900053EC192B51EC180B01F064F940D02A4670
:103FA00051EC180B01F05EFB41EC180B18EE900A77
:103FB0008DED008B34EA10501CD053EC192B51ECD2
:103FC000180B01F04FF92BD10220FCF72BFB00F06E
:103FD00043F810EE901A18EE900A8DED020B8DED5D
:103FE000008B61F31E0003909DED020B05B0BDEC4C
:103FF000048B30BD0220FCF715FB00F01DF810EE1D
:10400000901A18EE900A8DED020B8DED008B61F386
:104010001E0003909DED020B05B0BDEC048B30BD7E
:1040200005B0B0EE480AF0EE680ABDEC048B30BD76
:1040300000000000000000009FED050B10B553ECE0
:10404000102B51EC100B01F09DF941EC100B10BD41
:1040500000000000000000709FED050B10B553EC50
:10406000102B51EC100B01F08DF941EC100B10BD31
:10407000000000000000001030B504462DED048B58
:1040800081B06A4691ED008B51EC180B00F064F89A
:1040900000989FED239B7E300090002821DC53EC9C
:1040A000192B51EC180B01F0DDF81AD0002140F665
:1040B00008004FF00000054651EC180B00F034FFEB
:1040C00008EE100A40F6080005EA00014FF0000073
:1040D000B5EEC08AF1EE10FA04BF0220FCF7A2FA96
:1040E00017E00098FF280EDB0220FCF79BFA53EC48
:1040F000192B51EC180B01F043FA8CBF9FED0A8A83
:104100009FED0A8A05E051EC180B00F00DFF08EE58
:10411000100A84ED008A01B0BDEC048B30BD0000B4
:104120000000000000000000000080FF0000807F11
:1041300010B5044690ED000B0846FFF715FF84ED1F
:10414000000B10BD30380A2801D201207047002032
:10415000704700000000000010B582B01446CDE9A1
:1041600000010023009A2360194B21F0004098427F
:104170002ADA024328D0B0F5801FA8BF226810DADF
:104180009FED150B53EC102B9DED000B51EC100B1C
:1041900001F0F8F8CDE900016FF0350221F00040A0
:1041A00022600F4B6FF31E5103EB20501044206030
:1041B00041F0FF5040F0005001909DED000B00BF1A
:1041C00002B051EC100B10BD9DED000BF8E70000A4
:1041D0000000F07F000000000000000000005043DD
:1041E00002FCFFFF9FED090A002180ED020A80ED2D
:1041F000030A80ED000A80ED220A41618161C161FC
:1042000080ED040A80ED010A704700000000000004
:1042100010B5FEF7ADF9FFF7FDFB1248FFF7E2FF1F
:10422000FFF752FAFFF7FCF9FFF72EFBFFF7A4FAAE
:10423000FFF7D6FAFFF7F0FAFFF70AFB01210A4869
:10424000FDF73CFC02210948FDF754FC0122084916
:104250000848FFF72BF9FFF70FFA00F02EF80020BF
:1042600010BD0000A8870020D00400200803002013
:10427000C08800204404002001460020842900D08A
:10428000C81C704700B58BB000210122CDE9061291
:104290000591009101910291039104910E21CDE9C4
:1042A00008216946FDF79CFC0BB000BD10B500B9B4
:1042B000012000F095FB002010BD10B500F0FCFBC4
:1042C000002010BD7FB50D4604464169B0F90800D5
:1042D00081B1A16971B1FFF7CFFFD4E905128DE873
:1042E0000700D4E900102B46226900F0F8FC039087
:1042F00004B070BDFFF7C0FF03A9CDE90001208A1B
:104300002B4682B2D4E9001000F0BCFC012801D099
:104310000020EDE70398EBE72DE9F041184C0F463C
:104320000546E6682068001D00F070FA38B920687C
:1043300090F82C1001208840216981432161681C7C
:1043400007D137B12168BDE8F0410E48091D00F0E2
:10435000A1BA20683544B5424560216805D2A06BFA
:10436000BDE8F041091D00F07DBA606B091D00F049
:1043700079FAA06A854200D2A562BDE8F08100000A
:104380001C000020E88900202DE9F041054600F0DE
:10439000AFFA2E4CA068401CA06020682C4F10B1D2
:1043A000606940B32DE02560A068012829D100266E
:1043B00006EB860007EB800000F046FA761C072E1D
:1043C000F6D323488C3000F03FFA2148A03000F0AB
:1043D0003BFA1F48B43000F037FA1D48C83000F0EF
:1043E00033FA1B48DC3000F02FFA19488C30606338
:1043F0001430A06305E02068E96AC06A884200D8EA
:104400002560606A401C6062E96A01202269884078
:104410001043206101EB810007EB8000291D00F0B3
:1044200039FA00F085FA606900280CD02068E96A42
:10443000C06A884207D207494FF080500860BFF336
:104440004F8FBFF36F8FBDE8F08100001C0000208C
:104450000C89002004ED00E010B5044690F85100EE
:1044600058B101280CD002280FD0502080F31188B9
:10447000BFF34F8FBFF36F8FFEE7206B00F06CFA36
:104480002046BDE8104000F067BA10BD10484FF458
:104490007051420706D0C01D0D4920F00700411A97
:1044A000C1F570510B4A00230144C2E900030839E9
:1044B000183A21F0070111604B600B600B1AC0E93C
:1044C000001393604FF0004053605061704700004C
:1044D000FC89002070000020144E154CA6F1C8077E
:1044E0004FF08058DFF84C9012E000BF00F000FA67
:1044F000F068C568281D00F089F9A068401EA0601A
:104500006068401E606000F013FA2846FFF7A4FFC1
:1045100060680028EAD138680128F9D9C9F8008014
:10452000BFF34F8FBFF36F8FF2E70000D4890020F5
:104530001C00002004ED00E02DE9F0479A46DDE97B
:10454000098481466FF00303206B03EB8202104461
:10455000089E20F00707780707D0502080F31188C5
:10456000BFF34F8FBFF36F8FFEE7002561B10020CF
:1045700023180A5C83F834200A5C12B1401C10280E
:10458000F6D384F8435001E084F83450072E00D36A
:104590000626E662C4E91165201D00F060F904F109
:1045A000180000F05CF92461C6F107006462A061A4
:1045B000E56484F8505052464946384600F0C0F849
:1045C0002060B8F1000F01D0C8F80040BDE8F087C6
:1045D00030B5114900E011460A688242FBD34B68AE
:1045E0005C18844203D14068184448600846436818
:1045F0001C18944209D1084C183C2468A24209D0E6
:1046000052681A4442600A6812680260814200D00F
:10461000086030BD0460F9E7700000200648416B77
:10462000096829B1416BC968C968496881627047E6
:104630004FF0FF31FAE700001C00002008484068F6
:10464000401C4FF0500080F3118804D0BFF34F8F0F
:10465000BFF36F8FFEE7BFF34F8FBFF36F8FFEE7A0
:10466000780000202DE9F0410546002700F05AFAB5
:10467000324E306808B9FFF709FF706905424ED124
:10468000C5B3083568070ED005F00700C0F1080073
:104690000544680707D0502080F31188BFF34F8F7F
:1046A000BFF36F8FFEE72DB37068854237D823487C
:1046B000183001460C6801E020460C466168A942AA
:1046C00002D221680029F7D131688C4227D00768CF
:1046D0002168016060680837411B10290FD96019F3
:1046E000420708D0502080F31188BFF34F8FBFF3EB
:1046F0006F8FFEE713E041606560FFF769FF616857
:104700007068401A7060B268904200D2B060706900
:1047100001430020C4E90001F068401CF06000F093
:1047200075FB780707D0502080F31188BFF34F8FB7
:10473000BFF36F8FFEE73846BDE8F08158000020D8
:1047400010B5031F4FF080741C601B1F21F0010186
:104750001960191F044B0B6014390A60091F6FF0B0
:10476000020244380A6010BD3D46000801EE100AFE
:1047700070EEC00A0120B8EEC11A8840401E21EE3A
:10478000201A00EE900AF8EEE01AC1EE210A30EE8F
:10479000800A704710B5024631F81D0FDFED170A89
:1047A0008B78CC781B0143EA1413097904F00F04C9
:1047B00041EA042440BA10219FED110AFFF7D6FF09
:1047C000F0EE400A0C21B0EE602AF3EE0E0ABBEECA
:1047D0000E0A1846FFF7CAFFF0EE400A0C21F0EE71
:1047E000602ADFED080A9FED080A2046FFF7BEFFAA
:1047F00082ED020A82EC022A10BD0000DA0F494164
:104800000000000000004042000040C2D0E9013238
:1048100001699A60D0E901235A604A68824201D155
:1048200082684A60002202610868401E08600868C9
:1048300070470000034B036003F1540008608020C0
:10484000106070478400002000F108014FF0FF3233
:10485000C0E90112C16001610021016070470021BF
:104860000161704730B50B685A1C02D000F1080294
:1048700002E0026904E02246546825689D42FAD9A4
:1048800053684B6099608A60516008610168491CF7
:10489000016030BD42684A6093688B6093685960DC
:1048A000916008610168491C016070471CB500F007
:1048B00041FA01900CA0002400684FF47A75009032
:1048C000641C94FBF5F005FB104040B96846FBF70B
:1048D000C2FD82B20A2369460448FEF745FE012163
:1048E00001A800F0A3F8EBE7310D0A004404002012
:1048F000502080F31188BFF34F8FBFF36F8F0A49A9
:104900004868401C486001280CD10848006810F035
:10491000FF0F07D0502080F31188BFF34F8FBFF3F4
:104920006F8FFEE7704700007800002004ED00E084
:104930000849486828B1401E486001D180F31188B9
:104940007047502080F31188BFF34F8FBFF36F8FF4
:10495000FEE700007800002070B500282AD0164D30
:10496000A0F1080460686969084207D1502080F30B
:104970001188BFF34F8FBFF36F8FFEE722683AB104
:10498000502080F31188BFF34F8FBFF36F8FFEE786
:104990008843606000F0C6F8606869680844686031
:1049A0002046FFF715FE2869401C2861BDE87040CD
:1049B00000F02CBA70BD0000580000204FF0E0203D
:1049C00000210161816105494FF47A720968B1FBE8
:1049D000F2F1491E41610721016170471800002072
:1049E00010B5020014D00F48006B38B1502080F38E
:1049F0001188BFF34F8FBFF36F8FFEE700F092F87F
:104A000000211046FFF788FC00F000FA002807D1CB
:104A100005494FF080500860BFF34F8FBFF36F8F91
:104A200010BD00001C00002004ED00E070B50D4634
:104A300004000BD095B11E4A106BB8B1502080F322
:104A40001188BFF34F8FBFF36F8FFEE7502080F3C5
:104A50001188BFF34F8FBFF36F8FFEE7502080F3B5
:104A60001188BFF34F8FBFF36F8FFEE700F05AF846
:104A7000D26823685919934204D98B420AD99142CA
:104A800002D807E08B42FAD9881A21600021FFF78B
:104A900043FC00E0216000F0B9F9002807D1054986
:104AA0004FF080500860BFF34F8FBFF36F8F70BD22
:104AB0001C00002004ED00E010B586B00024039433
:104AC00005AA04A903A80494FFF7B4FEDDE90301D5
:104AD0000094CDE9011000230EA11048059A00F0C2
:104AE000FEF80F490028C86211D0502080F31188C9
:104AF000BFF34F8FBFF36F8F4FF0FF3088620120FD
:104B00004861CC6006B0BDE8104000F041B806B086
:104B100010BD000049444C4500000000D944000885
:104B20001C0000200248016B491C01637047000013
:104B30001C0000201448016B11B10121C1617047B4
:104B40000021C1610169B1FA81F1C1F11F0101EBDD
:104B500081020E4951F822306BB101EB820101F163
:104B600008034A6852684A609A4201D152684A6012
:104B7000D16801607047502080F31188BFF34F8FD8
:104B8000BFF36F8FFEE700001C0000200C8900209F
:104B90001CB537480168374A914207D1502080F34D
:104BA0001188BFF34F8FBFF36F8FFEE70068314965
:104BB000491E884207D1502080F31188BFF34F8FE0
:104BC000BFF36F8FFEE72C4908780190FF20087033
:104BD00008788DF800009DF800009DF8002000F096
:104BE000F000904207D0502080F31188BFF34F8F20
:104BF000BFF36F8FFEE79DF80000204C00F05000DF
:104C000020700720A06005E09DF8002052008DF87C
:104C10000020401E9DF800201206F5D4A060032855
:104C200007D0502080F31188BFF34F8FBFF36F8FF1
:104C3000FEE74FF44070A060019808700C482030E7
:104C4000016841F470010160016841F07041016048
:104C5000FFF7B4FE00206060FBF72AFB08480168FC
:104C600041F040410160FBF70FFB00201CBD00003C
:104C700000ED00E071C20F4100E400E07800002088
:104C800034EF00E02DE9FF5F8346DDE90E879946AA
:104C900016468A469000FFF7E5FC05001CD054201C
:104CA000FFF7E0FC040014D00020256384F85100D5
:104CB000CDE90240CDE900874B4632465146584681
:104CC000FFF73AFC2046FFF75FFB012004B0BDE888
:104CD000F09F2846FFF740FE4FF0FF30F6E7F0B5B3
:104CE00085B0DDE90B640A9DA6B1DCB154270097BD
:104CF0002663022684F85160002604AFCDE90246FF
:104D0000CDE90057FFF718FC2046FFF73DFB04985C
:104D100005B0F0BD502080F31188BFF34F8FBFF373
:104D20006F8FFEE7502080F31188BFF34F8FBFF3E2
:104D30006F8FFEE70148C068704700001C0000202C
:104D40002DE9F0412F4C0026206B28B1A069401CB2
:104D5000A0613046BDE8F081E5686D1CE56013D1C7
:104D6000606B006838B1502080F31188BFF34F8F1B
:104D7000BFF36F8FFEE7606BA16B6163A063206A76
:104D8000401C2062FFF74AFCA06ADFF87C80854265
:104D900009D3606B0068A0B1606BC068C7687868B1
:104DA000854211D2A0622068C06A00EB800158F8E9
:104DB0002100012800D90126E0690028C9D0012678
:104DC000C7E74FF0FF30EDE7381DFFF71FFDB86A6A
:104DD00018B107F11800FFF719FDF96A01202269DF
:104DE00088401043206101EB810108EB8100391DEF
:104DF000FFF750FDF86A2168C96A8842C9D30126C5
:104E0000C7E700001C0000200C8900202DE9F047B6
:104E10002C4D00242746286B38B1FFF769FD286B1D
:104E2000401E2863286B40B146E0502080F3118873
:104E3000BFF34F8FBFF36F8FFEE7A968224E0120AB
:104E4000D1B3A6F1B40980463068E8B1F068C4680F
:104E500004F11800FFF7DAFC201DFFF7D7FCE06A29
:104E60002A6908FA00F11143296100EB800109EB7E
:104E70008100211DFFF70EFDE06A2968C96A88429A
:104E8000E2D3C5F81C80DFE70CB1FFF7C7FBAC69C4
:104E900044B14646FFF754FF00B1EE61641EF9D1FC
:104EA0000020A861E86938B108490127380708607F
:104EB000BFF34F8FBFF36F8FFFF73AFD3846BDE862
:104EC000F08700001C000020C089002004ED00E0F5
:104ED00010B500290AD00878002807D00548784482
:104EE000FBF7B4FE002801D0002010BD0248784432
:104EF00010BD0000220900001A09000010B50029A9
:104F00000AD00878002807D005487844FBF79EFEB1
:104F1000002801D0002010BD0248784410BD0000D8
:104F2000120900000A09000021F00042A2F16052BB
:104F3000B2F5801F01F0004328BFD2F17F6C0BD97E
:104F40005FEA001C43EAC20242EB507018BF704790
:104F500028BF20F001007047B2F5801FBCBF184683
:104F600070474FEA410C1CF5001F02D2084600F0C2
:104F700042BB70B500F0B0FA00000089FFF7F6BF41
:104F80004FF00040A0F580007047000002494FF04C
:104F9000000000F035BB00BF0000F87F491058BF8B
:104FA000C1F140415B1058BFC3F140438B42EFF366
:104FB000008070472DE9C04130B4DFF8A0C23CEA60
:104FC000111418BF3CEA131400F0EC8081EA0305C9
:104FD0001CEA111444EAD57418BF1CEA131500F03A
:104FE000C780A4EB05044FF0004545EAC12145EA1E
:104FF000C32341EA505143EA525304F17F7499426A
:1050000004F500344FEAC0204FEAC22208BF9042A4
:1050100000F09C804FEA13650FF24016765D4FEA70
:10502000134506FB05F7C7F1807706FB07F74FEA44
:10503000D737A7FB03687642C8F58038A7FB06CEB2
:1050400038BFA8F1010807FB08E64FF0000EA6FBE9
:10505000028CE6FB03CEDCF1000CCEF1004E38BF33
:10506000AEF1010EA6FB0C584FF000074FF0000503
:10507000E6FB0E87A1FB08C6A0FB07CE16EB0E06CB
:1050800045F10005E1FB076515F1E04E7EBFA4F593
:1050900080345FEA46066D4116F1800745F1000550
:1050A0004FEA17274FEA066647EA0567A6F1DE468C
:1050B000B6F1805F4FEA15251FD9384624F0010C60
:1050C00005EBC471BCF1FE6F01EB0C1102D8F0BC12
:1050D000BDE8008124425CBF01F5801E9EEAC47FCA
:1050E00002D4F0BCBDE80081244238D4F0BCA1F168
:1050F000C041BDE8004100F03DBA4FEAD22242EA89
:1051000043524FEAD323A7FB02864FEAD02040EA5E
:10511000415007FB03661EEA0E0F4FEAD12105FB43
:10512000026658BFA6EB0056B6EB00564FEA520E89
:105130004EEAC37E18EB0E0E56EB530EBDD518EBA0
:1051400002085E417F1C55F10005B6E74FF480155B
:105150004FF000074FF000064FF00008ADE7F0BC3D
:105160004FF0000001F1C04101F00041BDE80081B5
:1051700011EA0C1F0CEA131500D00CE013EA0C1F07
:1051800000F025804FF00000F0BC81EA030101F03F
:105190000041BDE80081F0BCBDE8004181EA0301A7
:1051A00000F0E8B9F0BCBDE8004170B500F094F93A
:1051B000097EFC3E00F007B881EA03014FF00000D1
:1051C00001F00041704781EA030100F0D3B9F0BC5F
:1051D000BDE800414FF0000021497047FFFDFBF999
:1051E000F7F5F4F2F0EEEDEBE9E8E6E4E3E1E0DE1A
:1051F000DDDBDAD8D7D5D4D3D1D0CFCDCCCBCAC88C
:10520000C7C6C5C4C2C1C0BFBEBDBCBBBAB9B8B7B2
:10521000B6B5B4B3B2B1B0AFAEADACABAAA9A8A8A5
:10522000A7A6A5A4A3A3A2A1A09F9F9E9D9C9C9B73
:105230009A9999989797969595949393929191901E
:105240008F8F8E8E8D8C8C8B8B8A898988888787AF
:105250008685858484838382828181800000FF0724
:105260000000F87F51EA030C17D41CF5801F58BFCB
:10527000BCF5801F00F10680994218BF704708BF37
:105280009042704707D711F5801F58BF13F5801F54
:1052900019D499427047894270471CF5801F08D580
:1052A000BCF5801FF7D58B4218BF704708BF8242FC
:1052B00070474FF4001C1CEB410F38BF1CEB430F31
:1052C00001D28B42704770B500F006F99224490074
:1052D0004FF000514FF08053FFF760BE10F00042D6
:1052E00048BF4042B0FA80F310FA03F10AD0C3F18C
:1052F0001D0303F580634FEA415002EB035202EBBA
:10530000D12170474FF000007047000051EA030CB4
:1053100017D41CF5801F58BFBCF5801F00F1068014
:10532000994218BF704708BF9042704707D711F5E0
:10533000801F58BF13F5801F19D4994270478942C6
:1053400070471CF5801F08D5BCF5801FF7D58B4230
:1053500018BF704708BF824270474FF4001C1CEB17
:10536000410F38BF1CEB430F01D28B42704770B521
:1053700000F0B2F8922449004FF000514FF08053F2
:10538000FFF70CBEDFF848C170B51CEA111E1EBF46
:105390001CEA13159EEA0C0F95EA0C0F00F06F80C3
:1053A00081EA030423EA4C134EEAD47E21EA4C112D
:1053B00041F4801143F48013AE44A1FB024CA0FBE6
:1053C0000365AEF17F7E361955EB0C05A1FB034C4E
:1053D0004CF10003A0FB021C16EB0C06654153F1D7
:1053E0000003094218BF46F0010613F4007F0BD1F9
:1053F0004FEA03314FEA0530340341EA155140EAE0
:1054000016506FF003020AE04FEAC3214FEAC520AD
:10541000F40241EA555140EA56506FF0020202EBA5
:105420002E4201EB025585EACE710AD05FEA440CA8
:1054300018BF24F0004450F1000041F1000120EABF
:10544000D47040F2FE7C624500D270BDA84214BF09
:105450004FF080444FF04044002E08BF0024BEF1BE
:10546000806FA8BFA1F1C041BDE8704080F282808A
:105470004FF0000001F1C04101F0004170479EEA89
:105480000C0F0CEA131518BF95EA0C0F06D04FF05D
:10549000000081EA030E0EF0004170BD00F01CF820
:1054A0008900013E00F007B800F009B84FEA430C4C
:1054B0005FEA5C5C08D081EA030100F05BB84FEA68
:1054C000410C5FEA5C5CF6D14FF000000149704787
:1054D0000000FF070000F87F0EF1020E2EF0030E11
:1054E0005EF8046B364205D4012A43EB030515F53B
:1054F000001F12D8012841EB010C1CF5001F0CD82D
:105500000ED14FEAD17C15F5001F0CEB4C0C0CF1C1
:10551000020C08BF4CEBD37C04E04FF0080C01E018
:105520004FEAD37C0CEB4C0526FA05F606F007068D
:10553000B6F1040C06D20EEB860CBDE870404CF0C0
:10554000010C6047DFE80CF0090B02024FF000414C
:105550004FF00000A1F5002170BD1946104601284A
:1055600051EB010418BFD4F5001484BF002001F0F2
:10557000004170BD0808A0F500114FEA31017047E5
:1055800053EA010C17D41CF5801F58BFBCF5801FCF
:1055900000F106808B4218BF704708BF82427047F7
:1055A00007D713F5801F58BF11F5801F19D48B4200
:1055B00070479B4270471CF5801F08D5BCF5801FC3
:1055C000F7D5994218BF704708BF904270474FF413
:1055D000001C1CEB430F38BF1CEB410F01D299425A
:1055E00070470FB40CBC03BCFFF7C1BE4FF0407056
:1055F000E1EE100A7047FF2141EAD050C005704724
:105600000CF00F03092B08BF082000F05F800A2B65
:105610000BD0082B18BF704708BF1CF0400F0AD0F2
:105620004FF000004FF0000170471CF0400F18BF12
:105630004FF0004070471CF0100F08D020F070436E
:1056400000F07F4242EAD3014FEA4370704700F016
:10565000604021F07F4242EA000201F07F4040EAD0
:10566000727070474FF0FF0C4CF4E06C1CEA115361
:105670001CBF9CEA030C9445C2BFDA4201EB025105
:105680007047002B0DD0BCF1000F0FD0002A01F0A5
:105690000041A4BF41F0E04141F07F614FF00000C4
:1056A000704701F000414FF00000704750EA0133AD
:1056B0004FF09B0C18BF4CF0806C7FF467AC7047C8
:1056C000FBF766B9FBF77ABBFBF708BD1CF4801F3C
:1056D00011D01CF4E02F03D06FEACC3149007047A1
:1056E0004FF04050EFF3008222F0704242EA000295
:1056F00082F3008870474FF000007047C4570008DD
:10570000DF390008010000000000000080000000F8
:105710000000000000000000000000000000000089
:105720000102030406070809000000000102030447
:1057300002400000000000A0000000000540000042
:10574000000000C8000000000C4000000000409C69
:1057500000000000194000000020BCBE0000000056
:1057600034400000BFC91B8E00000004B54000009B
:10577000504BCFD06607E2CF010000006C41000023
:105780003E8251AADFEEA73401000000D94200009A
:10579000DCB5A0E23A301F97FFFFFFFFB4450000E1
:1057A000FD25A0C8E9A3C14FFFFFFFFFFF3F000099
:1057B0000000008000000000FF3F000000000080AB
:1057C00000000000764D6F74746F724F75747075C1
:1057D000745461736B0000002C5900080000002015
:1057E00084000000E8010008B0590008840000208F
:1057F000DCCB000004020008000000000000F07F85
:105800001C00000043000000F8FFFFFF0C00000038
:105810000E0000000F0000002E000000100100002C
:1058200043000000F8FFFFFF004040404040404080
:105830004040414141414140404040404040404063
:105840004040404040404040400502020202020207
:105850000202020202020202022020202020202056
:10586000202020020202020202029090909090906A
:105870001010101010101010101010101010101028
:10588000101010100202020202028888888888889C
:105890000808080808080808080808080808080888
:1058A0000808080802020202400000000000000090
:1058B00000000000000000000000000000000000E8
:1058C00000000000000000000000000000000000D8
:1058D00000000000000000000000000000000000C8
:1058E00000000000000000000000000000000000B8
:1058F00000000000000000000000000000000000A8
:105900000000000000000000000000000000000097
:105910000000000000000000000000000000000087
:105920000000000000000000000000000000000077
:105930000000000000000000010000001000000056
:10594000000000000024F40000000000000000003F
:105950000000000000000000000000000000000047
:105960000000000000000000000000000000000037
:105970000000000000000000000000000000000027
:105980000000000000000000000000000000000017
:105990000000000000000000000000000000000007
:1059A0000000000000000000AAAAAAAA000000004F
:04000005080001AD41
:00000001FF
