:020000040800F2
:10000000B84F002081020008672C00082D29000845
:10001000652C0008990E00080D3100080000000052
:10002000000000000000000000000000C101000806
:10003000DD0E0008000000001D020008472D00082A
:100040009B0200089B0200089B0200089B0200081C
:100050009B0200089B0200089B0200089B0200080C
:100060009B0200089B0200089B0200089B020008FC
:100070009B0200089B0200089B0200089B020008EC
:100080009B0200089B0200089B0200089B020008DC
:100090009D0E00089B0200089B0200089B020008BE
:1000A0009B0200089B0200089B0200089B020008BC
:1000B0009B0200089B0200089B0200089B020008AC
:1000C0009B0200089B0200089B0200089B0200089C
:1000D0009B0200089B0200089B0200089B0200088C
:1000E0009B0200089B0200089B0200089B0200087C
:1000F0009B0200089B0200089B0200089B0200086C
:100100009B0200089B0200089B0200089B0200085B
:100110009B0200089B0200089B0200089B0200084B
:100120009B0200089B0200089B0200089B0200083B
:100130009B0200089B0200089B0200089B0200082B
:10014000A90E00089B0200089B0200089B02000801
:100150009B0200089B0200089B0200080131000876
:100160009B0200089B0200089B0200089B020008FB
:100170009B0200089B0200089B0200080000000090
:100180009B0200089B0200089B0200089B020008DB
:100190009B0200089B0200089B0200089B020008CB
:1001A00000000000000000009B020008DFF80CD0F7
:1001B00000F096FB00480047E5420008B84F0020D9
:1001C0002C4B19680868B0E8F04F80F30988BFF33A
:1001D0006F8F4FF0000080F311887047000000001F
:1001E00008480068006880F308884FF0000080F33A
:1001F000148862B661B6BFF34F8FBFF36F8F00DF15
:1002000000BF00BF08ED00E0DFF80C00016841F41A
:1002100070010160704700BF88ED00E0EFF30980D6
:10022000BFF36F8F134B1A681EF0100F08BF20ED3D
:10023000108A20E9F04F106009B44FF0500080F3AD
:100240001188BFF34F8FBFF36F8F05F0C9F94FF0DF
:10025000000080F3118809BC19680868B0E8F04F05
:100260001EF0100F08BFB0EC108A80F30988BFF3AE
:100270006F8F704734000020EFF305807047000057
:100280000648804706480047FEE7FEE7FEE7FEE730
:10029000FEE7FEE7FEE7FEE7FEE7FEE7FD2D0008CE
:1002A000AD0100082DE9F05F0546002092469B460F
:1002B00088460646814640241BE02846414647467C
:1002C000224600F008FA53465A46C01A914110D30C
:1002D00011461846224600F0EFF92D1A67EB010887
:1002E0004F4622460120002100F0E6F917EB0009F5
:1002F0004E41201EA4F10104DFDC484631462A4667
:100300004346BDE8F09F40EA01039B0703D009E0A4
:1003100008C9121F08C0042AFAD203E011F8013BF1
:1003200000F8013B521EF9D27047D2B201E000F84A
:10033000012B491EFBD270470022F6E710B5134689
:100340000A4604461946FFF7F0FF204610BD2DE986
:10035000FE4F804681EA0300C00F0C46009021F05A
:10036000004123F00045B8EB0200A94105D2404608
:10037000214690461C460B46024623F0004010439F
:1003800047D0270DC7F30A00C3F30A510290401A61
:10039000019040286BDAC3F3130040F4801B0098EF
:1003A000924620B10023D2EB030A63EB0B0B0198BA
:1003B0005946C0F14002504600F07EF906460D460F
:1003C00050465946019A00F096F910EB0800614139
:1003D000002487EA115284EAE7731A4340D0009A56
:1003E00062B3019A012A4FEA075215DC001B61EB48
:1003F00002014FF0004202EA0752CDE90042001C20
:1004000041F5801132462B4600F01CFA03B0BDE8DE
:10041000F08F40462146F9E7001B61EB0201001C0A
:1004200041F5801300185B412018A2F5001747EB37
:10043000030140EAD570B6196D4111E06D084FEA2D
:10044000360645EAC0754FEA0752001B61EB020110
:10045000001C41F5801149084FEA30000019514154
:1004600032462B4603B0BDE8F04F00F0DCB90098EF
:10047000012240000023D0EB020263EBE0730098FE
:1004800021464FEAE074B8EB000061EB0401E9E7B4
:1004900083F000435BE781F0004158E72DE9FE4F10
:1004A00081EA030404F0004421F0004100944FF07D
:1004B000000B23F0004350EA01045ED052EA03042B
:1004C0005BD0C3F30A54C1F30A552C44A4F2F334AD
:1004D0000194A0FB0254C1F3130141F48011C3F352
:1004E000130343F4801301FB024400FB034E840A10
:1004F000970A44EA815447EA8357A4FB07680295A8
:100500008D0A05FB07854FEA932C04FB0C54270545
:10051000029D4FEA065847EA1637B5EB08056EEB21
:10052000070C870E920E47EA811742EA8312A7FB57
:100530000201B6EB0B0164EB00042B0D43EA0C3314
:100540005E1844EB1C50DA465146E7FB0201C5F346
:1005500013044FEA0B3343EA14534FEA0432019C6D
:1005600043EA0603A4F10C040294009CCDE900B414
:1005700000F068F903B0BDE8F08F00200146F9E70C
:100580002DE9F04D81EA030404F0004B21F0004511
:1005900014464FF0000A23F0004150EA050220D033
:1005A00054EA01021DD0C5F30A570246C5F31303EE
:1005B000C1F31300C1F30A5640F4801543F48013CD
:1005C000A7EB0608101BD64608F2FD3873EB0500B2
:1005D00002D308F1010801E092185B41B8F1000F65
:1005E00003DA00200146BDE8F08D00204FF48011B1
:1005F000064684460EE0171B73EB050705D3121B56
:1006000063EB050306434CEA010C49084FEA30004E
:1006100092185B4150EA0107EDD152EA030012D073
:1006200082EA040083EA0501084305D0101BAB41B0
:1006300006D20122002306E000224FF0004302E030
:100640006FF0010253101AEB06004CEB085110EB4F
:100650000A0041EB0B01BDE8F04D00F0E4B80EB527
:10066000C10F80EAE0700844CA07002140F233431A
:100670008DE80E000A460B4600F0E4F803B000BD1A
:1006800001F0004330B421F0004150EA010206D0ED
:100690000A0DA2F56072C1F31301002A02DC30BC1E
:1006A00000207047440F44EAC104C100E01830BC88
:1006B00000EBC25000F080B8202A04DB203A00FA98
:1006C00002F1002070479140C2F1200320FA03F3A9
:1006D000194390407047202A04DB203A21FA02F0A7
:1006E0000021704721FA02F3D040C2F1200291406C
:1006F000084319467047202A06DBCB17203A41FAF7
:1007000002F043EAE07306E041FA02F3D040C2F19E
:100710002002914008431946704700000FB400239F
:1007200000B589B00CA900910B996FF00042CB6025
:100730001E4B06931E4B07930423CDE901321D4A3D
:10074000089202466B46002000F062F909B05DF89D
:1007500014FB70B586B006464FF0FF300091CDE92E
:100760000101002015460C4604903246694604A853
:10077000FFF7D4FF02460498211825B108B10846B6
:1007800000E020462860049800280DD0002A02DDF1
:100790000098884208D0081B0094CDE90104324635
:1007A000694604A8FFF7BAFF06B070BD490C0008FF
:1007B000670C0008050900080029A8BF7047401C05
:1007C000490008BF20F00100704710B4B0FA80FC67
:1007D00000FA0CF050EA010404BF10BC704749B1A4
:1007E000CCF1200421FA04F411FA0CF118BF012114
:1007F00021430843A3EB0C01CB1D4FEA00614FEAF4
:10080000102042BF002010BC704700EBC3501044C2
:100810000029A4BF10BC7047401C490008BF20F04D
:10082000010010BC704710B5141E73F1000408DA03
:10083000401C41F1000192185B411A4301D120F0A4
:10084000010010BD2DE9F04D92469B4611B1B1FA61
:1008500081F202E0B0FA80F220329046FFF72CFFDE
:1008600004460F4640EA0A0041EA0B0153465A4645
:10087000084313D0114653EA010019D0C8F14002D1
:100880005046FFF728FF05460E4650465946424659
:10089000FFF712FF084305D0012004E02046394647
:1008A000BDE8F08D0020054346EAE0762C4337434F
:1008B0000A986305E40AA0EB08000022FD0A44EA56
:1008C00047540A3002D500200146E9E70105101916
:1008D0006941DDE9084500196941BDE8F04DA2E72D
:1008E000064C074D06E0E06840F0010394E807007D
:1008F00098471034AC42F6D3FFF75CFC5462000812
:1009000074620008C0B24FF4F05100F0E9B9000081
:100910002DE9FF4F087881B09946FF2805D0491C82
:100920002D2804D00024002308E000230BE001243C
:10093000F9E703EB830300EB4303491C0878FF2826
:10094000F7D104B15B4200200090147801462D2CB1
:1009500001D02B2C04D1521C2D2C12D00024009439
:1009600000251678FF2E0ED00A24A0FB04C801FB38
:100970000481002700FB0711521C16EB0C00694193
:10098000EFE70124EBE7994450EA01020ED000247E
:10099000AA4D2646DFF8A88200F0B6F982468B46BB
:1009A000B9F1000009DAC9F100071BE00198002144
:1009B000C0E9001105B0BDE8F08F074612E0F80766
:1009C00007D022462B4630464146FFF767FD0646D4
:1009D000884622462B4610461946FFF75FFD04461F
:1009E0000D467F10002FEAD1B9F1000F3246434681
:1009F0005046594602DAFFF7C3FD01E0FFF74EFD0E
:100A0000009A0AB181F00041019AC2E90001D1E7E0
:100A10002DE9FF4F1F468DB0D7E901464FF0FF3853
:100A20002E2045464FF000090B90B9696D1C0E98B9
:100A30008847396A824688470028F6D1BAF1FF3FD5
:100A40000AD024F4D064002E11DDBAF12B0F08D0A7
:100A5000BAF12D0F0BD102E0404611B0ABE744F4E0
:100A60008064B9696D1C0E9888478246761E694677
:100A7000600501D52D2000E02B208DF8000001F14C
:100A8000010B0DF1200809E0B9696D1C0E9888472B
:100A900082460F9844F40074761E0560002E02DD35
:100AA000BAF1300FF0D00B998A453ED144F0800462
:100AB00006E00F99681CA9F1010944F4007408606C
:100AC000B9696D1C761E0E98884782463028F0D092
:100AD0002BE00B998A4505D1200603D444F080040D
:100AE000761E18E0504603F0A1FA08B30DF1130189
:100AF000761E44F400748B4508D2AAF130000BF83E
:100B0000010B200607D5A9F1010003E0200602D45D
:100B100009F101008146A00502D50F99681C086003
:100B2000B9696D1C0E9888478246002ED1DC53E0CF
:100B3000002E51DDBAF1650F02D0BAF1450F4BD14D
:100B4000A00549D5B9696D1C24F44074761E0E9831
:100B500088478246002E0CDD2B2804D0BAF12D0FD9
:100B600007D144F48074B9696D1C0E988847824699
:100B7000761EE00501D52D2100E02B2108F8011B90
:100B8000CDF82C8021E00DF12901761E44F400748B
:100B900088450CD2AAF1300010F0FF0088F8000060
:100BA00002D10B99884509D908F1010806E0E00552
:100BB00001D5244801E042F20F708146B9696D1CED
:100BC0000E98884782460F980560002E04DD504637
:100BD00003F02CFA0028D6D1F9690E988847FF2037
:100BE0008BF8000088F800000020069007904B4624
:100BF0006A4608A906A8FFF78BFEA00502D46FF08D
:100C000001002AE714F0240F0AD0E00714D1DDE92F
:100C100006123868031D3B600068C0E900120BE053
:100C2000DDE90601FFF72CFD0146E00704D1386835
:100C3000021D3A600068016028460EE7000024406B
:100C40000000F03FF1D8FFFF426842B1016811F89F
:100C5000013B23B1521EC0E9001218467047012122
:100C6000C160881E704742685AB1C368016843B9C1
:100C700083688B4205D0491E521CC0E90012002037
:100C800070474FF0FF3070470EB540F2334102918C
:100C90000021CDE900110A460B46FFF7D3FD03B052
:100CA00000BD70B5C1F30A5201F000450024C1F344
:100CB000130140F2FF3341F480119A4201DA00201F
:100CC00070BD40F233439A42A2F2334203DC5242F7
:100CD000FFF701FD00E090402C43F1D0404270BD91
:100CE0007F2801D9002208E0064A02EB5002C00723
:100CF000127800D1120902F00F0201209040084042
:100D000070470000F86100080EB540F233420292CD
:100D10000022CDE900221346FFF794FD03B000BD89
:100D200008B504F0DFFF00900121684604F084FB61
:100D3000FAE70000DFED060A90ED120AB1EE042A90
:100D4000F2EE041AB0EE601A084603F0C2BA0000D0
:100D500000000000D0ED102A90ED012AD0ED051A18
:100D600032EEC11A02EE410A90ED121A90ED022AFB
:100D700071EE600A02EE600A90ED002AC0EE020AEF
:100D8000C0ED080A90ED130A00EEA10A80ED130AE7
:100D9000D0ED140A40EE210AC0ED140A31EE200A0B
:100DA00080ED120A7047000080EC030A4FF47A725B
:100DB000C26091ED5F0A80ED040A9FED0F0A80ED9D
:100DC000050A9FED0E0A80ED060AD1ED090AC0ED75
:100DD000070AD1ED080A0121C0ED120A80ED100AC0
:100DE00080ED130A80ED140A80ED0E0AC0F8AC10F5
:100DF0004162543000F090B86F12833A0000000056
:100E000091ED100A0B46B5EEC00AF1EE10FA01D1D1
:100E100090ED000A80ED000A93ED110AB5EEC00ACC
:100E2000F1EE10FA01D190ED010A80ED010A93ED87
:100E3000120AB5EEC00AF1EE10FA01D190ED020AE5
:100E400080ED020A93ED130AB5EEC00AF1EE10FA36
:100E500001D190ED0E0A80ED0E0A93ED140AB5EE65
:100E6000C00AF1EE10FA01D193ED1B0A83ED1B0AC3
:100E700093ED150A10EE100A10F1814F03D192ED97
:100E8000610AB8EEC00A182103F14000BDEEC00AA5
:100E900082ED610AFFF750BAFEE70000014800F05A
:100EA000B8B900008C070020014800F0B2B900007A
:100EB000B407002000B589B06B460192002202926F
:100EC00003920492082205920A68079249680891E1
:100ED00007AA01A900F03EF809B000BD7047000064
:100EE0001CB5044607A12246D1E90001CDE9000165
:100EF00069460648FFF7DEFF224669460448FFF7C9
:100F0000D9FF1CBDFFFFFFFFFFFFFFFC8C07002088
:100F1000B407002072B6FEE700219FED040A0165C8
:100F200080ED150A5021FFF707BA0000000000000D
:100F300090F82020012A07D0022A05D0416A41F406
:100F40008021416201207047006842690A43426182
:100F500000207047F0B590F820500468A468012D77
:100F600005D0022D03D0416A41F4802153E014F0F2
:100F7000406F01D1E5004BD5C4F30164022C03D9C5
:100F8000416A41F4000146E00125A5401D608D68DD
:100F90004FF4C0739DB1CE6835434E6845EAC6052F
:100FA000066803EB0417F5514FF4C275076805EBAB
:100FB00004150E697E51097D012905D009E00E88CE
:100FC000CD6845EA4655EBE701684E5946F4807610
:100FD0004E511179D2F805504FF4C67641EA0525F5
:100FE000016806EB04168D511178D2F801204FF4F8
:100FF000C47541EA0221026805EB041551510068ED
:1010000003EB0411425842F0010242500020F0BDAF
:10101000416A41F4001141620120F0BD10B590F821
:101020002020012A07D0022A05D0416A41F48021FC
:101030004162012010BD3B48D0F8002242F001027D
:10104000C0F80022D0F8002222F47C52C0F800221E
:10105000D0F800224B6A42EA0322C0F800220A7D3F
:1010600002F01F0301229A40D0F81C329343C0F8CB
:101070001C32CB69B3B9D0F80C329343C0F80C32B0
:101080008C894B6864F31F434C6900EBC404C4F8BB
:1010900040320C890B6864F31F434C6900EBC404B5
:1010A000C4F84432CB69012B16D1D0F80C3213436B
:1010B000C0F80C320C884B6864F31F434C6900EB9A
:1010C000C404C4F840320C89CB6864F31F434C69F4
:1010D00000EBC404C4F844328B69002BD0F804320E
:1010E0000ED01343C0F804320B69002BD0F8143231
:1010F00008D01343C0F81432096A012904D008E06B
:101100009343EFE79343F5E7D0F81C121143C0F87F
:101110001C12D0F8001221F00101C0F800120020CA
:1011200010BD000000640040704730B590F82040CA
:10113000012C05D0022C03D0416A41F480215DE0EE
:101140000468002955D02469A40754D04FF4D874FA
:10115000056804EB01142D5915F004059560056828
:101160002D594ED0ED08556005682C5904F0020445
:10117000D4604FF4DA74056804EB01142D5905F0BE
:101180000F05156105682D59C5F30725956105689B
:101190002C59240C54614FF4DC72046802EB0112E8
:1011A000A4581C700468A458240A5C700468A458ED
:1011B000240C9C700468A258120EDA704FF4DE7290
:1011C000046802EB0112A4581C710468A458240A94
:1011D0005C710468A458240C9C710468A258120E17
:1011E000DA71006881B1016941F0200101610020DC
:1011F00030BDE468A8E7416A41F400114162012072
:1012000030BD6D0D1560AFE7C16841F02001C160D0
:10121000EDE72DE9F05F0546006800244669D0F847
:1012200004908768D0F80CB0D0F810A0D0F81880DF
:10123000F10748D0F90714D001218160B80703D520
:10124000284600F086FA0CE0780702D54FF40064D7
:1012500007E0380702D54FF4805402E0284600F03A
:1012600077FAF80516D529684FF480708860B805BC
:1012700003D5284600F06FFA0CE0780502D544F457
:10128000005407E0380502D544F4804402E02846C3
:1012900000F060FAF80316D529684FF480308860B2
:1012A000B80303D5284600F058FA0CE0780302D5BD
:1012B00044F4004407E0380302D544F4803402E0EB
:1012C000284600F049FA300707D55FEACB6004D51D
:1012D0002968102044F40074C86070074FF00807B4
:1012E00007D55FEA0B7004D52868C760284600F070
:1012F00099F9B00706D52868C068800702D028464B
:1013000000F092F9700607D55FEACA6004D5296833
:10131000102044F480640861B00607D55FEA0A70C3
:1013200004D528680761284600F0E2F9F00606D5E2
:1013300028680069800702D0284600F0DAF9B00377
:1013400008D55FEAC96005D529681020486028469D
:1013500000F0D0F9F00307D55FEA097004D52868DA
:101360004760284600F0FAF9300446D55FEA497034
:1013700040D5F00504D55FEAC87001D044F00104FF
:10138000B00504D55FEA887001D544F00204700509
:1013900004D55FEA487001D544F00404300529D52E
:1013A00018F0700F26D008F07000402815D006DC29
:1013B000102809D020280AD0302816D10AE0502859
:1013C0000ED0602811D10EE044F008040DE044F086
:1013D00010040AE044F0200407E044F0400404E074
:1013E00044F0800401E044F480742868816921F0AD
:1013F00070018161296804204860002C05D0686A6A
:10140000204368622846FFF78FFEBDE8F09F70B565
:10141000040003D094F8200010B104E0012070BD56
:10142000204600F081F82068016841F00101016068
:1014300000F048FB0546052604E000F043FB401B96
:101440000A2811D820684068C007F6D020680168D3
:1014500021F00201016000F035FB05460BE000F0D1
:1014600031FB401B0A2806D9606A40F400306062F4
:1014700084F82060D2E7206840688007EFD4207E9F
:101480000128206801683DD021F080010160607E64
:1014900001282068016838D021F040010160A07E59
:1014A00001282068016833D021F020010160E07E2E
:1014B0000128206801682ED041F010010160207FD2
:1014C00001282068016829D021F008010160607FAF
:1014D00001282068016824D021F004010160D4E9CA
:1014E00002010843D4E90412114308436168491E0C
:1014F00008432168C86100206062012084F8200050
:10150000002070BD41F08001C0E741F04001C5E717
:1015100041F02001CAE721F01001CFE741F00801B6
:10152000D4E741F00401D9E7F0B587B004461421AF
:101530006846FEF701FF364B3648DFF8D0E0196801
:10154000D4F800C0334A03250226092710300024AE
:10155000491CF44522D11960012907D1016841F0E5
:1015600000710160006800F000700590106840F0A4
:10157000080010601068CDE9005600F00800CDE9C1
:10158000047069462448CDE9024500F07BF9002249
:101590000521142000F008FB142033E0DFF87CE084
:1015A000F44531D1D0F800C04CF0806CC0F800C0D8
:1015B000D0F800C001290CF0806CCDF814C019607F
:1015C00007D1016841F000710160006800F000700F
:1015D0000590106840F002001060106802AB00F047
:1015E000020005904FF44050CDE9000683E8B000BA
:1015F00069460B4800F046F900220521402000F022
:10160000D3FA402000F0C2FA07B0F0BD00640040F9
:101610001800002030380240000C024000680040F2
:1016200000040240704700002DE9F0412D492D4C87
:10163000064600680968303C2B4D04F11C038842C3
:1016400020D1224600213046FFF76FFDE8BB207F06
:10165000012840D1214605F1140003F075FD002456
:1016600005EB840704EB440005EBC00097ED050A89
:1016700000F59A7001F072F9641C87ED080A032CDA
:10168000EEDB28E0174928310968884223D1154A42
:101690000021303A3046FFF748FDB0B9207F0128DD
:1016A00019D110491148303903F04EFD5FF00004A4
:1016B00005EB840704EB440005EBC00097ED690AD5
:1016C00000F5317001F04AF900E004E0641C87ED98
:1016D0006C0A032CECDB3046BDE8F0410221FFF739
:1016E00027BC00008C07002040080020E4090020EF
:1016F000704770477047000070B5044690F82000AE
:10170000012804D0606A40F40020606218E00220E2
:1017100084F820002068016821F00101016000F0D8
:10172000D1F905460EE000BF00F0CCF9401B0A28B5
:1017300008D9606A40F400306062052084F8200017
:10174000012070BD20684068C007EDD1606270BDA7
:10175000704770477047704770477047704710B5C3
:10176000040002D0607910B106E0012010BD002015
:101770002071204600F004F801206071002010BDA7
:1017800008B500680649884208D10648016841F456
:1017900080510160006800F48050009008BD000096
:1017A00000300240303802402DE9F0410446876D98
:1017B00000F088F9064694F835000025022806D086
:1017C0008020606584F834500120BDE8F0812068F5
:1017D000016821F0160101602068416921F0800153
:1017E0004161206C08B9A06C20B12068016821F02B
:1017F000080101602068016821F0010101600CE02E
:1018000000F060F9801B052807D9202060650320BF
:1018100084F8350084F83450D7E720680068C007A2
:10182000EED194F85C103F208840B860012084F825
:10183000350084F834500020C7E790F835100229AD
:1018400003D08021416501207047052180F83510C3
:101850000068016821F0010101600020704700006C
:1018600070B5044600F02EF90546601C02D004480D
:101870000078044400F026F9401BA042FAD370BD62
:10188000240000202DE9F84FDFF8F8A10022012400
:1018900003254FF00F090AF1040BAAF1040E00BF53
:1018A0000B6804FA02F63340B34270D10F7907F0A7
:1018B0000307012F01D0022F16D187684FEA420893
:1018C00005FA08FC27EA0C07D1F80CC00CFA08FC52
:1018D0004CEA070CC0F808C04768B7430E79C6F356
:1018E000001696403E4346600E79F643B6070AD08E
:1018F000C7684FEA420C05FA0CF6B7438E6806FA41
:101900000CF63E43C6600E7906F00306022E10D197
:10191000D60800EB8608D8F8206057074FEAD76C46
:1019200009FA0CF7BE430F6907FA0CF73743C8F8FA
:10193000207006684FEA420C05FA0CF7BE430F7997
:1019400007F0030707FA0CF7374307604E6816F4F1
:10195000403F1CD04C4E376847F4804737603668AC
:1019600022F0030706F480460096484E07EB060C6B
:10197000DCF8086897073F0F09FA07F826EA080617
:10198000DFF80C81404503D14FF0000841E072E0E0
:10199000DFF80081404502D14FF0010839E0DFF85F
:1019A000F880404502D14FF0020832E0DFF8EC80C9
:1019B000404502D14FF003082BE0DFF8E4804045BA
:1019C00002D14FF0040824E0DFF8D880404502D16E
:1019D0004FF005081DE0DFF8D080404502D14FF000
:1019E000060816E0DFF8C480404502D14FF0070832
:1019F0000FE0DFF8BC80404502D14FF0080808E056
:101A0000DFF8B080404502D14FF0090801E04FF007
:101A10000A0808FA07F848EA0608CCF80888DAF84D
:101A200000605746D1F804C09E435FEACC2C00D535
:101A30001E433E60DBF800605F46D1F804C09E4361
:101A40005FEA8C2C00D51E433E60DEF800607746CE
:101A5000D1F804C09E435FEA8C3C00D51E433E6033
:101A6000084F083F3E68D1F804C09E435FEACC3C73
:101A700000D51E433E60521C102AFFF411AFBDE892
:101A8000F88F0000083C014044380240003001401B
:101A9000000002400004024000080240000C024026
:101AA000001002400014024000180240001C0240D6
:101AB00000200240002402400AB1816170470904FD
:101AC000FBE7000001488068704700002400002008
:101AD0000248816802781144816070472400002028
:101AE0000B4810B5016841F400710160016841F4D0
:101AF00080610160016841F480710160032000F0A1
:101B000073F80F2000F006F800F024F8002010BD54
:101B1000003C024070B50D4D04464FF47A712878B0
:101B2000B1FBF0F00A490968B1FBF0F000F0B9FC34
:101B300048B9102C07D200222146501E00F034F87C
:101B400000206C6070BD012070BD000024000020EA
:101B5000300000200C4882B0016841F480410160EF
:101B6000006800F4804000900748001F016841F0C1
:101B7000805101600068002200F0805000900F2129
:101B8000901E02B000F010B844380240002809DB73
:101B900000F01F02012191404009800000F1E02087
:101BA000C0F8001170470000F0B40E4B1B680C46E3
:101BB000C3F30223C3F10705042D00D90425191D21
:101BC000072901D2002300E0DB1E012606FA05F1F9
:101BD000491E214099409E40761E16403143F0BC7C
:101BE00001F0C0BA0CED00E0064900F007020868F9
:101BF0004FF6FF03184040EA0220034A10430860F2
:101C0000704700000CED00E00000FA052DE9F84FE8
:101C100004460068DFF824A2894F8A4DC1074FF0BF
:101C200001084FF0000603D1810701D4400648D5D2
:101C3000CAF86860FFF746FF814605E0FFF742FFFC
:101C4000A0EB090002287DD828680001F6D420788E
:101C5000C1077D4805D06168227A890141EA027195
:101C600001602178890711D501686268237B9201A0
:101C7000C1F3027142EA036242EA0171016039680C
:101C8000E26921F01F01521E114339602178490693
:101C900008D56168227B890141EA0261227A41EA22
:101CA00002710160CAF86880FFF70CFF814605E009
:101CB000FFF708FFA0EB0900022843D828680001BD
:101CC000F6D52068410701D400074ED5CAF87060E8
:101CD000FFF7F8FE814605E0FFF7F4FEA0EB0900F0
:101CE00002282FD82868C0438000F5D52078410706
:101CF000564814D501682269237D9201C1F302710F
:101D000042EA036242EA017101603968226A6FF0B7
:101D1000FF0321F4F85103EB0222114339602178CB
:101D2000090712D501682269C1F30361920142EAF1
:101D30000161227E41EA027101603868616A20F423
:101D4000403000E051E008433860CAF87080FFF787
:101D5000B9FE074605E000BFFFF7B4FEC01B02282E
:101D600043D82868C0438000F6D42078800653D535
:101D700034484030016841F0805101600068344DC2
:101D800000F080500090286840F480702860FFF7D1
:101D900099FE074605E000BFFFF794FEC01B02282E
:101DA00023D82868C005F7D5274D143D286810F4BE
:101DB000407020D0218D01F4407181421BD02868F1
:101DC00020F440712348C0F800800660296028682C
:101DD000C00710D0FFF776FE064641F2883707E0CD
:101DE000FFF770FE801BB84202D90320BDE8F88FD0
:101DF00028688007F4D5A16A1248C1F3012208308F
:101E0000032A13D0016821F4F81101602868218D9C
:101E1000C1F30B01084328602078C00604D50E49A1
:101E200094F82C00C1F8E0010020DFE702680B4BBA
:101E300022F4F81219400A430260E7E70000474223
:101E40008C38024000380240843802408838024012
:101E500000700040400E474200104742FFFCFF0F59
:101E60002DE9F0470E46050065D0DFF81481D8F85B
:101E70000000F7B200F00F00B04207D288F80070FF
:101E8000D8F8000000F00F00B04254D128683D4C53
:101E9000810712D5400703D5206840F4E050206048
:101EA0002878000703D5206840F46040206020684F
:101EB000A96820F0F000084320602878C0072DD0E2
:101EC000304968680839012812D0022813D0032845
:101ED00011D00968890700292DDA216821F0030152
:101EE00001432160FFF7EEFD814641F2883A0EE0A2
:101EF00009688903EFE709688901ECE7FFF7E2FD6C
:101F0000A0EB0901514502D90320BDE8F087206804
:101F1000696800F00C00B0EB810FEFD1D8F8001029
:101F2000404601F00F01B14207D90770006800F088
:101F30000F00B04201D00120E7E72878400705D51F
:101F40002068E96820F4E050084320602878000702
:101F500006D52068296920F4604040EAC10020606D
:101F600000F038F82168084AC1F30311515CC840F9
:101F70000649086006480068FFF7CCFD0020C4E76A
:101F8000003C024008380240A060000830000020F9
:101F9000280000200448054900680968044AC1F384
:101FA0008221515CC8407047300000200838024050
:101FB000B06000080448054900680968044AC1F394
:101FC0004231515CC8407047300000200838024060
:101FD000B0600008154810B5006810F00C021448F5
:101FE00013D01449042A0FD0082A0ED10F4C241FF5
:101FF0002268236802F03F025B0207D52068C0F325
:102000008810A0FB010106E0084610BD2168C1F35D
:102010008811A1FB00010023FEF744F92168C1F3F8
:102020000141491C4900B0FBF1F010BD08380240E5
:102030000024F400001BB7002DE9F84F04006ED017
:102040002078DFF84C93C007A9F104054AD009F1C4
:1020500004000168C1F38101012908D00068C0F3C0
:10206000810002280AD1D9F80000400206D528686C
:10207000800337D560680028E1D033E06068B0F5B0
:10208000803F10D0B0F5A02F286810D020F4803009
:102090002860286820F4802028606068A8B1FFF7D5
:1020A00011FD06460DE0286840F48030F4E740F466
:1020B00080202860F7E700BFFFF704FD801B64283D
:1020C00073D828688003F7D50CE0FFF7FBFC0646C1
:1020D00005E000BFFFF7F6FC801B6428F0D82868F5
:1020E0008003F7D42078DFF8AC8280074FF0000A35
:1020F0003ED5A748001D016811F00C0F08D00068FC
:10210000C0F3810002280BD1D9F80000400207D4A7
:102110002868800716D5E068012800D112E033E175
:10212000E068B8B10120C8F80000FFF7CBFC064614
:1021300005E000BFFFF7C6FC801B0228C0D8286856
:102140008007F7D52868216920F0F80040EAC1002F
:1021500028600DE0C8F800A0FFF7B4FC064604E0D4
:10216000FFF7B0FC801B02281FD828688007F7D42F
:102170002078000722D5864F87486169703771B192
:1021800001210160FFF79EFC064604E0FFF79AFC80
:10219000801B022809D838688007F7D50EE0C0F800
:1021A00000A0FFF78FFC064605E082E0FFF78AFCFF
:1021B000801B02287DD838688007F7D42078400734
:1021C00068D5DFF8CCB100270BF13C0BDBF8000041
:1021D000C0000BD4DBF8001041F08051CBF80010A8
:1021E000DBF80000012700F0805000906B4E306853
:1021F000C00510D4306840F480703060FFF762FC96
:10220000009005E0FFF75EFC0099401A022850D8C4
:102210003068C005F6D55E4EA0686C3601280FD038
:102220000528306810D020F001003060306820F0C0
:1022300004003060A068B8B1FFF744FC00900FE0E4
:10224000306840F00100F4E740F004003060F7E748
:10225000FFF738FC0099411A41F28830814266D874
:1022600030688007F4D50EE0FFF72CFC009007E003
:10227000FFF728FC0099411A41F28830814256D874
:1022800030688007F4D42FB1DBF8001021F08051C2
:10229000CBF80010A069C8B33D49091D0968C1F316
:1022A000810102294AD00228504607D0C8F86000B0
:1022B00000E03CE0FFF706FC04463BE04746C8F878
:1022C0006000FFF7FFFB064605E000BFFFF7FAFBE3
:1022D000801B02282BD828688001F7D4D4E9070195
:1022E0000843A16A2E4A490802EB0141626A41EAA9
:1022F0008211084394F82C1040EA0161C9F80010DB
:1023000001203866FFF7DEFB044606E03EE000BF32
:10231000FFF7D8FB001B022809D828688001F7D5F1
:1023200034E000BFFFF7CEFB001B022802D90320D8
:10233000BDE8F88F28688001F4D427E00128F7D0A1
:10234000D9F80000E26900F4800191421CD1226AB0
:1023500000F03F01914217D147F6C071626A014017
:10236000B1EB821F10D1A26A4FF0FF3300F440316D
:1023700003EB5202B1EB024F06D194F82C1000F09F
:102380007060B0EB016F01D00120D1E70020CFE7F2
:102390000438024000004742800E4742007000406F
:1023A0000000FFFF10B5040002D0607F10B106E00E
:1023B000012010BD00202077204600F039F80220CF
:1023C00060772168CA20486221685320486220460D
:1023D00000F04AFC30BB20688168144A11408160DB
:1023E0002168886862681043D4E904231A431043C3
:1023F00088602168E068086120680169228941EAF3
:1024000002410161204600F053FC58B921680A6C72
:1024100022F480220A6421680A6CA3691A430A64C0
:10242000012161772268FF21516210BDBFFF8FFF3C
:1024300010B58CB0044630216846FDF77DFF094990
:10244000206888420CD12020009000010A90684644
:10245000FFF7DCFB08B1FEF75DFD034901200860D2
:102460000CB010BD002800403C0E474270B5044639
:102470000068C16821F0A001C160FFF723FB054699
:102480004FF47A7607E000BFFFF71CFB401BB04219
:1024900001D9032070BD2068C0688006F4D50020F3
:1024A00070BD10B5401EB0F1807F01D3012010BD7A
:1024B0004FF0E02460610F21601700F053FE002010
:1024C000A06107202061002010BD70477047000008
:1024D000F8B5016804460868CA684B6910F00F0F28
:1024E0004FF000055AD003F0010602F4907737430D
:1024F00065D0C10705D0D10503D5216C41F001019C
:102500002164410705D5D90703D0216C41F00201B0
:102510002164810705D5D90703D0216C41F004015E
:102520002164010707D502F02001314303D0216C5B
:1025300041F008012164216C00293BD0800604D5BC
:10254000900602D5204600F090FC20684069216C7E
:10255000C0F3801001F00801014320462BD000F0A9
:102560005DFC20684069400621D52068143050E8A1
:10257000001F21F0400140E80012002AF5D1A06BB5
:10258000A8B16C490165A06BFFF757F9002811D07D
:10259000A06B016D01B0BDE8F040084783060ED581
:1025A00093060CD52046BDE8F84000F05EBC2046FE
:1025B000FFF78CFFF8BDFFF789FF2564F8BD266B98
:1025C0002023012E79D1C60677D5D60675D50868A1
:1025D000486800904869400640D5A16B086840688B
:1025E0000004000CEAD0A28D8242E7D9E085C869D8
:1025F000B0F5807F2DD020680C3050E8001F21F40A
:10260000807140E80012002AF5D12068143050E8AB
:10261000001F21F0010140E80012002AF5D12068D6
:10262000143050E8001F21F0400140E80012002A59
:10263000F5D184F83E30256320680C3050E8001F47
:1026400021F0100140E80012002AF5D1A06BFFF73D
:10265000ABF8A08DE18D401A81B229E0A08DE18D0B
:10266000401A81B2E08D0028A8D00029A6D02068A9
:102670000C3050E8002F22F4907240E80026002E23
:10268000F5D12068143050E8002F22F0010240E814
:102690000026002EF5D184F83E30256320680C30EA
:1026A00050E8002F22F0100240E80023002BF5D163
:1026B0002046FFF70AFFF8BDFFE705062BD51506F4
:1026C00029D594F83D002128F5D1A068B0F5805FA8
:1026D00001D12069B0B1206A411C216221680078D3
:1026E0004860E08C401E0004000CE084E3D12068C8
:1026F000C16821F08001C1602068C16841F04001DB
:10270000C160D8E7206A0088C0F308004860206AEA
:10271000801C2062E5E74006CDD55006CBD5CA68BF
:10272000204622F04002CA6084F83D3000F0FDF8F7
:10273000C1E700000D2E000870B5040004D094F825
:102740003D00002510B106E0012070BD84F83C502A
:10275000204600F023F8242084F83D002068C1685A
:1027600021F40051C160204600F0EAFB20680169B5
:1027700021F4904101612068416921F02A01416101
:102780002068C16841F40051C1602564202084F8AC
:102790003D0084F83E00002070BD000010B586B0FA
:1027A000044614216846FDF7C7FD18492068884291
:1027B00029D117480021026842F020020260006817
:1027C00000F02000059012481438026842F04002E0
:1027D0000260006800F0400005904FF484400090D3
:1027E0000220CDE9010103200390082004906946EE
:1027F0000848FFF747F8002205214720FFF7D4F9E2
:102800004720FFF7C3F906B010BD000000140140D7
:10281000443802400018024090F83E30202B0ED180
:1028200059B152B190F83C30012B08D0012380F807
:102830003C300023036300F009BC012070470220F4
:102840007047000010B50068074988420AD107495F
:10285000074800F042FABDE810400122034905484C
:10286000FFF7DABF10BD000000140140600B00202C
:1028700040080020FC0700202DE9F843044690F8AA
:102880003D001F4616460D4620284CD1C5B1BEB1AD
:1028900094F83C00012846D0012084F83C004FF019
:1028A0000008C4F84080212084F83D00FFF70AF9B1
:1028B000A6848146E684A068B0F5805F03D004E07A
:1028C0000120BDE8F883206928B12E465FF000059D
:1028D00084F83C800EE00026FAE78021204600F0D4
:1028E000D2FBA0B9AEB116F8010B21684860E08CAC
:1028F000401EE084E08C4B464FF000020097002819
:10290000EBD14FF04001204600F0BDFB30B1032079
:10291000D7E735F8020BC0F30800E6E7202084F87B
:102920003D000020CDE70220CBE77047FEE780ECBA
:10293000030AC160C0ED041A0121816170470000E3
:1029400080ED000A9FED040A80ED010A80ED020A85
:102950000C3080EC030A704700000000F0EE401AD3
:1029600090ED000AD0ED040A70EE200AC0ED010AD5
:1029700090ED050A30EE800A80EE801A80ED031A91
:1029800090ED020A71EEC01A01EE210AF7EE001A6C
:1029900031EEC11A80ED020A61EE200AC0ED000A94
:1029A00070470000144810B51249016003214160CE
:1029B00000214FF400228160C0E903124FF440125D
:1029C0004261017641768176C17601774177FEF7E3
:1029D0001EFD08B1FEF79EFA074801F017FD0648F4
:1029E000FEF78AFE002803D0BDE81040FEF792BA39
:1029F00010BD0000006400408C070020144810B592
:102A0000124901600321416000214FF400228160DE
:102A1000C0E903124FF4401242610176417681769B
:102A2000C17601774177FEF7F2FC08B1FEF772FA42
:102A3000074801F0EBFC0648FEF75EFE002803D0D5
:102A4000BDE81040FEF766BA10BD00000068004007
:102A5000B4070020074910B5054808600846FEF78E
:102A60007EFE002803D0BDE81040FEF753BA10BD2B
:102A7000003002401C00002010B596B01C22114905
:102A80006846FDF740FC0021684601F0E2FC0E4C70
:102A90000C491C2260601C3107A8FDF734FC0021A2
:102AA00007A801F0D6FC0749A0601C2238310EA807
:102AB000FDF729FC00210EA801F0CBFCE06016B068
:102AC00010BD00004C60000800000020F0B587B089
:102AD00014216846FDF730FC41480024016841F0AC
:102AE00040010160016801F040010591016841F079
:102AF00001010160016801F001010591016841F0E7
:102B000008010160016801F008010591016841F0C8
:102B100004010160016801F004010591016841F0C0
:102B200080010160016801F080010591016841F0B8
:102B300020010160016801F020010591016841F068
:102B400002010160016801F002010591016841F094
:102B5000100101600068234D00F010000590002274
:102B600040212846FEF7A8FF1F4F002202213846C9
:102B7000FEF7A2FF402000900126CDE901646946DE
:102B800028460394FEF77EFE0420CDE90004694642
:102B900016480294FEF776FE02250095CDE9016401
:102BA000694638460394FEF76DFE4FF4C070CDE9D8
:102BB0000005032602940820CDE9036069460C480D
:102BC000FEF760FE3002CDE9000502940720CDE952
:102BD000036069460748FEF755FE07B0F0BD0000E8
:102BE0003038024000140240001802400004024045
:102BF00000100240000C02400B4810B5094901606A
:102C000000217F22C0E90112FF22C0E903214161B6
:102C10008161FFF7C7FB002803D0BDE81040FEF735
:102C200079B910BD00280040DC0700200C4810B521
:102C30000A4901604FF4E1214160002181600C22CA
:102C4000C160C0E904128161C161FFF775FD002810
:102C500003D0BDE81040FEF75DB910BD001401407F
:102C6000FC070020FEE7FEE72DE9F041044600687E
:102C70000025C168490618D4C16841F08001C160CF
:102C8000FEF720FF06464FF47A78042707E000BFDE
:102C9000FEF718FF801B404501D9677701252068A2
:102CA000C068400601D4002DF2D02846BDE8F0816E
:102CB00070B5044600680025C16821F08001C1603C
:102CC00020688068800606D42046FFF7CFFB10B14D
:102CD000042060770125284670BD70B5087800256E
:102CE0000C460A280CD02C280CD0A1783C22B1FB31
:102CF000F2F302FB13122244491CA170D07070BD84
:102D0000A57010E0A570E01C00F03EFA51EC100B2D
:102D1000FDF7B6FC617804EB8102491C6170106418
:102D20006078062800D965703C21E01CBDE8704041
:102D3000FDF702BB08B502F0D5FF009005216846FB
:102D400002F07AFBFAE710B5FEF7C2FE02F0BCFF14
:102D5000012803D0BDE8104002F0EABC10BD00001D
:102D600030B593B030216846FDF7E6FA14210CA87F
:102D7000FDF7E2FA1F480025016841F0805101602B
:102D8000006800F0805011901B48016841F44041F8
:102D900001600068022400F4404011900920009076
:102DA0004FF4803001900120CDE9050480050790A3
:102DB00006200890A820CDE9090407200B9068465A
:102DC000FFF73AF908B172B6FEE70CA90F2081E8C7
:102DD00031004FF4A0500F904FF480501090052117
:102DE0000CA8FFF73DF8002801D072B6FEE713B03B
:102DF00030BD0000403802400070004002480168C9
:102E000041F470010160704788ED00E010B5806BFF
:102E10000021C185C184FFF759FB10BD01680C3149
:102E200051E8002F22F4907241E80023002BF5D1E5
:102E30000168143151E8002F22F0010241E800231B
:102E4000002BF5D1016B012909D101680C3151E842
:102E5000002F22F0100241E80023002BF5D12021A1
:102E600080F83E1000210163704708B590F83E10CD
:102E7000222901D0022008BD82684FF480539A4273
:102E800001D1016921B1816A9A421BD04AB10AE09D
:102E90000268816A5268C2F308020A80816A891C4A
:102EA00008E0026972B10268526802F07F020A709B
:102EB000816A491C8162C18D491E0904090CC185C2
:102EC00003D019E002685268F1E70168CA6822F08D
:102ED0002002CA600168CA6822F48072CA60016870
:102EE0004A6922F001024A61202180F83E10016BFC
:102EF000012903D0FFF7A6FC002008BD00210163D3
:102F000001680C3151E8002F22F0100241E8002343
:102F1000002BF5D101680A68D20602D50A68496813
:102F20000091818DFFF7D1FAE6E7000001B501239A
:102F30001A4669460148FFF79FFC08BDFC070020C0
:102F400070B5044600680169E26821F440511143FC
:102F500001612169A068E26908436169114308437E
:102F60002168CA6849F20C639A430243CA60206828
:102F70004169A26921F440711143416131492068DE
:102F8000884202D03049884202D1FFF713F801E0AD
:102F9000FFF700F8E2690023192164253226B2F513
:102FA000004F626828D0A0FB0101930F9200FDF74B
:102FB00079F90146B0FBF5F06FF01802504301EBD0
:102FC000800006EB0010B0FBF5F000F0F002B1FB62
:102FD000F5F002EB0012B1FBF5F06FF01803584367
:102FE00001EB800006EB0010B0FBF5F000F00F00E5
:102FF00021681044886070BDA0FB010192185B41FC
:10300000FDF750F90146B0FBF5F00201B1FBF5F018
:103010006FF01803584301EB800006EBC000B0FBD3
:10302000F5F000F0F80002EB4002B1FBF5F0584378
:1030300001EB800006EBC000B0FBF5F000F00700EC
:10304000D6E7000000100140001401408162828533
:10305000C28500210164222280F83E2080F83C10C5
:10306000016921B10168CA6842F48072CA600168CE
:103070004A6942F001024A610068C16841F02001DA
:10308000C160002070472DE9F041984617460E4672
:103090000446069D27E0681C25D02DB1FEF712FDE1
:1030A000A0EB0800A8421ED920680C3050E8001F91
:1030B00021F4D07140E80012002AF5D120681430C4
:1030C00050E8001F21F0010140E80012002AF5D16C
:1030D000202084F83D0084F83E00002084F83C0065
:1030E0000320BDE8F0812068006836EA000004D0C3
:1030F0000020B842CFD00020F3E70120F9E700001C
:103100000148FFF7E5B90000FC070020FEE703B423
:1031100001984100009850EAC12018BF04204A0DD0
:1031200018BF40F0010040F2FF72B2EB515F08BFE0
:1031300040F00200012808BF052002B0704741009E
:10314000080218BF04200A0E18BF40F001004FF01B
:103150007F4232EA010108BF40F00200012808BFA7
:10316000052070470907090E002804DB00F1E02064
:1031700080F80014704700F00F0000F1E02080F8A4
:10318000141D70470000000030B583B0044600F005
:1031900031FF9FED090B05468DED000B0022214606
:1031A0006846FDF7D6FA284600F03AFF9DED000B81
:1031B00003B030BD0000000000000000000000006F
:1031C00010B52F499FED2C1B2DED020B84B00598F7
:1031D00020F000408842D8BF9DED040B2DDD294929
:1031E000884209D1049840B94FF0010000F018FF5F
:1031F00000F022FE06B010BD05DB9DED040B00F0D3
:103200000FFE06B010BD68469DED040B00F020FADD
:1032100010F0030004BF9DED021B9DED000B0CD0D0
:1032200001280ED09DED021B9DED000B022817D04A
:10323000012000F05DFD06B010BD00F025FC06B0D9
:1032400010BD9DED021B9DED000B012000F050FD17
:1032500051EC100B81F0004106B041EC100B10BD99
:1032600000F012FC51EC100B81F0004106B041EC73
:10327000100B10BD00000000000000000000000066
:10328000FB21E93F0000F07F10EE101A08B5444A18
:103290006846B2EB410F28D94FF0E640B0EB410F42
:1032A00094BF00204FF0FF3000900098002861DBB1
:1032B00060EE000A10F0010F45D010F0020FDFEDB4
:1032C000391A9FED391A00EEE11ADFED381A40EE97
:1032D000811A21EEA01AF0EE400A40EE010A08BF62
:1032E000F1EE600AB0EE600A08BD314B21F00042F9
:1032F00093423CD911F0004FDFED2E0A20EE201A48
:10330000DFED2D0A19BF31EE601A71EE200A31EEA1
:10331000201A71EE600ABDEEE01A11EE100A9FED60
:10332000271A00F0030000EEC10A9FED251A009055
:1033300000EEC10A9FED231A00EEC10A9FED221A8A
:1033400000EEC10AB1E79FED211A9FED210A10F0AE
:10335000020F00EE810A9FED1F1A00EE801AB7EEF1
:10336000000A00EE810A18BFB1EE400A08BD00F065
:1033700097FD9AE710EE100A4000B0F17F4F3CBF76
:10338000B7EE000A08BD07D14FF0010000F048FE7B
:10339000BDE8084000F074BDBDE8084000F06CBD19
:1033A000B61F927E336D4C39DA82083CA0AA2ABE41
:1033B000490E494683F9223F0000004B0000C93FF7
:1033C00000A0FD390020A2331A61342CB93AB2BAF8
:1033D000CA9F2A3DDDFFFFBEB4EEE00AF1EE10FA0F
:1033E00001DCB0EE600A7047B4EEE00AF1EE10FACC
:1033F00001D3B0EE600A704710B52F499FED2C1B2A
:103400002DED020B84B0059820F000408842DCBF0F
:1034100000209DED040B32DD2849884209D1049833
:1034200040B94FF0010000F0FBFD00F005FD06B0D3
:1034300010BD05DB9DED040B00F0F2FC06B010BDE5
:1034400068469DED040B00F003F910F0030011D065
:10345000012818D09DED021B9DED000B02281AD00B
:1034600000F012FB51EC100B81F0004106B041EC72
:10347000100B10BD9DED021B9DED000B012000F017
:1034800037FC06B010BD9DED021B9DED000B00F05A
:10349000FBFA06B010BD012000F02AFC51EC100B25
:1034A00081F0004106B041EC100B10BD000000009F
:1034B0000000000000000000FB21E93F0000F07F59
:1034C00000B510EE101A2DED028B81B0524A6846FD
:1034D000B2EB410F2ED94FF0E640B0EB410F94BF55
:1034E00000204FF0FF3000900098B0EE408A002896
:1034F0006ADB10F0010F4BD068EE080A9FED471A07
:103500009FED470A00EE810A9FED461A10F0020F68
:1035100000EE801AB7EE000A00EE810A02BF01B089
:10352000BDEC028B00BD00BF01B0B1EE400ABDECA6
:10353000028B00BD3C4B21F00042934241D911F077
:10354000004FDFED3A0A20EE201ADFED390A19BFED
:1035500031EE601A71EE200A31EE201A71EE600A27
:10356000BDEEE01A11EE100A9FED321A00F00300D2
:1035700000EEC10A9FED301A009000EEC10A9FEDE7
:103580002F1A00EEC10A9FED2E1A00EEC10AABE71A
:1035900028EE080A9FED2B1ADFED2B0A10F0020F20
:1035A00040EE410A9FED291A00EE201A61EE000A52
:1035B000B0EE480A08EE200AB6D101B0BDEC028B8D
:1035C00000BD00F06DFC8FE718EE100A4000B0F16E
:1035D0007F4F0DD218EE100AFFF7B1FD042808BF87
:1035E00000F056FCB0EE480A01B0BDEC028B00BD05
:1035F00009D1012000F014FD01B0BDEC028B5DF893
:1036000004EB00F03DBC01B0B0EE480ABDEC028B0B
:103610005DF804EB00F030BCB61F927EB93AB2BA46
:10362000CA9F2A3DDDFFFFBE490E494683F9223F6E
:103630000000004B0000C93F00A0FD390020A2336C
:103640001A61342C336D4C39DA82083CA0AA2ABEA8
:103650002DE9F14F04462DED020B2DED088B8AB0BC
:103660009FEDE70B80ED020B139EE74826F0004527
:1036700085420ADC9DED120B002084ED000B0AB0A0
:10368000BDEC088B03B0BDE8F08FE0489FEDE0ABE8
:103690009FEDE1BBA84247DDE14F9FEDE39B9FED2E
:1036A000E48B9DED120B53EC1A2B51EC100B002EFA
:1036B0001CDDFCF7EDFE41EC100BBD4208D053ECD5
:1036C0001B2B51EC100BFCF7E3FEC4E900010BE0EF
:1036D00053EC192B51EC100BFCF7DAFE53EC182BC2
:1036E000FCF7D6FEC4E900010120C8E7FCF72FFE75
:1036F00041EC100BBD4208D053EC1B2B51EC100BCE
:10370000FCF725FEC4E900010BE053EC192B51EC4A
:10371000100BFCF71CFE53EC182BFCF718FEC4E949
:1037200000014FF0FF30AAE7C348A84279DB9DEDC6
:10373000120B51EC100B00F080FC41EC180B9FEDCC
:10374000C00B53EC102BFCF7A9FE9FEDBF1B53ECF5
:10375000112BFCF7FCFDFDF7A4FA0746FCF77FFFF1
:1037600041EC190B53EC1A2BFCF798FE53EC182B79
:10377000FCF791FE41EC180B53EC1B2B51EC190B91
:10378000FCF78CFEDFF8C8A241EC100B4FEA15588D
:103790000125FA4453EC102B51EC180BFCF778FE82
:1037A000032DC4E900013DD0C1F30A5005EB4511DA
:1037B000A8EB00001139814234DA0AEB051BB0EEA8
:1037C00048AA9BED000BF0EE68AA53EC102B51ECCD
:1037D000190BFCF763FE41EC1B0B51EC1A0B53EC7D
:1037E0001B2BFCF755FE41EC180B51EC1A0B53EC5C
:1037F000182BFCF74DFE53EC1B2BFCF749FE9BED01
:10380000020B41EC1A0B53EC102B51EC190BFCF78B
:1038100045FE53EC1A2BFCF73BFE41EC100B6D1CE4
:10382000B8E70EE0002EA8BF3846BFF628AF94EDEB
:10383000000B51EC100B81F00041C4E9000178420B
:103840001DE7C6F3130040F4801EC6F30A50A0F231
:10385000F530471100F01F05C5F12000DDF848B034
:1038600008900020069007900520EC467949002D2D
:1038700007EB0002794408BF51F8221009D051F833
:10388000223001EB8201AB404A68089922FA01F12B
:103890001943A1FB0E26A1FB0B131A449A4234BF15
:1038A0000123002303EB06080CEB8003D3E901A6F8
:1038B0000E448E4234BF0121002192448A4411B14A
:1038C000924502D903E0924501D2012100E0002196
:1038D000C3E901A641444CF82010011EA0F10100EB
:1038E000C4DC029800F10050850F0298DDE90367FF
:1038F0008000DDF81480FCF7B2FE41EC1A0B304674
:10390000FDF7C2F99FED541B53EC112BFCF7C6FDDC
:1039100041EC1B0B3846FDF7B7F99FED511B53ECFB
:10392000112BFCF7BBFD41EC180B4046FDF7ACF941
:103930009FED4D1B53EC112BFCF7B0FD41EC190B27
:1039400051EC180B53EC192BFCF701FD53EC1B2B1E
:10395000FCF7FDFC53EC1A2BFCF7F9FCCDE9080150
:10396000002008909DED080B53EC1A2B51EC100B26
:10397000FCF78EFD53EC1B2BFCF78AFD53EC182B48
:10398000FCF786FD53EC192BFCF785FD9FED381BEA
:1039900053EC112BFCF782FD9FED370B41EC180B1C
:1039A00053EC102B9DED080B51EC100BFCF776FD42
:1039B00053EC182BFCF7CBFC9FED310B41EC180BB3
:1039C00053EC102B9DED080B51EC100BFCF766FD32
:1039D00053EC182BFCF7BBFC41EC100B139810F0C8
:1039E000004F06D06D4251EC100B81F0004141ECCC
:1039F000100B284684ED000B41E60000000000009B
:103A00000000000000000000FB21E93F7CD90240DB
:103A100000004054FB21F93F3163621A61B4D03D8C
:103A2000FB21F93F000000000000601A61B4D03DA6
:103A30007370032E8A19A33BFB213941000000005B
:103A400083C8C96D305FE43F000000000000E03F24
:103A500052290000A0280000000000000000103ED5
:103A6000000000000000103C000000000000103AC0
:103A7000182D4454FB21F93D3326A611460B113C69
:103A800000000054FB21F93D10B52DED040B2DED88
:103A9000088B82B0B0EE419AF0EE619A0B9820F05C
:103AA00000449FED4BABB4F1795F11DA9DED0A0B49
:103AB00051EC100BFDF7F5F8002801BFB0EE4A0AF3
:103AC000F0EE6A0A02B0BDEC088B04BF04B010BD72
:103AD0009DED0A0B53EC102B51EC100BFCF7DEFCA8
:103AE00041EC180B3C480621B0EE480AF0EE680A9B
:103AF000784400F081F853EC182B51EC100BFCF7D4
:103B0000CDFC9DED0A0B41EC1B0B53EC192B51EC3A
:103B1000100BFCF7C3FC41EC190B53EC1B2B51ECC5
:103B2000180BFCF7BBFC53EC192BFCF7B1FC9FED19
:103B30002C0B41EC190B53EC102B51EC180BFCF730
:103B4000ADFC41EC100B2848844210DA53EC192BE1
:103B500051EC100BFCF79CFC53EC1A2BFCF79BFC74
:103B600041EC100B02B0BDEC088B04B010BD1F4837
:103B7000A042BCBF9FED1E1B8DED001B06DBA4F514
:103B800000100190002000909DED001B51EC100BE7
:103B900053EC112BFCF77CFC9DED000B41EC180B5A
:103BA00053EC102B51EC1A0BFCF772FC41EC1A0B86
:103BB00053EC192B51EC180BFCF76AFC53EC1A2B45
:103BC000FCF769FC41EC100BCCE7000000000000A2
:103BD000000000000000F03FC425000000000000CD
:103BE000000000000000E03F3333D33F0000E93F16
:103BF000000000000000D23F70B504462DED028B9E
:103C00004D1E00EBC500B0EE408AF0EE608A90EDEC
:103C1000000B35F0060017D053EC182B51EC100BAD
:103C2000FCF73CFC41EC100B6D1E04EBC50090ED65
:103C3000001B51EC100B53EC112BFCF788FB41ECF3
:103C4000100B35F00600E7D1022D36D0042D1CD024
:103C5000062D1CBFBDEC028B70BD53EC182B51EC34
:103C6000100BFCF71BFC94ED0A1B53EC112BFCF71B
:103C70006EFB53EC182BFCF711FC94ED081B53EC76
:103C8000112BFCF764FB41EC100B53EC182B51EC9F
:103C9000100BFCF703FC94ED061B53EC112BFCF707
:103CA00056FB53EC182BFCF7F9FB94ED040B53EC8B
:103CB000102BFCF74CFB41EC100B53EC182B51EC88
:103CC000100BFCF7EBFB94ED021B53EC112BFCF7F4
:103CD0003EFB53EC182BFCF7E1FB94ED001B53EC7F
:103CE000112BFCF734FBBDEC028B41EC100B70BDCB
:103CF00031B504462DED040B2DED0A8BB0EE41BA23
:103D0000F0EE61BA0B989DED0A0B20F00040B0F187
:103D1000795F0DDA51EC100BFFF7F9F9042808BFB1
:103D200000F09AF89DED0A0BBDEC0A8B05B030BD92
:103D300053EC102B51EC100BFCF7B0FB41EC180BC3
:103D40009DED0A0B53EC182B51EC100BFCF7A6FB66
:103D500041EC190B2C48B0EE480AF0EE680A052138
:103D60007844FFF749FF9FED2ACBB0EE40AAF0EE72
:103D700060AA9CB353EC1C2B51EC190BFCF78EFB87
:103D800041EC1C0B53EC1A2B51EC190BFCF786FB86
:103D90009FED210B41EC190B53EC102B51EC1B0B3D
:103DA000FCF77CFB53EC192BFCF772FB53EC182B44
:103DB000FCF774FB53EC1B2BFCF76AFB53EC1C2B3E
:103DC000FCF766FB9DED0A1B53EC112BFCF763FB24
:103DD000BDEC0A8B05B041EC100B30BDFFE753EC96
:103DE0001A2B51EC180BFCF759FB53EC1C2BFCF76E
:103DF000AEFA53EC192BFCF751FB9DED0A1B53EC6B
:103E0000112BFCF7A4FAE3E76C240000000000008B
:103E1000495555555555C5BF000000000000E03F0D
:103E200010B553EC102B51EC100BFCF790FA41EC51
:103E3000100B10BD000000009FED050B10B553ECFA
:103E4000102B51EC100BFCF79BFB41EC100B10BD41
:103E500000000000000000009FED050B10B553ECC2
:103E6000102B51EC100BFCF719FB41EC100B10BDA3
:103E7000000000000000001030EE000A7047000053
:103E8000DFED020A80EEA00A70470000000000008B
:103E90009FED020A20EE000A7047000000000010AB
:103EA0002DE9F0014FF07F42B2EB410F9FBF4FF081
:103EB000FF310160BDE8F00170474FF0004242EA77
:103EC0000123C1F3C752783A551112F01F0C434C2D
:103ED000CCF120067C44C1F3C752A2F178024FEA2C
:103EE000621204EB820254F8254008BFD2E9015661
:103EF00012D0556804FA0CF425FA06F73C4397688B
:103F000005FA0CF527FA06F8D26807FA0CFCF2401D
:103F100045EA08054CEA0206A4FB034CA5FB035244
:103F2000A6FB03631D449D4234BF012600261319DE
:103F3000334416B1934202D903E0934201D20122E5
:103F400000E00022624402F1200C9206DC0C42EAFE
:103F5000443200EE102A5B03DFED210AF8EEC01AAE
:103F600000EE103A4FEA9C1C11F0004FB8EE400AE8
:103F7000C0F800C020EE201A00EE105ADFED190A3A
:103F8000B8EE400A20EE200A71EE810A70EE800A37
:103F900010EE902A02F500626FF30B0200EE902AF9
:103FA00070EEE11A31EEC11ADFED101A30EE411A4F
:103FB0009FED0D0A20EE800A01EE210A9FED0C1AFA
:103FC00000EE810A04BFBDE8F0017047CCF18051DA
:103FD0000160BDE8F001B1EE400A7047D822000050
:103FE000000000360000802C22AAFD29DB0FC92F1B
:103FF0000000C92F0148006870470000B000002091
:1040000002E008C8121F08C1002AFAD170477047A1
:10401000002001E001C1121F002AFBD170470000FF
:104020000149086070470000B000002030380A28BD
:1040300001D2012070470020704782B0CDE9000115
:1040400021F0004001909DED000B02B051EC100BEF
:104050007047012131EE601A814070EE600A491EFE
:1040600000EE101AB8EEC00A20EE800AC0EE010A77
:10407000BDEEE00A10EE100A7047000070B52DED9D
:10408000108B9FED49BB9FED4ACB9FED4BDB9FED26
:104090004CEB9FED4DFB9FED4E9B9FED4FAB9FED8E
:1040A000501B51EC100B53EC112BFCF7F7F941ECC2
:1040B000180B9FED4D0B53EC102BFCF7EFF90D4651
:1040C000044645EC100BFFF797F953EC1A2B51EC13
:1040D000100BFCF7E3F941EC1A0B45EC104BFFF722
:1040E0006FF853EC192B51EC100BFCF7D7F941EC9E
:1040F000190B9FED3F0B51EC180B53EC102BFCF7F9
:10410000CDF90D46044645EC100BFFF775F953EC5D
:104110001F2B51EC100BFCF7C1F941EC1F0B45ECC8
:10412000104BFFF74DF853EC1E2B51EC100BFCF726
:10413000B5F941EC1E0BB0EE480AF0EE680AFFF745
:104140005BF953EC1D2B51EC100BFCF7A7F941EC7C
:104150001D0BB0EE480AF0EE680AFFF731F853EC99
:104160001C2B51EC100BFCF799F953EC1B2BFCF7B3
:10417000EEF853EC1D2BFCF7EAF853EC1E2BFCF782
:10418000E6F853EC1F2BFCF7E2F853EC192BFCF785
:10419000DEF853EC1A2BFCF7DAF8FCF771FABDECF9
:1041A000108B00EE100A70BDBE30992A1895E8BF3A
:1041B000E7FBA9F1D24DE23FDCD781734694C6BF3D
:1041C000CE1951DA1B7CC13FA52C431CEBE2A6BFE4
:1041D000C1CAA145B6F39DBF3BDF4F8D976ECA3F65
:1041E000F0A7C64B378902400000000000000840DD
:1041F000000000000000004070B5B2EE0E0A2DED88
:10420000028B044680ED020AB2EE040A80ED030A36
:104210009FED1B0A9FED1B8A80ED000A0020606164
:10422000A061E06184ED040A84ED010AC4F8800114
:10423000401EDFED158A0025C4F8840105EB45001A
:1042400000EBC50004EBC0002C30FCF765FE05EB6D
:10425000450004EBC000B6EE001AF0EE480AB0EEDE
:10426000680A00F59A70FEF76BFB94ED050A6D1C69
:1042700084ED5F0A032DE1DBBDEC028B70BD000015
:10428000000000006F12833A0AD7A33C034610B522
:1042900088185C690460121D88189C690460121DEE
:1042A0008818DC690460101D0A181C681460001D61
:1042B0000A185C681460001D0A189C681460001DD0
:1042C0000A18DC68001D146001441A690A60001DA8
:1042D00010BD80ED041AC0ED021A80ED032A80ECB7
:1042E000020A70472DED028BFDF7FAFBFEF738FD51
:1042F000FEF7ECFBFEF756FBFEF798FCFEF7AAFB79
:10430000FEF77CFBFEF778FC3248FFF775FF32487A
:10431000FFF772FF002602213048FCF709FE022158
:104320002F48FCF705FE0120FCF7DAFD01222D499C
:104330002D48FEF771FA2D4F9FED2D8A254D002453
:1043400004EBC40000EB041005EB001104EB440087
:1043500000EBC40007EB0010B0EE481AF2EE040ABE
:10436000B2EE040AFCF720FD641C022CE8DBFEF729
:1043700083FB00F069F81F4FDFED1F8A9FED1F8A56
:104380004FF47A785FF0000404EBC40000EB0410F3
:1043900005EB0010D0ED5F1AF5EEC01AF1EE10FA41
:1043A0000DD0C4EBC40007EBC0004146B0EE681A64
:1043B000F0EE480AB7EE000AFEF7B9FA761C641C64
:1043C000022CE1DB00F064F90A20FDF749FA002E27
:1043D000F8D1D7E740080020D00900208C07002042
:1043E000B4070020600B0020FC070020D00B002049
:1043F000CDCCCC3D300D002003F8AB410C02AF40DA
:1044000001460020842900D0C81C704700B50D4A21
:1044100001688BB01268914201D1002100E00E21A9
:10442000059100210122CDE906120091019102912E
:10443000039104910E21CDE908216946FCF7EEFDB8
:104440000BB000BD8C07002010B501F07DF80020F6
:1044500010BD7FB50D4604464169B0F9080081B131
:10446000A16971B1FFF7CCFFD4E905128DE807000F
:10447000D4E900102B46226901F0FBFB039004B045
:1044800070BDFFF7BDFF03A9CDE90001208A2B46CF
:1044900082B2D4E9001001F0BFFB012801D0002056
:1044A000EDE70398EBE7000010B59FED2D1B51ECF5
:1044B000100B2DED088B53EC112B9FED228ADFEDB5
:1044C00022BA9FED229A9FED22BADFED22AA9FED3C
:1044D00022AADFED229AFBF7E1FFFCF7D1F808EE04
:1044E000900AB0EE680AFEF7CFFE00EE2B8AB0EE1F
:1044F000680AFEF7E5FF00EE098AB0EE000A28EE32
:10450000809AB0EE490AFEF7BFFE00EE0B8AB0EECD
:10451000490AFEF7D5FF00EE2A8AB0EE080A68EED7
:10452000808AB0EE680AFEF7AFFE00EE0A8AB0EEAF
:10453000680AFEF7C5FF00EE298AB0EE480ABDEC16
:10454000088B10BD228E95BE92AE19BDF1F44A3E85
:10455000EF552B3D9817A03D25CCB43D1D03B23C33
:1045600000000080BE9F03400FB4024670B5DDED31
:10457000050ADFED422AB0EE620AFEF72DFF9FED3D
:10458000401AF0EE410AFEF72FFFF0EE403ADDED63
:10459000060ABBEE0E0AFEF71FFFF3EE0E0AFEF749
:1045A00023FF9FED384AB0EE403ADDED070AB0EE4A
:1045B000440AFEF711FFDFED344AF0EE640AFEF71D
:1045C00013FFF0EE401ADDED080AB0EE440AFEF7E4
:1045D00003FF9FED2E5AF0EE450AFEF705FFB0EE01
:1045E000402ADDED090ABAEE0E0AFEF7F5FEF2EEFC
:1045F0000E0AFEF7F9FEF0EE405A1020F0EE620AC5
:10460000B0EE630AFFF725FD05460C20B3EE0E1A47
:10461000FBEE0E0AB0EE430AFFF71BFD04460C202A
:10462000B0EE641AF0EE440AB0EE610AFFF711FD35
:1046300003460C20B0EE451AF0EE440AB0EE420AF2
:10464000FFF707FD06460C20B2EE0E1AFAEE0E0A30
:10465000B0EE650AFFF7FDFC290A117055702109BB
:104660009170210141EA1321D17013713109517107
:10467000010A9171D07170BC5DF814FBDA0F49C169
:10468000DA0F4941000000000000FA430000C84270
:10469000024A03490348FCF7B3BB0000400800206E
:1046A000600B0020D00B00202DE9F041184C0F4684
:1046B0000546E6682068001D00F08BFD38B92068CB
:1046C00090F82C1001208840216981432161681CE9
:1046D00007D137B12168BDE8F0410E48091D00F04F
:1046E000C7BD20683544B5424560216805D2A06B3E
:1046F000BDE8F041091D00F0A3BD606B091D00F08D
:104700009FFDA06A854200D2A562BDE8F08100004D
:1047100034000020BC0E00202DE9F041054600F0D9
:10472000B3FD2E4CA068401CA06020682C4F10B137
:10473000606940B32DE02560A068012829D10026DA
:1047400006EB860007EB800000F06CFD761C072E60
:10475000F6D323488C3000F065FD2148A03000F0EE
:1047600061FD1F48B43000F05DFD1D48C83000F009
:1047700059FD1B48DC3000F055FD19488C30606352
:104780001430A06305E02068E96AC06A884200D856
:104790002560606A401C6062E96A012022698840E5
:1047A0001043206101EB810007EB8000291D00F020
:1047B0005FFD00F089FD606900280CD02068E96A7F
:1047C000C06A884207D207494FF080500860BFF3A3
:1047D0004F8FBFF36F8FBDE8F081000034000020E1
:1047E000E00D002004ED00E038B500F04DFD104C68
:1047F0002068C8B90F4800F015FD0E48143000F0CD
:1048000011FD0C48E060143020610A4B0020C03BD1
:10481000009003F148020C210A2000F09FFF206065
:1048200010B105A100F0D2FDBDE8384000F04CBD4C
:1048300070000020900F0020546D725100000000A5
:1048400030B4026C0B46002A0BD0C1681144C16021
:104850008468A14201D30168C16030BC1846FBF7EF
:1048600052BD30BC70472DE9F041856B17460446B8
:104870000026026C82B1C7B1E068FBF744FDE16835
:10488000206C091AE1602268914202D2A168081ADC
:10489000E060022F16D017E02068A8B9A06801F0E8
:1048A0008DFA06460020A0600EE06068FBF72BFD45
:1048B000216C606808446060A168884204D3206865
:1048C000606001E005B16D1E6D1CA5633046BDE85A
:1048D000F08110B5044690F8510058B101280CD071
:1048E00002280FD0502080F31188BFF34F8FBFF301
:1048F0006F8FFEE7206B00F0FBFC2046BDE8104008
:1049000000F0F6BC10BD000010484FF47051420793
:1049100006D0C01D0D4920F00700411AC1F57051A5
:104920000B4A00230144C2E900030839183A21F078
:10493000070111604B600B600B1AC0E90013936014
:104940004FF000405360506170470000B80F0020E6
:104950009C000020144E154CA6F1C8074FF080585B
:10496000DFF84C9012E000BF00F08EFCF068C568E4
:10497000281D00F02EFCA068401EA0606068401E4C
:10498000606000F0A1FC2846FFF7A3FF60680028E4
:10499000EAD138680128F9D9C9F80080BFF34F8FF0
:1049A000BFF36F8FF2E70000A80E00203400002054
:1049B00004ED00E00346009829B10260C0E90F3120
:1049C000012100F0FFBE0060F8E72DE9F0479A46AC
:1049D000DDE9098481466FF00303206B03EB82025B
:1049E0001044089E20F00707780707D0502080F376
:1049F0001188BFF34F8FBFF36F8FFEE7002561B1C2
:104A0000002023180A5C83F834200A5C12B1401C91
:104A10001028F6D384F8435001E084F83450072E70
:104A200000D30626E662C4E91165201D00F005FCEE
:104A300004F1180000F001FC2461C6F10700646273
:104A4000A061E56484F8505052464946384600F06B
:104A500055FA2060B8F1000F01D0C8F80040BDE859
:104A6000F087000030B5114900E011460A68824223
:104A7000FBD34B685C18844203D1406818444860FB
:104A8000084643681C18944209D1084C183C246815
:104A9000A24209D052681A4442600A681268026051
:104AA000814200D0086030BD0460F9E79C0000201E
:104AB00070B5002441600B4D0061914206D8D11AB7
:104AC0008269914206D2011D286907E09A4203D209
:104AD000994201D3012403E0011DE86800F0B0FB16
:104AE000204670BD7000002010B5044600F0CCFBDD
:104AF000A06B28B15FF0000400F0E6FB204610BD7B
:104B00000124F9E730B587B0394D67E004980028F3
:104B100064DB069C606910B1201D00F05AFB03A8FD
:104B200000F0D8F8024604980A2857D2DFE800F0CF
:104B30000505052D334A05052D3394F8240040F072
:104B4000010084F824000599A069059B01442046D2
:104B5000FFF7AEFF68B3216A2046884794F8240027
:104B600040073BD5002000900598A169002342181A
:104B70001946204601F03AFAD8B9502080F311883E
:104B8000BFF34F8FBFF36F8FFEE714F8240F20F0B1
:104B90000100207022E094F8240040F0010084F825
:104BA00024000598A06128B1811813462046FFF71C
:104BB0007FFF13E0502080F31188BFF34F8FBFF3C6
:104BC0006F8FFEE794F82400810703D4204600F09D
:104BD0008FFB03E020F0010084F82400002204A9E8
:104BE000286800F043FF002890D107B030BD0000D6
:104BF000700000202DE9FC410F46054600F0E8FC5E
:104C000001A800F067F80446019818B101F05CF9BA
:104C1000BDE8FC81254EAFB130690068D0B30027F4
:104C2000291B3A46306800F0E5FB01F04DF90028F9
:104C3000EED11F494FF080500860BFF34F8FBFF394
:104C40006F8FE5E7A542EBD801F03EF9F068274603
:104C5000C068C468201D00F0BCFA94F82400410725
:104C600019D5A0692B4641193A462046FFF720FF87
:104C7000A8B100200346014600902A46204601F0D4
:104C8000B5F960B9502080F31188BFF34F8FBFF39F
:104C90006F8FFEE707E020F0010084F82400216A0E
:104CA00020468847B4E70127BAE7000070000020DB
:104CB00004ED00E00648416B096829B1416BC96801
:104CC000C9684968816270474FF0FF31FAE7000018
:104CD0003400002070B5054601F004F8064E044685
:104CE000B068844203D200F009F8012000E00020FF
:104CF00028602046B46070BD70000020F8B5194DE2
:104D000020E0C068C4680668201D00F062FA216ACD
:104D10002046884794F82400400713D5A069304402
:104D2000B04206D924616060211DE86800F088FA6D
:104D300008E000200346014600903246204601F07C
:104D400055F938B1E86801680029DAD12969C5E95F
:104D50000310F8BD502080F31188BFF34F8FBFF3CD
:104D60006F8FFEE77000002008484068401C4FF03D
:104D7000500080F3118804D0BFF34F8FBFF36F8FC3
:104D8000FEE7BFF34F8FBFF36F8FFEE7A400002055
:104D9000074CE068016841B1C0680021D0F800000C
:104DA000FFF728FFFFF7AEFEF3E701210020F7E74A
:104DB000700000202DE9F041044600F065FA94F9F6
:104DC000455004F1240609E0606A48B1304601F01C
:104DD00041F808B100F07EFB6D1E6DB2002DF3DCD2
:104DE0004FF0FF3684F8456000F06EFA00F04CFAA0
:104DF00094F9445004F1100709E0206948B138469D
:104E000001F028F808B100F065FB6D1E6DB2002DB1
:104E1000F3DC84F84460BDE8F04100F055BA0000CE
:104E20002DE9F0410546002700F0D2FB324E3068F4
:104E300008B9FFF769FD706905424ED1C5B3083561
:104E400068070ED005F00700C0F1080005446807A8
:104E500007D0502080F31188BFF34F8FBFF36F8FBF
:104E6000FEE72DB37068854237D8234818300146D5
:104E70000C6801E020460C466168A94202D2216814
:104E80000029F7D131688C4227D00768216801607A
:104E900060680837411B10290FD96019420708D0F4
:104EA000502080F31188BFF34F8FBFF36F8FFEE761
:104EB00013E041606560FFF7D5FD61687068401AD6
:104EC0007060B268904200D2B06070690143002007
:104ED000C4E90001F068401CF06000F0F5FF7807BD
:104EE00007D0502080F31188BFF34F8FBFF36F8F2F
:104EF000FEE73846BDE8F0818400002010B5031FAE
:104F00004FF080741C601B1F21F001011960191FF4
:104F1000044B0B6014390A60091F6FF00202443819
:104F20000A6010BD694D00082DED068BADF5027DC0
:104F300000F0D8FE00259FED61ABDFF888B1B0EE40
:104F40004A8AF0EE6A8ADFED609ADFF880A18190EC
:104F5000DBF8000018B15B4F0024103740E0B0EEE2
:104F60004A8AF0EE6A8AF3E7CCB34FF0FF36B0EE30
:104F7000480AF0EE680AFFF797FA00BF57F82400D6
:104F8000B0EE409AA84233DC0A2D31DC04EBC400B9
:104F900000EB041104EB440000EBC4024C480AEBA4
:104FA000011100EB02108946804600F005F900EE81
:104FB000106A99ED0A1A4046B8EEC00A60EE090A76
:104FC00000EE106AB8EEC00A21EE000AB0EE691ACF
:104FD000FBF7C0FE49464046FBF7ACFE20E0FFE78A
:104FE0000126B0EE480AF0EE680AFFF747F8C5E779
:104FF000A84215DD00EE106A04EBC400F0EE690A69
:10500000B8EEC00A00EB04110AEB0110B1EE042A5D
:1050100020EE090AF2EE041AB0EE601AFFF759F911
:10502000641C022CA0DB002456464FF4C27800BF5B
:1050300004EBC40000EB041006EB001707F10C01B1
:1050400042466846FBF75FF997E80E0007F5C47023
:10505000FFF78AFA641C022CEADB01221D491E4874
:10506000FBF728FF01221D491D48FBF723FF802184
:1050700061A8FBF761F9002261A91448FFF706F95E
:10508000C2B2144861A90830FFF700F9C1B261A8A3
:1050900000F02CF80A2D01DD002500E06D1C9FEDCD
:1050A000110B51EC180B53EC102BFBF750F941ECA2
:1050B000180B012181A800F0BFF949E700000000AA
:1050C0000000000000000020000000004008002058
:1050D000D00B0020C80900208C070020580B0020AE
:1050E000B4070020FCA9F1D24D62503F70B50646CE
:1050F0000D463A20FDF71AFF2846FDF717FF00245A
:1051000003E0305DFDF712FF641CAC42F9DB0D20BB
:10511000FDF70CFFBDE870400A20FDF707BF01EE68
:10512000100A70EEC00A0120B8EEC11A8840401E75
:1051300021EE201A00EE900AF8EEE01AC1EE210AE4
:1051400030EE800A7047000010B5024631F81D0F9E
:10515000DFED170A8B78CC781B0143EA1413097929
:1051600004F00F0441EA042440BA10219FED110A13
:10517000FFF7D5FFF0EE400A0C21B0EE602AF3EE07
:105180000E0ABBEE0E0A1846FFF7C9FFF0EE400A02
:105190000C21F0EE602AF2EE0E0ABAEE0E0A20465C
:1051A000FFF7BDFF82ED020A82EC022A10BD00006B
:1051B000DA0F4941DA0F49C191ED080A80ED120A70
:1051C00091ED090A80ED100A91ED0A0A80ED0D0AB1
:1051D0007047D0E9013201699A60D0E901235A6031
:1051E0004A68824201D182684A60002202610868EE
:1051F000401E086008687047034B036003F15400C9
:105200000860802010607047B4000020044B0360E9
:1052100003F1540008604FF4807010607047000084
:105220000803002000F108014FF0FF32C0E901122D
:10523000C160016100210160704700210161704778
:1052400030B50B685A1C02D000F1080202E0026976
:1052500004E02246546825689D42FAD953684B60A1
:1052600099608A60516008610168491C016030BD25
:1052700042684A6093688B609368596091600861E6
:105280000168491C01607047502080F31188BFF30A
:105290004F8FBFF36F8F0A494868401C4860012850
:1052A0000CD10848006810F0FF0F07D0502080F3A1
:1052B0001188BFF34F8FBFF36F8FFEE77047000079
:1052C000A400002004ED00E00849486828B1401E11
:1052D000486001D180F311887047502080F3118815
:1052E000BFF34F8FBFF36F8FFEE70000A4000020D5
:1052F00070B500282AD0164DA0F1080460686969CD
:10530000084207D1502080F31188BFF34F8FBFF3BD
:105310006F8FFEE722683AB1502080F31188BFF307
:105320004F8FBFF36F8FFEE78843606000F050F946
:1053300060686968084468602046FFF793FB286945
:10534000401C2861BDE8704000F0BEBD70BD00008B
:10535000840000204FF0E0200021016181610549B7
:105360004FF47A720968B1FBF2F1491E41610721DD
:10537000016170473000002010B5FAF77DFF114938
:1053800010280ED300F1E02090F8F0030A78904244
:1053900007D2502080F31188BFF34F8FBFF36F8F78
:1053A000FEE709480068896800F4E060884207D990
:1053B000502080F31188BFF34F8FBFF36F8FFEE74C
:1053C00010BD0000A40000200CED00E010B5084B5B
:1053D000002200BF53F832401CB1521C082AF9D3F6
:1053E00010BD43F8321003EBC201486010BD00004D
:1053F000A00D002070B515460E460446FFF744FF89
:1054000094F944100020491C01D184F8440094F917
:105410004510491C01D184F84500FFF755FFA06BEA
:1054200028B92A46314604F1240000F071F82046DC
:10543000BDE87040FFF7BEBC70B50D4604000BD050
:1054400095B11E4A106BB8B1502080F31188BFF39C
:105450004F8FBFF36F8FFEE7502080F31188BFF3AB
:105460004F8FBFF36F8FFEE7502080F31188BFF39B
:105470004F8FBFF36F8FFEE700F0AAF8D268236862
:105480005919934204D98B420AD9914202D807E0B4
:105490008B42FAD9881A21600021FFF705F900E054
:1054A000216000F011FD002807D105494FF0805020
:1054B0000860BFF34F8FBFF36F8F70BD34000020C3
:1054C00004ED00E002490A6A0260C9684160704761
:1054D0003400002001490120C861704734000020D9
:1054E00010B50C4650B1094909681831FFF7A8FEFC
:1054F0002046BDE810400121FFF7D6B8502080F3C8
:105500001188BFF34F8FBFF36F8FFEE73400002089
:1055100070B514460D4668B10A4909681831FFF79D
:10552000A7FE0CB14FF0FF3521462846BDE870407C
:10553000FFF7BAB8502080F31188BFF34F8FBFF345
:105540006F8FFEE73400002030B587B0002403944D
:1055500005AA04A903A80494FFF74EFEDDE90301A0
:105560000094CDE90110002315A11748059A00F019
:1055700080FB164D0028E8621FD000F007FD0128CF
:1055800009D0401C19D1502080F31188BFF34F8FF0
:10559000BFF36F8FFEE7502080F31188BFF34F8F6A
:1055A000BFF36F8F4FF0FF30A86201206861EC609D
:1055B00007B0BDE8304000F041B807B030BD000092
:1055C00049444C45000000005549000834000020C3
:1055D0000248016B491C0163704700003400002041
:1055E0001448016B11B10121C16170470021C161F3
:1055F0000169B1FA81F1C1F11F0101EB81020E498C
:1056000051F822306BB101EB820101F108034A68C5
:1056100052684A609A4201D152684A60D16801607A
:105620007047502080F31188BFF34F8FBFF36F8F07
:10563000FEE7000034000020E00D00201CB53748D4
:105640000168374A914207D1502080F31188BFF397
:105650004F8FBFF36F8FFEE700683149491E8842C4
:1056600007D1502080F31188BFF34F8FBFF36F8FA6
:10567000FEE72C4908780190FF20087008788DF823
:1056800000009DF800009DF8002000F0F00090421E
:1056900007D0502080F31188BFF34F8FBFF36F8F77
:1056A000FEE79DF80000204C00F05000207007201D
:1056B000A06005E09DF8002052008DF80020401EFB
:1056C0009DF800201206F5D4A060032807D05020D2
:1056D00080F31188BFF34F8FBFF36F8FFEE74FF456
:1056E0004070A060019808700C482030016841F4B7
:1056F00070010160016841F070410160FFF72AFE0E
:1057000000206060FAF780FD0848016841F04041E0
:105710000160FAF765FD00201CBD000000ED00E00F
:1057200071C20F4100E400E0A400002034EF00E06B
:1057300010B5502080F31188BFF34F8FBFF36F8FE8
:1057400000F0D6FA18B104494FF0805008600020EC
:1057500080F3118810BD000004ED00E038B5049D11
:1057600018B153B1CAB181B120E0502080F3118843
:10577000BFF34F8FBFF36F8FFEE7502080F3118888
:10578000BFF34F8FBFF36F8FFEE7502080F3118878
:10579000BFF34F8FBFF36F8FFEE739B1502080F317
:1057A0001188BFF34F8FBFF36F8FFEE748241C466D
:1057B000012384F846302B460094FFF7FBF820467F
:1057C00038BD000070B50D46040025D0FFF75CFD24
:1057D000D4E90F20216802FB0011A1600021A16320
:1057E000216861600A46D4E90F01401E00FB0121D7
:1057F000E16021464FF0FF3001F8440F487004F19A
:1058000010008DB1FFF70EFD04F12400FFF70AFD33
:10581000FFF75AFD012070BD502080F31188BFF3BF
:105820004F8FBFF36F8FFEE721690029F0D000F0A2
:1058300011FB0028ECD004494FF080500860BFF302
:105840004F8FBFF36F8FE3E704ED00E02DE9FF47D3
:1058500082B01D468A464FF00008040003D0BAF11A
:10586000000F08D011E0502080F31188BFF34F8F54
:10587000BFF36F8FFEE7206C38B1502080F31188A2
:10588000BFF34F8FBFF36F8FFEE7022D0AD1E06B9E
:10589000012807D0502080F31188BFF34F8FBFF34A
:1058A0006F8FFEE700F010FA3F4F4FF000094FF006
:1058B000805648B9049838B1502080F31188BFF35E
:1058C0004F8FBFF36F8FFEE7FFF7DEFCA06BE16B3E
:1058D000884207D3022D05D00498D0B1B8F1000F4B
:1058E0001AD01EE02A4651462046FEF7BCFF616AE8
:1058F00019B104F1240000F0ADFA20B13E60BFF30D
:105900004F8FBFF36F8FFFF7DFFC012006B0BDE8BC
:10591000F087FFF7D9FC22E06846FFF7D3FD4FF090
:105920000108FFF7D1FCFFF753FEFFF7ADFC94F938
:105930004400401C01D184F8449094F94500401C77
:1059400001D184F84590FFF7BFFC04A9684600F038
:1059500029F930B12046FFF72DFA00F0B5FA002002
:10596000D4E7FFF791FCA06BE16B884213D1FFF7FE
:10597000ABFC04F110000499FFF7B2FD2046FFF7DD
:1059800019FA00F0A1FA00289ED13E60BFF34F8FB4
:10599000BFF36F8F98E7FFF797FC2046FFF70AFAEF
:1059A00000F092FA90E7000004ED00E02DE9F047E6
:1059B0001F4690468946040003D0B9F1000F08D075
:1059C00011E0502080F31188BFF34F8FBFF36F8F2A
:1059D000FEE7206C38B1502080F31188BFF34F8F61
:1059E000BFF36F8FFEE7022F0AD1E06B012807D0CB
:1059F000502080F31188BFF34F8FBFF36F8FFEE706
:105A0000FFF7BAFC5020EFF3118680F31188BFF343
:105A10004F8FBFF36F8FA06BE16B884206D3022FCD
:105A200004D0002086F31188BDE8F08794F9455032
:105A3000A06B3A4649462046FEF715FF681C04D085
:105A40006D1C84F845500120ECE7606A0028FAD00C
:105A500004F1240000F0FEF90028F4D0B8F1000FA2
:105A6000F1D00121C8F80010EDE700002DE9F7475B
:105A7000002683B08A46040003D0BAF1000F08D094
:105A800011E0502080F31188BFF34F8FBFF36F8F69
:105A9000FEE7206C38B1502080F31188BFF34F8FA0
:105AA000BFF36F8FFEE700F00FF9DFF8F4804FF0DF
:105AB00000094FF0805748B9059838B1502080F35D
:105AC0001188BFF34F8FBFF36F8FFEE7FFF7DCFB4B
:105AD000A56BC5B151462046FEF7B2FE6D1EA5630B
